:020000040800F2
:1000000000040020E1010008790E00087D0E0008C0
:10001000D10E00087D0E0008A50E0008E3010008BF
:10002000E3010008E3010008E3010008792F00085C
:10003000E3010008E3010008E3010008E301000810
:10004000E3010008E3010008E3010008E301000800
:10005000E3010008E3010008D93100080532000877
:10006000313200085D32000889320008E3010008DF
:10007000E3010008E3010008E3010008E3010008D0
:10008000E3010008E3010008E3010008E3010008C0
:10009000E3010008E3010008E3010008B5320008AD
:1000A000E3010008E3010008E3010008E3010008A0
:1000B000F52F0008E3010008E3010008E301000850
:1000C000E3010008E3010008E3010008E301000880
:1000D000E3010008E3010008E3010008E301000870
:1000E0001D330008E3010008E3010008E3010008F4
:1000F000E3010008E3010008E3010008E301000850
:10010000E3010008E3010008E3010008E30100083F
:10011000E3010008E3010008E3010008E30100082F
:10012000E3010008E3010008E3010008E30100081F
:10013000E3010008E3010008E3010008E30100080F
:10014000E3010008E3010008E3010008CD260008F0
:10015000E3010008E3010008E3010008E3010008EF
:10016000E3010008E3010008E3010008E3010008DF
:10017000E3010008E3010008E3010008E3010008CF
:10018000E3010008E3010008E3010008E3010008BF
:10019000E3010008E3010008E3010008E3010008AF
:1001A000E3010008E3010008E3010008E30100089F
:1001B000E3010008E3010008E3010008E30100088F
:1001C000E3010008E3010008E3010008E30100087F
:1001D000E3010008E3010008E3010008E30100086F
:1001E00002E000F000F8FEE772B6394880F30888B4
:1001F000384880F3098838484EF60851CEF200019D
:10020000086040F20000CCF200004EF63471CEF2ED
:1002100000010860BFF34F8FBFF36F8F40F2000003
:10022000C0F2F0004EF68851CEF200010860BFF334
:100230004F8FBFF36F8F4FF00000E1EE100A4EF6C4
:100240003C71CEF200010860062080F31488BFF3F1
:100250006F8F01F003FF02F025FE4FF055301F496C
:100260001B4A91423CBF41F8040BFAE71C49194A6A
:1002700091423CBF41F8040BFAE71A491A4A1B4B5A
:100280009A423EBF51F8040B42F8040BF8E70020F5
:100290001749184A91423CBF41F8040BFAE701F0B4
:1002A000E1FE02F05BFE144C144DAC4203DA54F84C
:1002B000041B8847F9E700F03FF8114C114DAC42A0
:1002C00003DA54F8041B8847F9E701F0C9BE0000BF
:1002D000000400200024002000000008000000208E
:1002E00000040020383700080024002028240020C3
:1002F0002824002018340020E0010008E001000854
:10030000E0010008E00100082DE9F04F2DED108A12
:10031000C1F80CD0C3689D46BDEC108ABDE8F08FD3
:10032000002383F311882846A047002001F01EFB1C
:1003300001F0CEFA00DFFEE71A4B652270B500240B
:100340001A700F225C709C70DC701C715C719C7167
:10035000DC711C725C729A72DC7201F055FE06460A
:1003600001F076FE054650B90F4B9E4217D001337F
:100370009E4241F2883412BF054600240125002028
:1003800001F04CFE0DB100F0B5F800F049FD00F0B1
:100390001BFC204600F00CF900F0ACF8F9E704462D
:1003A000EDE700BF28240020010007B008B500F0E9
:1003B000ADFBA0F120035842584108BD07B5054BDD
:1003C00002211B88ADF8043001A800F0EDFB03B05A
:1003D0005DF804FB00340008064991F8243033B17D
:1003E00000230822086A81F8243000F00FBC0120A5
:1003F000704700BF482400202DE9F84F234C94F8A3
:1004000024300546884617468BBB2E46DFF87C9085
:10041000002F38D094F824A0BAF1000F05D1202283
:10042000FF214846266200F0E9FCCAF10805BD42FA
:1004300028BF3D465FFA85FBAD0041462A4604EBE6
:100440008A0000F0B1FC94F82430A7EB0B079B4422
:100450005FFA8BFBBBF1080F2E44A844FFB284F86F
:1004600024B0D5D1FFF7B8FF0028D1D108E0266A23
:1004700006EB8306B042C9D0FFF7AEFF0028C4D117
:100480000020BDE8F88F0120BDE8F88F4824002047
:1004900010B5202383F311881248C3680BB101F013
:1004A000EBFA0023104A0F484FF47A7101F0A8FAD2
:1004B000002383F311880D4C236813B12368013B9B
:1004C0002360636813B16368013B6360084B1B786A
:1004D00033B9636823B9022000F054FC322363600F
:1004E00010BD00BF342400209104000878290020AA
:1004F0007024002010B5254B254953F8042F0132F4
:1005000000D110BD8B42F8D1224C234B22689A4275
:100510003AD9224B9B6803F1006303F580339A427A
:1005200032D2002000F06AFB1D4B0220187000F050
:100530001BFC1C4B1A6C00221A64196E1A66196E89
:10054000596C5A64596E5A665A6E5A6942F0800262
:100550005A615A6922F080025A615A691A6942F056
:1005600000521A611A6922F000521A611B6972B6B0
:100570000D4A0E4B13601B682268202181F31188FD
:100580009D4683F30888104710BD00BFFCFF00089C
:100590001C00010804000108FFFF000828240020B7
:1005A000702400200038024008ED00E0000001083F
:1005B0002DE9F04F97B0B54C00902022FF210EA8F6
:1005C000A66800F01BFCB24A1378A346A3B9B14851
:1005D0000121C3601170202383F31188C3680BB11C
:1005E00001F04AFA0023AC4AAA484FF47A7101F0AC
:1005F00007FA002383F31188009BA84A03B1136014
:10060000A749009F00230B70536099461C461D4666
:100610009846DFF888A2012000F0A6FB002F00F02A
:100620003A82DAF80030002B40F0358217B0BDE88E
:10063000F08F0220FFF7BAFE002840F02382009BD3
:10064000B9F1000F08BF1F46964B1B88ADF8243048
:10065000022109A800F0A8FADBE74FF47A7000F055
:1006600055FA031E0193EADB0220FFF79FFE824644
:100670000028E4D0019B581E042800F20582DFE820
:1006800000F0030E1114170016A8052340F8343D9E
:10069000042100F089FA54464FF0000855E0042187
:1006A0007A48F6E704218048F3E704217F48F0E721
:1006B0001C24204600F0A4FA04340990042109A85F
:1006C00000F072FA2C2CF4D1E5E7002DB7D0002C05
:1006D000B5D00220FFF76AFE0546002800F0D7815A
:1006E00001206F4C00F08AFA0220207000F03CFBE1
:1006F0004FF000095FFA89FA504600F08FFA07467A
:1007000058B1504600F09AFA09F101090028F1D1D8
:100710002C46A9460027664B97E701230220237049
:1007200000F014FB3E46DBF808309E4206D230460D
:1007300000F066FA0130EBD10436F4E7574B00269F
:1007400026705E60A9462C46374600F05FFB15B167
:10075000002C18BF0027FFF731FE5AE7002D3FF4A9
:100760006EAF002C3FF46BAF4D4B0220187000F0C1
:10077000FBFA322000F0CAF9B0F1000AC0F287811A
:100780001AF0030540F08381DBF8082006EB0A032A
:10079000934200F27C81BAF5807F00F27881454B6C
:1007A000019355450DDA4FF47A7000F0AFF90290DD
:1007B000029A002AC0F26B81019B029AEA54013529
:1007C000EEE7C820FFF7F2FD0546002800F05F8144
:1007D0001F2E11D8C6F12004544528BF54460EAB35
:1007E00026F0030022463349184400F0DDFA224681
:1007F000FF21304800F002FB4FEAAA0A5FFA8AF2B2
:100800002C493046FFF7F8FD0446002800F04181EE
:1008100006EB8A06054698E70220FFF7C7FD002889
:100820003FF40DAFFFF7D8FD00283FF408AF0022DA
:100830009246DBF808309A425AD21F2A1ED80E9BE5
:1008400001331BD022F0030316A90B4453F8203CBC
:100850000993194843688BB3174800210DF1240E02
:1008600011F80E3083EA0A03DBB2013150F823306D
:10087000042983EA1A2AF3D10432DAE710460192F6
:1008800000F0BEF9019A0990E3E700BF2824002098
:1008900074250020342400209104000878290020C9
:1008A00070240020023400082C2400203024002072
:1008B00004340008742400207825002019464FF0E5
:1008C000080E11F0010F4FEA51011FBF81F06D4179
:1008D00081F4380181F4034181F02001BEF1010E61
:1008E000EFD140F823100133B3F5807FE6D1B3E7B1
:1008F00016A8042140F84CAD00F056F925E716A8DB
:10090000002340F8343D642100F02AF900287FF4E8
:1009100096AE0220FFF74AFD00283FF490AE0998FA
:1009200000F09EF916AB43F8480D04211846E3E7A2
:1009300016A8002340F8343D642100F011F9002886
:100940007FF47DAE0220FFF731FD00283FF477AE43
:10095000099800F093F916AB43F8440DE5E702203F
:10096000FFF724FD00283FF46AAE00F08DF916ABC6
:1009700043F8400DD9E70220FFF718FD00283FF4A7
:100980005EAE09A9142000F085F9824616A804215C
:1009900040F83CAD00F008F9514609A8ACE7322018
:1009A00000F0B4F8B0F1000AFFF649AE1AF0030FF8
:1009B0007FF445AEDBF808200AEB080393423FF6CC
:1009C0003EAE0220FFF7F2FC00283FF438AE2AF0DA
:1009D000030AC244C2453FF4B8AE404600F010F9E5
:1009E0000421089008A800F0DFF808F10408F1E7F6
:1009F0004FF47A70FFF7DAFC00283FF420AEFFF7DF
:100A0000EBFC00283FF487AE0E9B01330CD008228C
:100A10000EA90020FFF7F0FC00283FF47CAE202256
:100A2000FF210EA800F0EAF9FFF7C8FC364800F0F5
:100A3000A3FFFBE5002D3FF402AE002C3FF4FFAD19
:100A400016A8002340F8343D642100F089F882465E
:100A500000287FF4F4AD0220FFF7A8FC00283FF443
:100A6000EEAD0190FFF7AAFC41F2883000F084FF60
:100A7000099800F0FFF900F0C9F9019B57461C46A0
:100A80001D46C6E5054660E64FF00008D7E5254659
:100A9000D5E52C463FE6002000F038F80290029B96
:100AA000002BFFF6BBAD012000F050F9029B213B6B
:100AB000122B3FF6B0AD01A252F823F03306000826
:100AC0005B060008CB06000817060008170600089A
:100AD000170600085D0700089F09000819080008AC
:100AE000FF080008310900085F0900081706000820
:100AF0007709000817060008F10900084B070008ED
:100B000017060008350A0008A086010037B5114B0A
:100B10001A780132D2B20024012A01468DF807402A
:100B200011D80D4803681D6A4FF47A734B430122B4
:100B30000DF10701A847012805D1084B9DF80700D2
:100B40001C7003B030BD4FF4FA7000F015FF4FF089
:100B5000FF30F6E700240020482A002084290020E6
:100B600038B50E4B1A780132D2B2012A05460ED89A
:100B70000B4803681C6A4FF47A734B4304222946DE
:100B8000A047042803D1074B0020187038BD4FF44C
:100B9000FA7000F0F1FE4FF0FF3038BD0024002065
:100BA000482A00208429002030B4054C2368DD69E0
:100BB000044B0A46AC460146204630BC604700BFA5
:100BC000482A0020A086010070B501F021F9094CE7
:100BD000094E2070002530682378834208D901F03F
:100BE00011F9336805440133B5F5803F3360F2D322
:100BF00070BD00BF852900208029002001F0B6B912
:100C000000F1006000F580300068704700F100607E
:100C1000920000F5803001F041B90000054B1A68E0
:100C2000054B1B789B1A834202D9104401F0EAB8A5
:100C300000207047802900208529002038B5074D05
:100C400004462868204401F0E5F828B928682044C3
:100C5000BDE8384001F0F6B838BD00BF802900205B
:100C600010F0030308D1B0F5007F05D800F1005063
:100C7000A0F508400068704700207047014BC0583D
:100C8000704700BF107AFF1F014B1868704700BF04
:100C9000002004E070B52A4B1C68C4F30B03240C3D
:100CA00063B140F21342934231D040F21942934271
:100CB0002FD040F2214293422DD10323214A0C250B
:100CC00005FB03235D6893F9082042F201039C426F
:100CD00024D0B4F5805F23D041F201039C4221D09F
:100CE00041F203039C421FD041F207039C4208BF1C
:100CF0003122441E0C44013D0B46A3421ED215F97D
:100D0000016F581C96B1034600F8016CF5E701230A
:100D1000D4E70223D2E73F220B4DD6E73322E3E7A5
:100D20004122E1E75A22E4E75922E2E72C258442F6
:100D30001D7001D9981C5A70401A70BD1846FBE707
:100D4000002004E01434000808340008022804D10C
:100D50004FF00052034B9A6170470128FCD14FF0CD
:100D60008042F7E700080240022804D14FF4005205
:100D7000034B9A6170470128FCD14FF48042F7E79A
:100D800000080240022805D1064A536983F4005343
:100D9000536170470128FCD1024A536983F48043B0
:100DA000F6E700BF0008024010B50023934203D0CD
:100DB000CC5CC4540133F9E710BD000030B5441ECB
:100DC00014F9010F0B4660B193F90050854201F10F
:100DD000010106D11AB993F90020801A30BD013AF9
:100DE000EEE7002AF7D1104630BD00000246034668
:100DF000981A13F9011B0029FAD1704702440346DF
:100E0000934202D003F8011BFAE77047024B1A78AD
:100E1000024B1A70704700BF842900200024002074
:100E200038B5104D104C284600F0EEF82146284603
:100E300000F016F924680D48626DD2F8043843F0CA
:100E40000203C2F8043800F097FD0949204600F07B
:100E500013FA626DD2F8043823F00203C2F80438A2
:100E600038BD00BF482A0020E034000840420F008F
:100E70000835000870470000FEE7000000B59BB091
:100E8000EFF3098168226846FFF78EFFEFF30583D1
:100E9000034B9A6B9A6A9A6A9A6A9A6A9B6AFEE705
:100EA00000ED00E000B59BB0EFF3098168226846D1
:100EB000FFF77AFFEFF30583044B9A6B9A6A9A6AFD
:100EC0009A6A9A6A9A6A9B6AFEE700BF00ED00E0A0
:100ED00000B59BB0EFF3098168226846FFF764FF15
:100EE000EFF30583034B5A6B9A6A9A6A9A6A9A6A75
:100EF0009B6AFEE700ED00E0002304491A465A50C1
:100F0000C8180833802B4260F9D170478829002027
:100F1000026843681143016003B11847704700003D
:100F200013B5446BD4F894341A681178042915D198
:100F3000217C022912D11979128901238B40134295
:100F40000CD101A904F14C0001F026FED4F8944420
:100F5000019B21790246206800F0DAF902B010BD49
:100F6000143001F0A9BD00004FF0FF33143001F040
:100F7000A3BD00004C3001F07BBE00004FF0FF33FA
:100F80004C3001F075BE0000143001F077BD000058
:100F90004FF0FF31143001F071BD00004C3001F012
:100FA00047BE00004FF0FF324C3001F041BE000060
:100FB000D0F8942438B5136819780429054601D06F
:100FC000012038BD017C0229FAD112795C89012007
:100FD00090400440F4D105F1140001F009FD0246EF
:100FE0000028EDD0D5F894544FF4807328686979BF
:100FF00000F07CF9204638BD406BFFF7D9BF0000F8
:1010000000207047704700007FB5124B036000233B
:1010100043608360C360012502260F4B05740446BC
:101020000290019300F18402294600964FF48073E8
:10103000143001F0B9FC094B0193029400964FF46F
:10104000807304F52372294604F14C0001F080FD01
:1010500004B070BD64340008F90F0008210F0008C7
:101060000B68202282F311880A7903EB82029061D7
:101070004A79093243F822008A7912B103EB8203DC
:10108000986102230374C0F89414002383F3118839
:101090007047000038B5037F044613B190F8543010
:1010A000ABB9201D01250221FFF732FF04F1140026
:1010B00025776FF0010100F087FC84F8545004F1AB
:1010C0004C006FF00101BDE8384000F07DBC38BD38
:1010D00010B5012104460430FFF71AFF00232377DF
:1010E00084F8543010BD000038B504460025143093
:1010F00001F072FC04F14C00257701F041FD201D48
:1011000084F854500121FFF703FF2046BDE8384022
:10111000FFF74EBF90F8443003F06003202B19D145
:1011200090F84520212A0AD0222A4FF000030ED041
:10113000202A0FD1084A82630722C26304E0064BCB
:1011400083630723C3630023036401207047836321
:10115000C363F9E70020704701240020D0F89434DD
:1011600037B51A681178042904461AD1017C02297E
:1011700017D11979128901238B40134211D100F143
:101180004C05284601F0BCFD58B101A9284601F0E4
:1011900003FDD4F89444019B21790246206800F0B5
:1011A000B7F803B030BD000000EB8103F7B59C69D0
:1011B00005460E46F4B1202383F3118805EB86071C
:1011C000201D0821FFF7A4FEFB685B691B684C34F7
:1011D00013B1204601F0EEFC01A9204601F0DCFC31
:1011E000024648B1019B3146284600F091F80023A1
:1011F00083F3118803B0F0BDFB685A691268002AB6
:10120000F5D01B8A013B1340F1D105F14402EAE716
:10121000093138B550F82140DCB1202383F311881F
:10122000D4F894241368527903EB8203DB689B693A
:101230005D6845B104216018FFF76AFE294604F194
:10124000140001F0DFFB2046FFF7B2FE002383F31A
:10125000118838BD7047000000F08ABF0123037079
:1012600000234360C36183620362C362436203631A
:10127000038143817047000038B50446202383F37F
:10128000118800254160C56005614561856100F0F8
:101290007FFF0223237085F3118838BD70B500EB02
:1012A000810305465069DA600E46144618B11022D3
:1012B0000021FFF7A3FDA06918B110220021FFF75C
:1012C0009DFD31462846BDE8704001F02BB8000076
:1012D000028902F001020281428902F00102428188
:1012E000002202614261826101F0B0B8F0B400EB0B
:1012F00081044789E4680125A4698D403D43458107
:1013000023600023A2606360F0BC01F0CBB8000052
:10131000F0B400EB81040789E468012564698D401D
:101320003D43058123600023A2606360F0BC01F0AF
:1013300045B9000070B50223002504460370A0F8EB
:101340004C5080F84E5080F84F5005814581C56063
:1013500005614561856180F8345000F07FFF636866
:101360001B6823B129462046BDE87040184770BD70
:10137000436802781B6880F85020052202700BB188
:101380000421184770470000436890F850201B68FC
:1013900002700BB1052118477047000090F83430F7
:1013A00070B5044613B1002380F8343004F14402D0
:1013B000204601F06DF863689B6863BB94F8445065
:1013C00015F0600615D194F8453005F07F0545EA23
:1013D000032540F202339D4200F00E815BD8022DBE
:1013E00000F0DC803FD8002D00F08780012D00F058
:1013F000CF800021204601F0A3FA0021204601F011
:1014000095FA63681B6813B10621204698470623A6
:1014100084F8343070BD204698470028CED094F828
:101420004B2094F84A3043EA0223E26B934238BFE0
:10143000E36394F94430E56B002B4FF0200380F216
:10144000FD80002D00F0EC80092284F8342083F325
:1014500011880021E36BA26B2046FFF759FF0023A0
:1014600083F3118870BDB5F5817F00F0B180B5F5CB
:10147000407F49D0B5F5807FBBD194F84630012B31
:10148000B7D1B4F84C3023F00203A4F84C30A66373
:10149000E6632664C3E740F201639D421ED8B5F5BA
:1014A000C06F3BD2B5F5A06FA3D1B4F84430B3F50B
:1014B000A06F0ED194F8463084F84E30204600F0EC
:1014C00025FF63681B6813B1012120469847032359
:1014D00023700023A363E3632364A0E7B5F5106FD3
:1014E00032D040F602439D4252D0B5F5006F80D114
:1014F00004F14F03A363012324E004F14C03A3632D
:101500000223E36325648AE794F84630012B7FF4D5
:1015100070AFB4F84C3043F00203B6E794F84920BA
:10152000616894F848304D6894F8471043EA022304
:10153000204694F84620A84700283FF45AAF436855
:10154000A3630368E363A4E72378042B10D120236B
:1015500083F311882046FFF7BBFE86F3118863688A
:1015600084F84F601B68032121700BB12046984717
:1015700094F84630002BACD084F84F30042323700D
:1015800063681B68002BA4D0022120469847A0E77F
:10159000374BA3630223E36300239DE794F84810CD
:1015A00011F0800F204601F00F010ED000F062FF15
:1015B000012806D002287FF41CAF2E4BA363E06302
:1015C00067E72D4BA363E56363E700F045FFEFE7B3
:1015D00094F84630002B7FF40CAF94F8483013F0A9
:1015E0000F013FF476AF1A06204602D501F0BCF990
:1015F0006FE701F0AFF96CE794F84630002B7FF409
:10160000F8AE94F8483013F00F013FF462AF1B06B8
:10161000204602D501F094F95BE701F087F958E71D
:10162000142284F8342083F311882B462A46294655
:101630002046FFF75BFE85F3118870BD5DB1152272
:1016400084F8342083F311880021E36BA26B2046D9
:10165000FFF74CFE03E70B2284F8342083F3118854
:101660002B462A4629462046FFF752FEE3E700BFF5
:10167000943400088C3400089034000838B590F891
:1016800034300446152B29D8DFE803F03E282828FB
:1016900028283E28280B29392828282828282828BF
:1016A0003E3E90F84B1090F84A20C36B42EA01226C
:1016B0009A4214D9C268128AB3FBF2F502FB1535BF
:1016C0006DB9202383F311882B462A462946FFF75C
:1016D0001FFE85F311880A2384F8343038BD1423A3
:1016E00084F83430202383F3118800231A461946E6
:1016F0002046FFF7FBFD002383F3118838BD036C00
:1017000003B198470023E7E7002101F019F9002110
:10171000204601F00BF963681B6813B106212046CF
:1017200098470623D8E7000090F83420152A38B5EA
:10173000044622D80123934040F6416213421DD152
:1017400013F480150FD19B0217D50B2380F834308A
:10175000202383F311882B462A462946FFF7D8FD1C
:1017600085F3118838BDC3689B695B682BB9036C2E
:1017700003B19847002384F8343038BD002101F0CC
:10178000DFF80021204601F0D1F863681B6813B12F
:101790000621204698470623EDE70000024B002271
:1017A0001B605B609A607047082A00200023037466
:1017B0008268054B1B6899689142FBD25A680360A6
:1017C0004260106058607047082A002008B5202346
:1017D00083F31188037C032B05D0042B0DD02BB988
:1017E00083F3118808BD436900221A604FF0FF336C
:1017F0004361FFF7DBFF0023F2E790E80C001A607B
:1018000002685360F2E70000002303748268054B0E
:101810001B6899689142FBD85A6803604260106067
:1018200058607047082A0020054B19690874186829
:1018300002681A605360186101230374FEF764BDE7
:10184000082A002030B54B1C87B005460A4C10D042
:1018500023690A4A01A800F0D3F82846FFF7E4FFFD
:10186000049B13B101A800F007F92369586907B078
:1018700030BDFFF7D9FFF8E7082A0020CD17000890
:1018800038B50C4D41612B6981689A6891420446D4
:1018900003D8BDE83840FFF789BF1846FFF786FF39
:1018A00001232C61014623742046BDE83840FEF731
:1018B0002BBD00BF082A0020044B1A681B699068E2
:1018C0009B68984294BF002001207047082A00209E
:1018D00010B5084C236820691A6822605460012200
:1018E00023611A74FFF790FF01462069BDE810409C
:1018F000FEF70ABD082A002082600222027400223C
:10190000427470478368A3F17C0243F80C2C02698F
:1019100043F83C2C426943F8382C074A43F81C2C06
:10192000C26843F8102C022203F8082C002203F8A6
:10193000072CA3F1180070472103000810B52023DD
:1019400083F31188FFF7DEFF00210446FFF798FFBD
:10195000002383F31188204610BD0000024B1B6951
:1019600058610F20FFF760BF082A0020202383F36F
:101970001188FFF7F3BF000008B50146202383F369
:1019800011880820FFF75EFF002383F3118808BD4C
:1019900049B1064B42681B6918605A601360436086
:1019A0000420FFF74FBF4FF0FF307047082A002098
:1019B0000368984206D01A68026050605961184660
:1019C000FFF7F4BE7047000038B504460D462068A6
:1019D000844200D138BD036823605C604561FFF735
:1019E000E5FEF4E7054B03F114025A619A614FF0EA
:1019F000FF32DA6100221A62704700BF082A002015
:101A0000F8B503614FF08043C2605C6A194B1A4617
:101A1000022952F8145F38BF0221954206461F463C
:101A20000AD1586198611C6205604560816008199F
:101A3000BDE8F84001F086B9186AAB68241A0C19A1
:101A400002D3E41A2D6804E09C4202D2204401F043
:101A500087F9AB689C42F4D86B68736035601E6090
:101A60006E60B460A9684FF0FF33091BA960FB6189
:101A7000F8BD00BF082A002010B41B4C234653F8C1
:101A8000141F814210D0416802680A6002685160E8
:101A90009A424FF00001C16003D0936881680B4403
:101AA00093605DF8044B70470A68626100209A42B7
:101AB0005360C86003D15DF8044B01F04BB99368E3
:101AC0008868034493604FF08042206A526A121A79
:101AD0009342E6D9991A012998BF931C18445DF8DE
:101AE000044B01F03DB900BF082A002000207047D8
:101AF000FEE70000704700004FF0FF307047000025
:101B0000022906D0032906D00129064818BF002063
:101B1000704705487047032A9ABF044800EBC2008B
:101B2000002070476435000818350008082400209C
:101B300070B59AB001AD064608462946144600F035
:101B400095F82846FFF752F9C0B2431C5B0086E8BF
:101B50001800237003236370002302341946DAB29D
:101B6000904204F1020401D81AB070BDEA5C04F896
:101B7000022C04F8011C0133F1E7000008B5202312
:101B800083F311880348FFF7E9FA002383F31188F0
:101B900008BD00BF482A002010B50446052916D804
:101BA000DFE801F016150316161D202383F31188B4
:101BB0000E4A0121FFF772FB20460D4A0221FFF772
:101BC0006DFB0C48FFF790FA002383F3118810BDDA
:101BD000202383F311880748FFF75CFAF4E72023FA
:101BE00083F311880348FFF773FAEDE79834000890
:101BF000BC340008482A002038B50C4D0C4C0D4967
:101C00002A4604F10800FFF793FF05F1CA0204F128
:101C100010000949FFF78CFF05F5CA7204F118009E
:101C20000649BDE83840FFF783BF00BF102F0020F2
:101C300008240020E8340008F2340008FD340008CD
:101C400070B5044608460D46FFF7D0F8C6B22046E8
:101C5000013403780BB9184670BD32462946FFF7A8
:101C6000ADF80028F3D1012070BD00002DE9F04748
:101C700004460D46FFF7BAF82C49C6B22046FFF7D6
:101C8000DFFF08B10A36F6B229492046FFF7D8FF30
:101C900008B11036F6B2632E0BD8DFF89080DFF86B
:101CA0009090244FDFF898A0267846B92E70BDE8B2
:101CB000F08721462846BDE8F04701F099BB252E64
:101CC0002FD1072241462046FFF778F870B91A4B0A
:101CD0002A4603F1100153F8040B42F8040B8B421F
:101CE000F9D11B78137007341135DDE70822494616
:101CF0002046FFF763F8A0B9104BAA1C13F8011F88
:101D000009095345C95D02F8021C197801F00F0159
:101D100002F10202C95D02F8031CEFD11835083444
:101D2000C2E72E7001340135BEE700BF84350008DC
:101D3000FD3400089E3500088C3500080F7AFF1F1F
:101D40001B7AFF1FBFF34F8F024AD368DB03FCD41B
:101D5000704700BF003C024008B5094B1B7873B9BF
:101D6000FFF7F0FF074B1A69002ABFBF064A5A6007
:101D700002F188325A601A6822F480621A6008BD43
:101D80006E310020003C02402301674508B50B4B33
:101D90001B7893B9FFF7D6FF094B1A6942F000424E
:101DA0001A611A6842F480521A601A6822F480524A
:101DB0001A601A6842F480621A6008BD6E31002011
:101DC000003C02400B2870B513D80B4A0B4C13781B
:101DD00063B90B4E4FF0006144F8231056F82350BE
:101DE00001330C2B2944F7D10123137054F8200040
:101DF00070BD002070BD00BFA031002070310020F8
:101E0000B0350008014B53F820007047B03500088A
:101E10000C2070470B2810B5044601D9002010BDD6
:101E2000FFF7D0FF064B53F824301844C21A0BB901
:101E3000012010BD12680132F0D1043BF6E700BF6B
:101E4000B03500080B2810B5044621D8FFF77AFFFB
:101E5000FFF782FF0F4AF323D360C300DBB243F4E2
:101E6000007343F002031361136943F48033136179
:101E7000FFF768FFFFF7A6FF074B53F8241000F0A9
:101E8000D9F8FFF783FF2046BDE81040FFF7C2BF37
:101E9000002010BD003C0240B03500082DE9F84399
:101EA00012F00103154640D18218B2F1016F3CD205
:101EB0002C4B1B6813F0010337D02B4CFFF74CFF62
:101EC000F323E360FFF73EFF40F20127032D01D922
:101ED000830713D0244C0F46401A40F20118EB1B25
:101EE0000B44012B00EB0706236924D823F00103E0
:101EF0002361FFF74BFF0120BDE8F883236923F43A
:101F00004073236123693B43236151F8046B0660EE
:101F1000BFF34F8FFFF716FF03689E4208D0236977
:101F200023F001032361FFF731FF0020BDE8F883B0
:101F3000043D0430CAE723F440732361236943EA74
:101F400008032361B94637F8023B3380BFF34F8F54
:101F5000FFF7F8FE3688B9F80030B6B2B342BED00B
:101F6000DDE700BF00380240003C0240084908B5E8
:101F70000B7828B153B9FFF7EFFE01230B7008BDB2
:101F800023B1BDE808400870FFF700BF08BD00BFDF
:101F90006E31002010B50244064B0439D2B2904293
:101FA00000D110BD441C00B253F8200041F8040FCA
:101FB000E0B2F4E750280040104B30B51C6F240409
:101FC00007D41C6F44F400741C671C6F44F4004475
:101FD0001C670B4C236843F4807323600244094B55
:101FE0000439D2B2904200D130BD441C00B251F845
:101FF000045F43F82050E0B2F4E700BF003802402D
:10200000007000405028004007B5012201A90020BF
:10201000FFF7C0FF019803B05DF804FB07B502A904
:10202000012241F8040D0020FFF7C6FF03B05DF860
:1020300004FB000070470000034B1B689B0042BF7D
:10204000024B01221A70704774380240A1310020FF
:10205000014B1878704700BFA13100207047000085
:10206000FEE70000084A094B09498B4204D3094A9C
:102070000021934205D3704752F8040F43F8040B34
:10208000F3E743F8041BF4E75C370008183400203A
:102090001834002018340020836D30B500229D686C
:1020A000446D11464FF0FF3004EB4213013295426C
:1020B000C3F80019C3F81019C3F80809C3F8001BC6
:1020C000C3F8101BC3F8080BEED24FF00113C4F88D
:1020D0001C3830BD890141F02001016103699B0674
:1020E000FCD4122000F0C4BE204B03EB80022DE98B
:1020F000F047D2F80CE05D6DDEF81420461CD2F8F3
:1021000000C005EB063605EB4018516861450BD35E
:10211000D5F83428012303FA00F022EA0000C5F8BC
:1021200034081846BDE8F087BEF81040ACEB010358
:10213000A34228BF2346D8F81849A4B2B3EB840FB2
:1021400010D894681F46A4F1040959F804AFC6F8E2
:1021500000A0042F01D9043FF7E71C440B4494600E
:102160005360D2E70020BDE8F08700BFA431002013
:1021700010B5054C2046FFF771F84FF0A04363659A
:10218000024BA36510BD00BFA43100200436000837
:102190000378012B70B5054650D12A4B446D984207
:1021A0001BD1294B5A6B42F080025A635A6D42F0A0
:1021B00080025A655A6D5A6942F080025A615A6922
:1021C00022F080025A610E2143205B6900F0D6FBA9
:1021D0001E4BE3601E4BC4F800380023C4F8003ED9
:1021E000C02323606E6D4FF40413A3633369002B87
:1021F000FCDA012333610C2000F03AFE3369DB077F
:10220000FCD4122000F034FE3369002BFCDA0026E7
:10221000A6602846FFF740FF6B68C4F81068DB68CB
:10222000C4F81468C4F81C684BB90A4BA3614FF09A
:10223000FF336361A36843F00103A36070BD064BE5
:10224000F4E700BFA43100200038024040140040F1
:1022500003002002003C30C0083C30C0F8B5446D9B
:10226000054600212046FFF735FFA96D00234FF0FA
:1022700001128F68C4F834384FF00066C4F81C2887
:102280004FF0FF3004EB431201339F42C2F8006964
:10229000C2F8006BC2F80809C2F8080BF2D20B684A
:1022A0006A6DEB65636210231361166916F0100600
:1022B000FBD1122000F0DCFDD4F8003823F4FE63DB
:1022C000C4F80038A36943F4402343F01003A3612A
:1022D0000923C4F81038C4F814380A4BEB604FF0E7
:1022E000C043C4F8103B084BC4F8003BC4F8106965
:1022F000C4F80039EB6D03F1100243F48013EA6572
:10230000A362F8BDE035000840800010426D90F8EF
:102310004E10D2F8003823F4FE6343EA0113C2F8EA
:10232000003870472DE9F0410EB200EB86080D46EB
:10233000D8F80C100F6807F00303022B50D0032BC2
:1023400050D03D4A3D4F012B18BF1746446D4FEA10
:10235000451E04EB0E030022C3F8102B8A6905F119
:10236000100C002A40D04A8A05F158035B013A4319
:10237000E2500123D4F81C2803FA0CF31343A644BB
:102380004A69C4F81C380023CEF8103905F13F0320
:10239000002A39D00A8A898B9208012988BF4A43CA
:1023A000C16D04EB8303561841EA0242C665294613
:1023B0005A602046FFF78EFED8F80C301B8A43EA9D
:1023C00085531F4305F148035B01E7500123D4F80F
:1023D0001C2803FA05F51543C4F81C58BDE8F08124
:1023E000174FB3E7174FB1E704EB4613D3F8002BB1
:1023F00022F40042C3F8002BD4F81C28012303FA6E
:102400000CF322EA0303BAE704EB83030E4A5A6093
:1024100004EB461629462046FFF75CFED6F8003945
:1024200023F40043C6F80039D4F81C38012202FA1C
:1024300005F523EA0505CFE70080001000800410B1
:102440000080081000800C1000040002826D1268E9
:10245000C265FFF721BE00005831436D49015B584A
:1024600013F4004004D013F4001F14BF0120022015
:10247000704700004831436D49015B5813F4004038
:1024800004D013F4001F14BF012002207047000085
:1024900000EB8101CB68196A0B6813604B685360CD
:1024A0007047000000EB810330B5DD68AA6913684E
:1024B000D36019B9402B84BF402313606B8A146822
:1024C000426D1C44013CB4FBF3F46343033323F03B
:1024D000030302EB411043EAC44343F0C043C0F896
:1024E000103B2B6803F00303012B09B20ED1D2F885
:1024F000083802EB411013F4807FD0F8003B14BF82
:1025000043F0805343F00053C0F8003B02EB41120C
:10251000D2F8003B43F00443C2F8003B30BD00005A
:102520002DE9F041244D6E6D06EB40130446D3F8BF
:10253000087BC3F8087B38070AD5D6F81438190782
:1025400006D505EB84032146DB6828465B6898477F
:10255000FA072FD5D6F81438DB072BD505EB840303
:10256000D968CCB98B69488A5E68B6FBF0F200FB8B
:1025700012628AB91868DA6890420DD2121A83E89A
:102580001400202383F311880B482146FFF78AFFAC
:1025900084F31188BDE8F081012303FA04F26B890A
:1025A00023EA02036B81CB6823B121460248BDE8D0
:1025B000F0411847BDE8F081A431002000EB810311
:1025C00070B5DD68436D6C692668E6604A0156BBEC
:1025D0001A444FF40020C2F810092A6802F00302DE
:1025E000012A0AB20ED1D3F8080803EB421410F402
:1025F000807FD4F8000914BF40F0805040F00050B4
:10260000C4F8000903EB4212D2F8000940F004407C
:10261000C2F80009D3F83408012202FA01F101439B
:10262000C3F8341870BD19B9402E84BF4020206013
:1026300020682E8A841940F00050013C1A44B4FBF3
:10264000F6F440EAC440C6E7F8B504461E48456DB6
:1026500005EB4413D3F80869C3F80869F10717D5E7
:10266000D5F81038DA0713D500EB8403D9684B6925
:102670001F68DA68974218D2D21B00271A605F6081
:10268000202383F311882146FFF798FF87F31188F1
:10269000330617D5D5F834280123A340134211D0AF
:1026A0002046BDE8F840FFF71FBD012303FA04F2FE
:1026B000038923EA020303818B68002BE8D02146BB
:1026C0009847E5E7F8BD00BFA431002096482DE902
:1026D000F84F456D6E69AB691E4016F4805F6E6100
:1026E000044605D0FEF726FEBDE8F84F00F054BCC6
:1026F000002E12DAD5F8003E8B489B071EBFD5F896
:10270000003E23F00303C5F8003ED5F8043823F05B
:102710000103C5F80438FEF737FE370502D58248B5
:10272000FEF726FEB0040CD5D5F8083813F0060FD6
:10273000EB6823F470530CBF43F4105343F4A053DD
:10274000EB60310704D56368DB680BB176489847C6
:10275000F2025AD4B3020CD5D4F85480DFF8C8A1E1
:1027600000274FF00109A36D9B68F9B28B4280F0FE
:102770008780F70619D5616D0A6AC2F30A1702F05D
:102780000F0302F4F012B2F5802F00F0A180B2F531
:10279000402F0AD104EB830301F58051DB68186AEE
:1027A00000231A469F4240F087803003D5F818482E
:1027B00013D5E10302D50020FFF7B2FEA20302D534
:1027C0000120FFF7ADFE630302D50220FFF7A8FE4C
:1027D000270302D50320FFF7A3FE750384D5E00786
:1027E00002D50020FFF730FFA10702D50120FFF737
:1027F0002BFF620702D50220FFF726FF23077FF594
:1028000073AF0320FFF720FF6EE7D4F85480DFF8A2
:1028100018A100274FF00109A36D9B685FFA87FBA1
:102820005B4597D308EB4B13D3F8002902F4402201
:10283000B2F5802F22D1D3F80029002A1EDAD3F86E
:10284000002942F09042C3F80029D3F80029002A59
:10285000FBDB5946606DFFF73DFC228909FA0BF35B
:1028600022EA0303238104EB8B03DB689B6813B12B
:102870005946504698475846FFF736FC0137CBE794
:1028800008EB4112D2F8003B03F44023B3F5802F4C
:1028900010D1D2F8003B002B0CDA628909FA01F35F
:1028A00022EA0303638104EB8103DB68DB680BB17D
:1028B00050469847013756E79C0708BF0A68072B20
:1028C00098BF027003F101039CBF120A013069E74F
:1028D000023304EB830201F580515268906902686B
:1028E000D0F808C04068A2EB000E002210469742C4
:1028F0000AD104EB830463689B699A683A449A603E
:102900005A6817445F6050E712F0030F08BF086869
:10291000964588BF8CF8000002F1010284BF000ACE
:102920000CF1010CE3E700BFA4310020436D03EB81
:102930004111D1F8003B43F40013C1F8003B70474C
:10294000436D03EB4111D1F8003943F40013C1F892
:1029500000397047436D03EB4111D1F8003B23F47C
:102960000013C1F8003B7047436D03EB4111D1F8F0
:10297000003923F40013C1F80039704700F16043B7
:1029800000F01F02400903F5614309018000C9B24C
:1029900000F1604083F8001300F56140012393408B
:1029A000C0F880310360704730B5039C0172043376
:1029B00004FB0325C361049B03630021059B0060A6
:1029C0004060C1604261026185610462426281626D
:1029D000C162436330BD00000022416A4161016170
:1029E000C2608262C2626FF00101FEF7EDBF0000BB
:1029F00003694269934203D1C2680AB1002070475B
:102A0000181D704703691960C2680132C260C2694B
:102A1000134482690361934224BF436A0361002126
:102A2000FEF7C6BF38B504460D46E3683BB16269A0
:102A3000131D1268A3621344E362002038BD237A99
:102A400033B929462046FEF7A3FF0028EDDA38BD4A
:102A50006FF00100FBE70000C368C269013BC3607F
:102A60004369134482694361934224BF436A4361CB
:102A700000238362036B03B11847704770B52023AE
:102A8000044683F31188866A3EB9FFF7CBFF0546FB
:102A900018B186F31188284670BDA36AE26A13F85C
:102AA000015BA362934202D32046FFF7D5FF0023C8
:102AB00083F31188EFE700002DE9F84F04460E4636
:102AC00090469946202787F311880025AA46D4F816
:102AD00028B0BBF1000F09D149462046FFF7A2FFFD
:102AE00020B18BF311882846BDE8F88FA16AE36A0C
:102AF000A8EB050B5B1A9B4528BF9B46BBF1400F1B
:102B00001BD9334601F1400251F8040B43F8040B82
:102B10009142F9D1A36A40334036A3624035A26A9C
:102B2000E36A9A4202D32046FFF796FF8AF31188A0
:102B30004545D8D287F31188C9E730465A46FEF793
:102B400033F9A36A5B445E44A3625D44E7E7000097
:102B500010B5029C0172043303FB0421C3610023FE
:102B60008362C362039B0363049B00604060C46094
:102B700042610261816104624262436310BD0000F0
:102B8000026AC260426A4261026100228262C262DB
:102B90006FF00101FEF718BF436902699A4203D141
:102BA000C2680AB100207047184650F8043B0B6019
:102BB00070470000C368C2690133C36043691344AE
:102BC00082694361934224BF436A43610021FEF757
:102BD000EFBE000038B504460D46E3683BB12369FB
:102BE0001A1DA262E2691344E362002038BD237A11
:102BF00033B929462046FEF7CBFE0028EDDA38BD72
:102C00006FF00100FBE7000003691960C268013A38
:102C1000C260C269134482690361934224BF436A5C
:102C2000036100238362036B03B118477047000000
:102C300070B5202304460E4683F31188856A35B9A2
:102C40001146FFF7C7FF10B185F3118870BDA36A65
:102C50001E70A36AE26A01339342A36204D3E1695E
:102C600020460439FFF7D0FF002080F3118870BDA3
:102C70002DE9F84F04460D4691469A464FF020083C
:102C800088F311880026B346A76A4FB951462046FB
:102C9000FFF7A0FF20B187F311883046BDE8F88F19
:102CA000A06AE76AA9EB06033F1A9F4228BF1F46A6
:102CB000402F1BD905F1400355F8042B40F8042B95
:102CC0009D42F9D1A36A4033A3624036A26AE36A07
:102CD0009A4204D3E16920460439FFF795FF8BF34C
:102CE00011884E45D9D288F31188CDE729463A4656
:102CF000FEF75AF8A36A3B443D44A3623E44E5E72D
:102D0000026943699A4203D1C3681BB918467047E8
:102D10000023FBE7836A002BF8D0043B9B1AF5D015
:102D20001360C368013BC360C3691A4483690261CD
:102D30009A4224BF436A0361002383620123E5E7CB
:102D400000F06CB94FF08043002258631A610222F0
:102D5000DA6070474FF080430022DA60704700006D
:102D60004FF0804358637047FEE7000010B5174CE2
:102D7000FEF714FDFEF736FE802215492046FEF7C9
:102D8000BBFD012344F8180C0374124B124AD96896
:102D900021F4E0610904090C0A431049DA60CA68A9
:102DA00042F08072CA600E490A6842F001020A606D
:102DB0001022DA77202283F82220002383F311885F
:102DC00062B60848BDE81040FEF7B8BD302A0020C2
:102DD0001036000800ED00E00003FA05F0ED00E019
:102DE000001000E0183600082DE9F84F1F4C4FF096
:102DF0000008656904F11407C1464FF08043266A54
:102E00005B6AAA689E1B96421DD34FF0200AAA68EF
:102E1000236AD5F80CB0134423622B68BB425F6071
:102E2000A6EB02066361C5F80C8001D1FFF792FFA3
:102E300089F311882869D8478AF311886569AB68D6
:102E40009E42E4D2D9E76269BA420CD0916823620B
:102E50008E1B9660A86802282CBF1818981CBDE825
:102E6000F84FFFF77DBFBDE8F88F00BF082A0020AC
:102E7000034B59685A68521A9042FBD8704700BFFA
:102E8000001000E04B6843608B688360CB68C360D0
:102E90000B6943614B6903628B6943620B68036092
:102EA0007047000008B5224B22481A6940F2FF1112
:102EB0000A431A611A6922F4FF7222F001021A61B0
:102EC0001A691A6B0A431A631A6D0A431A651A4A79
:102ED0001B6D1146FFF7D6FF184802F11C01FFF7E2
:102EE000D1FF174802F13801FFF7CCFF154802F176
:102EF0005401FFF7C7FF144802F17001FFF7C2FF4A
:102F0000124802F18C01FFF7BDFF114802F1A80140
:102F1000FFF7B8FF0F4802F1C401FFF7B3FF0E48F7
:102F200002F1E001FFF7AEFFBDE8084000F0E0B8B5
:102F30000038024000000240383600080004024019
:102F400000080240000C0240001002400014024041
:102F500000180240001C02400020024008B500F0AA
:102F600037FAFFF703FFFFF767F8BDE80840FEF701
:102F700043BE000070470000064A536823F0010377
:102F80005360EFF30983683383F30988002383F3E5
:102F90001188704730EF00E010B5202383F31188CB
:102FA000104B5B6813F4006318D0F1EE103AEFF3A6
:102FB00009844FF0807344F84C3C0B4BDB6844F8B9
:102FC000083CA4F1680383F30988FEF775FC18B187
:102FD000064B44F8503C10BD054BFAE783F31188CB
:102FE00010BD00BF00ED00E030EF00E0310300084D
:102FF000340300084FF0804310B51A69920708D5D2
:1030000000241C61202383F31188FFF7EDFE84F375
:103010001188BDE81040FFF7BFBF0000104B1A6CCD
:1030200042F001021A641A6E42F001021A660D4A59
:103030001B6E936843F0010393604FF0804353226B
:103040009A624FF0FF32DA6200229A615A63DA60C4
:103050005A6001225A6108211A601C20FFF78EBCB9
:1030600000380240002004E01F4B1A696FEAC25288
:103070006FEAD2521A611A69C2F308021A614FF05C
:10308000FF301A695A69586100215A6959615A69B1
:103090001A6A62F080521A621A6A02F080521A6248
:1030A0001A6A5A6A58625A6A59625A6A1A6C42F023
:1030B00080521A641A6E42F080521A661A6E0B4AD7
:1030C000106840F480701060186F00F44070B0F524
:1030D000007F1EBF4FF4803018671967536823F4D0
:1030E0000073536000F054B9003802400070004093
:1030F000304B4FF080521A642F4A4FF44041116018
:103100001A6842F001021A601A689207FCD59A68A0
:1031100022F003029A60274B19469A6812F00C02BB
:10312000FBD1186800F0F90018609A601A6842F440
:1031300080321A600B689B03FCD54B6F43F0010390
:103140004B671C4B5A6F9007FCD51C4A5A601A6893
:1031500042F080721A60184A53685904FCD5154B26
:103160001A689201FCD5164A9A60164B1A68164BDB
:103170009A42164B1BD1164A1168164A914216D133
:1031800040F205121A600B4B9A6842F002029A60F4
:103190009A6802F00C02082AFAD15A6C42F4804272
:1031A0005A645A6E42F480425A665B6E704740F22F
:1031B0000572E7E7003802400070004010544007F5
:1031C00000948838002004E011640020003C024094
:1031D00000ED00E041C20F41084A08B5536911688B
:1031E0000B4003F00103536123B1054A13680BB18F
:1031F00050689847BDE80840FFF7CEBE003C01404C
:1032000088290020084A08B5536911680B4003F06B
:103210000203536123B1054A93680BB1D068984704
:10322000BDE80840FFF7B8BE003C014088290020F7
:10323000084A08B5536911680B4003F00403536151
:1032400023B1054A13690BB150699847BDE808409E
:10325000FFF7A2BE003C014088290020084A08B5BB
:10326000536911680B4003F00803536123B1054A09
:1032700093690BB1D0699847BDE80840FFF78CBE51
:10328000003C014088290020084A08B553691168AC
:103290000B4003F01003536123B1054A136A0BB1CD
:1032A000506A9847BDE80840FFF776BE003C0140F1
:1032B00088290020174B10B55C691A68144004F483
:1032C00078725A61A30604D5134A936A0BB1D06A87
:1032D0009847600604D5104A136B0BB1506B9847A2
:1032E000210604D50C4A936B0BB1D06B9847E205CD
:1032F00004D5094A136C0BB1506C9847A30504D54B
:10330000054A936C0BB1D06C9847BDE81040FFF7AD
:1033100043BE00BF003C0140882900201A4B10B575
:103320005C691A68144004F47C425A61620504D551
:10333000164A136D0BB1506D9847230504D5134AF7
:10334000936D0BB1D06D9847E00404D50F4A136E0E
:103350000BB1506E9847A10404D50C4A936E0BB183
:10336000D06E9847620404D5084A136F0BB1506FB2
:103370009847230404D5054A936F0BB1D06F984743
:10338000BDE81040FFF708BE003C0140882900203E
:10339000062108B50846FFF7F1FA06210720FFF7D6
:1033A000EDFA06210820FFF7E9FA06210920FFF7C8
:1033B000E5FA06210A20FFF7E1FA06211720FFF7B8
:1033C000DDFA06212820BDE80840FFF7D7BA000043
:1033D00008B5FFF749FEFDF78FFDFDF73DFFFDF74F
:1033E00011FEFFF7C7FDBDE80840FFF7A9BC0000CC
:1033F000034611F8012B03F8012B002AF9D170477D
:10340000121012131211000053544D3332463F3F35
:103410003F00000000000000083400083F000000EA
:1034200013040000443400083F00000019040000A9
:103430004E3400083F00000021040000583400080A
:103440003F00000053544D3332463430780053541B
:103450004D3332463432780053544D33324634348F
:1034600036585800000000007D0F0008690F000862
:10347000A50F0008910F00089D0F0008890F000894
:10348000750F0008610F000801100008000000001F
:103490000100000000000000020000000000000029
:1034A000A91100081112000840004000E02E002081
:1034B000F02E0020020000000000000003000000C9
:1034C000000000005512000800000000100000007D
:1034D000002F00200000000001000000000000009C
:1034E000A4310020010102004172647550696C6FC3
:1034F000740025424F415244252D424C002553452E
:103500005249414C25000000991B0008011B00088E
:10351000151100087D1B000843000000203500083D
:1035200009024300020100C0320904000001020246
:1035300001000524001001052401000104240202F9
:103540000524060001070582030800FF09040100A5
:10355000020A000000070501024000000705810281
:1035600040000000120000006C350008120110013C
:1035700002000040830440570002010203010000E2
:103580000403090425424F415244250071556172DC
:103590006B4D696E695F57696E675F5631003031F8
:1035A00032333435363738394142434445460000DA
:1035B000004000000040000000400000004000000B
:1035C00000000100000002000000020000000200F4
:1035D00000000200000002000000020000000200E3
:1035E000000000009D1300087D1600082917000840
:1035F000400040000432002004320020010000009E
:103600001432002080000000400100000300000090
:103610006D61696E00000000303600082032002025
:103620001834002001000000692D0008000000008F
:1036300069646C650000000000008002000000006A
:10364000AAAAAAAA00000000FFFF000000000000D4
:1036500000A00A000000000000000000AAAAAAAA18
:1036600000000000FFFF000000000000000000005C
:103670000000001400000000AAAAAAAA000000008E
:10368000FF9F00000000000000000000000000009C
:1036900000000000AAAAAAAA00000000FFFF000084
:1036A000000000000000000000000000000000001A
:1036B000AAAAAAAA00000000FFFF00000000000064
:1036C000000000000000000000000000AAAAAAAA52
:1036D00000000000FFFF00000000000000000000EC
:1036E0000000000000000000AAAAAAAA0000000032
:1036F000FFFF0000000000000000000000000000CC
:10370000000000000A0000000000000003000000AC
:1037100000000000000000000000000000000000A9
:103720000000000000000000000000000000000099
:103730000000000000000000FF00960000000008EC
:1037400004000000803500080000000000000000B8
:103750000000000000000000000000000000000069
:00000001FF
