:020000040800F2
:10000000000900209D090008A1180008A518000893
:10001000E1180008A5180008C11800089F09000889
:100020009F0900089F0900089F090008453A000839
:100030009F0900089F0900089F090008D13E000899
:100040009F0900089F0900089F0900089F090008F0
:100050009F0900089F090008B13C0008DD3C00082A
:10006000093D0008353D0008613D00089F09000872
:100070009F0900089F0900089F0900089F090008C0
:100080009F0900089F0900089F090008F52900083A
:10009000612A0008B52A0008092B00088D3D0008D8
:1000A0009F0900089F0900089F0900089F09000890
:1000B0009F0900089F0900089F0900089F09000880
:1000C0009F0900089F0900089F0900089F09000870
:1000D0009F0900082D2F0008412F00089F090008E4
:1000E000F53D00089F0900089F0900089F090008C6
:1000F0009F0900089F0900089F0900089F09000840
:100100009F0900089F0900089F0900089F0900082F
:100110009F0900089F0900089F0900089F0900081F
:100120009F0900089F0900089F0900089F0900080F
:100130009F0900089F0900089F0900089F090008FF
:100140009F0900089F0900089F0900089F090008EF
:100150009F0900089F0900089F0900089F090008DF
:10016000D0400B1CD1409C46203AD3401843524209
:1001700063469340184370479140031C90409C464F
:10018000203A9340194352426346D3401943704783
:1001900080F0004002E000BF81F0004142001FBF3C
:1001A0005FEA410392EA030F7FEA226C7FEA236C45
:1001B0006AD04FEA1262D2EB1363C1BFD21841403A
:1001C00048404140B8BF5B42192B88BF704710F0D0
:1001D000004F40F4000020F07F4018BF404211F073
:1001E000004F41F4000121F07F4118BF494292EADB
:1001F000030F3FD0A2F1010241FA03FC10EB0C0007
:10020000C3F1200301FA03F100F0004302D5494293
:1002100060EB4000B0F5000F13D3B0F1807F06D340
:1002200040084FEA310102F10102FE2A51D2B1F138
:10023000004F40EBC25008BF20F0010040EA03002D
:100240007047490040EB000010F4000FA2F10102DA
:10025000EDD1B0FA80FCACF1080CB2EB0C0200FA64
:100260000CF0AABF00EBC25052421843BCBFD040B2
:100270001843704792F0000F81F4000106BF80F42C
:1002800000000132013BB5E74FEA41037FEA226CEF
:1002900018BF7FEA236C21D092EA030F04D092F0BA
:1002A000000F08BF0846704790EA010F1CBF0020EE
:1002B000704712F07F4F04D1400028BF40F000404B
:1002C000704712F100723CBF00F50000704700F06B
:1002D000004343F0FE4040F4000070477FEA226292
:1002E00016BF08467FEA23630146420206BF5FEA63
:1002F000412390EA010F40F4800070474FF0000363
:1003000004E000BF10F0004348BF40425FEA000C29
:1003100008BF704743F0964301464FF000001CE0D1
:1003200050EA010208BF70474FF000030AE000BF27
:1003300050EA010208BF704711F0004302D5404265
:1003400061EB41015FEA010C02BF844601460020D7
:1003500043F0B64308BFA3F18053A3F50003BCFAF2
:100360008CF2083AA3EBC25310DB01FA02FC63449F
:1003700000FA02FCC2F12002BCF1004F20FA02F2A6
:1003800043EB020008BF20F00100704702F1200299
:1003900001FA02FCC2F1200250EA4C0021FA02F2FA
:1003A00043EB020008BF20EADC7070474FF0FF0CFF
:1003B0001CEAD0521EBF1CEAD15392EA0C0F93EAFA
:1003C0000C0F6FD01A4480EA010C400218BF5FEA9C
:1003D00041211ED04FF0006343EA501043EA51110F
:1003E000A0FB01310CF00040B1F5000F3EBF490009
:1003F00041EAD3715B0040EA010062F17F02FD2A0D
:100400001DD8B3F1004F40EBC25008BF20F00100EF
:10041000704790F0000F0CF0004C08BF49024CEA06
:10042000502040EA51207F3AC2BFD2F1FF0340EA98
:10043000C250704740F400004FF00003013A5DDC09
:1004400012F1190FDCBF00F000407047C2F100024A
:10045000410021FA02F1C2F1200200FA02FC5FEA37
:10046000310040F1000053EA4C0308BF20EADC7081
:10047000704792F0000F00F0004C02BF400010F4F3
:10048000000F013AF9D040EA0C0093F0000F01F0A0
:10049000004C02BF490011F4000F013BF9D041EAC2
:1004A0000C018FE70CEAD15392EA0C0F18BF93EAC4
:1004B0000C0F0AD030F0004C18BF31F0004CD8D1EE
:1004C00080EA010000F00040704790F0000F17BF75
:1004D00090F0004F084691F0000F91F0004F14D0BB
:1004E00092EA0C0F01D142020FD193EA0C0F03D113
:1004F0004B0218BF084608D180EA010000F0004016
:1005000040F0FE4040F40000704740F0FE4040F4F0
:10051000400070474FF0FF0C1CEAD0521EBF1CEA8F
:10052000D15392EA0C0F93EA0C0F69D0A2EB0302AD
:1005300080EA010C49024FEA402037D04FF0805347
:1005400043EA111143EA10130CF000408B4238BF0C
:100550005B0042F17D024FF4000C8B4224BF5B1A1A
:1005600040EA0C00B3EB510F24BFA3EB510340EA68
:100570005C00B3EB910F24BFA3EB910340EA9C0016
:10058000B3EBD10F24BFA3EBD10340EADC001B0186
:1005900018BF5FEA1C1CE0D1FD2A3FF650AF8B422A
:1005A00040EBC25008BF20F0010070470CF0004C37
:1005B0004CEA50207F32C2BFD2F1FF0340EAC25062
:1005C000704740F400004FF00003013A37E792F023
:1005D000000F00F0004C02BF400010F4000F013A81
:1005E000F9D040EA0C0093F0000F01F0004C02BF7C
:1005F000490011F4000F013BF9D041EA0C0195E7E5
:100600000CEAD15392EA0C0F08D142027FF47DAF7D
:1006100093EA0C0F7FF470AF084676E793EA0C0F6D
:1006200004D14B023FF44CAF08466EE730F0004C6B
:1006300018BF31F0004CCAD130F000427FF45CAFFB
:1006400031F000437FF43CAF5FE700BF42000ED2C1
:10065000B2F1FE4F0BD34FF09E03B3EB126209D4FD
:100660004FEA002343F0004323FA02F070474FF0B3
:100670000000704712F1610F01D1420202D14FF028
:10068000FF3070474FF00000704700BF53B94AB9C0
:10069000002908BF00281CBF4FF0FF314FF0FF308A
:1006A00000F07AB9ADF1080C6DE904CE00F006F85F
:1006B000DDF804E0DDE9022304B070472DE9F047DE
:1006C0008C460E460446089D002B50D18A421746A0
:1006D0006CD9B2FA82FEBEF1000F0BD0CEF1200C25
:1006E00001FA0EF620FA0CFC02FA0EF74CEA060CA0
:1006F00000FA0EF43A0CBCFBF2F9BBB202FB19CCC7
:1007000009FB03FA4FEA144848EA0C46B2450AD9F5
:10071000F61909F1FF3180F02581B24540F22281BE
:10072000A9F102093E44A6EB0A06B6FBF2F002FB71
:10073000106600FB03F3A4B244EA0644A34209D9BD
:10074000E41900F1FF3280F00B81A34240F20881EE
:1007500002383C440021E41A40EA0940002D62D0EE
:10076000002324FA0EF42C606B60BDE8F0878B4206
:1007700007D9002D55D0002185E841000846BDE885
:10078000F087B3FA83F1002940F08F80B34202D39F
:10079000824200F2FC80841A66EB03060120B44614
:1007A000002D40D085E81010BDE8F08712B9012770
:1007B000B7FBF2F7B7FA87FEBEF1000F35D1012182
:1007C000F61B4FEA174C1FFA87F8B6FBFCF20CFB3E
:1007D000126608FB02F0230C43EA0646B04207D932
:1007E000F61902F1FF3302D2B04200F2D2801A466B
:1007F000361AB6FBFCF00CFB106608FB00F8A3B23F
:1008000043EA0644A04507D9E41900F1FF3302D2B8
:10081000A04500F2B9801846A4EB080440EA024063
:100820009CE729462846BDE8F08707FA0EF7CEF187
:10083000200326FA03F24FEA174CB2FBFCF11FFA31
:1008400087F80CFB112206FA0EF620FA03F301FBDF
:1008500008F933431E0C46EA0246B14500FA0EF48D
:1008600009D9F61901F1FF3280F08C80B14540F2D0
:10087000898002393E44A6EB0906B6FBFCF00CFB6E
:10088000106200FB08F99EB246EA0246B14507D95C
:10089000F61900F1FF3371D2B1456FD902383E44E9
:1008A000A6EB090640EA01418FE7C1F1200722FAD1
:1008B00007F88B4048EA030326FA07F44FEA134E81
:1008C000B4FBFEF91FFA83FC0EFB19448E4020FA9C
:1008D00007F809FB0CFA48EA06084FEA184646EA08
:1008E0000444A24502FA01F200FA01F608D9E4181C
:1008F00009F1FF3044D2A24542D9A9F102091C44B2
:10090000A4EB0A04B4FBFEF00EFB104400FB0CFC4D
:100910001FFA88F848EA0444A44507D9E41800F10E
:10092000FF3E29D2A44527D902381C4440EA094099
:10093000A0FB0289A4EB0C0CCC45C246CE4615D3D5
:1009400012D055B1B6EB0A036CEB0E0606FA07F7A8
:10095000CB401F43CE402F606E600021BDE8F08782
:100960001046F7E68946DEE64645EAD2B8EB020ACB
:1009700069EB030E0138E4E77046D7E718468FE7C6
:100980008146BDE7114676E702383C4444E7084615
:1009900006E7023A3E442BE7704700BF02E000F052
:1009A00000F8FEE772B6274880F30888264880F3EF
:1009B000098826484EF60851CEF200010860022050
:1009C00080F31488BFF36F8F03F06CF803F004F921
:1009D0004FF055301E491B4A91423CBF41F8040B71
:1009E000FAE71C49184A91423CBF41F8040BFAE768
:1009F00019491A4A1A4B9A423EBF51F8040B42F861
:100A0000040BF8E700201749174A91423CBF41F810
:100A1000040BFAE703F04AF803F0E0F8134C144D26
:100A2000AC4203DA54F8041B8847F9E700F03AF8BF
:100A3000104C114DAC4203DA54F8041B8847F9E717
:100A400003F032B800090020001100200000000867
:100A500000010020000900201846000800110020B5
:100A60007C11002080110020D425002060010008A6
:100A70006001000860010008600100082DE9F04FE6
:100A8000C1F80CD0C3689D46BDE8F08F002383F306
:100A900011882846A047002002F0CAFD02F070FD30
:100AA00000DFFEE76FF01702364B2DE9F0411A70B8
:100AB000032200245A7001266FF063029C70DC70E0
:100AC0001C715C719C71DC711C725A729E72DC72BA
:100AD00002F062FF804602F0AFFF0546D0BB2A4B12
:100AE000984539D03344984537D0284B28F0FF0239
:100AF0009A4234D15FFA88F000F04EFA2E4642F264
:100B0000107400F089FC00F04DFA074658B364BB3E
:100B1000374635B11E4B984503D0002402F084FFC0
:100B20002746002002F042FF1A4B9B6813F0400357
:100B30001ED00FB100F030F800F090FC00F036FE4F
:100B400000F0DCFE0546ACB900F0E6FC012002F046
:100B500075FDF8E70646D4E706462C46D1E706467B
:100B60004FF47A74CDE70446D3E74FF47A74D0E7B4
:100B70001C46E1E700F0C2FE401BA042E4D900F0B1
:100B80000BF8DDE780110020010007B0000008B07D
:100B9000263A09B0000C014010B51C4B1C4953F813
:100BA000042F013200D110BD8B42F8D1194C1A4BE1
:100BB00022689A4228D9194B9B6803F1006303F518
:100BC000C8439A4220D202F003FF02F015FF002032
:100BD00000F006FE0220124B187000F035FE114B9B
:100BE000DA690022DA61D96999699A619B6972B6FA
:100BF0000D4B0E4A202113601B68226881F3118877
:100C00009D4683F30888104710BD00BFFC630008B1
:100C10001C64000804640008FF63000880110020C1
:100C20008C110020001002400064000808ED00E074
:100C300049F2690008490B689AB21B0C00FB0233A9
:100C40000B6044F25061054A136898B21B0C01FB1B
:100C50000030106080B27047141100201011002085
:100C600010B504460021102200F00AFE034B03CB0E
:100C7000206061601868A06010BD00BFE8F7FF1F2A
:100C8000F0B5BBB000F03AFE1D4CA368C31AF92BB7
:100C900030D906AD2346A06028220021284601F065
:100CA000BBFB04F10E0000F0E3FD0023C6B2591DAA
:100CB0005F1CDBB2B3424FEAC10107DA0E332344B3
:100CC0000822284601F0A8FB3B46F0E701230393E6
:100CD000082302930B4B207B01933023C1F3CF01F8
:100CE00005910093014604A3D3E900230495064827
:100CF00001F062F93BB0F0BD78F6339F93CACD8D19
:100D0000C8210020D5210020A421002070B50D4667
:100D100014461E4601F0F6F850B9022E0ED1012CF1
:100D20000CD112A3D3E90023C5E90023012070BD33
:100D3000052C14D003D8012C09D0002070BD282C1C
:100D400009D0302CF9D10BA3D3E90023ECE70BA396
:100D5000D3E90023E8E70BA3D3E90023E4E70BA3DF
:100D6000D3E90023E0E700BFAFF30080401DA120DE
:100D700026812A0B78F6339F93CACD8D9E6AC421B3
:100D8000818A46EE26417272DF25D7B7F017304AC6
:100D900039059E5638B50D4604460346202228469E
:100DA000002101F039FB22792346032A28BF0322C0
:100DB000284603F8042F2021022201F02DFB62793E
:100DC0002346072A28BF0722284603F8052F222199
:100DD000032201F021FBA2792346072A28BF07221C
:100DE000284603F8062F2521032201F015FB28468B
:100DF00004F108031022282101F00EFB382038BD31
:100E00002DE9F04FADF5037D23AE10AD40F2791220
:100E100080460F463046002100F032FD4822002176
:100E2000284600F02DFD00F069FD4FF47A72B0FB0A
:100E3000F2F0574B4FF02009186093E807000123A8
:100E40002B74002385E807000DF162006B74FFF737
:100E500007FF032385F82030E82385F8213007AB0E
:100E600018464C4903F09EF831462864284685F818
:100E70003C90FFF78FFF14AB044601460822304632
:100E800001F0CAFA08220DF15103A118304601F011
:100E9000C3FA0DF15203082204F11001304601F0AB
:100EA000BBFA4A4615AB04F11801304601F0B4FA1A
:100EB00016AB402204F13801304601F0ADFA18AB10
:100EC000082204F17801304601F0A6FA0DF1610321
:100ED000082204F18001304601F09EFA04F1880AEC
:100EE0000DF1620904F5847B4B46514608223046D9
:100EF0000AF1080A01F090FAD34509F10109F3D18A
:100F00001DAB08225946304601F086FA4FF0000921
:100F100004F5887495F834304B4510D84FF000092B
:100F200095F83C304B4515D92B6C21464B44082293
:100F3000304601F071FA083409F10109F0E7AB6BB2
:100F400021464B440822304601F066FA083409F184
:100F50000109DFE700230734C4F3CF04F97E0594C9
:100F600004960393BB7E19370293012301970093E4
:100F7000404605A3D3E9002301F01EF80DF5037DDB
:100F8000BDE8F08FAFF300809E6AC421818A46EEEF
:100F9000901100205C410008014B1870704700BFA1
:100FA00004110020F0B52E4B85B01C7B2CB10E2215
:100FB0002C4B1A81002005B0F0BD2B4A02AB106803
:100FC000516803C3082329490DEB0302284802F0A6
:100FD000CBFF054630B90A22224B26481A8100F081
:100FE00057FCE7E70369B3F5CE3F07D90B211D4A4C
:100FF00021481181194600F04BFCDBE7418BB1F52C
:101000007A7F08D00C22174B1C481A814FF47A7251
:1010100000F03EFCCEE71A4A103B02441449204639
:101020009E1A00F06FFC0746324605F11801204673
:1010300000F068FCAB689F4202D1EB6898420AD08E
:101040000D22084B1A8100903B46EA68A9680D48BA
:1010500000F01EFCAEE70C4800F01AFC0120AAE7E5
:10106000C8210020901100204C400008DC9B0100AA
:101070000064000854400008604000087240000806
:10108000089CFFF790400008B94000082DE9F04F98
:10109000AFB006AF80460D4600F034FF044600288E
:1010A0006FD12B7E022B1BD1EB8A012B18D100F0C4
:1010B00025FC8146FFF7BCFDFFF720F9A749FFF7A4
:1010C00029FAA749FFF772F9FFF7C0FAA54E09F50B
:1010D0001679EB7E4844306093B90022A24B1A7017
:1010E000A437BD46BDE8F08F07F10C031C44009403
:1010F000002308224FEAC901284600F0F1FF4C46C0
:10110000AB8A5FFA84F9013BA3420BD904F10109D0
:10111000B9F1110FE8D140F23911944B944A954836
:1011200002F0F4FE07F11C00FFF79AFD224607F1DA
:101130001C0107F10C0002F007FF03460028CCD188
:10114000B9F1100F07D0884B83F800903368A3F5EE
:1011500016733360C4E707F1A00202F8950D01464B
:1011600000922846072200F0BBFFF97A7F2904DDB0
:10117000814B7F4A4FF4A871D1E7404600F0A6FEAC
:10118000AEE7EB8A052B00F0318106D8012BA7D101
:1011900029464046FFF734FEA2E7282B3DD0302BEE
:1011A0009ED16B7E754C0133627BDBB29342EA4683
:1011B00040F01A81EA7E237B9A4240F01581002696
:1011C00007F1A00323F8846D009310220123314618
:1011D000284600F085FFB5F81480A8F102081FFA30
:1011E00088F808F1030323F003030A3323F007030D
:1011F000ADEB030D0DF1180933469BB2B11C9845B8
:101200004FEAC10106F101066DDD4B44009308224F
:101210000023284600F064FFEEE7AB8A013B9BB257
:10122000C92B3FF65DAF554E347B4CBB06F10C032A
:101230000093082223462146284600F051FFAB8A3E
:1012400004F10109013BE4B29C424FEAC90109DA09
:101250000E343444009400230822284600F040FF56
:101260004C46ECE700230022C6E900230023B360CC
:1012700086F8D730C6F8D830337B0BB9EB7E3373A2
:10128000002407F11C0607F10C0308222146304612
:10129000FC603C617C6101F0BFF83B7C04F101091A
:1012A000A3424FEAC90107D97B690822234430468B
:1012B00001F0B2F84C46F0E70023C1F3CF01E87E1D
:1012C000059104960393AB7E1935029328230146BA
:1012D000009301951FA3D3E90023404600F06CFE64
:1012E000FFF7CEFCFCE694F8D70000F08BFAD4F8B8
:1012F000D83006461BB994F8D70000F093FAD4F81A
:10130000D83043449E4204D294F8D700013000F014
:1013100089FA00251A4B4FEA980BAAB25A45104693
:1013200030DA5AB994F8D72042B9D4E900120A4306
:1013300004D1D9F800201A600135EEE7226859F887
:10134000201002EB80007B6000F04CFA7B68F3E732
:10135000AFF3008026417272DF25D7B700FF7F47C9
:101360000000C843A02100209D210020C8400008A3
:10137000804100082141000843410008C8210020A5
:1013800000110020D4E90023D4F8D85012EB080053
:1013900043F10001C4E90001454494F8D700C4F8C2
:1013A000D85000F02FFA854209D394F8D730013392
:1013B00084F8D730D4F8D8309E1BC4F8D860B8F180
:1013C000FF0F0ADC0020104B2073196800F00AFAA6
:1013D000FFF7E8FD08B1FFF7DFFB23680B4A9B0A24
:1013E000013313810023A360D54679E6BFF34F8F05
:1013F0000749084BCA6802F4E0621343CB60BFF3AD
:101400004F8F00BFFDE700BF0011002090110020AA
:1014100000ED00E00400FA0508B54FF000530B4A58
:10142000196891420AD1597D094A0A4811701B7DF9
:10143000C922037308490E3000F010FABDE80840D5
:10144000E02200214FF0005000F01ABA9AAD44C5D6
:1014500004110020C821002016000020022330B50E
:10146000214C85B0637104230025ADF808300123B9
:101470000722ADF80C501D498DF80C308DF80B305B
:101480001B4B1C484B608DF80A2001F0B5FD1A4B30
:101490000195009319491A4B4FF48052194800F0F6
:1014A000DFFC194B2546197811B1164800F00EFDE6
:1014B00000F024FA0446FFF7BBFBFEF71FFF1349B9
:1014C000FFF728F81249FEF771FFFFF7BFF804F5A0
:1014D0001674104B04441C6002F0AEFA08B10F23DE
:1014E0002B8105B030BD00BF9011002008110020F5
:1014F00003000600B82200200D0D00089C110020FA
:101500008D100008A42100200411002000FF7F4757
:101510000000C843A02100202DE9F04F99A7D7E98A
:1015200000670FF26829D9E900898F4C93B0DFF882
:1015300064B2DFF864A2204600F08AFD0CAD07908B
:1015400098B310220021284600F09AF94FF00002CB
:10155000079B197B61F3030219468DF8302051F87F
:10156000040F0EAA496803C21B680D9A584663F31C
:101570001C029DF830300D9243F020038DF830307E
:1015800000232A46194601F047FD079030B920464E
:1015900000F062FD079B8AF80030CCE79AF8003033
:1015A000072B40DC01338AF800301822002128463E
:1015B00000F066F9DFF8DCB1DFF8E0A100232A468D
:1015C0001946584601F050FD014680BB102208A87C
:1015D00000F056F9DAF80C3083F40053CAF80C30F6
:1015E00000F08EF90DF1240E0B4612A9024611E906
:1015F00003008EE803009DF83410C1F30300890650
:1016000049BF0E99BDF83810C1F31C0141F00041EB
:1016100058BFC1F30A018DF82C000891204608A993
:1016200000F060FFCAE7204600F016FDBDE7204647
:1016300000F068FC834600284BD100F05FF94B4B6B
:101640001A68904245D3079300F058F98246FFF795
:10165000EFFAFEF753FE4649FEF75CFF4549FEF7F9
:10166000A5FEFEF7F3FF8DF820B0DFF834B10AF5E0
:10167000167A079B9BF800105044186011B901239B
:101680008DF8203028460791FFF7EAFA07990DF107
:101690002100C1F1100A5FFA8AFABAF1060F28BFD9
:1016A0004FF0060A2944524600F0D8F80AF1010327
:1016B000049308AB0393182302932F4B32460193F4
:1016C0000123204600933B4600F01EFC00238BF8CC
:1016D000003000F013F9294ADFF8C8A01368C31AD4
:1016E000B3F57A7F32D3106000F00AF902460B4658
:1016F000204600F0B7FC204600F004FC30B39AF816
:101700000C30DFF8A4B0002B14BF032302238BF8A6
:10171000053000F0F3F84FF47A73B0FBF3F029468C
:10172000CBF800005846FFF735FB18230293144B03
:101730000730019340F25513C0F3CF00049000939B
:10174000039542464B46204600F0DEFB9AF80C30EB
:101750000BB1FFF795FA9AF80C30002B7FF4E7AE47
:1017600013B0BDE8F08F00BFA4210020A02100200D
:1017700000FF7F470000C8439C210020A8220020D2
:10178000AC220020401DA12026812A0BF1C6A7C152
:10179000D068080FB8220020AD22002000100140C0
:1017A0009D210020C82100209011002070B501F07B
:1017B000FBFF0025084C094E2070306823788342D7
:1017C00008D901F0EDFF336805440133B5F5C84F82
:1017D0003360F2D370BD00BFB4220020B0220020DD
:1017E00002F070B807B502AB43F8041D00F10060C9
:1017F0000422194600F5C84002F010F803B05DF865
:1018000004FB0000054B1A68054B1B789B1A8342AA
:1018100002D9104401F0C4BF00207047B02200205C
:10182000B422002038B50446064D2868204401F053
:10183000BDFF28B928682044BDE8384001F0C8BF82
:1018400038BD00BFB0220020022802BF4FF0005276
:10185000014B1A61704700BF00100140002310B512
:10186000934203D0CC5CC4540133F9E710BD0000AF
:1018700002460346981A13F9011B0029FAD1704752
:1018800003460244934202D003F8011BFAE7704773
:101890000FB4002004B070470EB4002003B07047AE
:1018A000FEE70000EFF30983EFF30583034B9A6B28
:1018B0009A6A9A6A9A6A9A6A9B6AFEE700ED00E061
:1018C000EFF30983EFF30583044B9A6B9A6A9A6AE4
:1018D0009A6A9A6A9A6A9B6AFEE700BF00ED00E086
:1018E000EFF30983EFF30583034B5A6B9A6A9A6A05
:1018F0009A6A9A6A9B6AFEE700ED00E002F01AB865
:1019000001F0F4BF30B5084D0A4491420BD00924D0
:1019100011F8013B5840013CF7D040F300032B4045
:1019200083EA5000F7E730BD2083B8ED0246006837
:1019300048B1036811891360D38801339BB299427F
:10194000D38038BF1381704770B504460D4688B008
:10195000202200216846FFF793FF20460495FFF7F9
:10196000E5FF054658B16B46044608AE1A4603CA61
:10197000B24220606160134604F10804F6D12846A3
:1019800008B070BD2DE9F04130B940F2C531264BA9
:10199000264A274802F0BAFA0B7C23B9254B234A82
:1019A00040F2C631F5E7C66986B9C161BDE8F0818C
:1019B000002B29DA930CAB4229D1B44201D10C603F
:1019C000F3E7C8F800100C60BDE8F0814B68B04642
:1019D00023F06047BD0C15EA230538BF3D46344669
:1019E0004FEAD37EC3F3807C6368BEEBD37F23F0E2
:1019F0006042DDD1974203D1C3F380739C450AD185
:101A0000974205E01C46EFE7AA4206D013469D42E6
:101A10002CBF00230123002BCFD12368A046002B2D
:101A2000F0D12160BDE8F08154440008484200082C
:101A30000C4500082D45000808B5034A034B40F249
:101A40005E31034802F062FA24420008CC440008E8
:101A50000C45000808B503680B60C388016033B902
:101A6000044B054A4FF4C761044802F04FFA013BAA
:101A7000C38008BD9C440008984200080C4500083B
:101A800070B50C4600F10C05616831B9E38A00209D
:101A900061F30903E382002170BD0E682846FFF759
:101AA000D9FF6660F0E7000008B5426832B10B4B21
:101AB0000B4A40F22F410B4802F028FAC37DC3F3D2
:101AC0008401013161F38603C375C38A62F309039C
:101AD000C3821B0A62F3C713C37508BDE84400083C
:101AE000544200080C4500082DE9F047089E32B921
:101AF0001F4B204A40F239511F4802F007FA4FF4B9
:101B00007F4901F007054FEAD6082A4406F0070688
:101B100000EBD100954201D1BDE8F08705F0070E3A
:101B200006F0070AD645774638BF5746511BC7F11E
:101B300008078F4228BF0F46EC08045D08EBD6016A
:101B400013F801C004FA0EF429FA07FE24FA0AF485
:101B50005FFA8EFE8CEA04044EFA0AFE04EA0E04D2
:101B60008CEA040C03F801C03D443E44D2E700BFB8
:101B7000684400086C4200080C4500082DE9F0415B
:101B800006460F4600254FF6FF7441F221082A460B
:101B900030463946FEF7E4FA0823C0B284EA00244E
:101BA00014F4004F4FEA4404A4B203F1FF3318BF0A
:101BB00084EA080413F0FF03F2D10835402DE6D182
:101BC0002046BDE8F081000010B541F221040A442E
:101BD000914200D110BD11F8013B80EA0320082397
:101BE00010F4004F4FEA400080B203F1FF3318BFFA
:101BF000604013F0FF03F3D1EAE700002DE9F04F56
:101C000085B08A468DE80C00BDF83C40814630B96D
:101C100040F26E31484B494A494802F077F911F0D9
:101C2000604F04D0474B454A40F26F31F4E7009BC8
:101C3000002B7ED024B10E9B002B7AD0072C28D805
:101C400009F10C00FFF772FE054628B96FF0020596
:101C5000284605B0BDE8F08F14220021FFF710FEE2
:101C600022460E9905F10800FFF7F8FD631C2B745E
:101C7000009B2C441B78294603F01F0363F03F03AD
:101C800023724AF000436B604846FFF77BFE012554
:101C9000DEE74FF000084FF0800B46464546019BBB
:101CA0001B0A029300F10C0303930398FFF73EFE17
:101CB00007460028CAD014220021FFF7E1FDB6BB79
:101CC00002229DF804303B729DF808307B720E9B17
:101CD000711E1944B4420AD9B818013211F801EF43
:101CE000D2B20136072A80F808E0B6B2F2D1B44287
:101CF00008BF4FF0400B009BB8181978013201F073
:101D00001F0141EA48114BEA010303724AF0004304
:101D10007B603A7439464846FFF734FE0135B442D9
:101D20002DB288F001084FF0000BBED190E70022E1
:101D3000CDE76FF001058BE75444000838420008F6
:101D40000C450008784400082DE9F0471E46CB8A70
:101D50009146C3F30902062A80460F4619D013465E
:101D60000021B0B28DB25A1992B2052A09D9A842FF
:101D700010D8FA8A034463F30902FA820120BDE80D
:101D8000F087A842F3D919F801403A44947601311A
:101D9000E8E70025FB8A7C68C3F309001C23821F47
:101DA000B2FBF3FA03FB1A2A1FFA8AF27CB3012171
:101DB0002368002B39D1B31F03441C20B3FBF0F37D
:101DC00001339BB299420CD2BAF1000F09D14046BF
:101DD000FFF7ACFD08B1C0F800A0206008B30446CE
:101DE00000224FF0000AB6B2B54230D21346691E47
:101DF0004944E018013311F801EF9BB201351C2B67
:101E000080F804E0ADB214D0AE42F2D8ECE7404620
:101E1000FFF78CFD044608B1002303607C60002CB2
:101E2000DED16FF00200BDE8F087013189B21C46B7
:101E3000BEE7AE42D8D94046FFF778FD08B1C0F8FA
:101E400000A020600028ECD004460022CCE7FB8AEA
:101E5000C3F30902164466F30903FB828EE7000010
:101E6000F8B50E4615461F46044628B9144B154AC8
:101E70004F21154802F04AF824220021FFF700FD07
:101E8000069B6A096360079B002023624FF6FF737D
:101E90009A4228BF1A46A7602070A061E06197B2FD
:101EA00004F10C05824205D100232B602782638256
:101EB000A382F8BD2E60013035462036F2E700BF20
:101EC00050440008C44100080C45000808B528B972
:101ED0007321084B084A094802F018F8037823B91F
:101EE0004BB2002B01DD017008BD054B024A7D217C
:101EF000F1E700BF54440008D04100080C45000839
:101F000098430008007870472DE9F7430D9E074677
:101F100019461046BDF828900B9D9DF83040BDF83D
:101F2000388016B9B8F1000F43D11F2C41D83B7847
:101F3000D3B9B8F1070F39D839F0030339D1424684
:101F400031464FF6FF70FFF73FFE4FEA092920F0B8
:101F5000010009F44079400449EA0464400C44EA71
:101F600040244FF6FF730DE043EA0923B8F1070F51
:101F700043EA0464F5D9FFF701FE42463146FFF714
:101F800023FE03468DE840012A4621463846FFF7E6
:101F900035FE0DB9FFF750FD2B780133DBB21F2B57
:101FA00088BF00232B7003B0BDE8F0836FF00300FF
:101FB000F9E76FF00100F6E72DE9F7430E9F814640
:101FC0000B9D9DF830009DF83480BDF83C6007B94A
:101FD000C6BB1F2836D899F800E0BEF1000F34D0F8
:101FE0000C0244F080049DF8281044EAC83444EA06
:101FF000014444EA0E04072E44EA006415D9194648
:102000001046FFF7BBFD32463946FFF7DDFD0346BC
:10201000019600972A4621464846FFF7EFFDB8F1A2
:10202000010F0CD125B9FFF707FD4FF6FF73EFE75E
:102030002B780133DBB21F2B88BF00232B7003B03A
:10204000BDE8F0836FF00100F9E76FF00300F6E7F9
:10205000C06900B104307047C1690C300B6803617E
:10206000FFF7F8BC2DE9F84FD0F818A00546164642
:102070001F4654464FF00009DFF8608000F10C0B5A
:102080000CB9BDE8F88FD4E90223B21A67EB030359
:10209000994508BF90451FD2AB6921469C4228460E
:1020A0000DD1FFF7EDFCAB6921461B685846AB61CB
:1020B000FFF7D0FCAC692346A2461C46E0E7FFF7D9
:1020C000DFFC23682146CAF800305846FFF7C2FCFF
:1020D0005446DAF80030EFE72368EDE780841E000D
:1020E0002DE9F04F8BB00D4614460793DDF8509064
:1020F0008246002800F06481B9F1000F00F0608191
:10210000531E3F2B00F25C81012A03D1079B002B59
:1021100040F056810023BAF814600893F600B542E7
:10212000099380F053812B199E420AD2761B16F038
:10213000FF0607D140F26751AA4BAB4AAB4801F00A
:10214000E5FE2646DAF80C3023B9DAF81030002B19
:1021500000F0A5802F2D31D8C5F1300846454FF04D
:10216000000334BFB0465FFA88F80093294608ABF5
:102170004246DAF80800FFF7B7FCA6EB080745442B
:10218000FFB24FF0300BBAF8143003F10053063BA6
:10219000DB000293DAF80C300593059B002B51D03D
:1021A00087B9DAF81000002861D0002F5FD0AB4566
:1021B00050D98F4B8C4A40F2A651BFE737464FF0BB
:1021C0000008DEE7029B23B98A4B874A4FF4B161CE
:1021D000B4E7029BE02B28BFE02306935B44AB42AD
:1021E00004931DD95B1B9F4226BFDBB20393039769
:1021F000AB4504D97E4B7C4A40F291519EE705984D
:10220000CDF8008008ABA5EB0B01039A0430FFF773
:102210006BFC039B9844FF1A1D445FFA88F8FFB2D9
:10222000049B9B4504D3744B6F4A40F29B5185E756
:10223000029B069ADDF810B09B1A0293059B1B685F
:102240000593AAE7029BBB42ABD26C4B664A40F2B5
:10225000A15173E7CDF800803A46A5EB0B0108AB1E
:10226000B8443D44FFF740FC00275FFA88F8BAF80D
:102270001430B5EBC30F04D9614B5B4A40F2B15146
:102280005CE7B8F1400F04D95E4B574A40F2B251B7
:1022900054E767B15C4B544A40F2B3514EE70093A8
:1022A000324608AB2946DAF80800FFF71DFC731E1A
:1022B0003F2B35B201D8A64204DD544B544A40F2BC
:1022C00035213BE760070AD00AAB03EBD40111F8D4
:1022D000083C624202F00702134101F8083C082C56
:1022E00021D9102C21D9202C8CBF08230423079A34
:1022F000002A6DD0B4EBC30F6CD0082C04F1FF3270
:1023000015D89DF8203023FA02F2D10706D54FF0F8
:10231000FF3202FA04F423438DF820309DF8203078
:1023200089F800304EE00123E1E70223DFE7102CBB
:1023300011D8BDF8203023FA02F2D20706D54FF0AB
:10234000FF3202FA04F42343ADF82030BDF8203008
:10235000A9F8003036E0202C0ED8089921FA02F2B4
:10236000D30705D54FF0FF3303FA04F40C43089468
:10237000089BC9F8003025E0402C1CD0DDE9086737
:1023800030463946FDF7ECFE002100F0010050EA2E
:1023900001030BD0224601200021FDF7EDFE404253
:1023A00061EB410106430F43CDE90867DDE90823EE
:1023B000C9E9002306E0174B154A4FF42071BDE62A
:1023C0006FF0010528460BB0BDE8F08F1D46F9E718
:1023D000012CA3D0082CA1D9102CB7D9202CE5D8DA
:1023E000C6E700BFA44200087C4200080C45000874
:1023F000C6420008B3420008EB420008134300083D
:102400003A43000868430008804300089A430008E4
:10241000FC4100089843000830B585B030B940F25F
:10242000B121234B234A244801F070FD23B9234BEB
:10243000204A40F2B221F6E7402A04D9204B1D4A37
:1024400040F2B621EFE722B91D4B1A4A4FF42F7123
:10245000E9E70024012A0294039417D11B788DF830
:10246000083053070AD004AB03EBD20313F8084C2F
:10247000554205F00705AC4003F8084C00910346AF
:10248000002102A8FFF730FB05B030BD082AE5D9CE
:10249000102A03D81B88ADF80830E2E7202A02D8BA
:1024A0001B680293DDE7D3E90045CDE90245D8E793
:1024B000D4430008104200080C450008EF43000810
:1024C0009843000870B50C4600F10C05E16819B995
:1024D000A1602161A18270BD0E682846FFF7BAFA9B
:1024E000E660F3E72DE9F04FD1F8009091B0C9F321
:1024F000C01604460D46CDE90223002E50D0C9F384
:10250000C03BC9F30626B9F1000F80F29F8119F094
:10251000C04F40F09B812B7B002B00F09781BBF1DB
:10252000020F03D02278B24240F0938109F07F027B
:10253000BBF1020F059236D119F07F0FC9F30F2AB4
:1025400001D10AF0030A2B447606059A93F803801A
:1025500046EA0B4646EA82465FEAD81346EA0A068E
:10256000069300F09A800022002310A961E9082355
:10257000059B6768009352465B462046B847002893
:1025800000F08880A7698FB9314604F10C00FFF78D
:10259000DBF90746D0B96FF0020011B0BDE8F08F4B
:1025A0004FF0020BAFE7C9F3074ACCE73B699E4205
:1025B0000DD03F68002FF9D1314604F10C00FFF730
:1025C000C3F907460028E6D0A3693B60A761DDE9AF
:1025D0000801FFF7D3FAB882F97D08F01F06C1F3AE
:1025E0008401711A89B20FFA81FEBEF1000FB8BFE3
:1025F00001F1200EC9F30461D7E90223B8BF0FFA35
:102600008EFE079152EA030100F02F81DDE90201FD
:10261000801A61EB03010B46002102469E48994255
:1026200008BF9042C0F02181069B002B3FD0BEF135
:10263000010F00F31A8118F0400F38D0DDE90223B2
:10264000C7E90223202200210DEB0200FFF718F951
:10265000DDE90223CDE908232B1D0A932B7B2046BD
:10266000013BDBB2ADF834309DF81C30ADF836A03C
:102670008DF83A309DF814308DF838B08DF83B3035
:102680008DF83960A36808A998473846FFF70CFA17
:10269000002082E76FF00B007FE7A76917B96FF0A2
:1026A0000C007AE73B699E4296D03F68F6E7FB7DD7
:1026B000C8F34012B2EBD31F40F0CE80C3F38403C3
:1026C000B34240F0CC8006992B7B4FEA981279B345
:1026D000D2073CD4032B40F2C580DDE90223C7E9D1
:1026E00002232B7BAE1D033BDBB23246394604F19D
:1026F0000C00FFF729FB002808DA39462046FFF7CF
:10270000BFF93846FFF7D0F9032046E7AB883B8393
:102710002A7B033AD2B2B88A3146FFF755FAFB7DDD
:10272000B882DA43C2F3C01262F3C713FB75AFE796
:102730006AB92E1D013BDBB23246394604F10C006A
:10274000FFF702FB0028D8DB2A7B013AE2E7FA8A8E
:10275000013BC2F30902052AD9B250D80023281D33
:1027600099420AD907EB020E10F801CB013201336E
:10277000062A8EF81AC0DBB2F2D18B4228BF0023A2
:10278000DDE9028907F11A02CDE908890A927A681F
:102790003CBF04335B190B920C93FB8AADF836A057
:1027A000C3F3090319449DF81C30ADF834108DF8BB
:1027B0003A309DF814308DF838B08DF83B30002356
:1027C0008DF839607B602A7BB88A013A291DFFF7B2
:1027D000FBF93B8BB882834203D1A36808A920464A
:1027E000984708A92046FFF76DFE3846FFF75CF9C9
:1027F000B88A3B8B984214BF11200020CDE6786840
:1028000010B34FF0060E03689BB9A2EB0E021B2A11
:1028100013D80332024405F1040E1F309942ACD99B
:102820001EF801CB013302F801CF9042DBB2F5D1A3
:10283000A3E70EF11C0E1846E5E7184B184A40F2C4
:10284000B311184801F062FB034696E76FF00900E8
:10285000A3E66FF00A00A0E66FF00D009DE66FF0B2
:102860000E009AE66FF00F0097E6FB7D394668F39D
:1028700086036FF3C713FB752046FFF701F9069B2C
:10288000002B7FF4D8AEFB7DC3F38402013262F3E8
:102890008603FB7503E700BF80841E000444000824
:1028A000E84100080C4500082DE9F0414E4EB042C9
:1028B00040F086804D4CDFF838E1E56945F0007561
:1028C000E561E469846AD4F8007207EA0E0747F00C
:1028D0000107C4F80072D4F8005205EA0E0545F06D
:1028E000010545EA0121C4F80012002A6AD000213E
:1028F0000F46C4F81C12C4F80412C4F80C12C4F831
:10290000141204EBC10501310E29C5F84072C5F857
:102910004472F6D14FF0000E4FF0010C964510D1E5
:10292000826AB042D2F8003223F00103C2F80032CA
:1029300058D12E4BDA6922F00072DA61DB69BDE80A
:10294000F0819F781D8817F0010F18BFD4F804821A
:102950000CFA05F11CBF41EA0808C4F8048217F01C
:10296000020F18BFD4F80C8204EBC5051CBF41EA66
:102970000808C4F80C827F0748BFD4F8147203F12A
:102980000C0344BF0F43C4F8147253F8087C0EF1D3
:10299000010EC5F8407253F8047CC5F84472D4F8AF
:1029A0001C522943C4F81C12B8E70021846AC4F8F9
:1029B0001C12C4F80412C4F80C12C4F81412A9E7CB
:1029C000002AF2D10022836AC3F84022C3F84422CD
:1029D000C3F80422C3F814220122C3F80C22C3F85E
:1029E0001C229DE7BDE8F081B822002000100240C3
:1029F0000000FFFF184A08B5916A8B688B6013F0DE
:102A0000010105D013F00C0F14BF4FF480310121E8
:102A1000D80506D513F4406F14BF41F4003141F0DE
:102A20000201D80306D513F4402F14BF41F48021CE
:102A300041F00401D3690BB107489847202383F381
:102A400011880021054800F021FE002383F311883E
:102A5000BDE8084001F000B8B8220020C0220020E4
:102A600038B5124CA36ADD68AA0712D05A6922F061
:102A700002025A61A36913B101212046984720231D
:102A800083F3118800210A4800F000FE002383F33D
:102A90001188EB0606D51021A36AD960236A0BB111
:102AA00002489847BDE8384000F0D6BFB822002061
:102AB000C822002038B5124CA36A1D69AA0712D09B
:102AC0005A6922F010025A61A36913B1022120460B
:102AD0009847202383F3118800210A4800F0D6FD8F
:102AE000002383F31188EB0606D51021A36A196130
:102AF000236A0BB102489847BDE8384000F0ACBFEC
:102B0000B8220020C822002038B50F4CA36A5D68A7
:102B10002A075D600AD5032222701A6822F0020299
:102B20001A60636A13B10021204698476B0706D5E7
:102B3000A36A9969236A13B1090403489847BDE859
:102B4000384000F089BF00BFB822002010B50F4CFC
:102B5000204600F03FFA0E4B0B211320A36200F039
:102B600019FA0B21142000F015FA0B21152000F0A2
:102B700011FA0B21162000F00DFA00232046BDE8C3
:102B800010401A460E21FFF78FBE00BFB82200206A
:102B9000006400400F4B10B59842044605D10E4B1F
:102BA000DA6942F00072DA61DB690122A36A1A6015
:102BB000A36A5A68D20707D5626851681268D9615A
:102BC0001A60064A5A6110BD0121082000F092FCEB
:102BD000EEE700BFB8220020001002405B87010032
:102BE00003291AD8DFE801F0020A0F14836A9B68F0
:102BF00013F0E05F14BF012000207047836A9868DB
:102C0000C0F380607047836A9868C0F3C060704703
:102C1000836A9868C0F30070704700207047000016
:102C200010B503291FD8DFE801F0021F2327816AAE
:102C30008B68C3F30163183301EB0313107881062B
:102C40001ED55468C0F30011490041EAC40141F0A7
:102C5000040100F00F005860906841F00101986095
:102C6000D268DA60196010BD836A03F5C073E5E7C6
:102C7000836A03F5C873E1E7836A03F5D073DDE780
:102C80009488C0F30011490041EA4451E1E7000093
:102C900001290CD003D3022910D000207047836A89
:102CA000DA68920701D1186903E001207047836A4E
:102CB000D86810F0030018BF01207047836AF2E75C
:102CC00010B539B9836AD96889071BD11B699B077D
:102CD00004D110BD012915D0022948D1816AD1F84B
:102CE000C031D1F8C401D1F8C8411461D1F8CC4148
:102CF000546120240C610C69A40717D14C6944F07D
:102D0000100412E0816AD1F8B031D1F8B401D1F8E1
:102D1000B8411461D1F8BC4154612024CC60CC6826
:102D2000A40703D14C6944F002044C6111795C089A
:102D300064F304119C0864F34511117189064BBFBB
:102D400091681189DB085B0D4CBF63F31C0163F3D1
:102D50000A01137948BF916060F3030313714FEACE
:102D600010234FEA104058BF11811370508010BDDE
:102D700000231A4610B51C495A50CC180833802B32
:102D80006260F9D1194B9A6942F07D029A619B69A0
:102D90000268174BDA6082685A6042681A60C2683B
:102DA00003F58063DA6042695A6002691A608269D9
:102DB000C3F80C24026AC3F80424C269C3F80024CF
:102DC000426AC3F80C28C26AC3F80428826AC3F8AE
:102DD0000028026BC3F80C2C826BC3F8042C426BE6
:102DE000C3F8002C10BD00BFE422002000100240F8
:102DF00000080140026843681143016003B11847AD
:102E000070470000024AD36843F0C003D3607047A4
:102E100000380140024AD36843F0C003D3607047D2
:102E2000004400402DE9F041D0F89C600546F76869
:102E30003368DA059CB20DD5202383F311884FF453
:102E400000710430FFF7D6FF6FF480733360002306
:102E500083F31188202383F3118805F1040814F00B
:102E60002F0333D183F31188380615D5210613D5E6
:102E7000202383F3118805F1380000F02FFA002891
:102E800046DA0821281DFFF7B5FF4FF67F733B4058
:102E9000F360002383F311887A060ED563060CD500
:102EA000202383F31188EA6C2B6D9A4202D12B6C9C
:102EB000002B2FD1002383F31188D5F8A420D368E9
:102EC000002B31D0BDE8F04110691847230713D01B
:102ED00014F0080F0CBF00218021E00748BF41F02B
:102EE0002001A20748BF41F04001630748BF41F4F9
:102EF00080714046FFF77EFFA406736805D595F8FC
:102F0000A0102846194000F089FA3468A4B2A6E758
:102F10007060BEE727F040073F041021281D3F0CDA
:102F2000FFF768FFF760C5E7BDE8F08108B5034823
:102F3000FFF778FFBDE8084000F08EBD6423002055
:102F400008B50348FFF76EFFBDE8084000F084BDF8
:102F50000C24002010B5094C094A2046002100F03D
:102F60003DFA084B084AC4F89C30084C0021204622
:102F700000F034FA064BC4F89C3010BD64230020E6
:102F8000052E000800380140152E00080C240020F2
:102F90000044004000F16043090103F56143C9B2F8
:102FA00083F80013012300F01F024009800000F1A4
:102FB0006040934000F56140C0F880310360704785
:102FC000090100F16040C9B200F56D40017670471B
:102FD000FFF7BCBD01230370002300F108028260EB
:102FE000C26000F110024360026142618361C3610B
:102FF000036243627047000010B52023044683F348
:103000001188022341600370FFF7C4FD032323707E
:10301000002383F3118810BD2DE9F0411F460446BB
:103020000D461646202383F3118800F10808237803
:10303000042B0ED029462046FFF7D2FD48B120468A
:1030400032462946FFF7ECFD002080F31188BDE8E9
:10305000F0813946404600F0FDFA0028E7D0002311
:1030600083F31188BDE8F0812DE9F0411F46044645
:103070000D461646202383F3118800F110082378AB
:10308000042B0ED029462046FFF702FE48B1204609
:1030900032462946FFF714FE002080F31188BDE870
:1030A000F0813946404600F0D5FA0028E7D00023E9
:1030B00083F31188BDE8F081F8B5154682680B46A8
:1030C000AA428169066938BF8568761AB542044606
:1030D00007D218462A46FEF7C1FBA3692B44A36119
:1030E0000DE011D932461846FEF7B8FBAF1B3A4641
:1030F000E1683044FEF7B2FBE2683A44A261A3689B
:1031000028465B1BA360F8BD18462A46FEF7A6FBBF
:10311000E368E4E72DE9F041044615468368266933
:10312000934238BF856840690F46361AB54206D2C9
:103130002A46FEF793FB63692B4463610DE012D9C5
:103140003246A5EB0608FEF789FB4246B919E0684E
:10315000FEF784FBE26842446261A36828465B1B79
:10316000A360BDE8F0812A46FEF778FBE368E4E758
:1031700010B50024C361029B0A4400604060846073
:10318000C160816141610261036210BD08B582695D
:103190004369934201D1826882B9826801328260B8
:1031A0005A1C42611970426903699A4201D3C3688B
:1031B0004361002100F05EFA002008BD4FF0FF30AF
:1031C00008BD000070B5202304460E4683F3118825
:1031D000A568A5B1A368A269013BA360531CA361C4
:1031E00015782269934224BFE368A361E3690BB1B8
:1031F00020469847002383F31188284670BD314646
:10320000204600F027FA0028E2DA85F3118870BD25
:103210002DE9F74F05460F4690469A46D0F81C9088
:10322000202686F311884FF0000B144664B1224625
:1032300039462846FFF740FF034668B951462846FD
:1032400000F008FA0028F1D0002383F31188A8EBDE
:10325000040003B0BDE8F08FB9F1000F03D0019076
:103260002846C847019B8BF31188E41A1F4486F354
:103270001188DBE7C361009BC1608161416111443A
:10328000006040608260016103627047F8B50446E7
:103290000E461746202383F31188A568A5B1A368BD
:1032A000013BA36063695A1C62611E7023696269F5
:1032B0009A4224BFE3686361E3690BB120469847F3
:1032C000002080F31188F8BD3946204600F0C2F98D
:1032D0000028E2DA85F31188F8BD000083694269AD
:1032E00010B59A4201D182687AB98268013282604F
:1032F0005A1C82611C7803699A4201D3C3688361B6
:10330000002100F0B7F9204610BD4FF0FF3010BD8E
:103310002DE9F74F05460F4690469A46D0F81C9087
:10332000202686F311884FF0000B144664B1224624
:1033300039462846FFF7EEFE034668B9514628464F
:1033400000F088F90028F1D0002383F31188A8EB5E
:10335000040003B0BDE8F08FB9F1000F03D0019075
:103360002846C847019B8BF31188E41A1F4486F353
:103370001188DBE7026843681143016003B1184715
:10338000704700001430FFF743BF00004FF0FF33D9
:103390001430FFF73DBF00003830FFF7B9BF000021
:1033A0004FF0FF333830FFF7B3BF00001430FFF7A2
:1033B00009BF00004FF0FF311430FFF703BF0000DA
:1033C0003830FFF763BF00004FF0FF323830FFF7AF
:1033D0005DBF000000207047FFF7BCBD0E4B37B546
:1033E0000360002343608360C360012304461546E5
:1033F0000374202200900B4600F15C011430FFF7AB
:10340000B7FE00942B46202204F17C0104F1380021
:10341000FFF730FF03B030BD4845000838B5C36939
:1034200004460D461BB904210844FFF7A3FF2946B3
:1034300004F11400FFF7AAFE002806DA201D4FF45D
:103440008061BDE83840FFF795BF38BD0022024BD0
:103450001B605B609A607047B42400200023826880
:103460000374054B1B6899689142FBD25A6803604C
:103470004260106058607047B424002008B52023D3
:1034800083F31188037C032B05D0042B0DD02BB9BB
:1034900083F3118808BD002243691A604FF0FF339F
:1034A0004361FFF7DBFF0023F2E790E80C001A60AE
:1034B00002685360F2E70000002382680374054B42
:1034C0001B6899689142FBD85A680360426010609B
:1034D00058607047B4240020054B196908741868B7
:1034E000026853601A60186101230374FDF7C6BABD
:1034F000B424002030B54B1C87B005460A4C10D0D0
:1035000023690A4A01A800F0DDF82846FFF7E4FF26
:10351000049B13B101A800F0EFF82369586907B0C4
:1035200030BDFFF7D9FFF8E7B42400207D34000850
:1035300038B50C4D41612B6981689A680446914207
:1035400003D8BDE83840FFF789BF1846FFF786FF6C
:1035500001232C61014623742046BDE83840FDF765
:103560008DBA00BFB4240020044B1A681B69906810
:103570009B68984294BF002001207047B42400202B
:1035800010B5084C236820691A6854602260012233
:1035900023611A74FFF790FF01462069BDE81040CF
:1035A000FDF76CBAB424002008B5FFF7DDFF18B1B1
:1035B000BDE80840FFF7E4BF08BD000082600222BA
:1035C00002740022427470478368A3F13C0243F8FE
:1035D0000C2C026943F83C2C426943F8382C074A0A
:1035E00043F81C2CC268A3F1180043F8102C0222E7
:1035F00003F8082C002203F8072C70478D0A0008F6
:1036000010B5202383F31188FFF7DEFF0021044665
:10361000FFF78EFF002383F31188204610BD0000C2
:10362000024B1B6958610F20FFF756BFB4240020DE
:10363000202383F31188FFF7F3BF000008B501468C
:10364000202383F311880820FFF754FF002383F31E
:10365000118808BD49B1064B42681B6918605A6061
:10366000136043600420FFF745BF4FF0FF30704701
:10367000B42400200368984206D01A6802605060A3
:1036800059611846FFF7EABE7047000038B5044696
:103690000D462068844200D138BD036823605C6019
:1036A0004561FFF7DBFEF4E7054B03F114025A61B5
:1036B0009A614FF0FF32DA6100221A62704700BF50
:1036C000B424002010B5C2600A4A036153699C68A3
:1036D000A1420CD85C68036044602060586081603F
:1036E0009868411A99604FF0FF33D36110BD091BF0
:1036F0001B68ECE7B4240020036881689A680A44D8
:103700009A604268136003685A6000234FF0FF32EA
:10371000C360014BDA617047B42400200020704779
:10372000FEE70000704700004FF0FF3070470000D8
:10373000BFF34F8F024AD368DB07FCD4704700BF4A
:103740000020024008B5074B1B7853B9FFF7F0FF84
:10375000054B1A69120641BF044A5A6002F18832C9
:103760005A6008BD0425002000200240230167455F
:1037700008B5054B1B7833B9FFF7DAFF034A136925
:1037800043F08003136108BD04250020002002409F
:103790007F289ABF00F500308002002070470000AB
:1037A0004FF4806070470000802070477F2808B584
:1037B0000BD8FFF7EDFF00F580630268013204D1FA
:1037C00004308342F9D1012008BD002008BD00006B
:1037D0007F2810B504461CD8FFF7AAFFFFF7B2FFF9
:1037E000F3220D4BDA6002221A61FFF7D1FF586114
:1037F0001A6942F040021A61FFF79AFF4FF48061A4
:1038000000F0E4F8FFF7B4FF2046BDE81040FFF7F2
:10381000CDBF002010BD00BF002002402DE9F843BD
:1038200012F00103144606D040F239221F4B1A60F1
:103830000020BDE8F88385181D4A954204D940F25E
:103840003E211A4A1160F3E7FFF77CFFFFF770FF94
:103850004FF00109DFF86880451A012C05EB0106DD
:103860000F4604D8FFF784FF0120BDE8F883C8F8AD
:10387000109031F8023B3380FFF75AFF0020C8F860
:10388000100033883A889BB29A420DD040F25522FC
:10389000064B1A60074B1E60074B1C60074B1F60EE
:1038A000FFF766FFBDE8F883023CD6E7002500205D
:1038B000FFFF0108F4240020FC240020F82400204D
:1038C00000200240084908B50B7828B153B9FFF72A
:1038D00039FF01230B7008BD23B1BDE80840087013
:1038E000FFF746BF08BD00BF0425002038B500F033
:1038F00059F94FF47A730C490C4A0C6A116803FBAE
:1039000004F38B420A49D1E9004504D2003445F161
:103910000105C1E90045E41845F10005136000F018
:103920004BF92046294638BDB42400200825002044
:103930001025002008B5FFF7D9FF4FF47A72002355
:10394000FCF7A4FE08BD00BF10B5094C0439013ACC
:10395000D2B2FF2A00D110BD53089800043054F8A9
:10396000233000599BB243EA004341F8043FEEE79D
:10397000046C004030B50748013AD2B2FF2A00D1AA
:1039800030BD0D88540840F82450A3004C880433FF
:103990001C50F1E7046C004007B5012201A900208A
:1039A000FFF7D2FF019803B05DF804FB13B504469E
:1039B000FFF7F2FFA04206D002A941F8044D012210
:1039C0000020FFF7D7FF02B010BD000070470000D5
:1039D00045F25552064B1A6002225A6040F6FF72B9
:1039E0009A604CF6CC421A600122024B1A70704762
:1039F0000030004019250020034B1B781BB14AF60C
:103A0000AA22024B1A60704719250020003000409E
:103A1000034B1B689B0042BF0122024B1A70704788
:103A200024100240182500204FF08072014B1A60CC
:103A3000704700BF24100240014B1878704700BF48
:103A400018250020EFF30983203383F3098800232E
:103A500083F311887047000010B5202383F3118889
:103A60000D4B5B6813F4006312D0EFF309844FF041
:103A7000807344F8043CA4F1200383F30988FFF722
:103A800073FD18B1054B44F8083C10BD044BFAE730
:103A900083F3118810BD00BF00ED00E09D0A00080F
:103AA000A00A000870470000FEE70000084A094B22
:103AB00009498B4204D30021084A934205D3704739
:103AC00052F8040F43F8040BF3E743F8041BF4E740
:103AD00090460008D4250020D4250020D4250020BD
:103AE000FEE7000010B5174CFFF7B0FCFFF7DCFD58
:103AF000802215492046FFF761FD012344F8180C88
:103B00000374124B124AD96821F4E0610904090CCC
:103B10000A431049DA60CA6842F08072CA600E49EE
:103B20000A6842F001020A601022DA77202283F844
:103B30002220002383F3118862B6BDE810400748B5
:103B4000FFF75EBDDC2400207045000800ED00E0BA
:103B50000003FA05F0ED00E0001000E078450008F1
:103B6000F8B50F4C226A01322262224652F8141F25
:103B70009142154606D020268B68013B8B60636915
:103B80009A6802B1F8BD1968DF68DA604D6061615A
:103B900082F311881869B84786F31188EFE700BFF0
:103BA000B4240020EFF3118020B9EFF30583202225
:103BB00082F311887047000010B558B9EFF30584FF
:103BC000C4F3080414B180F3118810BDFFF7ECFCB6
:103BD00084F3118810BD000000F030B808B500F083
:103BE00063F9FFF77FFFBDE80840FFF711BF000052
:103BF000704700004FF0FF310E4B1A6919611A69C6
:103C000000221A611869D868D960D968DA60DA6860
:103C1000DA6942F08052DA61DA69DA6942F0006208
:103C2000DA61054ADB69136843F48073136000F0BE
:103C30001BB900BF0010024000700040194B1A6809
:103C400042F001021A601A689007FCD51A6802F067
:103C5000F9021A6000225A605A6812F00C0FFBD168
:103C60001A6842F480321A601A689103FCD55A68C7
:103C700042F4E8125A601A6842F080721A601A68B8
:103C80009201FCD51221084A5A60084A11605A680C
:103C900042F002025A605A6802F00C02082AFAD175
:103CA000704700BF0010024000641D000020024069
:103CB000084A08B5536911680B4003F001035361CA
:103CC00023B1054A13680BB150689847BDE8084016
:103CD000FFF7C2BE00040140E4220020084A08B5F4
:103CE000536911680B4003F00203536123B1054A85
:103CF00093680BB1D0689847BDE80840FFF7ACBEA9
:103D000000040140E4220020084A08B55369116804
:103D10000B4003F00403536123B1054A13690BB14F
:103D200050699847BDE80840FFF796BE000401407F
:103D3000E4220020084A08B5536911680B4003F0DB
:103D40000803536123B1054A93690BB1D0699847C1
:103D5000BDE80840FFF780BE00040140E4220020D7
:103D6000084A08B5536911680B4003F0100353610A
:103D700023B1054A136A0BB1506A9847BDE8084061
:103D8000FFF76ABE00040140E4220020174B10B583
:103D90005C691A68144004F478725A61A30604D569
:103DA000134A936A0BB1D06A9847600604D5104A4B
:103DB000136B0BB1506B9847210604D50C4A936BDB
:103DC0000BB1D06B9847E20504D5094A136C0BB1CF
:103DD000506C9847A30504D5054A936C0BB1D06C81
:103DE0009847BDE81040FFF737BE00BF0004014010
:103DF000E42200201A4B10B55C691A68144004F4E0
:103E00007C425A61620504D5164A136D0BB1506DA0
:103E10009847230504D5134A936D0BB1D06D98478D
:103E2000E00404D50F4A136E0BB1506E9847A104FD
:103E300004D50C4A936E0BB1D06E9847620404D53A
:103E4000084A136F0BB1506F9847230404D5054AF5
:103E5000936F0BB1D06F9847BDE81040FFF7FCBDE2
:103E600000040140E4220020062108B50846FFF7BF
:103E700091F806210720FFF78DF806210820FFF7AB
:103E800089F806210920FFF785F806210A20FFF7A7
:103E900081F806211720FFF77DF8BDE808400621CC
:103EA0002820FFF777B8000008B5FFF7A3FE064803
:103EB000FEF75EFFFFF78CF8FFF78EFAFFF798FE2C
:103EC000BDE8084000F002B89845000800F00EB8C0
:103ED00008B5202383F31188FFF742FE002383F304
:103EE0001188BDE80840FFF7B7BD0000054B064A42
:103EF00008215A6000229A6007220B201A60FFF7FF
:103F00005FB800BF10E000E03F1901001FB51C467C
:103F1000094B05461B68D86852B1084B8DE80A006A
:103F200002922B4622460649FDF7B6FC00F042F805
:103F3000044B1A46F2E700BF18110020D4450008D0
:103F4000E1450008C740000810B50139024490421D
:103F500001D1002010BD10F8013B11F8014FA34220
:103F6000F5D0181B10BD00002DE9F8430746884620
:103F700091461E468BB10D46A8EB0500B54207EBF6
:103F8000000402D20020BDE8F883324649462046AC
:103F9000FFF7DAFF18B1013DEEE7BDE8F8832046F0
:103FA000BDE8F883034611F8012B03F8012B002A22
:103FB000F9D1704708B5062000F02CF80120FFF772
:103FC000AFFB00001F2938B504460D4604D916235F
:103FD00003604FF0FF3038BD426C12B152F821300F
:103FE0004BB9204600F030F82A4601462046BDE88D
:103FF000384000F017B8012B0AD0591C03D1162302
:104000000360012038BD0024284642F82540984727
:10401000002038BD024B01461868FFF7D3BF00BF30
:104020001811002038B50023064C054608461146F5
:104030002360FFF779FB431C02D1236803B12B6097
:1040400038BD00BFD0250020FFF768BB40A2E4F1D7
:10405000646891064E6F20617070207369670A0072
:10406000426164206677206C656E677468202575F0
:104070000A0042616420626F6172645F6964202596
:10408000752073686F756C642062652025750A0061
:1040900042616420617070204352432030782530A3
:1040A00038783A30782530387820307825303878AC
:1040B0003A3078253038780A00476F6F6420666997
:1040C000726D776172650A00726563656976656411
:1040D0005F756E697175655F69645F6C656E203CC4
:1040E0002055415643414E5F50524F544F434F4C21
:1040F0005F44594E414D49435F4E4F44455F4944EB
:104100005F414C4C4F434154494F4E5F554E4951CE
:1041100055455F49445F4D41585F4C454E475448B3
:10412000002E2E2F2E2E2F546F6F6C732F41505F49
:10413000426F6F746C6F616465722F63616E2E6382
:10414000707000616C6C6F63617465645F6E6F6446
:10415000655F6964203C3D20313237006F72672E05
:104160006172647570696C6F742E61705F706572D6
:104170006970685F6770732D426C756500000000A0
:10418000766F69642068616E646C655F616C6C6FEA
:10419000636174696F6E5F726573706F6E736528AB
:1041A00043616E617264496E7374616E63652A2C3B
:1041B0002043616E61726452785472616E736665F9
:1041C000722A290063616E617264496E697400002D
:1041D00063616E6172645365744C6F63616C4E6FA2
:1041E000646549440000000063616E617264486167
:1041F0006E646C6552784672616D650063616E61D4
:1042000072644465636F64655363616C617200003E
:1042100063616E617264456E636F64655363616C64
:1042200061720000696E6372656D656E74547261CF
:104230006E73666572494400656E71756575655487
:10424000784672616D657300707573685478517546
:104250006575650070726570617265466F724E6556
:1042600078745472616E736665720000636F707962
:104270004269744172726179000000006465736381
:1042800061747465725472616E736665725061799F
:104290006C6F61640000000066726565426C6F635C
:1042A0006B0000006269745F6C656E677468203E25
:1042B00020300072656D61696E696E675F62697456
:1042C00073203E203000696E7075745F6269745FA0
:1042D0006F6666736574203E3D20626C6F636B5F32
:1042E0006269745F6F666673657400626C6F636B9E
:1042F0005F656E645F6269745F6F66667365742084
:104300003E20626C6F636B5F6269745F6F66667399
:1043100065740072656D61696E696E675F6269746C
:104320005F6C656E677468203C3D2072656D6169E5
:104330006E696E675F6269747300696E7075745F31
:104340006269745F6F6666736574203C3D207472A9
:10435000616E736665722D3E7061796C6F61645F2A
:104360006C656E202A2038006F75747075745F62FA
:1043700069745F6F6666736574203C3D2036340057
:1043800072656D61696E696E675F6269745F6C65A5
:104390006E677468203D3D20300028726573756C2F
:1043A00074203E2030292026262028726573756CE3
:1043B00074203C3D2036342920262620287265733F
:1043C000756C74203C3D206269745F6C656E677427
:1043D0006829000064657374696E6174696F6E208A
:1043E000213D202828766F6964202A29302900760B
:1043F000616C756520213D202828766F6964202A2C
:10440000293029006F66667365745F77697468691F
:104410006E5F626C6F636B203C2028333255202D19
:10442000205F5F6275696C74696E5F6F6666736545
:10443000746F66202843616E6172644275666665BA
:1044400072426C6F636B2C206461746129290000D7
:104450006F75745F696E7320213D202828766F691F
:1044600064202A29302900007372635F6C656E2016
:104470003E203055000000002863616E5F696420B3
:104480002620307831464646464646465529203D48
:104490003D2063616E5F696400000000616C6C6FB9
:1044A0006361746F722D3E737461746973746963B0
:1044B000732E63757272656E745F75736167655F85
:1044C000626C6F636B73203E203000007472616E0B
:1044D000736665725F696420213D202828766F69C4
:1044E00064202A293029000073746174652D3E62AE
:1044F00075666665725F626C6F636B73203D3D200D
:104500002828766F6964202A293029002E2E2F2E24
:104510002E2F6D6F64756C65732F6C696263616EAD
:104520006172642F63616E6172642E6300697465E9
:104530006D2D3E6672616D652E646174615F6C65A0
:104540006E203E203000000000000000A133000873
:104550008D330008C9330008B5330008C1330008A3
:10456000AD3300089933000885330008D5330008BF
:104570006D61696E00000000904500082025002054
:10458000D025002001000000E13A000800000000F2
:1045900069646C65000000000C1E0000887B888840
:1045A000B8578988000000008888888488888888AF
:1045B000000000008888888888881888000000002B
:1045C000888888888888888800000000888888888B
:1045D000888888882C2066756E6374696F6E3A20AF
:1045E00000617373657274696F6E202225732220D7
:1045F0006661696C65643A2066696C652022257382
:10460000222C206C696E65202564257325730A00B1
:10461000ACC0FF7F01000000FFFFFFFF750000003E
:104620006400000000000000FE2A0100D204000027
:104630001C1100200000000000000000000000002D
:10464000000000000000000000000000000000006A
:10465000000000000000000000000000000000005A
:10466000000000000000000000000000000000004A
:10467000000000000000000000000000000000003A
:10468000000000000000000000000000000000002A
:1046900000000000FFFFFFFFFFFFFFFFFFFFFFFF26
:1046A000FFFFFFFFFFFFFFFFFFFFFFFFFFFFFFFF1A
:1046B000FFFFFFFFFFFFFFFFFFFFFFFFFFFFFFFF0A
:1046C000FFFFFFFFFFFFFFFFFFFFFFFFFFFFFFFFFA
:1046D000FFFFFFFFFFFFFFFFFFFFFFFFFFFFFFFFEA
:1064000080010020897700080D0B0108110B01089D
:10641000610B0108110B0108390B01088B7700088B
:106420008B7700088B7700088B770008557F010871
:106430008B7700088B7700088B7700087986010836
:106440008B7700088B7700088B7700088B77000824
:106450008B7700088B7700081984010849840108AC
:1064600079840108A9840108D984010841810108BF
:10647000598101087181010889810108A181010800
:10648000B9810108D18101088B770008C556010840
:106490003D5701089D570108FD570108098501086E
:1064A0008B7700088B7700088B7700088B770008C4
:1064B0008B7700088B7700088B770008E95B010871
:1064C000155D01088B7700088B7700088B77000833
:1064D0008B770008256401088B7700088B7700080C
:1064E000758501088B7700088B7700088B7700088B
:1064F0008B7700088B7700088B7700088B77000874
:106500008B7700088B7700088B7700088B77000863
:106510008B7700088B7700088B7700088B77000853
:106520008B7700088B7700088B7700088B77000843
:106530008B7700088B7700088B7700088B77000833
:106540008B7700088B7700088B7700088B77000823
:106550008B7700088B7700088B7700088B77000813
:10656000DD790008E999000881BA0008950701085B
:10657000E50701083D0F010865130108B522010870
:10658000912701082D2E010815430108C544010873
:1065900040A2E4F16468910634C5F2A66B4BF3089F
:1065A000A4990100EBEE09470100E803FFFFFFFF9C
:1065B000FFFFFFFFD0400B1CD1409C46203AD34048
:1065C0001843524263469340184370479140031C5E
:1065D00090409C46203A9340194352426346D34030
:1065E0001943704781F0004102E000BF83F000438F
:1065F00030B54FEA41044FEA430594EA050F08BF5E
:1066000090EA020F1FBF54EA000C55EA020C7FEA21
:10661000645C7FEA655C00F0E2804FEA5454D4EB9E
:106620005555B8BF6D420CDD2C4480EA020281EA68
:10663000030382EA000083EA010180EA020281EAA0
:106640000303362D88BF30BD11F0004F4FEA0131F2
:106650004FF4801C4CEA113102D0404261EB410101
:1066600013F0004F4FEA03334CEA133302D0524287
:1066700063EB430394EA050F00F0A780A4F1010443
:10668000D5F1200E0DDB02FA0EFC22FA05F280187D
:1066900041F1000103FA0EF2801843FA05F3594163
:1066A0000EE0A5F120050EF1200E012A03FA0EFCE2
:1066B00028BF4CF0020C43FA05F3C01851EBE3710C
:1066C00001F0004507D54FF0000EDCF1000C7EEB29
:1066D00000006EEB0101B1F5801F1BD3B1F5001F67
:1066E0000CD349085FEA30004FEA3C0C04F1010486
:1066F0004FEA445212F5800F80F09A80BCF1004FAF
:1067000008BF5FEA500C50F1000041EB045141EA30
:10671000050130BD5FEA4C0C404141EB010111F431
:10672000801FA4F10104E9D191F0000F04BF0146DC
:106730000020B1FA81F308BF2033A3F10B03B3F1BA
:1067400020020CDA0C3208DD02F1140CC2F10C024A
:1067500001FA0CF021FA02F10CE002F11402D8BFA8
:10676000C2F1200C01FA02F120FA0CFCDCBF41EA74
:106770000C019040E41AA2BF01EB0451294330BD43
:106780006FEA04041F3C1CDA0C340EDC04F1140420
:10679000C4F1200220FA04F001FA02F340EA0300F7
:1067A00021FA04F345EA030130BDC4F10C04C4F13D
:1067B000200220FA02F001FA04F340EA030029461D
:1067C00030BD21FA04F0294630BD94F0000F83F467
:1067D000801306BF81F480110134013D4EE77FEA4A
:1067E000645C18BF7FEA655C29D094EA050F08BF96
:1067F00090EA020F05D054EA000C04BF1946104677
:1068000030BD91EA030F1EBF0021002030BD5FEABA
:10681000545C05D14000494128BF41F0004130BDE2
:1068200014F580043CBF01F5801130BD01F0004536
:1068300045F0FE4141F470014FF0000030BD7FEAA9
:10684000645C1ABF194610467FEA655C1CBF0B46A4
:10685000024650EA013406BF52EA033591EA030FBB
:1068600041F4002130BD00BF90F0000F04BF0021B3
:10687000704730B54FF4806404F132044FF00005E6
:106880004FF0000150E700BF90F0000F04BF00215F
:10689000704730B54FF4806404F1320410F00045C5
:1068A00048BF40424FF000013EE700BF42004FEAC0
:1068B000E2014FEA31014FEA02701FBF12F07F433D
:1068C00093F07F4F81F06051704792F0000F14BF3A
:1068D00093F07F4F704730B54FF4607401F000457E
:1068E00021F0004120E700BF50EA010208BF7047D5
:1068F00030B54FF000050AE050EA010208BF7047CA
:1069000030B511F0004502D5404261EB41014FF432
:10691000806404F132045FEA915C3FF4DCAE4FF036
:1069200003025FEADC0C18BF03325FEADC0C18BF1D
:10693000033202EBDC02C2F1200300FA03FC20FA6E
:1069400002F001FA03FE40EA0E0021FA02F11444BB
:10695000C1E600BF70B54FF0FF0C4CF4E06C1CEAD0
:1069600011541DBF1CEA135594EA0C0F95EA0C0F45
:1069700000F0DEF82C4481EA030621EA4C5123EAB8
:106980004C5350EA013518BF52EA033541F48011E7
:1069900043F4801338D0A0FB02CE4FF00005E1FB9A
:1069A00002E506F00042E0FB03E54FF00006E1FBE4
:1069B00003569CF0000F18BF4EF0010EA4F1FF0427
:1069C000B6F5007F64F5407404D25FEA4E0E6D4167
:1069D00046EB060642EAC62141EA55514FEAC52078
:1069E00040EA5E504FEACE2EB4F1FD0C88BFBCF5F4
:1069F000E06F1ED8BEF1004F08BF5FEA500E50F1A5
:106A0000000041EB045170BD06F0004646EA01016A
:106A100040EA020081EA0301B4EB5C04C2BFD4EB9C
:106A20000C0541EA045170BD41F480114FF0000E95
:106A3000013C00F3AB8014F1360FDEBF002001F003
:106A4000004170BDC4F10004203C35DA0C341BDC7D
:106A500004F11404C4F1200500FA05F320FA04F04F
:106A600001FA05F240EA020001F0004221F0004183
:106A700010EBD37021FA04F642EB06015EEA430EF6
:106A800008BF20EAD37070BDC4F10C04C4F1200526
:106A900000FA04F320FA05F001FA04F240EA0200D9
:106AA00001F0004110EBD37041F100015EEA430EAA
:106AB00008BF20EAD37070BDC4F1200500FA05F2CA
:106AC0004EEA020E20FA04F301FA05F243EA020349
:106AD00021FA04F001F0004121FA04F220EA020058
:106AE00000EBD3705EEA430E08BF20EAD37070BD9E
:106AF00094F0000F0FD101F00046400041EB01017E
:106B000011F4801F08BF013CF7D041EA060195F05F
:106B1000000F18BF704703F00046520043EB030319
:106B200013F4801F08BF013DF7D043EA0603704706
:106B300094EA0C0F0CEA135518BF95EA0C0F0CD011
:106B400050EA410618BF52EA4306D1D181EA030157
:106B500001F000414FF0000070BD50EA410606BF51
:106B60001046194652EA430619D094EA0C0F02D196
:106B700050EA013613D195EA0C0F05D152EA0336DB
:106B80001CBF104619460AD181EA030101F00041F9
:106B900041F0FE4141F470014FF0000070BD41F042
:106BA000FE4141F4780170BD70B54FF0FF0C4CF41C
:106BB000E06C1CEA11541DBF1CEA135594EA0C0F3B
:106BC00095EA0C0F00F0A7F8A4EB050481EA030E88
:106BD00052EA03354FEA013100F088804FEA03336F
:106BE0004FF0805545EA131343EA12634FEA02223D
:106BF00045EA111545EA10654FEA00260EF00041FE
:106C00009D4208BF964244F1FD0404F5407402D24F
:106C10005B084FEA3202B61A65EB03055B084FEAE0
:106C200032024FF480104FF4002CB6EB020E75EBDD
:106C3000030E22BFB61A754640EA0C005B084FEA05
:106C40003202B6EB020E75EB030E22BFB61A754682
:106C500040EA5C005B084FEA3202B6EB020E75EBCD
:106C6000030E22BFB61A754640EA9C005B084FEA45
:106C70003202B6EB020E75EB030E22BFB61A754652
:106C800040EADC0055EA060E18D04FEA051545EA41
:106C900016754FEA06164FEAC30343EA52734FEAEA
:106CA000C2025FEA1C1CC0D111F4801F0BD141EA63
:106CB00000014FF000004FF0004CB6E711F4801FC8
:106CC00004BF01430020B4F1FD0C88BFBCF5E06FA8
:106CD0003FF6AFAEB5EB030C04BFB6EB020C5FEAB8
:106CE000500C50F1000041EB045170BD0EF0004E0D
:106CF0004EEA113114EB5C04C2BFD4EB0C0541EA3F
:106D0000045170BD41F480114FF0000E013C90E63B
:106D100045EA060E8DE60CEA135594EA0C0F08BFFF
:106D200095EA0C0F3FF43BAF94EA0C0F0AD150EAFE
:106D300001347FF434AF95EA0C0F7FF425AF104691
:106D400019462CE795EA0C0F06D152EA03353FF4B9
:106D5000FDAE1046194622E750EA410618BF52EA36
:106D600043067FF4C5AE50EA41047FF40DAF52EA0A
:106D700043057FF4EBAE12E74FEA4102B2F1E04384
:106D800024BFB3F5001CDCF1FE5C0DD901F0004C12
:106D90004FEAC0024CEA5070B2F1004F40EB830062
:106DA00008BF20F00100704711F0804F21D113F18E
:106DB0003872BCBF01F00040704741F480114FEAC7
:106DC0005252C2F11802C2F1200C10FA0CF320FA50
:106DD00002F018BF40F001004FEAC1234FEAD3236D
:106DE00003FA0CFC40EA0C0023FA02F34FEA4303D7
:106DF000CCE77FEA625307D150EA01331EBF4FF060
:106E0000FE4040F44000704701F0004040F0FE407A
:106E100040F40000704700BF80F0004002E000BF77
:106E200081F0004142001FBF5FEA410392EA030F75
:106E30007FEA226C7FEA236C6AD04FEA1262D2EBBF
:106E40001363C1BFD218414048404140B8BF5B42C4
:106E5000192B88BF704710F0004F40F4000020F05D
:106E60007F4018BF404211F0004F41F4000121F073
:106E70007F4118BF494292EA030F3FD0A2F10102BD
:106E800041FA03FC10EB0C00C3F1200301FA03F1FB
:106E900000F0004302D5494260EB4000B0F5000F1E
:106EA00013D3B0F1807F06D340084FEA310102F1DD
:106EB0000102FE2A51D2B1F1004F40EBC25008BF8F
:106EC00020F0010040EA03007047490040EB000059
:106ED00010F4000FA2F10102EDD1B0FA80FCACF188
:106EE000080CB2EB0C0200FA0CF0AABF00EBC25087
:106EF00052421843BCBFD0401843704792F0000F75
:106F000081F4000106BF80F400000132013BB5E7C7
:106F10004FEA41037FEA226C18BF7FEA236C21D03D
:106F200092EA030F04D092F0000F08BF08467047A2
:106F300090EA010F1CBF0020704712F07F4F04D170
:106F4000400028BF40F00040704712F100723CBF83
:106F500000F50000704700F0004343F0FE4040F4AD
:106F6000000070477FEA226216BF08467FEA23636B
:106F70000146420206BF5FEA412390EA010F40F456
:106F8000800070474FF0000304E000BF10F00043A2
:106F900048BF40425FEA000C08BF704743F0964389
:106FA00001464FF000001CE050EA010208BF7047A4
:106FB0004FF000030AE000BF50EA010208BF70472B
:106FC00011F0004302D5404261EB41015FEA010C40
:106FD00002BF84460146002043F0B64308BFA3F138
:106FE0008053A3F50003BCFA8CF2083AA3EBC2531A
:106FF00010DB01FA02FC634400FA02FCC2F1200239
:10700000BCF1004F20FA02F243EB020008BF20F06F
:107010000100704702F1200201FA02FCC2F12002D5
:1070200050EA4C0021FA02F243EB020008BF20EACA
:10703000DC7070474FF0FF0C1CEAD0521EBF1CEAF8
:10704000D15392EA0C0F93EA0C0F6FD01A4480EAE6
:10705000010C400218BF5FEA41211ED04FF00063CF
:1070600043EA501043EA5111A0FB01310CF00040FB
:10707000B1F5000F3EBF490041EAD3715B0040EA21
:10708000010062F17F02FD2A1DD8B3F1004F40EBF1
:10709000C25008BF20F00100704790F0000F0CF0C4
:1070A000004C08BF49024CEA502040EA51207F3A88
:1070B000C2BFD2F1FF0340EAC250704740F4000063
:1070C0004FF00003013A5DDC12F1190FDCBF00F054
:1070D00000407047C2F10002410021FA02F1C2F102
:1070E000200200FA02FC5FEA310040F1000053EA9E
:1070F0004C0308BF20EADC70704792F0000F00F0EC
:10710000004C02BF400010F4000F013AF9D040EAF1
:107110000C0093F0000F01F0004C02BF490011F485
:10712000000F013BF9D041EA0C018FE70CEAD15383
:1071300092EA0C0F18BF93EA0C0F0AD030F0004C03
:1071400018BF31F0004CD8D180EA010000F00040B7
:10715000704790F0000F17BF90F0004F084691F075
:10716000000F91F0004F14D092EA0C0F01D14202AF
:107170000FD193EA0C0F03D14B0218BF084608D178
:1071800080EA010000F0004040F0FE4040F40000C2
:10719000704740F0FE4040F4400070474FF0FF0C55
:1071A0001CEAD0521EBF1CEAD15392EA0C0F93EA9C
:1071B0000C0F69D0A2EB030280EA010C49024FEAEE
:1071C000402037D04FF0805343EA111143EA1013A7
:1071D0000CF000408B4238BF5B0042F17D024FF45F
:1071E000000C8B4224BF5B1A40EA0C00B3EB510F3A
:1071F00024BFA3EB510340EA5C00B3EB910F24BF23
:10720000A3EB910340EA9C00B3EBD10F24BFA3EBA7
:10721000D10340EADC001B0118BF5FEA1C1CE0D16F
:10722000FD2A3FF650AF8B4240EBC25008BF20F022
:10723000010070470CF0004C4CEA50207F32C2BF76
:10724000D2F1FF0340EAC250704740F400004FF013
:107250000003013A37E792F0000F00F0004C02BF44
:10726000400010F4000F013AF9D040EA0C0093F00E
:10727000000F01F0004C02BF490011F4000F013B68
:10728000F9D041EA0C0195E70CEAD15392EA0C0FD0
:1072900008D142027FF47DAF93EA0C0F7FF470AF08
:1072A000084676E793EA0C0F04D14B023FF44CAF4B
:1072B00008466EE730F0004C18BF31F0004CCAD1E0
:1072C00030F000427FF45CAF31F000437FF43CAF1C
:1072D0005FE700BF4FF0FF3C06E000BF4FF0010C3E
:1072E00002E000BF4FF0010C4DF804CD4FEA400220
:1072F0004FEA41037FEA226C18BF7FEA236C11D06A
:1073000001B052EA530C18BF90EA010F58BFB2EB1C
:10731000030088BFC81738BF6FEAE17018BF40F09C
:10732000010070477FEA226C02D15FEA402C05D150
:107330007FEA236CE4D15FEA412CE1D05DF8040BD5
:10734000704700BF844608466146FFE70FB5FFF768
:10735000C9FF002848BF10F1000F0FBD4DF808ED20
:10736000FFF7F4FF0CBF012000205DF808FB00BF11
:107370004DF808EDFFF7EAFF34BF012000205DF86B
:1073800008FB00BF4DF808EDFFF7E0FF94BF0120B8
:1073900000205DF808FB00BF4DF808EDFFF7D2FFB5
:1073A00094BF012000205DF808FB00BF4DF808EDF8
:1073B000FFF7C8FF34BF012000205DF808FB00BFC5
:1073C0004FEA40024FEA41037FEA226C02D15FEAB2
:1073D000402C08D17FEA236C02D15FEA412C02D114
:1073E0004FF0000070474FF0010070474FEA400235
:1073F000B2F1FE4F0FD34FF09E03B3EB12620DD9E3
:107400004FEA002343F0004310F0004F23FA02F04C
:1074100018BF404270474FF00000704712F1610FF3
:1074200001D1420205D110F0004008BF6FF00040CA
:1074300070474FF00000704742000ED2B2F1FE4F8D
:107440000BD34FF09E03B3EB126209D44FEA002333
:1074500043F0004323FA02F070474FF000007047FA
:1074600012F1610F01D1420202D14FF0FF3070479B
:107470004FF00000704700BF53B94AB9002908BF58
:1074800000281CBF4FF0FF314FF0FF3000F07AB9F9
:10749000ADF1080C6DE904CE00F006F8DDF804E06B
:1074A000DDE9022304B070472DE9F0478C460E4613
:1074B0000446089D002B50D18A4217466CD9B2FA77
:1074C00082FEBEF1000F0BD0CEF1200C01FA0EF6B9
:1074D00020FA0CFC02FA0EF74CEA060C00FA0EF445
:1074E0003A0CBCFBF2F9BBB202FB19CC09FB03FA64
:1074F0004FEA144848EA0C46B2450AD9F61909F190
:10750000FF3180F02581B24540F22281A9F10209C4
:107510003E44A6EB0A06B6FBF2F002FB106600FB47
:1075200003F3A4B244EA0644A34209D9E41900F1E2
:10753000FF3280F00B81A34240F2088102383C44C4
:107540000021E41A40EA0940002D62D0002324FA09
:107550000EF42C606B60BDE8F0878B4207D9002DDC
:1075600055D0002185E841000846BDE8F087B3FA10
:1075700083F1002940F08F80B34202D3824200F2AF
:10758000FC80841A66EB03060120B446002D40D02F
:1075900085E81010BDE8F08712B90127B7FBF2F7B4
:1075A000B7FA87FEBEF1000F35D10121F61B4FEA75
:1075B000174C1FFA87F8B6FBFCF20CFB126608FBAF
:1075C00002F0230C43EA0646B04207D9F61902F14D
:1075D000FF3302D2B04200F2D2801A46361AB6FB0E
:1075E000FCF00CFB106608FB00F8A3B243EA06446B
:1075F000A04507D9E41900F1FF3302D2A04500F2FB
:10760000B9801846A4EB080440EA02409CE72946EA
:107610002846BDE8F08707FA0EF7CEF1200326FAD8
:1076200003F24FEA174CB2FBFCF11FFA87F80CFB90
:10763000112206FA0EF620FA03F301FB08F9334390
:107640001E0C46EA0246B14500FA0EF409D9F619B5
:1076500001F1FF3280F08C80B14540F2898002391F
:107660003E44A6EB0906B6FBFCF00CFB106200FBE7
:1076700008F99EB246EA0246B14507D9F61900F16B
:10768000FF3371D2B1456FD902383E44A6EB0906EB
:1076900040EA01418FE7C1F1200722FA07F88B4049
:1076A00048EA030326FA07F44FEA134EB4FBFEF947
:1076B0001FFA83FC0EFB19448E4020FA07F809FBE1
:1076C0000CFA48EA06084FEA184646EA0444A2457E
:1076D00002FA01F200FA01F608D9E41809F1FF30C4
:1076E00044D2A24542D9A9F102091C44A4EB0A04E0
:1076F000B4FBFEF00EFB104400FB0CFC1FFA88F8F4
:1077000048EA0444A44507D9E41800F1FF3E29D211
:10771000A44527D902381C4440EA0940A0FB02894D
:10772000A4EB0C0CCC45C246CE4615D312D055B1B5
:10773000B6EB0A036CEB0E0606FA07F7CB401F43C5
:10774000CE402F606E600021BDE8F0871046F7E65E
:107750008946DEE64645EAD2B8EB020A69EB030E3B
:107760000138E4E77046D7E718468FE78146BDE762
:10777000114676E702383C4444E7084606E7023AF9
:107780003E442BE7704700BF02E000F000F8FEE740
:1077900072B6274880F30888264880F3098826486F
:1077A0004EF60851CEF200010860022080F31488E2
:1077B000BFF36F8F10F0FEFB10F0BAFD4FF05530A5
:1077C0001E491B4A91423CBF41F8040BFAE71C4991
:1077D000184A91423CBF41F8040BFAE719491A4A8A
:1077E0001A4B9A423EBF51F8040B42F8040BF8E7DB
:1077F00000201749174A91423CBF41F8040BFAE7B1
