:020000040800F2
:10680000800100204977000855BC000859BC0008E9
:10681000C1BC000859BC00088DBC00084B770008BB
:106820004B7700084B7700084B7700087974010814
:106830004B7700084B7700084B770008957A0108E2
:106840004B7700084B7700084B7700084B77000820
:106850004B7700084B7700085578010885780108C8
:10686000B5780108E578010815790108F14F0108AC
:106870000950010821500108395001085150010800
:1068800069500108815001084B770008CD4A010882
:10689000454B0108A54B0108054C01084579010845
:1068A0004B7700084B7700084B7700084B770008C0
:1068B0004B7700084B7700084B770008955201088A
:1068C000CD5301084B7700084B7700084B77000841
:1068D0004B770008E9580108015901084B77000877
:1068E000B17901084B7700084B7700084B77000817
:1068F0004B7700084B7700084B7700084B77000870
:106900004B7700084B7700084B7700084B7700085F
:106910004B7700084B7700084B7700084B7700084F
:1069200099500108B1500108C9500108E15001080F
:10693000F95001084B7700084B7700084B770008A7
:106940004B7700084B7700084B7700084B7700081F
:106950004B7700084B7700084B7700084B7700080F
:106960004B7700084B7700084B7700084B770008FF
:106970004B7700084B7700084B7700084B770008EF
:106980004B7700084B7700084B7700084B770008DF
:106990004B7700084B7700084B7700084B770008CF
:1069A000A97A00080D8F00088DAB0008D1C000083F
:1069B000611401087D33010840A2E4F16468910686
:1069C0000841B4186901246198B401009DE822D8F7
:1069D0000000EC03FFFFFFFFFFFFFFFFD0400B1C99
:1069E000D1409C46203AD3401843524263469340DC
:1069F00018437047D0400B1C1141203A03D49C46E9
:106A0000134118436346524293401843704700BFF6
:106A10009140031C90409C46203A934019435242B7
:106A20006346D3401943704781F0004102E000BF44
:106A300083F0004330B54FEA41044FEA430594EA3E
:106A4000050F08BF90EA020F1FBF54EA000C55EA79
:106A5000020C7FEA645C7FEA655C00F0E2804FEA4A
:106A60005454D4EB5555B8BF6D420CDD2C4480EA2C
:106A7000020281EA030382EA000083EA010180EA5C
:106A8000020281EA0303362D88BF30BD11F0004FAA
:106A90004FEA01314FF4801C4CEA113102D04042E0
:106AA00061EB410113F0004F4FEA03334CEA13331B
:106AB00002D0524263EB430394EA050F00F0A78033
:106AC000A4F10104D5F1200E0DDB02FA0EFC22FA2E
:106AD00005F2801841F1000103FA0EF2801843FA22
:106AE00005F359410EE0A5F120050EF1200E012A13
:106AF00003FA0EFC28BF4CF0020C43FA05F3C01851
:106B000051EBE37101F0004507D54FF0000EDCF1C9
:106B1000000C7EEB00006EEB0101B1F5801F1BD372
:106B2000B1F5001F0CD349085FEA30004FEA3C0C76
:106B300004F101044FEA445212F5800F80F09A806C
:106B4000BCF1004F08BF5FEA500C50F1000041EB70
:106B5000045141EA050130BD5FEA4C0C404141EB74
:106B6000010111F4801FA4F10104E9D191F0000F9B
:106B700004BF01460020B1FA81F308BF2033A3F11E
:106B80000B03B3F120020CDA0C3208DD02F1140C15
:106B9000C2F10C0201FA0CF021FA02F10CE002F150
:106BA0001402D8BFC2F1200C01FA02F120FA0CFC49
:106BB000DCBF41EA0C019040E41AA2BF01EB045192
:106BC000294330BD6FEA04041F3C1CDA0C340EDC90
:106BD00004F11404C4F1200220FA04F001FA02F3D3
:106BE00040EA030021FA04F345EA030130BDC4F191
:106BF0000C04C4F1200220FA02F001FA04F340EA86
:106C00000300294630BD21FA04F0294630BD94F036
:106C1000000F83F4801306BF81F480110134013D1D
:106C20004EE77FEA645C18BF7FEA655C29D094EA8E
:106C3000050F08BF90EA020F05D054EA000C04BF0C
:106C40001946104630BD91EA030F1EBF00210020F7
:106C500030BD5FEA545C05D14000494128BF41F096
:106C6000004130BD14F580043CBF01F5801130BDFA
:106C700001F0004545F0FE4141F470014FF0000085
:106C800030BD7FEA645C1ABF194610467FEA655C36
:106C90001CBF0B46024650EA013406BF52EA0335D8
:106CA00091EA030F41F4002130BD00BF90F0000FC6
:106CB00004BF0021704730B54FF4806404F1320402
:106CC0004FF000054FF0000150E700BF90F0000FBB
:106CD00004BF0021704730B54FF4806404F13204E2
:106CE00010F0004548BF40424FF000013EE700BFB2
:106CF00042004FEAE2014FEA31014FEA02701FBF42
:106D000012F07F4393F07F4F81F06051704792F013
:106D1000000F14BF93F07F4F704730B54FF460748D
:106D200001F0004521F0004120E700BF50EA0102D8
:106D300008BF704730B54FF000050AE050EA010285
:106D400008BF704730B511F0004502D5404261EBF5
:106D500041014FF4806404F132045FEA915C3FF436
:106D6000DCAE4FF003025FEADC0C18BF03325FEACF
:106D7000DC0C18BF033202EBDC02C2F1200300FA84
:106D800003FC20FA02F001FA03FE40EA0E0021FAA9
:106D900002F11444C1E600BF70B54FF0FF0C4CF493
:106DA000E06C1CEA11541DBF1CEA135594EA0C0F49
:106DB00095EA0C0F00F0DEF82C4481EA030621EA84
:106DC0004C5123EA4C5350EA013518BF52EA0335BF
:106DD00041F4801143F4801338D0A0FB02CE4FF071
:106DE0000005E1FB02E506F00042E0FB03E54FF0A1
:106DF0000006E1FB03569CF0000F18BF4EF0010E99
:106E0000A4F1FF04B6F5007F64F5407404D25FEA94
:106E10004E0E6D4146EB060642EAC62141EA555147
:106E20004FEAC52040EA5E504FEACE2EB4F1FD0C89
:106E300088BFBCF5E06F1ED8BEF1004F08BF5FEA07
:106E4000500E50F1000041EB045170BD06F00046B9
:106E500046EA010140EA020081EA0301B4EB5C0466
:106E6000C2BFD4EB0C0541EA045170BD41F480115E
:106E70004FF0000E013C00F3AB8014F1360FDEBF83
:106E8000002001F0004170BDC4F10004203C35DA5F
:106E90000C341BDC04F11404C4F1200500FA05F3E2
:106EA00020FA04F001FA05F240EA020001F0004283
:106EB00021F0004110EBD37021FA04F642EB0601F9
:106EC0005EEA430E08BF20EAD37070BDC4F10C0423
:106ED000C4F1200500FA04F320FA05F001FA04F2E7
:106EE00040EA020001F0004110EBD37041F10001D3
:106EF0005EEA430E08BF20EAD37070BDC4F12005DE
:106F000000FA05F24EEA020E20FA04F301FA05F245
:106F100043EA020321FA04F001F0004121FA04F2ED
:106F200020EA020000EBD3705EEA430E08BF20EABD
:106F3000D37070BD94F0000F0FD101F000464000F7
:106F400041EB010111F4801F08BF013CF7D041EA79
:106F5000060195F0000F18BF704703F0004652007D
:106F600043EB030313F4801F08BF013DF7D043EA4E
:106F70000603704794EA0C0F0CEA135518BF95EA04
:106F80000C0F0CD050EA410618BF52EA4306D1D18B
:106F900081EA030101F000414FF0000070BD50EAAA
:106FA000410606BF1046194652EA430619D094EA34
:106FB0000C0F02D150EA013613D195EA0C0F05D11E
:106FC00052EA03361CBF104619460AD181EA030172
:106FD00001F0004141F0FE4141F470014FF000002A
:106FE00070BD41F0FE4141F4780170BD70B54FF0C5
:106FF000FF0C4CF4E06C1CEA11541DBF1CEA135545
:1070000094EA0C0F95EA0C0F00F0A7F8A4EB050426
:1070100081EA030E52EA03354FEA013100F088801D
:107020004FEA03334FF0805545EA131343EA1263E6
:107030004FEA022245EA111545EA10654FEA00269B
:107040000EF000419D4208BF964244F1FD0404F554
:10705000407402D25B084FEA3202B61A65EB0305B0
:107060005B084FEA32024FF480104FF4002CB6EB6D
:10707000020E75EB030E22BFB61A754640EA0C00ED
:107080005B084FEA3202B6EB020E75EB030E22BF2D
:10709000B61A754640EA5C005B084FEA3202B6EB6E
:1070A000020E75EB030E22BFB61A754640EA9C002D
:1070B0005B084FEA3202B6EB020E75EB030E22BFFD
:1070C000B61A754640EADC0055EA060E18D04FEABB
:1070D000051545EA16754FEA06164FEAC30343EA5B
:1070E00052734FEAC2025FEA1C1CC0D111F4801F28
:1070F0000BD141EA00014FF000004FF0004CB6E721
:1071000011F4801F04BF01430020B4F1FD0C88BFBF
:10711000BCF5E06F3FF6AFAEB5EB030C04BFB6EBCA
:10712000020C5FEA500C50F1000041EB045170BDBD
:107130000EF0004E4EEA113114EB5C04C2BFD4EBEA
:107140000C0541EA045170BD41F480114FF0000E6E
:10715000013C90E645EA060E8DE60CEA135594EAEA
:107160000C0F08BF95EA0C0F3FF43BAF94EA0C0FED
:107170000AD150EA01347FF434AF95EA0C0F7FF462
:1071800025AF104619462CE795EA0C0F06D152EAB6
:1071900003353FF4FDAE1046194622E750EA41069A
:1071A00018BF52EA43067FF4C5AE50EA41047FF4AB
:1071B0000DAF52EA43057FF4EBAE12E74FF0FF3C10
:1071C00006E000BF4FF0010C02E000BF4FF0010CE1
:1071D0004DF804CD4FEA410C7FEA6C5C4FEA430C5A
:1071E00018BF7FEA6C5C1BD001B050EA410C0CBFA9
:1071F00052EA430C91EA030F02BF90EA020F00200B
:10720000704710F1000F91EA030F58BF994208BF71
:1072100090422CBFD8176FEAE37040F0010070472E
:107220004FEA410C7FEA6C5C02D150EA013C07D185
:107230004FEA430C7FEA6C5CD6D152EA033CD3D0D0
:107240005DF8040B704700BF8446104662468C46CA
:107250001946634600E000BF01B5FFF7B7FF0028FD
:1072600048BF10F1000F01BD4DF808EDFFF7F4FF26
:107270000CBF012000205DF808FB00BF4DF808EDB1
:10728000FFF7EAFF34BF012000205DF808FB00BFD4
:107290004DF808EDFFF7E0FF94BF012000205DF8F6
:1072A00008FB00BF4DF808EDFFF7CEFF94BF0120AB
:1072B00000205DF808FB00BF4DF808EDFFF7C4FFA4
:1072C00034BF012000205DF808FB00BF4FEA410CED
:1072D0007FEA6C5C02D150EA013C0AD14FEA430CD0
:1072E0007FEA6C5C02D152EA033C02D14FF000000D
:1072F00070474FF0010070474FEA4102B2F1E0439E
:1073000024BFB3F5001CDCF1FE5C0DD901F0004C8C
:107310004FEAC0024CEA5070B2F1004F40EB8300DC
:1073200008BF20F00100704711F0804F21D113F108
:107330003872BCBF01F00040704741F480114FEA41
:107340005252C2F11802C2F1200C10FA0CF320FACA
:1073500002F018BF40F001004FEAC1234FEAD323E7
:1073600003FA0CFC40EA0C0023FA02F34FEA430351
:10737000CCE77FEA625307D150EA01331EBF4FF0DA
:10738000FE4040F44000704701F0004040F0FE40F5
:1073900040F40000704700BF7BB972B90029BEBF3E
:1073A00000204FF0004106E008BF00281CBF6FF02E
:1073B00000414FF0FF3000F0C5B9ADF1080C6DE9A8
:1073C00004CE002909DB002B1ADB00F04DF8DDF8B4
:1073D00004E0DDE9022304B07047404261EB410163
:1073E000002B1BDB00F040F8DDF804E0DDE90223B0
:1073F00004B0404261EB4101524263EB43037047EA
:10740000524263EB430300F02FF8DDF804E0DDE9BE
:10741000022304B0404261EB41017047524263EBEA
:10742000430300F021F8DDF804E0DDE9022304B0B5
:10743000524263EB4303704753B94AB9002908BF6E
:1074400000281CBF4FF0FF314FF0FF3000F07AB939
:10745000ADF1080C6DE904CE00F006F8DDF804E0AB
:10746000DDE9022304B070472DE9F0478C460D4654
:107470000446089E002B51D18A4217466DD9B2FAB4
:1074800082FEBEF1000F0BD0CEF1200C01FA0EF5FA
:1074900020FA0CFC02FA0EF74CEA050C00FA0EF486
:1074A0004FEA174A250CBCFBFAF81FFA87F90AFBCA
:1074B00018CC45EA0C4508FB09F3AB420AD9ED1993
:1074C00008F1FF3280F02381AB4240F22081A8F125
:1074D00002083D44ED1AA4B2B5FBFAF00AFB1055C0
:1074E00044EA054400FB09F9A14509D9E41900F172
:1074F000FF3380F00A81A14540F2078102383C4405
:10750000A4EB090440EA08400021002E61D024FACF
:107510000EF4002334607360BDE8F0878B4207D916
:10752000002E54D0002186E821000846BDE8F087EF
:10753000B3FA83F1002940F08E80AB4202D382423D
:1075400000F2FA80841A65EB03050120AC46002E98
:107550003FD086E81010BDE8F08712B90127B7FBCD
:10756000F2F7B7FA87FEBEF1000F34D1EB1B3A0CED
:107570001FFA87FC0121B3FBF2F8250C02FB18333C
:1075800045EA03450CFB08F3AB4207D9ED1908F1B6
:10759000FF3002D2AB4200F2D1808046ED1AA3B296
:1075A000B5FBF2F002FB105543EA05440CFB00FC6E
:1075B000A44507D9E41900F1FF3302D2A44500F233
:1075C000B8801846A4EB0C0440EA08409DE7314619
:1075D0003046BDE8F087CEF1200405FA0EF307FA35
:1075E0000EF720FA04F83A0C25FA04F448EA0308E6
:1075F000B4FBF2F14FEA184502FB11441FFA87FC75
:1076000045EA044501FB0CF3AB4200FA0EF409D93C
:10761000ED1901F1FF3080F08A80AB4240F28780A3
:1076200002393D44EB1A1FFA88F5B3FBF2F002FB76
:10763000103345EA034500FB0CF3AB4207D9ED19C3
:1076400000F1FF386FD2AB426DD902383D44EB1ADE
:1076500040EA01418FE7C1F1200722FA07F88B4089
:1076600005FA01F448EA030320FA07FE4FEA134C37
:10767000FD404EEA040EB5FBFCF94FEA1E440CFB3C
:1076800019551FFA83F844EA054509FB08F4AC4292
:1076900002FA01F200FA01FA08D9ED1809F1FF30F7
:1076A00043D2AC4241D9A9F102091D442D1B1FFA56
:1076B0008EFEB5FBFCF00CFB10554EEA054400FBBA
:1076C00008F8A04507D9E41800F1FF3529D2A045F4
:1076D00027D902381C4440EA0940A4EB0804A0FB67
:1076E00002894C45C6464D4615D312D056B1BAEB69
:1076F0000E0364EB050404FA07F7CB401F43CC40AC
:10770000376074600021BDE8F0871846F8E69046BF
:10771000E0E6C245EAD2B8EB020E69EB0305013898
:10772000E4E72846D7E7404691E78146BEE70146B1
:1077300078E702383C4445E7084608E7A8F1020824
:107740003D442BE7704700BF02E000F000F8FEE781
:1077500072B6394880F30888384880F30988384879
:107760004EF60851CEF20001086040F20000CCF263
:1077700000004EF63471CEF200010860BFF34F8F67
:10778000BFF36F8F40F20000C0F2F0004EF6885158
:10779000CEF200010860BFF34F8FBFF36F8F4FF041
:1077A0000000E1EE100A4EF63C71CEF200010860D6
:1077B000062080F31488BFF36F8F0FF09BFE0FF04D
:1077C0006BFF4FF055301F491B4A91423CBF41F8B7
:1077D000040BFAE71C49194A91423CBF41F8040BDB
:1077E000FAE71A491A4A1B4B9A423EBF51F8040B5A
:1077F00042F8040BF8E700201749184A91423CBFB1
:1078000041F8040BFAE70FF079FE0FF087FF144CF4
:10781000144DAC4203DA54F8041B8847F9E700F032
:1078200033F9114C114DAC4203DA54F8041B88476C
:10783000F9E70FF061BE0000800100208009002000
:10784000006800080001002080010020A81A02083A
:1078500080090020700B0020700B0020204B0020BE
:10786000A0690008B8690008B8690008B86900088C
:107870002DE9F04F2DED108AC1F80CD0C3689D465C
:10788000BDEC108ABDE8F08F0FF046F8002383F3BB
:1078900011882846A04700200FF0AEF90FF036F807
:1078A0000EF06CFF0FF038F800DFFEE710F8012B48
:1078B00011F8013B012A28BF9A42F7D0D01A70472D
:1078C000034613F8012B002AFBD1181A0138704720
:1078D0004FEA410212F5001215D211D56FF47873F8
:1078E000B3EB625212D94FEAC12343F0004343EA9B
:1078F000505311F0004F23FA02F018BF4042704776
:107900004FF00000704750EA013005D111F00040FF
:1079100008BF6FF0004070474FF00000704700BF95
:107920004A0011D212F5001211D20DD56FF47873FE
:10793000B3EB62520ED44FEAC12343F0004343EA53
:10794000505323FA02F070474FF00000704750EA9E
:10795000013002D14FF0FF3070474FF00000704708
:10796000704700007FB52E4D04460FF03FFD0FF02D
:1079700051FD2B68586803681E6A20231A464FF48D
:10798000E131B0472B689868036880221E6A4FF483
:10799000E1314FF48073B0472B6898690368802207
:1079A0004FF4E1311E6A4FF48073B047204600F077
:1079B000C5F804F110060FF02DFD204600F044FF3D
:1079C000304603F051FA0FF025FD00230293019396
:1079D00000931A461946134804F0E2F82B68986C95
:1079E00003681B68984710B10F4804F0D9F894F960
:1079F000743083B12B68E16898690368DB69984744
:107A000005213046E368092203F028FB002104F138
:107A1000740003F0E1FF04B0BDE8704004F08CB9DD
:107A2000800B002068AE01088FAE01080148FFF707
:107A300099BF00BF840B002010B5044604F07CF908
:107A40000C4A1368C31AB3F57A7F06D910604FF059
:107A50009042536983F010035361204601F0C2F94C
:107A6000054B1B68586C036801215B68BDE810403A
:107A7000184700BF700B0020800B00200148FFF763
:107A8000DBBF00BF840B002038B5054B1C682368A2
:107A90000A461D68034B01462046A847002038BD12
:107AA000800B0020740B002010B5164803F0F6F888
:107AB000154803F031FB154B154A1A6018240023B2
:107AC00098B2014661430133515C0029F8D1114B52
:107AD0001880114B1A6812B1104804F00DF91048C3
:107AE0001860104A1049E4380FF0F6FF04F0E0FA8D
:107AF0000E4B0F4A18600F490F48BDE8104001F0C7
:107B000035BA00BF940B0020F80B00208C24002015
:107B1000D8AE010888240020542400204CAE01086F
:107B2000680C0020A824002061790008800B002048
:107B30007D7A00082D7A0008740B002010B50446E9
:107B400002F054FE01F094FF48B9194B19491B6823
:107B5000586B03681B689847174804F0CDF8204617
:107B600002F09CFD38B1B4F90030022B03D1BDE81E
:107B7000104002F043BB03F03BF801F00DFCB4F9F8
:107B800000309FED0E7A023B07EE903AF8EEE77A6E
:107B90000223F0EEE77AF4EEC77AF1EE10FA2380D2
:107BA0004CBF01210021204602F054FADFE700BF5C
:107BB000800B0020ACAE0108C1AE0108000000340B
:107BC000BFF34F8F0549064BCA6802F4E0621343C6
:107BD000CB60BFF34F8F00BFFDE700BF00ED00E0BB
:107BE0000400FA0537B502AC10220021054604F85E
:107BF000012D0FF0FBFF054B1B68986C03682246B4
:107C0000DB6A2946984703B030BD00BF800B0020D7
:107C100030B5202387B0054683F311880EF082FE2D
:107C2000104C6A46002128460DF0A4FF98B9206840
:107C300001F01AFA172803D81821206801F02EFA4B
:107C4000206801F011FA1728EBD91822694620683C
:107C500001F082FAE5E70EF06BFE002383F3118852
:107C600007B030BD2824002007B5084968460CF04D
:107C700055FEBDF8043064205843BDF80030B0FB19
:107C8000F3F080B203B05DF804FB00BF04240020D1
:107C90002DE9F041254C264D8AB04FF000082023F5
:107CA00083F311880EF032FE206801F0C5F9172821
:107CB00036D9182204A9206801F0D6FAA0F11802DA
:107CC000564256410EF028FE88F3118856B3102212
:107CD000002168460FF08AFF04F030F80AAA064631
:107CE0000F4612E9030001AB83E803009DF814304E
:107CF000C3F303029B064CBF069BBDF818308DF8FA
:107D00000C2046BFC3F31C0343F00043C3F30A0334
:107D1000009332463B46694628460CF01DFCBEE700
:107D20000026CFE70AB0BDE8F08100BF282400207C
:107D30000424002038B5046805462CB1204601F023
:107D400041F9204601F00CF9284638BD70B50D46C2
:107D500014461E460CF010F950B9022E10D1012C19
:107D60000ED114A3D3E90023C5E90023012070BD7F
:107D70000A2C1AD005D8012C0BD0052C0DD00020D0
:107D800070BD0B2C0DD0282CF9D10CA3D3E9002306
:107D9000EAE70CA3D3E90023E6E70CA3D3E9002329
:107DA000E2E70CA3D3E90023DEE70CA3D3E9002329
:107DB000DAE700BF401DA12026812A0B26417272FE
:107DC000DF25D7B79E6AC421818A46EEF017304A74
:107DD00039059E56D5A4D139F922B6A7CDD269EB83
:107DE000C51A133B70B50378022B04460E461546A0
:107DF00005DD134B134A14487A210FF073FE034636
:107E00002946022230460CF041FB2378A91C4BB1D5
:107E1000012B09D104F10803402230460CF036FB57
:107E200005F14201084670BD022BFBD104F10803A5
:107E3000202230460CF02AFB05F12201F2E700BFB8
:107E400010B5010838B4010827B50108F0B51F4E78
:107E50001F4F204D85B030460CF034F9044670B306
:107E60001022002168460FF0C1FE227B4FF0000374
:107E700062F3030322468DF8003052F8040F516874
:107E800002AB03C3019B226862F31C0301939DF8BC
:107E9000003043F020038DF8003000236A46194675
:107EA00038460DF077FE044620B930460CF00EF946
:107EB0002C70D0E72B78072B03DC01332B7005B037
:107EC000F0BD02480CF002F9F9E700BF04240020DD
:107ED000983D00202C240020F8B50378042B05469B
:107EE0000E46174605DD264B264A274888210FF007
:107EF000F9FD03460322394630460CF0C7FA2B78C9
:107F0000FC1C53B1012B0AD1214605F10803402284
:107F100030460CF0BBFA07F143042046F8BD022BB3
:107F200009D1214605F10803202230460CF0AEFAB3
:107F300007F12304F1E7032B09D1214605F10803DA
:107F4000082230460CF0A2FA07F10B04E5E7042BF7
:107F5000E3D1214605F10803082230460CF096FAD9
:107F600007F10B0400272B7ABB42D6D9EB682146D8
:107F70003B44082230460CF089FA08340137F2E716
:107F800070B50108C8B3010887B501082DE9F047AD
:107F90000E46ADF51A7D814600240FF03BFAB78AF4
:107FA0000CAD234663550134202CFBD10023194628
:107FB00000950D2230460CF0CDF80D28014640F01A
:107FC0003D810EAB00930322002330460CF0C2F833
:107FD000032840F033812B7A002B00F03381012BF2
:107FE0001BD110AA00921021402230460CF0B2F8AA
:107FF000402840F023810DF198085024002F60D1D3
:1080000012AB009307223B46214630460CF0A2F803
:10801000072840F01381073459E0022B0ED110AB32
:10802000009322460023102130460CF093F82028BC
:1080300040F004810DF198083024DFE7032B0ED1C6
:1080400010AB009308220023102130460CF082F878
:10805000082840F0F3800DF198081824CEE7042B8F
:1080600040F0F08007B3FB00103B0822102493FB84
:10807000F2F32B740DF19808C5F814804FF0000A44
:108080002A7C524508EB0A0340F2E0800093082264
:108090000023214630460CF05DF8082840F0CE80E1
:1080A00008340AF1010AEBE710AB009308223B46C3
:1080B000102130460CF04EF8082840F0BF801824FC
:1080C000D8E7C4EBC707082397FBF3F72F76C5F86B
:1080D0001C80002795F818A0BA4508EB070340F26A
:1080E000B78000930822002304EBC70130460CF050
:1080F00031F8082840F0A2800137EBE73DAA0DF1E6
:108100001B01288802F07EFA044600284CD0012387
:1081100000933A4611233DA901F0E0FDB9E00129A1
:1081200040F08C8095F9103094F900209A4203D0E9
:108130002370204601F08EFF9DF81B30013B032B7E
:108140007CD8DFE803F023565C61012976D1B5F9CC
:108150001030B4F900209A42EED02380E9E70129DB
:108160006CD12B6922689342E6D02360E1E70229B3
:1081700064D1D5ED047A94ED007AF4EE477AF1EE0D
:1081800010FAD9D0C4ED007A0121D2E701238DF88D
:10819000503094F90020D317CDE916233846FFF765
:1081A0008FFB25978DF890003DAD0522294614A838
:1081B000FFF792FE2946421D18A8FFF78DFE2946BB
:1081C000821D1CA8FFF70EFE2946821D20A8FFF77E
:1081D00009FE002704469DF89030BB421AD9259B22
:1081E00021463B44082228460CF050F90834013758
:1081F000F1E701238DF85030B4F90020CBE70123DB
:108200008DF850302268C6E702238DF8503023687D
:108210001693C3E707340023C4F3CF04F17E05941B
:1082200004950393B37E029319360B2300930196B2
:1082300026A3D3E9002348460BF0F8FE0DF51A7D7E
:10824000BDE8F0870DF198081024D7E69846D5E6EA
:108250004822002114A807AF0FF0C8FC112200210A
:1082600038460FF0C3FCAAF11103DBB2EE2B9BD909
:108270000AF1FF330F2B3FF641AF5246E96938460A
:1082800010F06AF800220DF11B01384601F0ECFDF8
:108290000446002C88D02B7E002B3FF44DAF297A6A
:1082A00000293FF449AF9DF81B30013B032BC5D893
:1082B00001A252F823F000BF1F8100084B81000883
:1082C0005F8100086F810008AFF30080D5A4D13929
:1082D000F922B6A738B504460D46034620222846A3
:1082E00000210CF0D3F822792346032A28BF032269
:1082F00003F8042F2846022220210CF0C7F86279E7
:108300002346072A28BF072203F8052F2846032201
:1083100022210CF0BBF8A2792346072A28BF0722A6
:1083200003F8062F2846032225210CF0AFF8284633
:1083300004F10803102228210CF0A8F8382038BDD9
:108340002DE9F04FADF5037D23AE10AD40F279126B
:1083500080460F46304600210FF048FC482200219D
:1083600028460FF043FC03F0E7FC614B4FF47A72B0
:10837000B0FBF2F0186093E8070085E8070000F012
:10838000DFFD03782B7400F0DBFD43786B74594BF1
:108390005A696A6103249A68DB68AA610DF1620078
:1083A000AC74EB61FFF71EFCEC2385F8213007ABC2
:1083B0001846514985F820400FF08CFF212228648F
:1083C0003146284685F83C20FFF784FF14AB04466D
:1083D0000146082230460CF059F80822A1180DF188
:1083E000510330460CF052F80DF15203082204F10B
:1083F000100130460CF04AF815AB202204F11801A8
:1084000030460CF043F816AB402204F138013046F8
:108410000CF03CF818AB082204F1780130460CF05F
:1084200035F80DF16103082204F1800130460CF0AB
:108430002DF804F1880A0DF1620904F5847B4B469E
:108440005146082230460AF1080A0CF01FF8D345BD
:1084500009F10109F3D11DAB0822594630460CF051
:1084600015F804F588744FF0000995F834304B4541
:1084700010D84FF0000995F83C304B4515D92B6CBE
:1084800021464B44082230460CF000F8083409F12C
:108490000109F0E7AB6B21464B44082230460BF054
:1084A000F5FF083409F10109DFE7E31DC3F3CF034A
:1084B000F97E0593002304960393BB7E029319373C
:1084C00001230093019708A3D3E9002340460BF052
:1084D000ADFD011E02DC094803F062FB0DF5037DD2
:1084E000BDE8F08FAFF300809E6AC421818A46EE1A
:1084F0007C0C0020B8690008F4B0010816B101082E
:108500002DE9F041AEB006460C460BF035FD0546B0
:1085100000287AD1237E022B1ED1E38A012B1BD1A6
:1085200003F00AFC804600F0EDFE4FF4C87308F536
:108530001678B0FBF3F202FB130018FA80F0B24F8A
:1085400094F81B803860B8F1000F13D1AF4803F0E6
:1085500027FBAF4B83F800802EB0BDE8F08108AB5D
:108560001D440095002308224FEAC80120460BF065
:10857000F1FD4546A38A013BAB425FFA85F80BD972
:1085800005F10108B8F1110FE9D1A24BA24A40F25E
:108590008511A2480FF0A6FA0CA8FFF723FB2A4684
:1085A0000CA908A80FF006FB034630B19C4803F065
:1085B000F7FA974B00221A70CEE7B8F1100F0BD0E4
:1085C000934B984883F800803B68A3F516733B6093
:1085D000414603F0E5FABFE72EAA014602F8A00DD6
:1085E0002046009207220BF0B5FD9DF818107F2958
:1085F00004DD8D4B884A40F29F11CAE730460BF0EC
:108600009FFC9DF818108948E3E7E38A0A2B00F0E5
:108610009F800ED8012B3CD0052B9DD1844803F0C0
:10862000BFFA844B1B68586C03680A215B68984743
:1086300087E00B2B00F08780282B8DD14FF0005561
:10864000E022002128460FF0D1FA7B4B2B60A38A51
:10865000013B9BB2C92B3FF67FAF784B00930023C1
:108660001946082220460BF075FD0023A28A5D1CE6
:10867000013ADBB293424FEAC5010FDA03F100532E
:10868000163300930822002320460BF063FD2B468F
:10869000ECE721463046FFF753FE5DE74FF000530D
:1086A0001A7D0AB9E27E1A7530460BF065FC4FF070
:1086B000005300250CAF5875082208AB29463846F0
:1086C000089509950A950BF0E1FE9DF8243005F117
:1086D0000108AB424FEAC80107D90A9B08222B4484
:1086E00038460BF0D3FE4546EFE7C1F3CF01002338
:1086F000E07E059104970393A37E02931934282307
:108700000194009301463CA3D3E9002330460BF0CB
:108710008DFC484D3324013C14F0FF0408D0FFF7D2
:1087200095FB2B68586C036801215B689847F2E75A
:1087300030460BF021FC40F0304040F400200EF0B9
:108740009FFDFFF73DFA21463046FFF71FFC03E788
:10875000002308AA194699540133102BFBD100239A
:1087600000921946082220460BF0F4FC0828014626
:108770007FF4F2AE0AAB00933022012320460BF0C7
:10878000E9FC30287FF4E8AE9DF82030012B0BD1B6
:1087900002F02EFA00F000FE01F030FD02F026F8A3
:1087A0002749284802F004F806AD102200210CA841
:1087B0000FF01CFA01270CAB2846302200218DF85F
:1087C00038700BF063FE0EAB3A46284630210BF0B2
:1087D0005DFE0723E17E0593002304950393A37EAA
:1087E000029319340A230093019405A3D3E90023CB
:1087F00030460BF01BFCAFE626417272DF25D7B77F
:10880000CDD269EBC51A133B00240020D0AF01087C
:10881000FC230020FBAF0108CCB4010854B00108D0
:1088200072B0010893B00108B5B00108CEB00108DC
:10883000E5B00108800B00209AAD44C5140000206B
:10884000B0BB0108F80B00202DE9F04FAA4E0446FA
:1088500091B0002501237371357103F06DFAD4F8DE
:1088600004E008954FF47A739E45B0FBF3F0ADF841
:10887000245030605AD3A14BA14DB5FBFEF19E456B
:1088800094BF102309235A1CB1FBF2F702FB171205
:1088900022B1022B4ADD013BDBB2F4E77A1EB2F5CE
:1088A000806F43D2C3EBC306F11CC1F3C701581A52
:1088B0008B42C0B206DC934B934A40F215119348A9
:1088C0000FF010F901F1010C4FF47A7202FB0CF277
:1088D0008444B2FBFCF292B2B2F5617F06D9711EFC
:1088E000082691FBF6F1C9B25B1AD8B24B1E0F2BCA
:1088F00011D8431E072B8CBF002301230A1802FB4B
:108900000772B5FBF2F5AE4500D133B9804B7E4A14
:1089100040F22F11D3E70023F0E70123ADF82070D8
:108920008DF824308DF822108DF823009DF8233027
:10893000784E5A1E9DF82230013B1B0443EA025335
:10894000BDF82020013A1343734A5360B4F9023052
:108950009AB27F2A40F2A6807048714B6E498361BB
:1089600000240DF0F5F86F4B00936F4901946F4BA5
:108970006F4841F270720BF0ADFA317811B16C486A
:108980000BF0DEFA8DF81F4003F0D6F9DFF8C8814E
:108990008146002466480BF0EFFA68BBFFF764F9E4
:1089A00001466448624F03F0FBF80EF033FD03F01C
:1089B000C3F9054600F0A6FC4FF4C87305F516751B
:1089C000B0FBF3F202FB130015FA80F0C8F80000C8
:1089D0004FF0010A4AF6AA2B03F0AEF9D8F800309E
:1089E0009842054604D238460BF0C6FA00285BD000
:1089F0004F480BF0C1FA48B14D480BF0BDFA0146A3
:108A00004D4803F0CDF811B0BDE8F08F33784B4FEF
:108A10005B003A78DBB28DF828301AB943F00103D5
:108A20008DF828300CA8FFF7DDF83978C1F1100572
:108A3000EDB2062D28BF06250F2905DD404B414A22
:108A40004FF47A7140483BE725B9404B3D4A40F22C
:108A5000EA31F7E74B19102B04DD3D4B394A40F260
:108A6000EB31EFE70CAB19442A460DF129000FF06A
:108A7000B1F80AAB0393182302930DF11F0301937E
:108A8000013501230093049519A3D3E90023284855
:108A90000BF074FA011E02DA2E4803F081F800236D
:108AA0003B7077E7337057E7FFF7D0F9FFF7F0F83F
:108AB00003F044F902460B4638460BF00DFB0EF06E
:108AC000A9FCA5EB0903322B86D90AFA04F303EAC1
:108AD0000B03002B4FF0904314BF10224FF4801271
:108AE00001349A6104F01F04A94675E7AFF30080D2
:108AF000401DA12026812A0B7C0C00203F420F0044
:108B000000512502B4B1010874B30108C6B10108CF
:108B100054140208890C002080090020983D002090
:108B2000117C00084D7D00088C0C00200185000898
:108B300004240020FBB1010848B30108FC230020F5
:108B400030B20108B4B4010854B0010896B201086B
:108B5000A3B2010817B301080024002070B52DED61
:108B6000028B90F9743094B00646002B00F0BB8065
:108B700003F0E2F8614A1368C31A132B40F2B38082
:108B800006F174051060284602F0EEFA002128462E
:108B900002F060FB0128044640F3A580002128462E
:108BA00002F062FB202208EE100A00210CA80FF050
:108BB0001DF896F88B308DF83830032C03D0042C38
:108BC0000ED0022C01D18DF845400021284602F03C
:108BD00053FB01280CD007D3032809D0002304E05D
:108BE00001238DF84530F0E702238DF8443001E091
:108BF0008DF84400DFED427AB8EEC80A08AC20EEEA
:108C0000270A14AD8DED120A0BF090FE0021ADF88D
:108C100048000CAB38222046ADF81E100BF036FC95
:108C20000EAB0822382120460BF030FC0DF1390341
:108C30000522402120460BF029FC0DF13A030522C4
:108C4000452120460BF022FC0DF13B0305224A2171
:108C500020460BF01BFC0FAB01224F2120460BF0EE
:108C600015FC9DED100A0BF061FE25F8320D102267
:108C70002B46502120460BF009FC9DF8442014ABF4
:108C80001F2A28BF1F2203F80C2D60210522204631
:108C90000BF0FCFB9DF8452014AB072A28BF0722E8
:108CA00003F80B2D6521032220460BF0EFFB9DED11
:108CB000120A0BF03BFE2B46ADF81E001022204698
:108CC00068210BF0E3FB0F230493182302930D4B51
:108CD000019340F21A430093039406A3D3E90023BF
:108CE00009480BF04BF914B0BDEC028B70BD00BF0E
:108CF000AFF30080521977FC70FEFF683424002027
:108D00000AD7233C880C0020042400200FB470B53F
:108D1000C4B048AC0CAD54F8046B1422002107A871
:108D20000EF064FF2346324664212846069402F082
:108D3000F7FE9DF81C300B95642828BF6420072B94
:108D400028BF072325AD8DF828008DF81C3003229D
:108D500007AB002128460BF099FB08AB0522032145
:108D600028460BF093FB00239DF820205E1C9A42BE
:108D70004FEAC6040ED800269DF82830B34212D917
:108D80000B9B21463344082228460BF07FFB083416
:108D90000136F1E7099A21461344284608220BF0D0
:108DA00075FB3346E0E71823029307340B4B01931E
:108DB000C4F3CF0443F6FF7300930494039505A313
:108DC000D3E9002306480BF0D9F844B0BDE8704061
:108DD00004B07047759D040C8EA454D6880C0020F6
:108DE00004240020F0B589B0064602F0A5FF3B4AF6
:108DF0001368C31AB3F57A7F60D3106002F09EFF48
:108E000002460B4636480BF067F9FEF72DFF462861
:108E100002DD344802F0C4FE02F08EFF4FF47A7394
:108E2000B0FBF3F0304B314C1D682060A86C036838
:108E3000DB6E984706AF394620812046FFF74AFA95
:108E40001823029307302A4B0193C0F3CF0040F25E
:108E500055130490009303971EA3D3E900232048E1
:108E60000BF08CF8011E02DC224802F099FE224829
:108E700090F90830BBB1002300F8083F012101F050
:108E8000E9F8686C03684FF47A715B689847A86CDE
:108E900003685B6A984718B1012818D0174800E0AA
:108EA0001748FFF733FF0023637102F045FF47F2D5
:108EB0003053984202D913480EF0E2F93046FFF7DA
:108EC0004DFEFEF7C3FFFEF7E3FE09B0F0BD0E480E
:108ED000E7E700BFF1C6A7C1D068080F3024002023
:108EE000042400203CB10108800B00207C0C0020F1
:108EF000880C00205AB10108840B002098B10108A9
:108F00006DB10108263A09B082B1010838B5094CA3
:108F100000231020236000F01DF84FF44671054631
:108F200000F040F825602046034A0449BDE8384077
:108F30000EF0D2BD28240020A8240020357D000892
:108F400000487047C8B501080121002808BF08463D
:108F50000EF0A4B8FFF7F8BF08B10EF0A3B8704741
:108F6000FFF7FABF436818478368184710B5084CE5
:108F700004604160826029B9064B074A0B2107480B
:108F80000EF0B0FD1AB9064B034A0C21F7E710BDED
:108F900004B601080CB6010840B6010816B601086F
:108FA00035B6010838B5002304468360C36001204C
:108FB0000D460EF073F8002808BF0025206065609C
:108FC000204638BD10B5044600680EF06BF8204608
:108FD00010BD000038B50023BFF35B8FC360BFF343
:108FE0005B8FBFF35B8F8360BFF35B8F43688B4204
:108FF00004460D460BD000680EF054F829460120B7
:109000000EF04CF8206008B9606038BD6560012042
:1090100038BD00000023BFF35B8FC360BFF35B8FDD
:10902000BFF35B8F8360BFF35B8F7047BFF35B8FD2
:109030000068BFF35B8F704770B506460C30FFF7D2
:10904000F5FF06F1080504462846FFF7EFFF8442C6
:1090500006D228467668FFF7E9FF3444201A70BD2F
:109060002846FFF7E3FFF9E770B50546406898B179
:1090700005F10800FFF7DAFF05F10C06044630465B
:10908000FFF7D4FF8442304694BF6D680025FFF798
:10909000CDFF013C2C44201A70BD000038B50C46B1
:1090A0000546FFF7C9FFA04210D305F10800FFF7FE
:1090B000BDFF6B68BFF35B8F2044B0FBF3F403FB91
:1090C0001400A860BFF35B8F012038BD002038BDBD
:1090D0002DE9F041144680460D46FFF7C5FF844256
:1090E00028BF0446DCB1474657F80C6B3846FFF7FB
:1090F0009DFF304428603846D8F80460FFF796FF9B
:10910000301AA0423BBF6860D8F800306C60241A67
:109110003BBFAB60EC6001200220BDE8F08120463F
:10912000BDE8F08138B50C460546FFF79DFFA0422B
:1091300010D305F10C00FFF779FF6B68BFF35B8F6D
:109140002044B0FBF3F403FB1400E860BFF35B8F33
:10915000012038BD002038BD2DE9F04385B0884698
:1091600069460746FFF7B4FF0026814601AD344645
:109170004E4505F108050CDA08EB040155F8082CFA
:1091800055F80C0C0EF026FD55F8083C01361C4431
:10919000EEE721463846FFF7C5FF204605B0BDE89B
:1091A000F0830000F8B506460C300F46FFF73EFF8F
:1091B00006F1080504462846FFF738FF8442284692
:1091C00038BF7468FFF732FF201A386020B1284694
:1091D0003468FFF72BFF2044F8BD000073B5144638
:1091E00006460D46FFF728FF844228BF044601903B
:1091F000DCB101A93046FFF7D5FF019B33B93268D6
:10920000AB6085E81400EB6001200CE0A34288BF4E
:109210000194286001986860A042F5D23368AB6081
:10922000241AEC60022002B070BD2046FBE700006B
:109230002DE9FF410F466946FFF7D0FF0024804625
:10924000254644450BDA0DEBC4035DF834105E6827
:10925000781932460EF0BEFC35440134F1E7284659
:1092600004B0BDE8F081000038B50546FFF7E0FF27
:10927000044601462846FFF711FF204638BD00008E
:1092800070B50C460546FFF7D7FEA0420CD928461C
:1092900050F8086BFFF7CAFE6B682044B0FBF3F48C
:1092A00003FB1400305C70BD4FF0FF3070BD000058
:1092B00038B505460C4659B10021FFF7E1FF0028FB
:1092C00006DB207001212846BDE83840FFF7E6BEE6
:1092D000002038BD70EE600ADFED057AF0EEE00A9E
:1092E000F4EEE70AF1EE10FA4CBF012000207047BF
:1092F00000000034884203DB9042A8BF104670474C
:109300000846704709490B6849F269009AB21B0C7C
:1093100000FB0233064A0B60136844F2506198B2B6
:109320001B0C01FB0030106080B270478C090020DC
:10933000880900207047000038B5046805462CB144
:109340002046FFF73FFE2046FFF70AFE284638BDBD
:1093500013460246014801F083BC00BF842400206C
:1093600013B59DF80530FF2243F03F038DF804202C
:109370008DF80530019B044602A862F39F3340F844
:10938000043D04222146FFF7E3FF024B1C8002B09C
:1093900010BD00BF7C24002007B5502304228DF8A7
:1093A0000430412300210DEB02008DF80530062327
:1093B0008DF806308DF80710FFF7CAFF0420FFF77D
:1093C000CFFF03B05DF804FB10B502EB820200EBA7
:1093D000820044783CB933B1028A120703D43F209B
:1093E0009840084410BD04FA03F0FAE7800906D05B
:1093F000044B1B88184214BF012000207047012035
:10940000704700BF7E24002030B50A4B0A4A1B88F3
:109410001268013080B21824984207DA04FB002554
:109420002D898D4204D0013080B2F5E7002030BD97
:10943000012030BD882400208C240020038ADB0614
:1094400046BFC3681868C06870470000838ADB069F
:1094500046BF0369186800697047000007B5042318
:109460000DEB030100220D4801F0DCFB9DF80430F8
:10947000502B07D19DF80530412B03D19DF80630C4
:10948000062B07D04FF4A6720549064802F088FB68
:10949000FFF782FF012003B05DF804FB8424002065
:1094A00018B8010870B70108838A13F0020FC36867
:1094B00005D018680860003018BF012070470B60A5
:1094C0000120704737B50B8A0C46D90705D51368BC
:1094D000A1680B441360012012E09B07FBD50A4BE7
:1094E0001B68182501A905FB0030FFF7DDFF48B117
:1094F000019D1168A3682944CB581BB15B1B136005
:1095000003B030BD0020FBE78C2400202DE9F04F94
:109510008BB01D469DF85460069118235343059364
:10952000B31DDBB2814692464FF0000807935FFA05
:1095300088FB142303FB0BF3EF18EC5C44B3062CFD
:1095400028D10B2E24DC3846FFF778FF044600288C
:1095500041D00AAA169B42F8043D39465046FFF70F
:10956000B1FF002837D033465A4614992846FFF7F2
:109570002BFF099B0293079B06998DE80900524631
:1095800023464846FFF7C2FF28B30BB0BDE8F08F73
:109590000020FAE733465A4614992846FFF714FF8D
:1095A000B0EB993F17D1C9F30423A34213D10B4B5E
:1095B0001868059B09A91844FFF776FF58B1BB68E6
:1095C000099A1344169A1344069A1360034B1868B9
:1095D000059B1844D9E708F10108A8E78C2400206E
:1095E0002DE9F04F1F4B204EB3F800A0D6F80080B5
:1095F000C0F34033C7B2894687B0054647EA032720
:10960000C0F3042B00218AB2524529DA182303FB48
:1096100002F408EB04000389BB421FD118F80430A0
:10962000062B0ED1FFF712FF0346B8B100210291BD
:109630000191009128464946FFF768FF07B0BDE851
:10964000F08F5B450AD105A9FFF72EFF0028F5D062
:10965000059BC9F8003030682044EFE70131D2E7BC
:109660000020EBE7882400208C2400202DE9F04F17
:109670009A468DB0182353430693474B07920646EC
:109680001868069B9DF858801A9C0F4618440AA932
:10969000FFF70AFF00287CD008F10603DBB24FF089
:1096A000000B09935FFA8BF9142303FB09F3FD18F0
:1096B000FA5C002A6DD0062A37D12846FFF7BEFE95
:1096C000089000282ED0B8F10B0F62DC0CAA179B73
:1096D00042F8043D29460798FFF7F4FE10B32378BB
:1096E000012B56DC5A1C04EB8303227051465D604B
:1096F0004A4643463846FFF767FE1B9B0593199B76
:109700000393189B02930B9B0193099B0093049472
:109710000346079A08993046FFF7A8FFE8B923786F
:10972000013B23700BF1010BBCE71799AB680B44AD
:109730000A990B44B34213D143464A465146384630
:10974000FFF742FE189B1B9A1860199B1D600023AF
:109750001370114B1868069B18440DB0BDE8F08FCC
:10976000052ADFD11A1D96420ED1F61A1B9BB608A8
:109770001E704A46434651463846FFF725FE189B61
:109780001860199B1D60E4E703F108029642C9D1F5
:10979000EBE70020E1E700BF8C2400202DE9F04F2B
:1097A0008BB00025DFF8A8B0284F079306468846FF
:1097B00091461560BBF80030AAB29A4244DA1824E8
:1097C0005443386809A910F804A02044FFF76CFE40
:1097D000002837D0BAF1060F17D138682044FFF7B8
:1097E00035FE014670B3149B0593079B0493002339
:1097F000CDF80C90CDF80880019300933046FFF728
:1098000035FFF8B10BB0BDE8F08F099AB24207D12D
:10981000149A0023C8F80030137038682044F1E728
:10982000BAF1050F0ED1131D9E4207D1149BB61A33
:10983000B6081E700023C8F80030EEE702F10803F6
:109840009E42F3D00135B5E70020DBE78C240020F1
:10985000882400202DE9F0470C88DFF8A090C4F39D
:1098600008041FFA84F824B204EB4404E40006461A
:10987000D9F8000088B010F804A0119D07A9204471
:109880001F46FFF711FE4B4618B9002008B0BDE88F
:10989000F0870021BAF1060F396014D1D9F8000021
:1098A0002044FFF7D3FD0028EFD0109B04930292D1
:1098B000019100910B4605950146039742463046BB
:1098C000FFF7D4FEE2E70798B04205D11160297096
:1098D000D9F800002044D9E7BAF1050FD5D1011D10
:1098E0008E4203D000F108018E42CED1301A80089A
:1098F0000021287011601868ECE700BF8C2400205C
:1099000008B5034606280DD8DFE800F01204060863
:10991000080A1200012008BD022008BD042008BD6D
:109920000C2008BD4FF423720249034802F038F9B5
:10993000002008BD2CB80108C8B701082DE9F04F78
:109940009B4687B00023002402F10609CDE90234CA
:109950005FFA89F382460F46904600260593F3B2DC
:10996000142253430AEB03051AF80390B9F1000FD0
:109970006FD06C783F2C0BDD6B683749374800930C
:10998000C622234602F00CF9002007B0BDE8F08F94
:10999000B8F1000F02D0002C08BF3F242246DDE9B9
:1099A0000201FDF71BF8002100F0010050EA01035D
:1099B00006D06B680093CE22234627492848E1E76A
:1099C000224601200021FDF723F8DDE90234B9F138
:1099D000060F43EA000344EA0104CDE902341DD135
:1099E000B8F10B0F06DD6B681B491E48D52202F04B
:1099F000D7F8C9E72846FFF721FD044660B168683B
:109A0000FDF75EFF0BEB0003DBB2059A39462046FB
:109A1000FFF794FF0028B8D00136A0E74846FFF7CB
:109A20006FFF044620B96B680B490F48E322DEE75D
:109A30006D682846FDF744FF5844102804D92B468A
:109A4000E72205490948D2E73888043004443C80BD
:109A5000E2E7012099E700BFFCB7010880B60108E2
:109A6000A1B60108C7B60108EAB6010805B70108A2
:109A70002DE9F74F0423DFF89C90254FADF8063011
:109A80000025B9F800201FFA85F8904543463CDAD6
:109A900018245C433B681E5D1A19062EB2F808A014
:109AA00027D1B8F1000F03D1002003B0BDE8F08F3B
:109AB0001046FFF7CBFC834608B90135E1E7506853
:109AC000FDF7FEFE0022C3B20DF106015846FFF776
:109AD00035FF0028E8D051464046FFF795FC0028A6
:109AE000E2D1062EE9D03B681C44A38A9B07E4D54B
:109AF000DAE73046FFF704FF0028D5D0BDF806307E
:109B000004331844ADF80600E5E70120CDE700BFB7
:109B10008C24002088240020437803F01F021F2A91
:109B200010D00278C3F3401342EA032340F2FF123D
:109B3000934207D0006820F47F5323F03F03B3F52E
:109B40007F1F01D1012070470138C31C94BF002042
:109B5000012070472DE9F341254FDFF8A480064628
:109B60000D4604247B889C422CDA04230DEB030170
:109B70002246384601F056F89DF80510737881EAC0
:109B80000302D20628D196F800E09DF80400C3F342
:109B90004013C1F340124EEA032340EA02229342EB
:109BA0001AD13268019B534013EA080F14D12C805C
:109BB00001201AE001F01F00FFF7A2FE0430044468
:109BC000A4B2CFE74FF6FF732B8040F2D2220949AF
:109BD000094801F0E5FF07E001A8FFF79DFF002815
:109BE000E8D0064B2C801C80002002B0BDE8F0813C
:109BF0008424002010B8010850B701087C240020FC
:109C000000C0FFFF70B50C462046114615461E46A3
:109C10000EF0B8FB831C9D420AD35F222254221807
:109C20000330854206F15806567024BF0022E254E4
:109C300070BD00002DE9F74F0D9D0E9C00908846E9
:109C4000174649689DF830609DF83C9022462846AA
:109C50009A460EF081FB4FF0000B9AF800105FFA65
:109C60008BF28A42019212DA214628460EF08AFBD4
:109C7000C0B28442019A07D90AEB82025168221AC3
:109C8000496828440EF068FB0BF1010BE5E7DFB1F2
:109C9000214628460EF076FBC0B2844204D9221A2F
:109CA000796828440EF058FBB9F1000F00D196B145
:109CB0003B78052B0FD1009833462246294603B046
:109CC000BDE8F04FFFF79EBFB9F1000F00D116B10C
:109CD00098F80030EDE703B0BDE8F08FF0B58BB039
:109CE00007AC1F4600236360A36007930DF11303C5
:109CF00001931546009406AB05AA0646FFF7AAFD98
:109D0000014640B9287040F2F5220A490A4801F09C
:109D100047FF0BB0F0BD9DF8403003939DF8133022
:109D20000093029701952346069A3046FFF782FF7B
:109D3000EFE700BF38B80108E4B701082DE9F04F9C
:109D400087B0DFF820A1039318234B4304460F4646
:109D50009046029300261422F3B25343039A12F85A
:109D60000390D518B9F1000F7AD0B9F1060FD5F8E4
:109D700004B028D15846FDF7A3FD594602462046B7
:109D80000EF0B0FA002865D12846FFF757FB83464E
:109D900000285FD006AA294642F8048D3846FFF70E
:109DA00091FB002856D06868FDF78AFD109B009350
:109DB000059A5B4639462044FFF7C0FF002849D08A
:109DC00007B0BDE8F08F594620460EF065FA80B91D
:109DD000DAF80000029B05A91844FFF765FB00288C
:109DE00038D0109B83F80090A868059B1844404425
:109DF000E6E7B9F1050F2DD1102158460EF0C2FA51
:109E00005FFA80FB5A46696820460EF093FA08BB59
:109E100014F90B305F2B1DD10BF1010B14F80B3033
:109E2000583B022B16D8DAF80000029B05A918440B
:109E3000FFF73AFB70B1A868059B109A18440423F9
:109E4000137014F90B30592B404405D05A2B05D010
:109E5000582BB5D001367EE70430B1E70830AFE7C4
:109E60004846ADE78C2400202DE9F04F334F8BB0EE
:109E70000646884691460025314B1B881FFA85FB14
:109E80009B455C4656DA18235C433A6812F804A0F6
:109E9000BAF1060F02EB040339D1102158680EF015
:109EA00071FA3B6823445FFA80FA5246596803937B
:109EB00030460EF03FFA0446002839D1039B18467D
:109EC000FFF7C4FA0346002832D006EB0A00CDF8AB
:109ED000008022465946FFF731FF824640B3B9F170
:109EE000000F10D00DF11303009306AA07AB05A9CC
:109EF0000594079408940994FFF750FC069B13B14E
:109F00001B8AA9F8003050460BB0BDE8F08F5968A5
:109F100030460EF0C1F9024650B988F800A0386802
:109F200007A92044FFF7C0FA00B1079A9246EAE772
:109F30000135A1E74FF0000AE5E700BF8C240020BF
:109F4000882400202DE9F04F87B01825DFF890A075
:109F500003920746884699464D4300261423F2B2E1
:109F60005A43039B9C5C03EB020BECB1062C35D1EE
:109F7000DAF8000004A92844FFF796FA044668B30B
:109F8000BBF81020049912F0020FDBF8082015BF6F
:109F90004A44521852584A44974209D1DAF80030DC
:109FA000109A1D442B891380204607B0BDE8F08F1E
:109FB00006AA594642F8049D4046FFF783FA68B165
:109FC0005846FFF73BFA024640B1109B00934146CA
:109FD000059B3846FFF7B6FF0028E5D10136BDE7FF
:109FE0008C2400202DE9F743184FDFF864800546E4
:109FF0000E4600244FF018093A88A1B2914223DAA4
:10A0000009FB01F3D8F80020D018D35C062B01D04F
:10A010000134F1E7838A9B0709D5C3681B689D4219
:10A0200005D103893380012003B0BDE8F083FFF739
:10A030000DFA02460028EBD0009600232846FFF7D1
:10A0400081FF0028E4D0EFE70020EDE7882400201E
:10A050008C2400202DE9FF411C4EDFF87480029013
:10A060008DF80C10371D4FF49172394601A802F09B
:10A0700099FA3068FEF7F8FF042822D9052202A9D0
:10A080003068FFF769F8431F5D425D4101A802F0A7
:10A09000ABFAC5B9D8F80040A36C93F89C3093B9DB
:10A0A000606C036801211B699847606C03684FF47A
:10A0B000FA719B689847606C036829461B6998474A
:10A0C000D1E70025E2E704B0BDE8F0815824002084
:10A0D000800B002000B58BB00023049307930893F6
:10A0E00009930DF10D03009305AA07AB04A9FFF72F
:10A0F00055FB30B3059A9DF8193032B3127862F3EC
:10A1000004038DF8193003899DF819208DF8183053
:10A110001B1263F345128DF81920069B049A0DF16A
:10A120000E0162F39F3306A80693FFF713FD40B1BB
:10A130009DF8193003F01F03052B03D09DF80D3057
:10A1400003B100200BB05DF804FB0278D7E70000F4
:10A15000F0B5144D2B8889B007460E4603B30DF1B8
:10A160000B030024009304AA05AB03A903940594F0
:10A1700006940794FFF712FB90B10B4B2D881A68D9
:10A180000C20A3B2AB420BDA4343D118D3589F4201
:10A1900004F10104F5D10B7A3370012009B0F0BD50
:10A1A0000020FBE7802400207824002013B50DF167
:10A1B00007010446FFF7CCFF10B92046FFF78AFFDE
:10A1C00002B010BD0138032816D8DFE800F00208FD
:10A1D0000E13FDEEC07A17EE903A0B707047FDEE4D
:10A1E000C07A17EE903A0B807047BDEEC00A81ED41
:10A1F000000A704781ED000A704700007FB5254BCB
:10A200001A7872B901221A70234B244A1B680292F1
:10A21000586C234A0368039204AA9B6A12E9060059
:10A220009847204D04246B889C422ADA0423224656
:10A230006946284600F0F6FC6846FFF76DFC18B149
:10A24000194B1C8004B070BD01A90098FFF7C8F934
:10A2500068B19DF80100019E00F01F00FFF750FB60
:10A26000221D034692B23146284600F0DBFC9DF8E1
:10A27000010000F01F00FFF743FB04300444A4B2C8
:10A28000D1E740F29D520949094801F089FC0020BC
:10A29000D8E700BF82240020800B00203824002053
:10A2A0007DAB0008842400207C24002020B8010815
:10A2B00098B7010807B503886FF3080303800368A4
:10A2C0006FF39F3303601B0A6FF3450343700A4B20
:10A2D0001B881BB9002003B05DF804FB074B11B1CC
:10A2E0001A6812780A7001A91868FFF7DDF80028CB
:10A2F000F0D00198EFE700BF882400208C240020D4
:10A300002DE9F04F8DB0DFF858B107931823434380
:10A310009DF8589008930023059309F10603DBB2DA
:10A32000189D069280460E4609939DF814A01423AA
:10A3300003FB0AF3F718F45C002C00F08E80388AD7
:10A34000FFF754F8002800F08480062C27D1384607
:10A35000FFF774F8044600287BD00CAA179B42F83C
:10A36000043D39464046FFF7ADF8002871D04B4612
:10A37000524607993046FFF727F8199B03930B9B2A
:10A380000193099B009302950346069A2146404695
:10A39000FFF7B6FF00285CD00DB0BDE8F08F069B3C
:10A3A0001B781BB32B88079968F308032B80524650
:10A3B0004B463046FFF708F82B6860F39F332B605D
:10A3C0001B0A6FF345036B70199B03B11C70DBF81C
:10A3D0000000089B0BA91844FFF766F8002838D046
:10A3E000B8680B9C179B20441844D5E74B4652464F
:10A3F00007993046FEF7E8FF2B68B0EB933F28D172
:10A40000069A0123052C137023D16B78C3F3440201
:10A41000022A1EDC013262F345036B70199B13B1F3
:10A42000199A04231370DBF80000089B0BA9184449
:10A43000FFF73AF868B10B9CB868179B20446C781A
:10A44000C4F3440404F180441844013C00EB84004C
:10A45000A2E7059B0133059367E720469CE700BF11
:10A460008C2400202DE9F04F3C4F038887B0002258
:10A47000C3F308038DF817203A889CB2944205462E
:10A480000E4669DA36491BB203EB4303DB000A6868
:10A49000D25C052A88461AD14278C2F344010229C7
:10A4A00017DC013161F3450242700EB104223270B3
:10A4B000D8F8001068780B44C0F3440000F18042E3
:10A4C000D868013A00EB820007B0BDE8F08F062A99
:10A4D00004D001340123A4B28DF817304FF0180ACC
:10A4E0004FF000093B889C4236DAD8F800100AFB8E
:10A4F00004F201EB020BBBF81400FEF777FFA8B1E2
:10A50000895C062915D15846FEF7A0FF014668B1BF
:10A5100003960295CDF80490CDF8009000230DF13C
:10A5200017022046FFF7ECFE0028CDD10134A4B27B
:10A53000D8E72B8864F308032B802B686FF39F33D5
:10A540002B601B0A6FF345036B7006B13170D8F8AE
:10A5500000301344D868B7E70020B5E7882400200E
:10A560008C24002070B504468AB00E460DF10D0112
:10A570002046FFF777FF054618B39DF80D30042BF2
:10A58000F4DC012B19D1002207AB07920892099243
:10A590000DF10E020192009304AA05AB2146FFF7CC
:10A5A00059F950B1059B43B11B8A5B0705D595F955
:10A5B000003013B9124B1B7833B916B19DF80D302A
:10A5C000337028460AB070BD236806930DF10F0161
:10A5D00006A8FFF747FF0028EFD0BDF81830228803
:10A5E0005340C3F30803002BE7D19DF81C30069AB3
:10A5F00023B12368534013F47C2FDED12260E5E7BA
:10A6000090090020F8B5074610460E461546FFF79C
:10A6100051FE002448B1A3B2BB4204F1010404DAA4
:10A6200031462846FFF79EFFF4E7F8BD01390329BC
:10A6300013D8DFE801F002090C0F90F9003000EEAA
:10A64000103AB8EEC00A7047B0F90030F7E790ED65
:10A65000000AF6E790ED000A70479FED010A704787
:10A660000000C07FF0B50B4B1F880B4B1C6800220D
:10A670000C2693B2BB4209DA7343E518E3588342D0
:10A6800002F10102F5D195ED010AF0BD91ED000A4C
:10A69000F0BD00BF8024002078240020F0B58BB0EE
:10A6A000002303930793089309930DF10903009383
:10A6B00004AA07AB03A90446FFF770F8064618B9C9
:10A6C000002528460BB0F0BD049A9DF81530002AED
:10A6D00033D0127862F304038DF8153033899DF876
:10A6E00015208DF814301B1263F345128DF81520D8
:10A6F000059B039A0DF10A0162F39F3305A80593A8
:10A70000FFF728FA054698BB06A93046FEF7CCFEAF
:10A710000028D6D0049F17B39DF81C102A462E4659
:10A72000D3B28B4202F1010209DA0AA800EB8303DB
:10A7300053F8083C9B681E44F2E70278CAE707F129
:10A740000C012046FFF78EFFB968069B9DF81500A7
:10A750001944314400F01F00FFF734FDB1E706F162
:10A7600010012046FFF77EFF9DF815000699F1E7DE
:10A770009DF815009DF8091000F01F03052B10D05F
:10A7800000299DD1BDF80A6000F01F00FFF7B8F85E
:10A790000436B6B2034632462146044800F042FA77
:10A7A0008FE70029EED0A4EB8104EBE7842400209E
:10A7B0002DE9F84380460F4600254FF01409EBB20F
:10A7C00009FB03F3F918FE5C6EB1042E09DC8C68FA
:10A7D00044440C312046FFF745FF21463046FFF741
:10A7E000F1FC0135EBE7BDE8F88300002DE9F74304
:10A7F000FEF734FE124E134D002418273388A2B200
:10A800009A421ADA7A432B6813F80280B8F1040FDF
:10A8100003EB02000FDC01A9FEF746FE58B12968E0
:10A82000DDF80490114410314846FFF71BFF4946FC
:10A830004046FFF7C7FC0134E0E703B0BDE8F08312
:10A84000882400208C240020024A138801331380BE
:10A85000704700BF742400202DE9FF478846064654
:10A86000FFF7F2FF0DF10601FFF7BCFB80B3354F98
:10A870000025EAB21423534308EB030918F8033008
:10A880006BB3062B12D104AA002342F8043D4946BB
:10A89000BDF80600FEF716FEC0B14846FEF7CEFD35
:10A8A000014618B103983044FFF7D6FF04247B8893
:10A8B0009C420BDA0423224602A9384600F0B2F982
:10A8C00002A8FFF729F968B11F4B1C800135D0E7BA
:10A8D0001E4B1F491B68586B03681B68984704B0E0
:10A8E000BDE8F0879DF80930BDF80610C3F34012AB
:10A8F0009DF8083043EA0223994219D103A902982E
:10A90000FEF76EFEA0B1D9F80830DDF80CA0334494
:10A910009A450DD19DF8090000F01F00FEF7F0FFE9
:10A92000221D034692B25146384600F07BF9CDE72E
:10A930009DF8090000F01F00FEF7E2FF0430044418
:10A94000A4B2B4E7842400207C240020800B0020E3
:10A9500028B70108F0B52DED028B91B000230593C7
:10A96000089309930A930DF1110300930F4608AB66
:10A9700006AA05A90546FEF711FF0646002800F0C5
:10A98000A780069A9DF81D30F2B111789DF811400C
:10A9900061F304038DF81D3033899DF81D108DF887
:10A9A0001C301B1263F345118DF81D10079B059990
:10A9B00061F39F330793C3F30423052B06D0002CC8
:10A9C00040F086802C4605E00178DFE7002CF9D0C6
:10A9D000A5EB8404012B05D122B1138A5B0701D5B5
:10A9E000FFF732FF01230393112302930BAB019373
:10A9F0009DF8113000933146284608AB069AFFF7C0
:10AA000019F90DF1120107A8FFF7A4F878B19DF824
:10AA10001D00BDF8125000F01F00FEF771FF043555
:10AA2000ADB2024629462046FEF792FC50E0BDF842
:10AA300012204FF6FF739A424AD09DF81D1001F084
:10AA40001F0104292ED99DF81D00BDF8125000F0F9
:10AA50001F00FEF755FF324B28445B8808309842B0
:10AA60003DD29DF81D0000F01F00FEF749FFBDF824
:10AA700012300433184480B2FEF772FC9DF81D00BA
:10AA8000BDF8125000F01F00FEF73AFF0435ADB2DA
:10AA9000024629462046FEF75BFC0422BDF8121050
:10AAA00007A8C1E72846FFF7C1FD0699B0EE408A26
:10AAB00091B10C312846FFF7D5FDF0EE408AF0EE5B
:10AAC000400AB0EE480AFEF705FC80B1002FBAD16B
:10AAD00011B0BDEC028BF0BD06F11001EAE7114B9D
:10AAE00011491B68586B03681B689847F0E7002FF3
:10AAF000A9D19DF81D3003F01F03032BA3D0DFED78
:10AB00000B7A78EE688AB0EEC88A28EE278AF0EED3
:10AB1000E88AF4EEC88AF1EE10FAD9D493E700BFC0
:10AB200084240020800B0020B8B7010817B7D13863
:10AB30007FB5114C261D40F24112314601A801F0AB
:10AB400031FD2068FEF778FA042811D9052202A900
:10AB50002068FEF789FB431F5D425D4101A801F0BB
:10AB600043FD3DB19DF80C100298FFF7F3FEE2E7BC
:10AB70000025F3E704B070BD58240020FFF7D8BFCC
:10AB800010B50446FEF7ECF9204610BDF8B5124C9E
:10AB9000124E204600F098FF2046114C11493246D3
:10ABA0000CF09AFF2046002540F8045B00F08CFF73
:10ABB0001020FEF7CFF99B210746FEF7F3F9324646
:10ABC0000949276020460CF087FF29460748BDE861
:10ABD000F84000F01FB800BF3C240020A82400204B
:10ABE000582400203593000839930008842400205D
:10ABF00008B5064B1B68186B03685B68984720B95B
:10AC00000348BDE8084000F0CBBF08BD800B002022
:10AC100048B8010800230170438011B94FF448730C
:10AC20004380704770B51D4603789BB9B2F5487FE5
:10AC300010DAECB2A318B3F5487F084B1B68186B09
:10AC4000C8BFC2F120040368C8BFE4B29E682346AF
:10AC5000B0472D1BB5FA85F0400970BD800B002070
:10AC600070B51D4603789BB9B1F5487F10DAECB298
:10AC70006318B3F5487F084B1B68186BC8BFC1F158
:10AC800020040368C8BFE4B2DE682346B0472D1B2A
:10AC9000B5FA85F0400970BD800B002010B5044B5B
:10ACA000044918600446FFF783FD204610BD00BF2D
:10ACB0009024002090B8010830B4074B1B685C68F2
:10ACC000846023681D6A2046AC464FF400738022DE
:10ACD0004FF4E13130BC6047800B002000285ADD82
:10ACE000642848D018DC09283CD008DC022833D07E
:10ACF000042834D0012808D14FF4966070472628E4
:10AD000036D0392847D013282FD0B0F5FA6F44DC5D
:10AD10004FF47A7358437047B0F5807F33D007DC27
:10AD200073282AD0E6282BD06F28EED11B48704715
:10AD3000B0F5FA7F2AD005DCB0F5E67FE5D14FF417
:10AD4000E120704740F29933984221D040F2DC5321
:10AD50009842DAD1124870474FF4166070474FF4AA
:10AD6000965070474FF4165070474FF49640704716
:10AD70004FF4164070470B4870474FF4E13070476E
:10AD80004FF4613070474FF47A307047064870478F
:10AD90004FF4612070474FF461407047FCB10100EF
:10ADA00060E31600A086010020A10700914211D0A7
:10ADB000C9B24B1E012B03D8531EDBB2012B09D99C
:10ADC0000539012908D8501FC0B201288CBF0020C6
:10ADD0000120704701207047002070472DE9F8439B
:10ADE00000250446884691462E46062D0FD02F0199
:10ADF0004146E2572046FFF7D9FF30B14E4502D118
:10AE0000E019BDE8F8830136F6B20135EDE7002020
:10AE1000BDE8F88308B5FFF7E1FF00B1806808BD21
:10AE200008B5FFF7DBFF20B14068BDE80840FFF739
:10AE300055BF08BD10B500EB01130C469868998901
:10AE40000268526C904748B9054B06491B68586B1D
:10AE5000036822461B68BDE81040184710BD00BFBC
:10AE6000800B002068B801082DE9F04790F96130A7
:10AE70000133054605D0FF2300F8613F0121FFF7AC
:10AE8000E9F8754B1B68DA68AA611A69AA629A68C0
:10AE9000AA635A69AA649B69AB65AB6813B9284673
:10AEA000FFF70AFF2C4601267327A36904F1100857
:10AEB0005BB394F91030013304D0B4F91C30002B8B
:10AEC00040F0C48094F910300133192B00F2B480A3
:10AED000DFE803F01B0D0D0D22252727333CB2259B
:10AEE000B24AB2516185B2B296B2B29AB2A4D4F863
:10AEF00018906069FFF7F2FED9F800301C6A4FF431
:10AF00008073802201464846A0470136B6B2062E1D
:10AF10004446CAD1BDE8F08709236361F5E73923C8
:10AF2000FBE7D4F818906069FFF7D8FED9F8003035
:10AF30004FF480721C6A1023E4E7A069676103681C
:10AF40001C6A80231A464FF4E131DDE76761A4698A
:10AF50007320FFF7C3FE2368D3F8209080230146B7
:10AF60001A462046C847D0E70923237400214046EB
:10AF7000FFF770F8C9E7D4F8189067617320FFF7FE
:10AF8000ADFED9F80030D3F820A0802301461A4640
:10AF90004846D04718E06420D4F818906061FFF765
:10AFA0009DFED9F800300146D3F820A010222023BE
:10AFB0004846D047A069036802215B6D9847A069A5
:10AFC000036802219B6D9847A06903680121DB6D2E
:10AFD0009847A06903680021DB6C984795E74FF418
:10AFE000E130D4F818906061FFF778FED9F80030AE
:10AFF000D3F820A01E231A4601464846D047E8E76A
:10B00000D4F818906069BAE7D4F818906069FFF72F
:10B0100065FED9F800301C6A802372E7D4F81890D6
:10B0200067617320FFF75AFED9F800304FF40072C1
:10B03000D3F820A01023DFE76069A269FFF74EFE76
:10B0400013680146DB69104698475EE7314628469B
:10B05000FFF7F0FE36E700BF800B0020062910B591
:10B060009FBF090144184254636010BD014B18682A
:10B07000704700BF9024002010B503680281194377
:10B080004368016001334360044B1B689C6CA16200
:10B09000996C406888859B6CDA8510BD800B002018
:10B0A000004870479424002070470000002070473B
:10B0B00000207047C820704700207047002070476C
:10B0C0009FED010A704700BF0080094501207047CD
:10B0D0009FED010A704700BF00A08C469FED010A5A
:10B0E000704700BF000096447047000070470000A2
:10B0F0007047000010B50446FDF732FF204610BD32
:10B1000010B50446FDF72CFF204610BD10B50446CF
:10B11000FDF726FF204610BD10B5044604F04CF89C
:10B1200004F1440000F0D0FC002323666366A366AC
:10B130004FF0FF33E36620460349FFF739FB034B2B
:10B140001C60204610BD00BFB0BB0108A024002039
:10B1500010B50446FEF7BEFF28B920460121BDE820
:10B160001040FEF777BF10BDF8B50446002528262D
:10B17000142794F84020EBB2934212DA04EB8302D6
:10B18000D06B40B106FB03F2A25632B907FB034372
:10B19000DA6283F830200135EBE703689B68984753
:10B1A000F9E7F8BD08B571B190F84030012B02D134
:10B1B000064800F0A1FD5A1C80F8402000EB8300F7
:10B1C000C163012008BD084608BD00BF94BB01084B
:10B1D00090F8403099420ADA00EB8100C06B38B138
:10B1E000836893F90030002B08BF002070470020CF
:10B1F000704700002DE9F04105468846002695F885
:10B200004070F1B2B9420FDB0022D1B28F421CDD97
:10B210002846FFF7DDFF044620B1836893F8243009
:10B2200043450FD00132F0E72846FFF7D1FF04462F
:10B2300068B1836893F82430434508D102F0F4FBE9
:10B24000042804D12046BDE8F0810024FAE7013645
:10B25000D5E7000008B5FFF7CDFF18B1BDE80840FD
:10B2600002F0E2BB08BD000008B5FFF7C3FF08B15C
:10B270004368188808BD000008B5FFF7BBFF18B188
:10B28000BDE8084002F0C6BB042008BD10B5044666
:10B29000006810B103685B689847204610BD000045
:10B2A0002DE9F04F4FF0280808FB01F38DB0C75689
:10B2B000BB1E05460C4616461B2B39D8DFE813F09B
:10B2C00058001C003800380038009E001602380074
:10B2D00038005B0234027602FB001C004C01900235
:10B2E000AD02C602E0021C0038002A033800CC017F
:10B2F000440310034C016203AA4B1B68586A03689D
:10B300009B6898474FF0140808FB045804EB840925
:10B31000824608F1280805EBC90900264FF0010B09
:10B320000BFA06F313EA0A0F15D10136202EF7D1D6
:10B3300005EB8403D86B58B1142303FB0455A96BA8
:10B3400031B1994B43F82410FFF786FAFFF77CFAE6
:10B350000DB0BDE8F08F41463B464A46F0B204F0DE
:10B3600099F801462846FFF71DFF0028DDD0DFE7EA
:10B370008C4B1B680593586A03689B689847142395
:10B3800003FB045303F1280804EB840305EBC30318
:10B390008246069300264FF0010B0BFA06F313EAE0
:10B3A0000A0F03D10136202EF7D1C1E7059B596A58
:10B3B00004220B6802927D4A00278DE884000AA8C7
:10B3C000D3F80090F2B27023C8470A9B0A970CAFDB
:10B3D000069947F8043D40463A4603F04DFD0146C4
:10B3E0002846FFF7DFFE81463846FFF74FFF0AA8E1
:10B3F000FFF74CFFB9F1000FD4D099E708FB010823
:10B4000098F91730002B93D0664B1F68BE6C3368D9
:10B4100030461B689847002800F0CE8296F84D30E1
:10B42000002B00F0C982786A03689B6898474FF048
:10B430002808142313FB0483EB18059304EB8403FF
:10B4400005EBC30383460693002608FB045801233B
:10B45000B34013EA0B0F03D10136202EF7D167E773
:10B46000796A52480A6898F817304FF000094FF08F
:10B47000040A8DE801060AA8D2F800A0F2B2D0476B
:10B480000A9BCDF828900DF13009069949F8043D42
:10B4900005984A4603F03CFB01462846FFF782FE2A
:10B4A00082464846FFF7F2FE0AA8FFF7EFFEBAF120
:10B4B000000FD1D03CE708FB010393F91730002BB4
:10B4C0003FF436AF374B1B680593586A03689B6897
:10B4D0009847142313FB048804EB840305EBC30390
:10B4E0002827834605EB08090693002607FB045727
:10B4F0000123B34013EA0B0F03D10136202EF7D1FD
:10B5000016E7059B2948596AFB7D0A684FF0040C31
:10B510004FF000088DE801110AA8D2F800A0F2B29D
:10B52000D0470A9BCDF828800DF13008069948F8DD
:10B53000043D4846424604F0F1F801462846FFF72C
:10B5400031FE82464046FFF7A1FE0AA8FFF79EFEA5
:10B55000BAF1000FD1D0EBE6124B1B680593586A85
:10B5600003689B6898472822142313FB042305EBE8
:10B57000030B04EB840305EBC3031C2F06930CBFE2
:10B5800000230223089302FB04530990002707932A
:10B590000123099ABB4013420AD10137202FF7D16A
:10B5A000C6E600BF800B0020A4240020801A0600FD
:10B5B000059BC048596A079B0A68DB7D00264FF04F
:10B5C000040A8DE841045FFA87F9D2F800800AA8DE
:10B5D0004A46C0470A9B0A960CAE069946F8043DB7
:10B5E0005846324604F0E0FC01462846FFF7DAFDF3
:10B5F00080463046FFF74AFE0AA8FFF747FEB8F13B
:10B60000000F7FF495AE059BAA48596A079B0A680C
:10B61000DB7DCDF804800090CDF808A0D2F800A022
:10B620000AA84A46D0470A9B0B933246089B0699C4
:10B63000CDF82880584605F07DF901462846FFF7E9
:10B64000B1FD80463046FFF721FE0AA8FFF71EFE37
:10B65000B8F1000FA1D06BE6974B1B680593586AB1
:10B6600003689B6898472827142313FB047305EB92
:10B67000030904EB840305EBC3038346069300260A
:10B6800007FB04570123B34013EA0B0F03D1013624
:10B69000202EF7D14CE6059B8648596AFB7D0A6847
:10B6A0004FF0040E4FF000088DE801410AA8D2F8CF
:10B6B00000A0F2B2D0470A9BCDF828800DF13008E7
:10B6C000069948F8043D4846424602F0BBFC014654
:10B6D0002846FFF767FD82464046FFF7D7FD0AA8D8
:10B6E000FFF7D4FDBAF1000FD1D021E6307802F097
:10B6F00021FA00283FF41CAE37787B1C33703C20C5
:10B70000FDF728FC142104EB840201FB04513B46A5
:10B7100005EBC2022831064602F0E8F9674B3360B8
:10B72000002386F8363022E0307802F003FA002851
:10B730003FF4FEAD37787B1C33706820FDF70AFCC0
:10B74000142104EB840201FB04513B4605EBC202C9
:10B750002831064602F0CAF9594A5A4B336010683C
:10B760005168002386F8403006F1600303C305EBFF
:10B770008403DE63DCE5307802F0DCF900283FF476
:10B78000D7AD37787B1C33703820FDF7E3FB1421ED
:10B7900004EB840201FB04513B4605EBC202283155
:10B7A000064602F0A3F9484B3360E0E7307802F038
:10B7B000C1F900283FF4BCAD37787B1C33703820CA
:10B7C000FDF7C8FB142104EB840201FB04513B4646
:10B7D00005EBC2022831064602F088F93B4B9EE792
:10B7E000307802F0A7F900283FF4A2AD37787B1C2F
:10B7F00033704820FDF7AEFB142104EB840201FBFB
:10B80000045106463B4605EBC202283102F06EF9B0
:10B810002F4B33602F4B3364A9E7307802F08AF95D
:10B8200000283FF485AD37787B1C33704420FDF74A
:10B8300091FB142104EB840201FB04513B4605EB10
:10B84000C2022831064605F09DF990E7307802F0F3
:10B8500071F900283FF46CAD37787B1C33703820C9
:10B86000FDF778FB142104EB840201FB04513B46F5
:10B8700005EBC2022831064602F038F9164B93E771
:10B88000307802F057F900283FF452AD37787B1C2E
:10B8900033703820FDF75EFB142104EB840201FBBA
:10B8A00004513B4605EBC2022831064602F01EF960
:10B8B0000A4B79E7801A0600800B00200CC20108B1
:10B8C0003CAE010898C001080CC8010858C2010824
:10B8D00090C20108000080BFF4BA010864BB0108EF
:10B8E000307802F027F900283FF422AD37787B1C2E
:10B8F00033703820FDF72EFB142104EB840201FB8A
:10B9000004513B4605EBC2022831064602F0EEF830
:10B910002D4B49E7307802F00DF900283FF408ADCF
:10B9200037787B1C33705420FDF714FB142104EB93
:10B93000840201FB04513B4605EBC2022831064656
:10B9400002F0D4F8214B2FE7307802F0F3F800280A
:10B950003FF4EEAC37787B1C33703420FDF7FAFAF5
:10B96000142104EB840201FB045106463B4605EB1F
:10B97000C202283102F0BAF8154B3360002386F872
:10B980003230F4E6307802F0D5F800283FF4D0AC3D
:10B9900037787B1C33704C20FDF7DCFA142104EB64
:10B9A000840201FB04513B4605EBC20228310646E6
:10B9B00002F09CF8074BF7E6786C036840F2DC5124
:10B9C0005B6898472FE500BF2CBB010828BF010822
:10B9D00068C00108C8C0010837B590F84130044676
:10B9E0000D4653BB012380F84130FFF7B1FB04F152
:10B9F0002400FEF7DBFB08B984F8245000254FF43F
:10BA0000897204F1440101A88DF8035000F0CAFDC9
:10BA10000DF1030229462046FFF742FCE36B33B1E8
:10BA200094F84030012BB8BF012384F84030E56220
:10BA300084F8305001A800F0D7FD03B030BD0000FD
:10BA4000036800211B68184708B504300AF09EFD02
:10BA5000012008BD04300AF087BD00002DE9F04741
:10BA600007460D4631B904300AF056FD012630462E
:10BA7000BDE8F08703685B6898470028F6D100F0BE
:10BA80005DF9104B4FF47A74D3F800A06C438046F4
:10BA900089460025DAF844000368C8219B68984766
:10BAA0003B6838465B68984706460028DED100F0C0
:10BAB00045F9B0EB080061EB0901A94208BFA042BB
:10BAC000E8D3D4E7800B002010B5044B044640F8BF
:10BAD000043B0AF0D1FC204610BD00BFF8BB0108B2
:10BAE000034BC0689B69C31A58425841704700BF56
:10BAF000084800200CB41FB5084C06AA246852F868
:10BB0000043B009203920A460146A06C00F0BEFD81
:10BB100004B0BDE8104002B0704700BF800B0020A9
:10BB200013B5054C0093246813460A460146A06CE1
:10BB300000F0ACFD02B010BD800B00202DE9F843F1
:10BB400013460E4617460A46002180460846FFF770
:10BB5000E7FF041E04DC4FF0FF342046BDE8F88305
:10BB6000651C012128460BF099FA81460028F2D085
:10BB70003B4632462946FFF7D3FFC8F80090ECE772
:10BB80000EB403B503AA52F8041B0192FFF7D6FFC7
:10BB900002B05DF804EB03B070470000FBF790BE05
:10BBA0000FB407B5054B04A91B6851F8040B0191AC
:10BBB000984703B05DF804EB04B070479409002087
:10BBC0000EB403B5054B03A91B6851F8040B019192
:10BBD000984702B05DF804EB03B070479409002069
:10BBE00070B51E46164B1C681CB1636CDB0700D495
:10BBF00070BD144B1D68AC6C94F84630A4F844003A
:10BC00000BB984F84610104BE2619A6962B19368EF
:10BC100084F84730916939B194F9483023B9042246
:10BC200004F148000CF098FB084B5B6823626662E5
:10BC3000A86C13210430BDE870400BF011BC00BFAC
:10BC4000202D0020800B00200848002000ED00E09F
:10BC5000FEE70000FEE7000000B59BB0EFF30981AE
:10BC6000682268460BF0B6FFEFF30581064BC9B2B8
:10BC70009A6B986A986A986A986A9B6A059B7A2078
:10BC8000FFF7AEFFFEE700BF00ED00E000B59BB0A0
:10BC9000EFF30981682268460BF09CFFEFF3058102
:10BCA000064BC9B29A6B986A986A986A986A986AB9
:10BCB0009B6A059BAF20FFF793FFFEE700ED00E0D6
:10BCC00000B59BB0EFF30981682268460BF082FF54
:10BCD000EFF30581064BC9B25A6B986A986A986A65
:10BCE000986A9B6A059BCF20FFF77AFFFEE700BFAB
:10BCF00000ED00E0704700000FB407B504A951F84B
:10BD0000045B01912846FFF749FF094B1C68606CF2
:10BD100003689B6842F21071984701992846FFF723
:10BD20003DFF606C03684FF4FA715B68F4E700BF95
:10BD3000800B00200BF018BA0BF036BA0BF0F0B9FC
:10BD400070470000002070477047000070470000F7
:10BD50007047000070470000704700007047000007
:10BD600008460BF0ABB8000008460BF033B90000F2
:10BD700073B51E460C461546011D102201A800F0A1
:10BD800011FC3246294620460BF0D0F8044601A8A3
:10BD900000F02AFC204602B070BD000013B50D2251
:10BDA0000C46011D01A800F0FDFB20460BF098F8A1
:10BDB000044601A800F018FC204602B010BD0000A7
:10BDC0000BF07AB808460BF073B8000008460BF089
:10BDD00067B8000010B5064B044640F8603BFDF71D
:10BDE000F1F804F15000FDF7EDF8204610BD00BF5A
:10BDF0000CCB010810B4BDF8044001945DF8044B6D
:10BE000000F082BB10B4BDF8044001945DF8044B0F
:10BE100000F028BB00F03EBB00F06CBB10B51F4B20
:10BE2000036064230021A0F82833042390B0044663
:10BE30000171A0F82A33102200F54B700BF0D6FEEA
:10BE400004F54F70FFF740FE0B200BF031F8144B58
:10BE50000B93144B0D93144B0F930E9410A90246A1
:10BE600011E9030005AB0A940C9483E803000CA9C4
:10BE700003C903AB83E803000AA903C901AB83E844
:10BE800003000A4B009304F10801234604F55A709D
:10BE900001F07CF9204610B010BD00BF9CBD010828
:10BEA00005BE000815BE000819BE0008F5BD000853
:10BEB000194A1A4B10B58260194A0360C260194BC7
:10BEC000194A436002614363184A194B4261836314
:10BED000184A194B8261C363184A194BC261036443
:10BEE000184A194B02624364184A194B4262836430
:10BEF000184A194B8262C364184A194BC26203651F
:10BF0000184A194B026304464365FFF7F3FE174BCB
:10BF10002360204610BD00BF5026002018BC010839
:10BF20005426002040250020582600205C260020B2
:10BF3000B024002060260020B824002070270020B4
:10BF40009809002074270020C82B0020BC2B00205B
:10BF500078270020C02B00209C090020BC2C00204A
:10BF60001C2500201C280020C02C0020ACBC01088F
:10BF700010B52023044683F311880AF0C7FC094B4F
:10BF80001B689A68D96B8A4201D0A24200D29C6099
:10BF9000DC630AF00DFC0AF0BFFC002383F3118878
:10BFA00010BD00BF1825002008B533B9324B334A05
:10BFB000334840F221110BF095FD324D324E2B608B
:10BFC000324BB2691A60B4200AF020FE07F08CF8F8
:10BFD0000BF066F92E4B1C68606803684FF4E13182
:10BFE000DB699847A06803684FF41641DB699847FE
:10BFF000E06803684FF46141DB699847E06A0368D1
:10C000001B689847606C03681B6898470A20FFF715
:10C01000AFFF0BF01FFA40B113211E480BF026FAB8
:10C020001C494C2288180BF0D5FD1B4B28680122B7
:10C030009A7303681B689847184B1B68C3B15B6C05
:10C04000DB0715D4144805F0AFFC606C124C036894
:10C050001B6B9847B369124A9A61B4200AF0D6FD67
:10C06000286803685B689847204605F09DFCF7E761
:10C070000BF0BCF9E6E700BF58BC0108B0BC0108F2
:10C0800062BC01083825002008480020182500203F
:10C09000800B00207C270020C82B0020202D0020B2
:10C0A00097BC0108014B1868704700BF1825002095
:10C0B00010B5054C2368DB0704D40448FFF7F8FEED
:10C0C00001232360014810BDAC240020C42C0020B3
:10C0D00070B5384D384C394E0021284606F016F818
:10C0E0002246314628460BF0F7FC3548354D01F025
:10C0F00047F8354801F044F8344801F041F8344835
:10C1000001F03EF80121284606F000F831462246AB
:10C1100028460BF0E1FC2F482F4D01F031F82F4855
:10C1200001F02EF82E4804F0F3FF2E4B2E4A2F4834
:10C130001A6000F08DFF2846FFF770FE22462C495A
:10C1400028462C4D0BF0C8FC2B4804F04DFF284628
:10C150002A4B40F8043B242200210BF047FD05F157
:10C160003400FFF7B1FC4FF6FF73A5F84C302846BA
:10C17000234D244922460BF0AFFC284605F0FCFB7A
:10C180002246214928460BF0A7FC204D204B0022D7
:10C1900083F89C2028461F4A1A601F4B40F8043B36
:10C1A000FFF792FC224628461C49BDE870400BF080
:10C1B00093BC00BF40250020A8240020D5BD000866
:10C1C00050260020602600205426002058260020FB
:10C1D0005C260020702700201C28002074270020E7
:10C1E000BC2B0020C02B002094C90108BC2C0020CF
:10C1F00051BD0008B8240020B024002064C9010803
:10C20000C82B002055BD000859BD00081C25002082
:10C21000782700207CCC01083CBC01085DBD0008EB
:10C220007047000000F55A7001F092B910B504464D
:10C23000007948B1FFF780FDD4F86433C01AB0F537
:10C24000FA6F2CBF0020012010BD0000F8B5064693
:10C2500012B3CC0801390A44C2F3CC050127AC4221
:10C260001ADCB6F828339C4209DBFEF719FF2E22B0
:10C270004FF40031FEF700FF0134A4B2EFE7630989
:10C2800006EB830304F01F0207FA02F1D3F82C2314
:10C290000A43C3F82C23EFE7F8BD00000B2110B5CB
:10C2A0000C22044680F85C130548FFF779FC04F57E
:10C2B0005A7001F07BF910B90248FFF71DFD10BD5F
:10C2C00000BD010826BD010810B50179044681B9F9
:10C2D000B0F82A2300F54B7092000BF087FC204643
