:020000040801F1
:1000000000040020DD12010891FF060895FF060894
:10001000F9FF060895FF0608C5FF0608DF1201086C
:10002000DF120108DF120108DF12010899F10B0845
:10003000DF120108DF120108DF120108DF120108D8
:10004000DF120108DF120108DF120108DF120108C8
:10005000DF120108DF120108D1FC0B0801FD0B08BB
:1000600031FD0B0861FD0B0891FD0B0859A30B082E
:1000700085A30B08B5A30B08E5A30B0815A40B0873
:1000800041A40B0871A40B08D5A10B08DF120108CD
:10009000DF120108DF120108DF120108C1FD0B08A1
:1000A000DF120108DF120108DF120108DF12010868
:1000B00081B40B08DF120108DF120108DF1201080A
:1000C000DF12010811AA0B08C5AB0B08DF120108EB
:1000D000DF1201088DBA0B08A5BA0B08DF12010860
:1000E0002DFE0B08DF120108DF120108DF120108E4
:1000F000DF120108DF120108DF120108A1A40B08BA
:10010000DF120108DF12010841040C08DF120108A8
:10011000DF120108DF120108DF120108DF120108F7
:10012000D1A40B08FDA40B082DA50B085DA50B0899
:100130008DA50B08DF120108DF120108DF1201088C
:10014000DF120108DF120108DF120108A1F80B0815
:10015000B9A50B08E9A50B0819A60B08BDBA0B0831
:10016000DF120108DF120108DF120108DF120108A7
:10017000DF120108DF120108DF120108DF12010897
:10018000DF120108DF120108DF120108DF12010887
:10019000DF120108DF120108DF120108DF12010877
:1001A000DF120108DF120108DF120108DF12010867
:1001B000DF120108DF120108DF120108DF12010857
:1001C000DF120108DF120108DF120108DF12010847
:1001D000DF120108DF120108DF120108DF12010837
:1001E000D1610108359B01080D9C0208D1C90308A3
:1001F000394304082D4604089DD60408E5DD0408AB
:100200001DE1040859540508CDF2050811FE060841
:10021000A5040708D9380A08E5610A086D690A08C3
:100220007D6F0A08F58C0A0819AE0A0839710B08A7
:10023000D0400B1CD1409C46203AD3401843524238
:100240006346934018437047D0400B1C1141203A3D
:1002500003D49C46134118436346524293401843CB
:10026000704700BF9140031C90409C46203A934049
:10027000194352426346D3401943704781F000410D
:1002800002E000BF83F0004330B54FEA41044FEA7B
:10029000430594EA050F08BF90EA020F1FBF54EA16
:1002A000000C55EA020C7FEA645C7FEA655C00F0B2
:1002B000E2804FEA5454D4EB5555B8BF6D420CDD83
:1002C0002C4480EA020281EA030382EA000083EA06
:1002D000010180EA020281EA0303362D88BF30BDA6
:1002E00011F0004F4FEA01314FF4801C4CEA1131FC
:1002F00002D0404261EB410113F0004F4FEA03335B
:100300004CEA133302D0524263EB430394EA050FE5
:1003100000F0A780A4F10104D5F1200E0DDB02FA54
:100320000EFC22FA05F2801841F1000103FA0EF2E8
:10033000801843FA05F359410EE0A5F120050EF1AE
:10034000200E012A03FA0EFC28BF4CF0020C43FADF
:1003500005F3C01851EBE37101F0004507D54FF0EC
:10036000000EDCF1000C7EEB00006EEB0101B1F53C
:10037000801F1BD3B1F5001F0CD349085FEA300082
:100380004FEA3C0C04F101044FEA445212F5800F8D
:1003900080F09A80BCF1004F08BF5FEA500C50F12A
:1003A000000041EB045141EA050130BD5FEA4C0C0D
:1003B000404141EB010111F4801FA4F10104E9D196
:1003C00091F0000F04BF01460020B1FA81F308BF8D
:1003D0002033A3F10B03B3F120020CDA0C3208DD59
:1003E00002F1140CC2F10C0201FA0CF021FA02F134
:1003F0000CE002F11402D8BFC2F1200C01FA02F1A4
:1004000020FA0CFCDCBF41EA0C019040E41AA2BFC8
:1004100001EB0451294330BD6FEA04041F3C1CDA90
:100420000C340EDC04F11404C4F1200220FA04F0B0
:1004300001FA02F340EA030021FA04F345EA03015A
:1004400030BDC4F10C04C4F1200220FA02F001FA1C
:1004500004F340EA0300294630BD21FA04F029469E
:1004600030BD94F0000F83F4801306BF81F4801137
:100470000134013D4EE77FEA645C18BF7FEA655CAA
:1004800029D094EA050F08BF90EA020F05D054EA7C
:10049000000C04BF1946104630BD91EA030F1EBF81
:1004A0000021002030BD5FEA545C05D14000494185
:1004B00028BF41F0004130BD14F580043CBF01F578
:1004C000801130BD01F0004545F0FE4141F470015E
:1004D0004FF0000030BD7FEA645C1ABF1946104639
:1004E0007FEA655C1CBF0B46024650EA013406BF3A
:1004F00052EA033591EA030F41F4002130BD00BFF9
:1005000090F0000F04BF0021704730B54FF48064B5
:1005100004F132044FF000054FF0000150E700BF36
:1005200090F0000F04BF0021704730B54FF4806495
:1005300004F1320410F0004548BF40424FF0000182
:100540003EE700BF42004FEAE2014FEA31014FEAC5
:1005500002701FBF12F07F4393F07F4F81F0605114
:10056000704792F0000F14BF93F07F4F704730B583
:100570004FF4607401F0004521F0004120E700BF16
:1005800050EA010208BF704730B54FF000050AE09D
:1005900050EA010208BF704730B511F0004502D59E
:1005A000404261EB41014FF4806404F132045FEAA0
:1005B000915C3FF4DCAE4FF003025FEADC0C18BF45
:1005C00003325FEADC0C18BF033202EBDC02C2F13B
:1005D000200300FA03FC20FA02F001FA03FE40EACD
:1005E0000E0021FA02F11444C1E600BF70B54FF0CD
:1005F000FF0C4CF4E06C1CEA11541DBF1CEA1355AF
:1006000094EA0C0F95EA0C0F00F0DEF82C4481EA16
:10061000030621EA4C5123EA4C5350EA013518BF36
:1006200052EA033541F4801143F4801338D0A0FB23
:1006300002CE4FF00005E1FB02E506F00042E0FBD0
:1006400003E54FF00006E1FB03569CF0000F18BFD6
:100650004EF0010EA4F1FF04B6F5007F64F540747E
:1006600004D25FEA4E0E6D4146EB060642EAC62111
:1006700041EA55514FEAC52040EA5E504FEACE2E7E
:10068000B4F1FD0C88BFBCF5E06F1ED8BEF1004F81
:1006900008BF5FEA500E50F1000041EB045170BDFD
:1006A00006F0004646EA010140EA020081EA030141
:1006B000B4EB5C04C2BFD4EB0C0541EA045170BD3D
:1006C00041F480114FF0000E013C00F3AB8014F1B7
:1006D000360FDEBF002001F0004170BDC4F1000400
:1006E000203C35DA0C341BDC04F11404C4F1200581
:1006F00000FA05F320FA04F001FA05F240EA0200DC
:1007000001F0004221F0004110EBD37021FA04F611
:1007100042EB06015EEA430E08BF20EAD37070BDCB
:10072000C4F10C04C4F1200500FA04F320FA05F02A
:1007300001FA04F240EA020001F0004110EBD3702C
:1007400041F100015EEA430E08BF20EAD37070BD9C
:10075000C4F1200500FA05F24EEA020E20FA04F375
:1007600001FA05F243EA020321FA04F001F0004124
:1007700021FA04F220EA020000EBD3705EEA430E95
:1007800008BF20EAD37070BD94F0000F0FD101F0C4
:100790000046400041EB010111F4801F08BF013CFD
:1007A000F7D041EA060195F0000F18BF704703F03B
:1007B0000046520043EB030313F4801F08BF013DC2
:1007C000F7D043EA0603704794EA0C0F0CEA13557E
:1007D00018BF95EA0C0F0CD050EA410618BF52EA38
:1007E0004306D1D181EA030101F000414FF000003E
:1007F00070BD50EA410606BF1046194652EA43064C
:1008000019D094EA0C0F02D150EA013613D195EABF
:100810000C0F05D152EA03361CBF104619460AD107
:1008200081EA030101F0004141F0FE4141F4700111
:100830004FF0000070BD41F0FE4141F4780170BD01
:1008400070B54FF0FF0C4CF4E06C1CEA11541DBF66
:100850001CEA135594EA0C0F95EA0C0F00F0A7F868
:10086000A4EB050481EA030E52EA03354FEA013195
:1008700000F088804FEA03334FF0805545EA1313A8
:1008800043EA12634FEA022245EA111545EA106570
:100890004FEA00260EF000419D4208BF964244F107
:1008A000FD0404F5407402D25B084FEA3202B61A26
:1008B00065EB03055B084FEA32024FF480104FF4FA
:1008C000002CB6EB020E75EB030E22BFB61A75466E
:1008D00040EA0C005B084FEA3202B6EB020E75EB01
:1008E000030E22BFB61A754640EA5C005B084FEA69
:1008F0003202B6EB020E75EB030E22BFB61A754636
:1009000040EA9C005B084FEA3202B6EB020E75EB40
:10091000030E22BFB61A754640EADC0055EA060E01
:1009200018D04FEA051545EA16754FEA06164FEA44
:10093000C30343EA52734FEAC2025FEA1C1CC0D1F0
:1009400011F4801F0BD141EA00014FF000004FF07D
:10095000004CB6E711F4801F04BF01430020B4F13E
:10096000FD0C88BFBCF5E06F3FF6AFAEB5EB030CF6
:1009700004BFB6EB020C5FEA500C50F1000041EBF3
:10098000045170BD0EF0004E4EEA113114EB5C04C0
:10099000C2BFD4EB0C0541EA045170BD41F4801193
:1009A0004FF0000E013C90E645EA060E8DE60CEA9B
:1009B000135594EA0C0F08BF95EA0C0F3FF43BAFB8
:1009C00094EA0C0F0AD150EA01347FF434AF95EA6F
:1009D0000C0F7FF425AF104619462CE795EA0C0F53
:1009E00006D152EA03353FF4FDAE1046194622E720
:1009F00050EA410618BF52EA43067FF4C5AE50EAFA
:100A000041047FF40DAF52EA43057FF4EBAE12E7E9
:100A10004FF0FF3C06E000BF4FF0010C02E000BFCA
:100A20004FF0010C4DF804CD4FEA410C7FEA6C5CAD
:100A30004FEA430C18BF7FEA6C5C1BD001B050EA50
:100A4000410C0CBF52EA430C91EA030F02BF90EA3B
:100A5000020F0020704710F1000F91EA030F58BFFA
:100A6000994208BF90422CBFD8176FEAE37040F05C
:100A7000010070474FEA410C7FEA6C5C02D150EAFA
:100A8000013C07D14FEA430C7FEA6C5CD6D152EAB5
:100A9000033CD3D05DF8040B704700BF844610467A
:100AA00062468C461946634600E000BF01B5FFF779
:100AB000B7FF002848BF10F1000F01BD4DF808ED49
:100AC000FFF7F4FF0CBF012000205DF808FB00BF1A
:100AD0004DF808EDFFF7EAFF34BF012000205DF874
:100AE00008FB00BF4DF808EDFFF7E0FF94BF0120C1
:100AF00000205DF808FB00BF4DF808EDFFF7CEFFC2
:100B000094BF012000205DF808FB00BF4DF808ED00
:100B1000FFF7C4FF34BF012000205DF808FB00BFD1
:100B20004FEA410C7FEA6C5C02D150EA013C0AD1E9
:100B30004FEA430C7FEA6C5C02D152EA033C02D1DB
:100B40004FF0000070474FF0010070474FEA41023C
:100B500012F5001215D211D56FF47873B3EB62520F
:100B600012D94FEAC12343F0004343EA505311F036
:100B7000004F23FA02F018BF404270474FF00000C8
:100B8000704750EA013005D111F0004008BF6FF006
:100B9000004070474FF00000704700BF4A0011D27C
:100BA00012F5001211D20DD56FF47873B3EB6252C7
:100BB0000ED44FEAC12343F0004343EA505323FAD3
:100BC00002F070474FF00000704750EA013002D148
:100BD0004FF0FF3070474FF0000070474FEA41027E
:100BE000B2F1E04324BFB3F5001CDCF1FE5C0DD98B
:100BF00001F0004C4FEAC0024CEA5070B2F1004FD5
:100C000040EB830008BF20F00100704711F0804FD7
:100C100021D113F13872BCBF01F00040704741F49C
:100C200080114FEA5252C2F11802C2F1200C10FAA0
:100C30000CF320FA02F018BF40F001004FEAC12384
:100C40004FEAD32303FA0CFC40EA0C0023FA02F328
:100C50004FEA4303CCE77FEA625307D150EA0133FE
:100C60001EBF4FF0FE4040F44000704701F00040CE
:100C700040F0FE4040F40000704700BF80F00040AC
:100C800002E000BF81F0004142001FBF5FEA410364
:100C900092EA030F7FEA226C7FEA236C6AD04FEA64
:100CA0001262D2EB1363C1BFD218414048404140A9
:100CB000B8BF5B42192B88BF704710F0004F40F45B
:100CC000000020F07F4018BF404211F0004F41F477
:100CD000000121F07F4118BF494292EA030F3FD043
:100CE000A2F1010241FA03FC10EB0C00C3F1200356
:100CF00001FA03F100F0004302D5494260EB4000E5
:100D0000B0F5000F13D3B0F1807F06D340084FEA4F
:100D1000310102F10102FE2A51D2B1F1004F40EB44
:100D2000C25008BF20F0010040EA030070474900AC
:100D300040EB000010F4000FA2F10102EDD1B0FA77
:100D400080FCACF1080CB2EB0C0200FA0CF0AABF6C
:100D500000EBC25052421843BCBFD040184370470A
:100D600092F0000F81F4000106BF80F40000013210
:100D7000013BB5E74FEA41037FEA226C18BF7FEAE7
:100D8000236C21D092EA030F04D092F0000F08BF29
:100D90000846704790EA010F1CBF0020704712F010
:100DA0007F4F04D1400028BF40F00040704712F14F
:100DB00000723CBF00F50000704700F0004343F0B4
:100DC000FE4040F4000070477FEA226216BF0846EA
:100DD0007FEA23630146420206BF5FEA412390EAAD
:100DE000010F40F4800070474FF0000304E000BFA3
:100DF00010F0004348BF40425FEA000C08BF704754
:100E000043F0964301464FF000001CE050EA010217
:100E100008BF70474FF000030AE000BF50EA01022C
:100E200008BF704711F0004302D5404261EB410119
:100E30005FEA010C02BF84460146002043F0B6433E
:100E400008BFA3F18053A3F50003BCFA8CF2083A63
:100E5000A3EBC25310DB01FA02FC634400FA02FC6C
:100E6000C2F12002BCF1004F20FA02F243EB020073
:100E700008BF20F00100704702F1200201FA02FCD5
:100E8000C2F1200250EA4C0021FA02F243EB0200C8
:100E900008BF20EADC7070477BB972B90029BEBF79
:100EA00000204FF0004106E008BF00281CBF6FF093
:100EB00000414FF0FF3000F00FBAADF1080C6DE9C2
:100EC00004CE002909DB002B1ADB00F097F8DDF8CF
:100ED00004E0DDE9022304B07047404261EB4101C8
:100EE000002B1BDB00F08AF8DDF804E0DDE90223CB
:100EF00004B0404261EB4101524263EB430370474F
:100F0000524263EB430300F079F8DDF804E0DDE9D9
:100F1000022304B0404261EB41017047524263EB4F
:100F2000430300F06BF8DDF804E0DDE9022304B0D0
:100F3000524263EB4303704753B94AB9002908BFD3
:100F400000281CBF4FF0FF314FF0FF3000F0C4B954
:100F5000ADF1080C6DE904CE00F050F8DDF804E0C6
:100F6000DDE9022304B07047430803F05533C01A8B
:100F7000830803F0333300F03330184400EB1010D3
:100F800000F00F3000EB002000EB0040000E704737
:100F900080EA104080EA102080EA101046F696138E
:100FA00000F00F0043FA00F000F00100704700BFAE
:100FB000D0B5FFF7C7FA00220E4B06460F46FFF7E3
:100FC00015FBFFF7EBFD0446FFF79AFA00220A4BE8
:100FD000FFF70CFB02460B4630463946FFF752F945
:100FE000FFF7DCFD2346002242EA000210461946C4
:100FF000D0BD00BF0000F03D0000F0412DE9F047FA
:101000008C460D460446089E002B51D18A42174655
:101010006DD9B2FA82FEBEF1000F0BD0CEF1200CDA
:1010200001FA0EF520FA0CFC02FA0EF74CEA050C58
:1010300000FA0EF44FEA174A250CBCFBFAF81FFA27
:1010400087F90AFB18CC45EA0C4508FB09F3AB42CB
:101050000AD9ED1908F1FF3280F02381AB4240F24A
:101060002081A8F102083D44ED1AA4B2B5FBFAF0C4
:101070000AFB105544EA054400FB09F9A14509D9CA
:10108000E41900F1FF3380F00A81A14540F20781A5
:1010900002383C44A4EB090440EA08400021002E39
:1010A00061D024FA0EF4002334607360BDE8F08749
:1010B0008B4207D9002E54D0002186E82100084633
:1010C000BDE8F087B3FA83F1002940F08E80AB428F
:1010D00002D3824200F2FA80841A65EB03050120F4
:1010E000AC46002E3FD086E81010BDE8F08712B95C
:1010F0000127B7FBF2F7B7FA87FEBEF1000F34D134
:10110000EB1B3A0C1FFA87FC0121B3FBF2F8250C0C
:1011100002FB183345EA03450CFB08F3AB4207D941
:10112000ED1908F1FF3002D2AB4200F2D1808046C7
:10113000ED1AA3B2B5FBF2F002FB105543EA0544E9
:101140000CFB00FCA44507D9E41900F1FF3302D2DF
:10115000A44500F2B8801846A4EB0C0440EA08400D
:101160009DE731463046BDE8F087CEF1200405FA10
:101170000EF307FA0EF720FA04F83A0C25FA04F4F5
:1011800048EA0308B4FBF2F14FEA184502FB1144A8
:101190001FFA87FC45EA044501FB0CF3AB4200FA59
:1011A0000EF409D9ED1901F1FF3080F08A80AB42CD
:1011B00040F2878002393D44EB1A1FFA88F5B3FBF1
:1011C000F2F002FB103345EA034500FB0CF3AB429F
:1011D00007D9ED1900F1FF386FD2AB426DD9023853
:1011E0003D44EB1A40EA01418FE7C1F1200722FAA2
:1011F00007F88B4005FA01F448EA030320FA07FEDA
:101200004FEA134CFD404EEA040EB5FBFCF94FEAE1
:101210001E440CFB19551FFA83F844EA054509FBE7
:1012200008F4AC4202FA01F200FA01FA08D9ED180A
:1012300009F1FF3043D2AC4241D9A9F102091D4462
:101240002D1B1FFA8EFEB5FBFCF00CFB10554EEA71
:10125000054400FB08F8A04507D9E41800F1FF3564
:1012600029D2A04527D902381C4440EA0940A4EB02
:101270000804A0FB02894C45C6464D4615D312D042
:1012800056B1BAEB0E0364EB050404FA07F7CB4042
:101290001F43CC40376074600021BDE8F0871846DA
:1012A000F8E69046E0E6C245EAD2B8EB020E69EBFA
:1012B00003050138E4E72846D7E7404691E7814631
:1012C000BEE7014678E702383C4445E7084608E7B0
:1012D000A8F102083D442BE7704700BF02E000F090
:1012E00000F8FEE772B6394880F30888384880F382
:1012F000098838484EF60851CEF20001086040F2E5
:101300000000CCF200004EF63471CEF2000108600D
:10131000BFF34F8FBFF36F8F40F20000C0F2F000B9
:101320004EF68851CEF200010860BFF34F8FBFF335
:101330006F8F4FF00000E1EE100A4EF63C71CEF2D6
:1013400000010860062080F31488BFF36F8FADF0B2
:1013500061FFADF0C9F84FF055301F491B4A91426B
:101360003CBF41F8040BFAE71C49194A91423CBFC3
:1013700041F8040BFAE71A491A4A1B4B9A423EBF3E
:1013800051F8040B42F8040BF8E700201749184AFB
:1013900091423CBF41F8040BFAE7ADF03FFFADF0DE
:1013A000FFF8144C144DAC4203DA54F8041B884780
:1013B000F9E700F067FE114C114DAC4203DA54F826
:1013C000041B8847F9E7ADF027BF000000040020A8
:1013D000002400200000010800000020000400207C
:1013E000B8890E0800240020D0270020D027002034
:1013F0003C200120E0010108300201083002010810
:10140000300201082DE9F04F2DED108AC1F80CD003
:10141000C3689D46BDEC108ABDE8F08FACF0A4FC1B
:10142000002383F311882846A0470020ACF040FE3B
:10143000ACF094FCACF0CAFBACF096FC00DFFEE72D
:1014400010F8012B11F8013B012A28BF9A42F7D06E
:10145000D01A7047034613F8012B002AFBD1181A43
:10146000013870470120704710B503681B680446B7
:10147000984700B1207F10BD38B50E4B1D68AC6C8D
:1014800051F0E6FA40B1AC6C236820469B6998475E
:1014900010F1FF3018BF01200146204623F0C4F9A7
:1014A00036F0C4FAAB6C93F84C10BDE8384035F018
:1014B0008DBD00BFE027002010B5044652F070F843
:1014C0002046FFF7D9FF054B05481B689B6CBDE81C
:1014D000104093F84C100BF0A9BB00BFE027002090
:1014E000746700202DE9F041836890B00746884674
:1014F00023B90125284610B0BDE8F0816D4B1B686B
:10150000986CFFF7B1FF06460028F2D141463846F5
:1015100051F0EAFF41460546384651F011FD664B51
:10152000664C93ED007A53ED017AB4EEE77A05400C
:10153000F1EE10FAEDB204D541F2A843E356032BC5
:1015400078D141F24E43E35EB3F5967F05DA5C4A0B
:101550004146384651F0E4FB002541F25043E35E3A
:10156000B3F5967F05DA574A4146384651F0D8FB25
:10157000002541F25243E35E13F5967F05DD524AA2
:101580004146384651F0CCFB0025504E306842F0C1
:101590001DFB60B1A6F50E6393F900303BB13368D3
:1015A00041F2A242B3F90E30A25E9A4249DB44F204
:1015B0001C03E35623B144F25803E65C002E47D0E7
:1015C00044F25803E35C63B141F62C53E25E1AB96E
:1015D00041F62A52A25AE25241F62C53E35A632BA7
:1015E0003DD944F21C03E35623B144F25803E35CB3
:1015F000002B3BD142F6F823E258354B9A4204D1F6
:1016000043F22623E35A012B4CD942F61633E35C0E
:101610002BB1304A4146384651F082FB00252E4B13
:101620001B78002B3FF466AF2C4A4146384651F0F8
:1016300077FB35E02A4A4146384651F071FB354682
:101640007FE7284A4146384651F06AFB0025AEE75D
:10165000254A4146384651F063FB3546B0E7234AF8
:101660004146384651F05CFB0025BAE743F6C470AA
:1016700003AE322332461E49205858F03DFD40B19A
:101680001C481D4900683223324657F09DFC002853
:10169000B0D10096194B42462021384651F0F2F95C
:1016A000002527E7164A4146384651F039FB002508
:1016B000ABE700BFE0270020983C0020E82700208F
:1016C000906A0C08AB6A0C08C86A0C0868450020D0
:1016D0008C520020FB6A0C08FC720020106B0C0876
:1016E000296B0C084C6B0C08726B0C08946B0C0883
:1016F000BB6B0C08A8670020F76A0C08E56A0C08A9
:10170000BF6B0C08F7B506460F4651F04FFD044677
:1017100018B1B36813F0110F02D1204603B0F0BD29
:1017200016F09EF80368D3F8B430984705460028B1
:10173000F3D116F095F803685B6A9847064B0028CA
:1017400008BF18460090054B3A461021304651F02C
:1017500099F92C46E1E700BF7C6A0C0828C60C0802
:10176000F8B5836806460F46A3B31B4B1B68986CFD
:10177000FFF77AFE044638B141F074F9174A0421A4
:101780003AF00EFF2046F8BD154D41F29A43EB5654
:10179000032B19D10121284608F0B8F8044618B9DE
:1017A00041F060F90F4AEAE7284608F0C9F9044613
:1017B00020B90146284608F0A9F8E3E741F052F9BC
:1017C000094A04213AF0ECFE39463046BDE8F840BB
:1017D00051F074BA0124D5E7E0270020186A0C08FC
:1017E000E82700203A6A0C085A6A0C0838B5054602
:1017F00051F0EEF8044640B12846FFF75DFE41F097
:1018000031F9034A06213AF0CBFE204638BD00BF2D
:10181000D46B0C0870B5064651F0D4F8054638B3C1
:1018200042F6F823134CE258134B9A4203D003F5C7
:10183000F0602AF081FB43F2FC1343F2FD12E35CFB
:101840003046C3F30003A354FFF736FE0B4832F0D3
:1018500089FA41F007F90A4A06213AF0A1FE41F25D
:101860009A43E356032B03D10021024808F04EF8B7
:10187000284670BDE82700208C5200202C3C002018
:10188000E46B0C085CF072B846F0B8B942F066BE82
:1018900005F00CBD23F0BCBF35F044BD08F0D8BC4A
:1018A00034F0F4BA0AF04ABC03F0EEBB33F07EBE6B
:1018B00052F0A2B944F03EBE0EF0F4BD0FF00ABFE4
:1018C00030F0D4BC0EF0CABD19F000B946F0F6B93C
:1018D0000EF088BD2FF00AB817F0A0B917F030BD90
:1018E00047F0BCBF42F010B840F07ABF05F080B8B6
:1018F0000EF0FCBD0AF088B907F026BC0FF0B0BCB2
:101900000FF0D8BD01F0F8BC0FF0BCBF0EF0D8BB93
:1019100010B5044632F0CEFA04F59B5044F0E2FBD9
:10192000204610F097F904F5E750082330220349C8
:101930001030BDE8104033F003BC00BF5C6C0C08F5
:1019400038B500F5E75510350446284633F03EFD1E
:10195000D5ED107A9FED0D7AF0EEE77AF4EEC77AC6
:10196000F1EE10FA0CD541F62A53F7EE006AE35E69
:1019700007EE903AF8EEE77A86EEA77A85ED107AD0
:1019800004F57A542B6CE36338BD00BF00000034CB
:1019900090F8F83190F8CE22DB0122B1C21892F80B
:1019A0006920012A03DC184490F86900704701207F
:1019B0007047000090F8CC301BB190F8F530C3F3BD
:1019C000400318467047000010B543F2FC1304466C
:1019D000C35CDB0705D542F6EC13C05803681B68EF
:1019E000984704F57E540C3420460CF03FFA18B9A1
:1019F0002046FFF7DFFF20B12046BDE810400EF083
:101A00001DB810BDFFF7E0BF38B5044618F0B8FCAC
:101A100090F94D3073B104F58765284618F062FAE5
:101A200040B104F505503030C0F89450BDE838405E
:101A300015F08ABB38BD0000FFF7E6BF10B50221E4
:101A4000044610F037F820B10121204610F032F89A
:101A5000C0B10221204610F02DF820B1802120468F
:101A600010F028F890B10221204610F023F898B128
:101A700004F5055104F5EC5030310830BDE8104054
:101A800038F038BA204603F02FFAE2E704F5EC50BC
:101A9000083037F037FAE6E710BD0000FFF7CEBF99
:101AA00010B51021044610F005F810B1204603F0DF
:101AB000A7FC202120460FF0FDFF10B1204603F0C7
:101AC00017FB4FF4005120460FF0F4FF10B12046F1
:101AD00003F054FC802120460FF0ECFF30B104F5F8
:101AE000EC500830BDE8104037F002BB10BD0000DC
:101AF000FFF7D6BF70B542F61C330446C55808F050
:101B000011F842F62833024604F57750E358294687
:101B10001830BDE8704050F0EFB80000FFF7EABFA2
:101B200010B5044618F02CFC90F94D3073B194F9BF
:101B300087345BB1064B1B689B6C93F84C302BB918
:101B400004F58760BDE8104018F08AB910BD00BFE9
:101B5000E0270020FFF7E4BFF8B500F540550C354D
:101B600095F83861012E044657DC142303FB065315
:101B700093F91530002B50D000F138073846FFF7A5
:101B800007FF022849DD94F8301204EBC11393EDEE
:101B90002F7AF1EE007AB4EEE77AF1EE10FA3CD447
:101BA00041F23E43E35E07EE903A842303FB065680
:101BB000F8EEE76A96ED0D6AB4EEE66AF1EE10FA19
:101BC00006D5F8EE677AF4EEC77AF1EE10FA24DC67
:101BD00004F5065341F628621B68A258002BB8BFD3
:101BE0005B42934219DC42F2841341F25042E358C3
:101BF000A25E934211DC41F62C62A258934200DAB5
:101C0000F8BD04F5A25407EBC111B4F90020284631
:101C10009831BDE8F84016F097B8F8BDFFF79CBFC3
:101C20002DE9F04190F830622F4F0C2303FB06039F
:101C30000446D3F880803B68434500F1380504D062
:101C40002846FFF7A5FE022839DC2846FFF7A0FE4C
:101C5000022816DC42F63433E25C92B10522E254EB
:101C60000FE0013BA3540021204607F0CBFF04F511
:101C70002750303051F04CFF04F50550303012F051
:101C8000B9FD2046BDE8F0410AF0F6B905EBC611F2
:101C90007431204605F0DAFC43F6586304F57955B3
:101CA000E3580FCB04F579561C353C3685E80F0018
:101CB00086E80F0042F634330022E254D3E742F6BE
:101CC0003432C7F80080A35C012BCADCCBD143F6C9
:101CD0007463E358002BD9D143F67863E358002BA3
:101CE000D4D10523BEE700BFD0270020FFF798BF5F
:101CF0002DE9F04142F6F8230446C65800F52A5370
:101D000024339E4207D141F28643C3562A2B07D182
:101D100000F52A56143604F546534FF0FF321A6088
:101D200004F57E570C3738460CF0A0F804F505553D
:101D30003035F0B93846FFF73DFED0B943F2042301
:101D4000E35C042B10D104F56D500C305CF01AF9F3
:101D500095F88C3060F3410385F88C303368304659
:101D6000DB68BDE8F041184795F88C3043F002037A
:101D7000F2E795F88C306FF34103EDE7FFF7B8BF5A
:101D800038B52DED028B41F28E430446C55E9DB100
:101D900042F6F823002DE05803681B68B8BF6D4277
:101DA00098470738082800F2BC80DFE800F0A8BA9E
:101DB000BA091AA6A6A6A60041F25643C55EE7E7F1
:101DC00004F50553303393F86031DB0740F1A98007
:101DD000BDEC028B04F548502430BDE838402AF0B1
:101DE00091BD44F25803E35CABB144F21E03E356E9
:101DF000012B10D142F6E813E05803689B6B98471B
:101E0000002850D05EF028F942F60833E358C01A93
:101E1000B0F57A7F7AD841F26443E356012B10D1B2
:101E200043F2C313E35C63B9204609F059FE40B1A5
:101E300042F6483340F2CE72E35803F2E73393425E
:101E400008D941F26443E356022B14D143F2C31381
:101E5000E35C83B904F5485024302AF0A3FC30B188
:101E600004F52A510022243120460FF053FD43F29D
:101E7000C3130122E25441F28E43E35E83EAE3712D
:101E8000A1EBE371002B89B206D043F63862B4BFF0
:101E90004FF0FF330123A354BDEC028B2046BDE875
:101EA000384009F0EDBE04F5795204F5795104F596
:101EB00079503C321C312C3017F09AFE0028A1D109
:101EC00004F57E5004F546530C3093ED098A0CF06E
:101ED000DFFE07EE905AF8EEE77AF4EEC07AF1EE04
:101EE00010FAC2BFADB207EE905AB8EE670AB4EE70
:101EF000C08AF1EE10FA85D48DE70021CCE7BDEC65
:101F0000028B2046BDE8384009F094BCBDEC028B42
:101F100004F52B51204600221031BDE838400FF067
:101F2000F9BCBDEC028B38BD38B543F2042304463E
:101F3000C35C8B420D461ED00B1F594200F56D50FD
:101F400059410C305BF068FF072D0CD143F28C1324
:101F500004F52350E25805216423383092FBF3F353
:101F6000054A3AF01DFB43F204232046E554BDE840
:101F7000384003F021B938BD1C700C0838B543F265
:101F8000FC130446C35CDB0745D543F2FD13C35C79
:101F9000002B40D142F6F823C25800F52A532433CF
:101FA0009A4232D100F57E550C3528460BF026FFBB
:101FB00028B102212046BDE83840FFF7B5BF43F203
:101FC000BD13E35C0BB90121F4E704F54953043375
:101FD0005B88152B27D104F56D550C35297911F047
:101FE000010104D143F20423E35C072B22D1072132
:101FF000E0E728465BF0FAFE28B304F52350134AC5
:10200000062138303AF0CCFAF1E700F52B531C33B7
:102010009A420DD138BD04F57E550C3528460BF09B
:1020200025FF0028C5D12846FFF7C4FC0028C0D1F1
:102030000321BFE743F6CE43E35623B120460EF01B
:10204000BDF95928D5DC0421B4E700BF40700C0865
:1020500010B52DED028B43F204230446C35C042B20
:102060000BD104F0A9FD2046B0EE408A04F032FE08
:1020700038EE400ABDEC028B10BD00F57A5494EDA9
:102080000E0AF7E738B5054B1C6823680A461D6839
:10209000034B01462046A847002038BDE02700201A
:1020A000E827002070B504460DF064FD04F50550E6
:1020B000303015F049F841F23E43E25A43F64A53B4
:1020C000E25204F57353143393F885206AB904F58A
:1020D000A2529FED2A7AB2F9002007EE902AF8EE7C
:1020E000E77A67EE877AC3ED207A41F25A4304F526
:1020F0007D55E25A224B234E1A70103542F0B6FF3E
:1021000000212846FFF7EEF90123B0712846F3714C
:1021100050F09EFC28B9284651F03EFAB0FA80F003
:1021200040093071042120460FF0C4FC20B104F5B1
:102130004B50203033F0ECFE284650F089FCE0B9DB
:1021400094F830320C2202FB034343F6F865D3F8CF
:102150008060635941F28832F31A93420DD904F139
:102160003800FFF715FC022807DD6651204604F50C
:102170006D5405F089FA0023E36070BDC0CFF83FCD
:1021800009240020456A0020FFF78CBF38B50446BB
:1021900004F5055538301DF043FB303504F5795111
:1021A0002C31284613F0E8FF42F63533E05404F5AD
:1021B0007A5438342146284613F0C6FBD4ED007A11
:1021C000F1EE677AC4ED007A38BD0000FFF7DEBF9C
:1021D0002DE9F04F2DED028B00F5427589B00446D4
:1021E000284616F01FFB04F50550002305A93030E2
:1021F00005930693079314F0C9F800285CD09DED71
:10220000070ADFED437A04F5465393ED077A20EE93
:10221000270ADFED407AA7EE270A0121204683ED49
:10222000070A04F54B5383ED060A07F0EBFC204642
:10223000FFF7A4FE43F2FC13E35CDB0737D543F260
:10224000FD13E35C9BBB43F20423E35C042B46D009
:102250009FED318A42F6EC132046E5582B685E6804
:1022600004F088FF42F63833074654F8038043F2FF
:102270000423204614F8039010F086FB42F6423304
:10228000824634F903B02046FFF7E2FE8DE8000CE9
:102290000023029304F54854F0EE400A94ED071A27
:1022A000B0EE480A4B46424639462846B04709B088
:1022B000BDEC028BBDE8F08F04F13800FFF768FB3E
:1022C000022806DD94F8303204EBC31393F8EC20B7
:1022D000DAB9284616F046F9B1EE400A91E704F55E
:1022E000795504F579562C353C3604F5795132464A
:1022F0001C31284617F07CFC0028A9D0314628461E
:1023000017F0A8FBB0EE408AA4E793ED360A78E711
:10231000CDCC4C3ECDCC4C3F00000000FFF758BF69
:1023200070B543F6CC4604468357002B27DD07F0F3
:10233000FFFD20BB04F57D551035284651F02CF9E2
:10234000E8B1284650F084FB68B970BD2846FFF715
:1023500061FAA0B104F52350094A06213830BDE8DE
:1023600070403AF01DB95DF077FE43F2AC13A2570E
:10237000E358C01A4FF47A7353439842E6D270BDC3
:1023800068700C082DE9F041044604F5055500F588
:102390007D5010303035FFF76FF80021284614F0DB
:1023A0002FFB802120460FF085FB20B104F5EC5077
:1023B000083036F0A7FD41F24E4341F62868E35E4F
:1023C00044F8083041F2524341F62C6704F57E563A
:1023D000E35EE3510C3630460FF04AFD18BB54F86B
:1023E000083007EE903A04F50B5393ED067AF8EEB9
:1023F000E77A67EE877AFDEEE77A17EE903A44F8CF
:10240000083004F50B53D3ED057AE35907EE103A83
:10241000B8EEC77AF0EEE77A67EE877AFDEEE77AF4
:1024200017EE903AE351284613F066FE0746284619
:1024300013F06EFE04F5465500F11801384628F0F9
:1024400081FB083504F57A5393ED0F7AD5ED007AC8
:10245000E7EE007AC5ED007AB0EE670A25F0C0FB22
:10246000304685ED000A0AF0FBF904F57E500021A4
:102470001430BDE8F04153F03DBC0000FFF782BFCF
:1024800010B543F2FC130446C35CDA0717D59B076B
:1024900015D541F2EA43C3560BB9002010BD07F031
:1024A000FFFA0028F9D042F61833E35E002BF4D18E
:1024B00020460DF0F9FC80F00100C0B210BD42F6DC
:1024C0001433E05C28B141F2A843E356022BE4D078
:1024D00010BD0120FCE7000038B52DED028B04464D
:1024E000B0EE408A06F0C8FE04F5065568B143F226
:1024F0001422A35803F58C415031A15029680029BA
:10250000BEBFA3F58C43503BA35042F6F82204F51E
:102510002A53A25808339A421BD141F67853E35804
:10252000B3F90820003218BF012243F2142304F546
:102530001B50E1582B68B0EE480AC91A28304EF0FB
:102540009BFFBDEC028B01B2BDE83840042042F095
:10255000B9BA0022E9E7000038B52DED028B054637
:10256000F0EE408A10F04AFB044658B100EB4004FC
:10257000C4EB041421B2BDEC028B1320BDE838403B
:1025800042F0A0BA05F5A75343F21822B3F9003080
:10259000AA58134407EE903A4620B8EEE78A42F074
:1025A000A3FA07EE900A05F5A353B8EEE77AD3ED48
:1025B000047A42F6F822A7EE278A05F52A53AA588C
:1025C00008339A42FDEEC87A16D141F67C53EB5897
:1025D000B3F90820003218BF012242F2841305F536
:1025E0001E50E95817EE903AB0EE680A591A1430A6
:1025F0004EF0C4FD01B2BEE72246EEE710B5044638
:10260000FFF73EFF00285CD042F6F82304F52A527B
:10261000E3581032934254D004F52A5214329342B4
:102620004FD004F52A52203293424AD004F52A5260
:102630001832934245D004F52A521C32934240D0BE
:1026400004F52B5293423CD00432934239D004F526
:102650002B520832934234D004F52B520C32934261
:102660002FD004F52B52103293422AD004F52B526E
:102670001432934225D004F52A520C32934220D0D2
:1026800004F52B52183293421BD0042042F02CFA4E
:1026900041F678530146E05841F066FC01460420BB
:1026A00042F010FA132042F01FFA41F67C53014623
:1026B000E05841F059FCBDE810400146132042F0BB
:1026C00001BA10BD38B52DED028B0446FFF7D8FED8
:1026D00000284AD042F6F82304F52A52E358103273
:1026E000934242D004F52A52143293423DD004F56D
:1026F0002A522032934238D004F52A52183293429B
:1027000033D004F52A521C3293422ED004F52B52BA
:1027100093422AD00432934227D004F52B52083238
:10272000934222D004F52B520C3293421DD004F573
:102730002B521032934218D004F52B52143293428C
:1027400013D004F52A520C3293420ED004F52B52CA
:102750001832934209D004F52A52243293427DD193
:1027600041F28643E3562A2B78D1BDEC028B38BD6B
:10277000FFEE007AB0EE087AE0EE077AB0EE670A74
:1027800043F2142541F62863E258635907EE102AF4
:1027900007EE903AB8EEC77AF8EEE77A5142E0EEEB
:1027A000077AFDEEE77A17EE900A605125F02CFAD1
:1027B00041F67C536051E05841F0A6FAB4EEE80AC5
:1027C000F1EE10FAB0EE408A34DDFFEE007AB0EEA2
:1027D000087AE8EE077AB0EE678A204606F04CFDEC
:1027E00008B1B1EE488A43F21823B5EEC08AE25828
:1027F00007EE902AF1EE10FAF8EEE77A24DD41F2C6
:102800005042A25E07EE102AB8EEC77AE8EE077AC9
:1028100043F21825FDEEE77A17EE902AE25041F2D6
:1028200050436059E25E41F62C63E15825F0ECF923
:1028300060519AE7FEEE007AB4EEE70AF1EE10FA84
:10284000CBD5F7EE007AC2E741F62C62A25807EE2C
:10285000102AB8EEC77AE8EE477AD9E741F67853FE
:10286000E05841F051FAF6EE007AB4EEE70AF1EEE4
:1028700010FAF0EE678A3FF77BAFFEEE007AB4EE17
:10288000E70AF1EE10FA7FF57BAFF7EE007A71E719
:1028900037B541F23B430446C356012B06DC002109
:1028A000462003B0BDE8304042F00CB942F6EC13CC
:1028B000C05803689B68984742F6F8230190E25895
:1028C00004F52A5334339A4204D004F52A543034A0
:1028D000A2420CD10B4D43F2E8142B593BB15DF0F1
:1028E000BBFB2B59C01A40F6B733984202D9BDF949
:1028F0000410D5E7044BD3ED007AFDEEE77ACDED79
:10290000017AF4E7E8270020CC590020F8B52DED36
:10291000028B0546B0EE408A0DF008FA42F6F82325
:102920000646EA5805F52A5334339A4204D005F591
:102930002A5330339A420DD1244C43F2E017E35925
:10294000002B07DD5DF088FBE359C01A40F6B73372
:10295000984237D942F6F82205F52A53AA58083387
:102960009A4201D0002102E0311C18BF012105F577
:102970002150B0EE480A08304EF000FF0446042013
:1029800042F0B2F807EE900A23B2F8EEE76A07EEDB
:10299000903A05F5A353F8EEE77A93ED027AE6EE66
:1029A000877AFDEEE77A17EE900A304400B241F2E2
:1029B0009412074925F030F9BDEC028B42F6F20380
:1029C000E852F8BD43F2D413E05EF0E7E8270020B8
:1029D0006CEEFFFF38B542F6E8130446C0580368B2
:1029E000DB689847014604F5225018304EF0A4FEEB
:1029F00042F6F00560532046FFF742FD30B141F644
:102A00008453615FE05841F0AFFA605342F6F0053D
:102A100041F294120249605F25F0FEF8605338BD20
:102A20006CEEFFFF38B590F8303200EBC31393ED36
:102A30002F7AF7EE007AB4EEE77AF1EE10FA044658
:102A40000AD500210DF0BAFC30B943F20423E35C4F
:102A5000012B01D0072B61D120460DF067F941F21F
:102A6000784307EE900AE35E00EE103A43F2042347
:102A7000E35C012B02D19FED300A0BE0072BFAD06B
:102A8000B8EEE77ADFED2D6AC7EE267AB8EEC00A17
:102A900027EE800A9FED2A7AF0EEC07AF4EEC77A2C
:102AA00004F52250F1EE10FA43F2841200F11800FE
:102AB00014D40023A35443F28413E35CDBB94EF037
:102AC0001BFD42F6F00342F6F005E05241F294128B
:102AD0001C49605F25F0A0F8605338BDA15C51B976
:102AE00001218B42A15406D0072B04D004F5465394
:102AF00000229A60DFE704F5465393ED027ADFED9A
:102B0000127A67EEC77A9FED117A67EE877AFDEE4B
:102B1000E77A17EE901A4EF00FFED2E743F28413D5
:102B20000022E05404F5465320469A600DF0FEF86A
:102B300042F6F003E05238BD0000000000A08C45D2
:102B4000000000346CEEFFFFE02E65420000C8423A
:102B500070B500F56D550C352DED028B04462846F9
:102B6000B0EE408A5AF0FAFF08B342F6EE030122B3
:102B7000E25428465AF0F2FF002839D104F54653B2
:102B80001B68013303D042F6EE03E35C83BB42F6DD
:102B9000EE03E35C13B12046FFF744FFB0EE480AB2
:102BA000BDEC028B2046BDE87040FFF7AFBE41F69A
:102BB0007853E358B3F9083083B904F57A53D3ED69
:102BC0000E7A04F5A35393ED057AF0EEE77AF4EE6E
:102BD000C77AF1EE10FA4CBF0120002042F6EE0653
:102BE000A05528465AF0D4FF0028C2D1A055C0E70E
:102BF0002046FFF7EFFED1E738B52DED028B42F608
:102C0000EC030446C35CB0EE408A43B141F678530E
:102C10000420E358B3F9081041F054FF15E0FFF722
:102C20005BFC43F21423E358002B1BDC43F2142318
:102C3000E358002B09DA41F678530420E358B3F93E
:102C4000085041F051FFA842E0DB42F6ED03E35C9F
:102C50009BB141F67C531320E358B3F9081041F0BF
:102C600031FF23E041F678530420E358B3F90850CC
:102C700041F03AFFA842C9DCD8E7B0EE480A204646
:102C8000FFF76AFC43F21823E358002B17DC43F2EA
:102C90001823E358002B09DA41F67C531320E3583C
:102CA000B3F9085041F020FFA842D2DBB0EE480A49
:102CB000BDEC028B2046BDE83840FFF749BF41F626
:102CC0007C531320E358B3F9085041F00DFFA8429C
:102CD000BFDCDCE7F8B542F6EC130446C0580368E5
:102CE000DB68984742F6F8230646E25804F52A5373
:102CF00034339A4204D004F52A5330339A420DD12A
:102D00000F4D43F2DC17EB59002B07DD5DF0A4F902
:102D1000EB59C01A40F6B73398420CD941F25043F0
:102D20003046E25E41F62C63E15824F06DFF43F239
:102D30001823E050F8BD43F2D013EE58EEE700BF81
:102D4000E827002010B504460EF0BAFE00282ADB62
:102D500041F23B43E356984225DA43F20422A25C57
:102D6000022A20D0181A07EE103A07EE900AB8EEA1
:102D7000C77AF8EEE77A43F21822C7EE876AA358BB
:102D800007EE903A04F5A35393ED077A9FED066A98
:102D9000F8EEE77A27EE067AE6EEC77AFDEEE77AF6
:102DA00017EE903AA35010BD0000C842F8B543F2A8
:102DB00014272DED028BC3599FED530A9FED537AD3
:102DC00007EE903AF8EEE77A044667EE807A9FEDD8
:102DD000500AF0EEE76AF4EE476AF1EE10FAC8BF67
:102DE000F0EE477A27EE800AADF090FC24F042FE28
:102DF000B7EE008AC8EE007A04F5485604F57E5511
:102E00001C360C352846C6ED007A0BF0E7FE20B1E3
:102E100044F21C13E358DB0763D441F25543E356F5
:102E200073B3204606F028FA50BB28460FF020F86E
:102E300030BB41F23E4304F54852E35ED2ED086AEE
:102E4000012BB8BF012307EE903AF8EEE77A86EE41
:102E5000A77AB4EEC87AF1EE10FA14D843F214252A
:102E600040F6C4122B49605924F0CEFE41F6286387
:102E7000605140F6C412E1589142D4BFE150E25093
:102E8000BDEC028BF8BDD6ED007AB4EEE77AF1EE38
:102E900010FAF5D588EE070A43F2142620EE000A50
:102EA000ADF08EFDDFED1C7AA05920EE270ADFED94
:102EB0001B7A20EE270A40F6C413FDEEC07A17EE07
:102EC000905A9D42B8BF1D462A46694224F09CFE96
:102ED00041F62863A051E258AA42D4BFE250E5501F
:102EE000CEE741F20853E256642312FB03F241F6A7
:102EF0002863E1588A42A8BF0A46E2505142E0598D
:102F000024F082FEE051BBE70AD7233C0000AA422E
:102F100035FA8E3C3CF6FFFFE02E65420000C842C9
:102F2000F8B542F6E8130446C05803681B68984792
:102F300042F6F8230646E25804F52A5334339A42FF
:102F400004D004F52A5330339A420DD1104D43F288
:102F5000D817EB59002B07DD5DF07EF8EB59C01A4E
:102F600040F6B73398420ED941F628633046E2580E
:102F7000514224F049FE43F21423E0502046BDE8BC
:102F8000F840FFF713BF43F2CC13EE58ECE700BF55
:102F9000E827002070B52DED028B044682B000F5C5
:102FA000055001A9303012F0A3FA002864D004F5CE
:102FB0004653DDED017A93ED057AB4EEE77A9FEDA5
:102FC0005C7AF1EE10FA03F11403F4EEC77A41F2E1
:102FD0003E4648BFC3ED007A04F5A455F1EE10FA61
:102FE000C8BF95ED007AA35F95ED006AC8BF87EE74
:102FF000270A07EE903A04F5A253F8EEE77AF6EEC8
:10300000008A67EEA87AB3F90030C7EE860A07EEA9
:10301000903AF8EEE77AB7EE087A67EE877AF0EE44
:10302000006A87EE867AF4EE680AD8BFB0EE660AC8
:10303000F1EE10FAB4EE667AC8BFF0EE680AB0EEB0
:10304000001AF1EE10FA58BFB0EE471A24F0ECFD6A
:1030500004F57E500C30B0EE408A0AF007FF28B12C
:10306000344B1B689B6C93F84C303BBBB0EE480A6A
:1030700002B0BDEC028B70BD2E4B1B689B6C93F8AD
:103080004C30C3B1462041F02FFD0128B8BF0120CC
:1030900007EE900AB8EEE70ADFED277A87EE800A9E
:1030A000AEF036F89FED251ADFED250A24F0BCFDC1
:1030B000B0EE408ADAE7B7EE008AD7E7A35F9DED6E
:1030C000011A02EE103AB8EEC22A22EE282AB4EE15
:1030D000C12AF1EE10FAC9DDD5ED000ADFED191AAB
:1030E000C0EE820AB0EE610A24F0D4FC04F51E534F
:1030F000D3ED017A9FED147A67EE877AB4EE480A31
:10310000C3ED017A04F52053D3ED0E7A67EE877A8A
:1031100004F52254C3ED0E7AD4ED027A67EE877A75
:10312000F1EE10FAC4ED027AD8BFB0EE408A9DE706
:1031300017B7D138E0270020000034428FC2D53FB6
:103140009A99193F0000000052B87E3F70B52DEDEE
:10315000028B41F67853DFED646AC358B3F9083047
:1031600007EE103AB8EEC77A00F5A653C7EE267AF6
:10317000B3F9003000F51B5604462836F0EE408ABD
:1031800000EE103A41F67C53B8EEC00AC358B3F9CA
:10319000083027EE800A07EE903AF8EEE77A41F21F
:1031A000C24387EEA67AC35E08EE103A41F2C443EA
:1031B000B8EEC88AC35627EE088A43B19FED4B7A12
:1031C000F0EEC07AF4EEC77AF1EE10FA47D443F28B
:1031D00050130022E254F0EE680A30464EF048F9EF
:1031E0001EE00122E25400232B6095ED007ADFED12
:1031F000407A67EEC77A9FED3F7A67EE877A04F5EB
:103200000653FDEEE77A1B6817EE901A43F214227C
:103210000B44A350B0EE680A012230464EF02CF960
:1032200001B2042041F04EFC41F2C44304F51E50AB
:10323000E356143043B19FED2D7AF0EEC87AF4EEE8
:10324000C77AF1EE10FA24D443F251130022E2546B
:10325000F0EE680AB0EE480A4DF0ACFE34E043F2FE
:10326000501300F54555C25C1435002AB9D004F559
:103270000550303012F040FF04F57A53D0ED006A6B
:1032800093ED0F7AD5ED007AE6EE877AC5ED007AF8
:10329000ABE743F25113E25C3AB90122E25442F245
:1032A0008413E25843F25813E25043F2581343F2A6
:1032B0001822E358A35042F28412B0EE680AA158D3
:1032C0000022591A4DF05AFF01B2132041F0FAFBC7
:1032D00020460CF02BFDBDEC028B42F6F203E052CF
:1032E00042F6F003E05270BD00A08C4500000034AF
:1032F000E02E65420000C84270B52DED028B42F60B
:10330000F82200F52A5382583C339A4204460AD1E7
:1033100043F28413002200F54654C2540023A360F4
:10332000BDEC028B70BDFFF735FE04F57E550C3504
:103330002846B0EE408A0EF027FED0B144F2EC03EE
:103340009FED811AE356DFED810A5A1D6423534332
:1033500000EE103AB8EEC00A24F066FCBDEEC00ADA
:1033600043F2182310EE102AE25043F214230022F5
:10337000E2505CF071FE42F610330646E358C31A81
:10338000B3F5FA6F16D904F51B5028304EF0B0F89B
:1033900004F51E5014304DF04BFF04F52150083059
:1033A0004EF042FB43F284130022E25404F54653EC
:1033B00000229A6042F6103304F52A52E65042F693
:1033C000F8230C32E358934258D1B0EE480A204615
:1033D000FFF712FC002120460CF0F0FF00289FD1DF
:1033E00004F57A53D3ED0E7AB1EE047AF0EEE77A73
:1033F000F4EEC77AF1EE10FA92D504F5427015F0AA
:10340000B1F8F6EE007AB0EEC00AB4EEE70AF1EEDB
:1034100010FA85D594F8303204EBC31393ED2F7A6C
:10342000F0EE087AB4EEE77AF1EE10FA7FF578AFB5
:1034300004F51B5028304EF05BF804F51E50143094
:103440004DF0F6FE04F5215008304EF0EDFA94F8F8
:10345000303204EBC31393ED2F7AF7EE007AB4EE1B
:10346000E77AF1EE10FA7FF55BAFBDEC028B04F565
:1034700022501830BDE870404EF07CB904F52A5255
:103480001032934205D1B0EE480A2046FFF75EFEA7
:10349000A0E704F52B5293421BD00432934218D07C
:1034A00004F52B520832934213D004F52B520C3200
:1034B00093420ED004F52B521032934209D004F5FA
:1034C0002B521432934204D004F52B5218329342FB
:1034D00007D128460EF058FD18B928460CF006F919
:1034E00078E741F2EA43E356012B07D142F6F8228E
:1034F00004F52A53A25808339A421CD1B0EE480A68
:103500002046FEF7E9FFB0EE480A2046FFF724F810
:1035100041F2EA43E356022B11D042F6F82204F5B9
:103520002A53A25808339A4209D0B0EE480A2046DE
:10353000FFF70EFB4EE72046FFF7C4F8DEE7204614
:10354000FFF75CF8F1E700BF00D0044600E0AB45B0
:10355000704700000020704700207047012070472E
:10356000002070470120704701207047704700001D
:1035700041F25C43014AD05C704700BFE82700205D
:1035800041F6D843024AD056003018BF0120704798
:10359000E827002041F25E43014AD056704700BF41
:1035A000E8270020002070477047000010B542F661
:1035B000F823254CE05803681B68984717282246D3
:1035C0004FF001040FD8214B04FA00F0184229D122
:1035D000A3F57413A3F2E25303402BBB1C4B03402F
:1035E000002B18BF402442F6ED03D35C1BB142F61A
:1035F000EC03D35C0BB944F0100442F6F823D15825
:10360000144B9942A3F1040303D0994218BF44F02C
:10361000100441F2EA40125642B1994210D144F0EE
:10362000010010BD1024DEE71824DCE79942F6D033
:1036300009484FF00DFA0028F1D044F08004EEE77D
:1036400044F04004F4E700BFE8270020E4015E00F6
:1036500019008000A4520020386700202DE9F043B3
:103660002DED028B8BB08146DFF8988014F0F8F8CE
:1036700008F5A7530446476890ED028AC6681E48BD
:10368000B3F900500AF0F2FB68BB07EE905AB8EEAF
:10369000E77ADFED1A7A67EEC77A9FED197AA7EE1F
:1036A000878A236820465B6B9847044699F8105038
:1036B0005CF0D2FCA3682168626809932723019318
:1036C0001C23039007910892009303AA1E21284609
:1036D00004978DED058A069639F0A6FE0BB0BDEC79
:1036E000028BBDE8F08344F2081358F803305F689A
:1036F00093ED028ADE68D4E7746700200AD7233C82
:1037000035FA8E3CE827002008B506480EF0D8F9B7
:10371000FCF706FF21F000431946FDF717FA00B247
:1037200008BD00BFE827002008B515F0ADFABDE8D8
:10373000084014F017BF000010B4104BCC6803F51C
:103740007A5004600A7AD20705D543F658629A582F
:1037500052682244026043F67C62985C6FF300007A
:103760009854097AC0B2C1F3800161F38200985481
:103770005DF8044B014802F0A9BF00BFE827002014
:1037800038B5054D42F6F50401232B553BF0E2F91F
:1037900000232B5538BD00BFE827002070B5054633
:1037A0000E461446114605484EF0D4FF22463146D7
:1037B0002846BDE870403EF03FBF00BF586500207E
:1037C00070B58B8BBF2B8CB006460D467FD021D8B1
:1037D000162B64D008D8112B58D0142B5CD0294656
:1037E00030463FF0C5FEB3E0B32B00F0D480BD2BD4
:1037F00066D0B22BF3D1C14A42F6F823D358C04A5F
:10380000934234D0103A934231D00C3293422ED0AE
:1038100004209DE0D42B00F00D8114D8D02B00F0B3
:103820001A81D12B00F04081CF2BD8D1B34806F0BC
:1038300057F8002840F08E803FF014F9B14A052176
:1038400038F0AEFEE4E7B3F5967F36D040F6B832F6
:10385000934200F07781DF2BC1D191ED021AD1EDB7
:10386000010A91ED000AA84844F08CFB22E008A868
:1038700015F054FF06A9284628F0A8F80028C7D15B
:1038800006A99E4804F0ECFB002061E09F4902225B
:103890009A480EF03FF8F7E702229D49F8E744F214
:1038A0005803964AD35C002BB2D091ED060A994892
:1038B0000AF002F90028ABD0E6E702229649E7E7D2
:1038C000964828F06FFF0028A2D00022F6E78B4C24
:1038D00043F20423E35C042B07D043F24623E35A6C
:1038E00023F040039BB2152B92D18C4828F07EFF29
:1038F0000028C9D144F25803E35C53B185480AF06B
:103900007DFA002884D144F21C13E358D9063FF510
:103910007FAFD5ED007A9FED827AF0EEE76AF4EEA4
:10392000C76AF1EE10FA0AD49FED7E7A67EE877AC5
:1039300043F28C13FDEEE77A17EE902AE2507A48B4
:103940005AF054FA00283FF463AF784B0020187007
:103950000CB070BDD5ED007AFCEEE77ACDED037AC0
:10396000BDF80C10012912D010D302297FF450AFFA
:103970000021624805F0C2FF00283FF449AF3FF044
:1039800071F86B4A052138F00BFE7DE700215B489A
:1039900005F0BCFF8EE7F7EE000A91ED000A24F077
:1039A00033F8A8B11CF024F890F8F81100EBC1111D
:1039B0007431524803F04AFE00283FF429AF13F057
:1039C0004FFF90F8603143F0020380F860315BE70D
:1039D000D5ED007A9FED527AF0EEE77AF4EEC77AF1
:1039E000F1EE10FA7FF514AF06A815F097FEDFEDA3
:1039F000516A95ED047AD5ED057A336827EE267A7B
:103A000067EEA67ABDEEC77AFDEEE77A8DED087A0D
:103A1000CDED097A9FED437AD5ED067A67EE877A88
:103A20000122FDEEE77A06A9CDED077ADB6D30467F
:103A300098473FE7D1ED007A9FED397A2F48F0EEB5
:103A4000E77AF4EEC77AF1EE10FA54BF01210021B3
:103A500005F00CFC18E7D1ED007AFCEEE77ACDED2D
:103A6000037ABDF80C1001290ED00CD302297FF483
:103A7000CFAE224B43F2D4229A5C520708D53EF0D7
:103A8000F1FF2D4ADBE600212C4846F015F9FBE654
:103A900043F2BC229B561BB93EF0E4FF284ACEE617
:103AA000164808F06FFB05E7D1ED017A95ED030AA2
:103AB000FCEEE77ACDED037AD1ED007A017C154872
:103AC000FCEEE77ACDED047AD5ED047A9DF810206E
:103AD000FCEEE77ACDED057AD5ED027A9DF814304B
:103AE0000193FCEEE77ACDED057ABDF81430009332
:103AF0009DF80C3007F07EFD2AE700BFE827002084
:103B00009C52002054740C08683D00209452002000
:103B100090520020746700208C5200200C5A002024
:103B2000000000340000C84234630020A85900207F
:103B300069740C088096184B7E740C08A45A0020F7
:103B400099740C08D1ED007A0448FCEEE77ACDEDCB
:103B5000037A9DF80C1009F003FAABE674670020B5
:103B60002DE9F0412DED028B8A7A4B7A43EA02234C
:103B7000CA7A43EA0243872B9AB005460C462ED8F0
:103B8000862B80F03781542B00F0FD8113D8452B14
:103B900000F0C980522B00F0498193B9984CCA7942
:103BA00041F25C43E35E9A423BD15CF055FA42F647
:103BB0001C33E05035E05A2B33D007D8562B00F099
:103BC0002B82214628463FF05FFB2AE06D2B00F058
:103BD0000781842BF5D18B4830F0CAFD21E0F32B0F
:103BE00000F0AF8122D8A12B59D0A62B00F0F8808D
:103BF000A02BE6D1CA78824C0C2A4FF0000328BFD4
:103C00000C220C310AA80A930B930C93AFF004FC1E
:103C100041F29043E356BBB17B4A042128463BF076
:103C200019FD1AB0BDEC028BBDE8F081F62B05D072
:103C3000C7D3A3F51C53113B022BC2D82246297CC3
:103C400072484CF0DFF9ECE741F291439DF83320E4
:103C5000E3569A4201D06E4ADFE7DDED0A8A9DED18
:103C60000B8AB0EE680AF0EE480A24F0C1F908B9F0
:103C7000684AD2E7DFED687A9DF8322068EEA78ABD
:103C800028EE278AFDEEE88ABDEEC88A04A9204600
:103C9000CDED048A8DED058A05F05AFDC1E7CA789D
:103CA000574F032A41F291484FF0000328BF0322E7
:103CB0000C3103A8ADF80C308DF80E30AFF0ACFB32
:103CC0009DF80E6017F908309E42C4DA3246394634
:103CD00004A805F01DFDDDED057A9DED047A17F8C9
:103CE0000830DFED4E6A8DF83330F8EEE77AB8EE43
:103CF000C77A4E23E179227A287C019367EEA67A6F
:103D000027EE267A0C238DF830108DF831200093A1
:103D10000AAAA0218DED0A7ACDED0B7A8DF83260DA
:103D200039F082FB7DE7364ECA7941F25C43F35E9F
:103D30009A427FF476AFCA780B2A4FF0000728BF6B
:103D40000B220C310AA80B970A97CDF82F70AFF011
:103D500063FB41F25A439DF83220F35E9A427FF4AE
:103D600060AF5CF079F904468DE8900041F6785137
:103D7000BDF92A209FED2A0A71584FF47A7328461C
:103D80003EF03EFE012341F67C5101930094BDF9C3
:103D900028209FED230A71584FF47A7328463EF08D
:103DA0002FFE8DE8900006F5EC51BDF92C209FED1B
:103DB0001D0A09683B4628463EF022FE8DE8900029
:103DC00041F684514FF47A73BDF92E209FED140A09
:103DD000715828463EF014FE42F61C33F45020E79A
:103DE000082107480DF066FE2146024628463BF0B2
:103DF000A3FC16E70A46017C0B4832F03DFB10E7B6
:103E0000E8270020D8380020B8730C08BC640020D4
:103E1000D1730C08E1730C088096184B95BFD6330C
:103E20000000FA4400007A44C85A0020AD4DAE4A62
:103E300042F6F823EB58934203D0043A93427FF4BE
:103E4000F0AEE678272E28BF2726272200210AA8D1
:103E5000AFF008FB324604F10C010AA8AFF0DCFA1F
:103E60000B9B9DF84E4004930C9B0593E4430D9BE4
:103E70000693E4B20E9B07938DF84E405CF0ECF88D
:103E800014F0810F04F08706074601D1802E14D16B
:103E900004A825F009FEDFED957A20EE270ADFED74
:103EA000947A20EE270A43F2CC13BDEEC00A10EE3E
:103EB000102AEA5043F2D813EF5014F0820F01D1C8
:103EC000802E14D104A825F009FEDFED887A20EEBB
:103ED000270ADFED877A20EE270A43F2D013BDEEE2
:103EE000C00A10EE102AEA5043F2DC13EF5014F02F
:103EF000840F01D1802E14D104A825F0FFFDDFED41
:103F00007B7A20EE270ADFED7A7A20EE270A43F249
:103F1000D413BDEEC00A10EE102AEA5043F2E013AB
:103F2000EF5063067FF57DAE9FED717ADDED127A7D
:103F3000704B67EE877AC3ED007A43F2E813EF50D7
:103F40006FE6CE783D2E28BF3D263D2200210AA8EF
:103F5000AFF088FA324604F10C010AA8AFF05CFA1F
:103F600004A815F0DBFB0A9B06930B9B07930A2220
:103F70000C9B93FBF2F305932B680022DB6D04A9E5
:103F8000284698474DE6CD78352D28BF3525352272
:103F900000210AA8AFF066FA2A4604F10C010AA82B
:103FA000AFF03AFA4F4D42F6F823EA584E4B9A4298
:103FB0007FF437AE9DF85C30072B7FF432AE05F509
:103FC0007A54D4ED007ADDED0D6A9FED497AF8EE72
:103FD000E77AE6EEC77AFDEEE77AC4ED007A3EF0C6
:103FE00041FD43F658639FED447AEA5823685268CE
:103FF0009B1A07EE903AF8EEE77A064667EE877A64
:1040000017EE900AFCF79EFA3C4ACDE90001062122
:10401000304638F0C5FA04E6324A42F6F823D3585F
:10402000314A934203D0043A93427FF4FAADE678E2
:10403000352E28BF3526352200210AA8AFF012FA06
:10404000324604F10C010AA8AFF0E6F9182200216B
:1040500004A8AFF007FA1022002106A8AFF002FA78
:1040600006A815F05BFBBDF8583023F004039BB2A3
:10407000002B3FF4D6AD9DF818309FED1D7ADDED95
:104080000D7A03F0FE0367EE877A6FF38203FDEE8D
:10409000E77A8DF818309DF85C30CDED077A0B2B60
:1040A00019D8DFE803F00C181818180C061818189F
:1040B00018139DF8183043F001038DF818302B6861
:1040C00004A9D3F8C83028469847AAE59DF81830C7
:1040D00043F00503F1E73EF0C5FC094A042138F03E
:1040E0005FFA9EE5E82700209C520020E02E654202
:1040F0000000C842CC5900200AD7233C0B740C089E
:104100001E740C0838B504460D465BF0A5FF42F658
:104110001C33044AD05029462046BDE838403AF0C6
:10412000ADBC00BFE827002038B50B4C04F5475361
:1041300000251D703AF05CFD42F6F823E258074B6B
:104140009A4208D143F22423E35C23B90448BDE832
:10415000384028F0F3BA38BDE82700208C52002000
:104160000C5A002038B5084A43F2E023D3563BB935
:1041700041F24F143AF0E2FB00252043294338BDB9
:1041800041F24F34F6E700BFE827002010B504469F
:1041900015F04EFD204610BD70B542F6F823114CC7
:1041A000E258114B9A421AD108310FC90F4D85E8D8
:1041B0000F0043F68C66A35DDA070BD543F6586211
:1041C00043F69061A258605852686FF300030244AE
:1041D0006250A355034803F0FDF9012070BD002093
:1041E00070BD00BFE82700209C52002074660020AC
:1041F00038B5F7EE000A91ED030A05460C4623F0A8
:1042000003FC28B921462846BDE838403DF0BCB83B
:1042100003480BF0B5FD002814BF0020042038BD72
:10422000E827002038B50D46144613F019FB036843
:104230002946D3F8A030984748B144B113F010FB99
:1042400090F8603143F0020380F86031204638BDB9
:1042500010B50C461BF0CCFB90F8F81100EBC11127
:104260007431074803F0F2F948B144B113F0F8FA99
:1042700090F8603143F0020380F86031204610BDB1
:10428000E827002008B5124842F6F823C258114B1F
:104290009A4216D042F61833C35EA3B943F209031B
:1042A000C35C83B942F61633C35C63B943F2ED13C2
:1042B000C35C53B905F03CFE002814BF0420032062
:1042C00008BD022008BD052008BD062008BD00BFAE
:1042D000E8270020A052002013B543F244131D49E3
:1042E000CB5C012B28DC14221B485A43104490F964
:1042F000100008B384205843014401F541510C7C5F
:1043000016490A44D2ED027AF0EEE77AF5EEC07A69
:10431000F1EE10FAD8BF091804F00104D4BF91F8E7
:104320005020012244B13AB10D4A842101FB0323FC
:1043300093ED0C0A02B010BD13F092FA036801A9C4
:104340005B6E984710B19DED010AF3E79FED050AFA
:10435000F0E700BFE8270020F9570020F4570020BD
:10436000F85700200000000030B542F6F8231C4C3E
:10437000E2581C4B9A4291B030D0057C5BF06CFE49
:1043800043F684639FED187AE258039043F68863FE
:104390000492E358059304F57A540023D4ED007A8F
:1043A0000793089309930A930B930C930D930E9321
:1043B0004FF6F873F8EEE77AADF83C3000238DF84D
:1043C0003E30962367EE877A01933323009303AA46
:1043D00057212846CDED067A39F026F811B030BDC8
:1043E000E8270020A45200200AD7233C2DE9F047FB
:1043F0002DED068B804D42F6F8238EB0EA587F4BA8
:104400009A4207462C467AD07D489FED7E8A7E4EA2
:104410009FED7EAA09F02AFD00287DD005F57F5387
:104420009FED7B0A18683C3026F070FC74488DEDD7
:10443000040AF0EE419AB0EE409AF0EE608ACDEDBB
:10444000050A8DED061A09F09FFB69EE889A97F828
:1044500010A0FDEEE97A29EE089ACDED037A68EE18
:10446000888ABDF90C80074600284DD043F6C875F0
:1044700060590368DB6898470FFA80F96059036850
:104480009B689847DFED637AB4EEE70AF1EE10FA25
:1044900058BFB0EE670AFCEEC07ACDED037ABDF8E6
:1044A0000C5042F6F823E2585B4B9A422FD043F669
:1044B000C473E05855F06EF820EE080AD6ED007A85
:1044C00027EE8AAA37B343F6C873E358DB6D0B9324
:1044D000B72301931A238DED079ACDED088A8DED50
:1044E000090A8DED0AAAADF83080ADF83290ADF82A
:1044F0003450009307AA3E21504638F095FF0EB085
:10450000BDEC068BBDE8F08781460546C9E79FED07
:10451000430AD3E70023DAE742F6E8133F7CEC587E
:1045200043F214232046EB5809EE903A43F2182345
:10453000F8EEE99AEB5809EE103A23689B68984721
:1045400007EE900AF8EEE77A236867EE887A1B692F
:10455000FDEEE77A2046CDED037ABDF90C90984741
:1045600007EE900AF8EEE77A2D4B67EE887AD3EDE6
:10457000008AFDEEE77A42F64833CDED037AEB5838
:10458000DFED247ABDF90C80F4EEE78A00EE103AF4
:10459000F1EE10FA236858BFF0EE678AB8EEC00A51
:1045A000D6ED007A5B69B8EEC99A204627EE8AAA52
:1045B00069EE889A29EE089A20EE088A9847FCEE60
:1045C000E87ACDED079A17EE903AADF83430B7237C
:1045D00001931A238DED089A8DED098A8DED0AAAB3
:1045E0008DED0B0AADF83090ADF83280009307AA3C
:1045F0003E21384681E700BFE8270020A452002072
:10460000746700200AD7233C245300200000C842CE
:104610009F0CB34500FF7F47A85200200000000018
:104620008C590020014809F0C5BA00BF746700200A
:1046300008B5044A42F6F823D05803681B68984727
:1046400008BD00BFE827002070B52DED028B86B0B5
:104650000D4604465BF0FEFC04F505543034064676
:10466000204612F011FF2046B0EE408A12F016FFED
:1046700000230393CD2301931023009302AA42F653
:104680000C31284602968DED048A8DED050A38F02E
:10469000CBFE06B0BDEC028B70BD0000F0B52DED79
:1046A000028B05468BB01746B0EE408A0C4601B32C
:1046B000007C39F011FD0646287C38F077FE18366C
:1046C000864216DA636908936223E1682269287CCE
:1046D000A56924680193192306910792009303AA00
:1046E000C22103948DED048A05958DF8247038F06D
:1046F0009BFE0BB0BDEC028BF0BD0000F8B542F69E
:10470000F823564CE258564B9A42054600F0A480D6
:1047100013F0A6F803685B6B0746984741F21853FD
:104720000646E35ADA0716D54E4809F09FFB0028E3
:104730006BD004F57F53186803689B68984700F1B5
:10474000380196ED000ADFED487A012220EE270AB3
:104750002846FFF7A3FF41F21853E35A9B0715D5EC
:10476000404809F083FB002851D0404B186803688B
:10477000DB68984700F1380196ED010ADFED3A7ADF
:10478000022220EE270A2846FFF788FF41F218533D
:10479000E35A580715D5334809F068FB002838D08C
:1047A000324B186803681B69984700F1380196ED91
:1047B000020ADFED2D7A032220EE270A2846FFF7B2
:1047C0006DFF41F21853E35A19070AD596ED020A14
:1047D000DFED257A264920EE270A05222846FFF735
:1047E0005DFF41F21853E35ADA0604D543F204237D
:1047F000E35C042B0FD041F21853E35A9B062BD5F0
:10480000184809F033FBA8B9F8BD1A4999E71A49C5
:10481000B2E71A49CBE71A4859F0E0F996ED020AD7
:10482000DFED117A014620EE270A06222846FFF71F
:1048300035FFE0E73B6838469B69984743F6C47309
:1048400090ED020AE1582846B1EE400A0422603198
:10485000BDE8F840FFF722BFF8BD00BFE827002001
:10486000A452002074670020E02E6542A867002053
:10487000B05000205C4F00201050002060500020FD
:1048800034630020F0B50C4685B04969206923F0F7
:10489000CBFBB0B1684614F041FF9FED3D7AD4EDFB
:1048A000067A2369029367EE877A9FED3A7A636905
:1048B0000393F0EEE76AF4EEC76AF1EE10FA6D4684
:1048C00001DB042055E094F82030FDEEE77A062B5A
:1048D000CDED017A4FD19DF8003043F001038DF802
:1048E0000030D4ED037A9FED2C7A9DF800302B49EF
:1048F000F0EEE77AF4EEC77AF1EE10FA4CBF6FF300
:10490000410343F0020328468DF8003015F018F9F2
:104910000028D6D1D4ED017A214CFDEEE77A17EECE
:10492000903A13F0010F05D142F6F823E2581D4BDF
:104930009A42C6D102221B4919481B4E0CF0EAFFCD
:1049400095E80F0086E80F0043F68C67E35DDA0711
:104950000BD543F6586243F69061A25860585268EE
:104960006FF3000302446250E3550D4802F032FE3B
:10497000002005B0F0BD0B2B04D19DF8003043F0B2
:104980000403ACE7052BACD0002B9AD1A9E700BFFC
:104990000000C842FEFFFF4A0000003454660020B9
:1049A000E82700209C520020746600208B8BC02BCF
:1049B00001D1FFF767BF3EF00BB80000F8B500F576
:1049C000EC54083494F859306FF3000384F85930EC
:1049D00006465BF041FB1E4A1368C31AB3F57A7FA3
:1049E00005460BD906F523573837106000213846A5
:1049F0003EF0AEFB032138463EF0AAFB154A136891
:104A0000EB1A142B0ED906F52357383738461560A4
:104A10003DF0E6FE38463EF077FF06F59F50083041
:104A20002BF064FF0C4A136841F28831EB1A8B4279
:104A300007D906F5235015600621084A383037F0AB
:104A4000AFFD94F8593043F0010384F85930F8BDB4
:104A5000D8270020DC270020D42700208C750C08E4
:104A600010B52DED028B00F5055088B030300C46A6
:104A700011F0A0FBF0EE607A8DED020ACDED030A95
:104A8000F1EE400AB1EE670A8DED041AACF050F871
:104A900002A8B0EE408A26F01BF8049BDFED0A7AEC
:104AA0000793012368EE277A01930C23009305AA4C
:104AB000A8212046CDED057A8DED060A38F0B4FC2C
:104AC00008B0BDEC028B10BDE02E6542272938B539
:104AD00004462ED007D81E291AD0242938D01929E7
:104AE00059D1012038BD3A2941D03B294ED038292F
:104AF00051D1007C39F0F0FA0546207C38F056FCA4
:104B0000253585420EDA217C25484AF0E5FCE8E7A8
:104B1000007C39F0E1FA0546207C38F047FC073587
:104B2000854201DB002038BD217C1E4804F0D8FFFF
:104B3000D7E7007C39F0D0FA0546207C38F036FC07
:104B400011358542EEDA217C174831F067FBC8E762
:104B5000007C39F0C1FA0546207C38F027FC0B3583
:104B60008542DFDA217C0F48FFF77AFFB9E7007C46
:104B700039F0B2FA0546207C38F018FC0F35854232
:104B8000D0DA217C0748FFF75FFDAAE7017C0748E0
:104B900058F0D8FFA5E72046BDE838403CF0CEBF2E
:104BA000BC640020E8270020C85A0020346300209D
:104BB00000207047C82070470120704700207047D0
:104BC0000020704770B54FF4F8700D46164615F08A
:104BD00029F83246044629463DF0ACFF014B2360DC
:104BE000204670BDA8750C0808B590F87830994239
:104BF00007DD32F005F94FF4802132F0F1F80020A2
:104C000008BD00EB8100C06F08BD000008B590F83A
:104C10007830994207DD32F0F3F84FF4802132F01A
:104C2000DFF8002008BD00EB8100C06F08BD000068
:104C30002DE9F0419A4B1D6804466DB195F8383165
:104C4000012B09DC142202FB035393F915301BB12D
:104C5000836843F0100383601AF0CAFE90F8F831BD
:104C600090F8CE220646DB0122B1C21892F86920E4
:104C7000012A03DC334493F869303BB1A36843F065
:104C80002003A360E36843F02003E3602DF066FB9C
:104C9000804620B190F90530002B40F0DA80814841
:104CA00004F01EFE18B1A36843F48013A3607D488E
:104CB0000BF07EFB18B1A36843F40003A3608DB131
:104CC00095F8381101290DDC142303FB015393F9E6
:104CD00015303BB1284613F005FB18B1E36843F0EB
:104CE0001003E3606F4804F05FFE18B1E36843F41B
:104CF0008013E360A3686B4F43F4F843A36042F66C
:104D0000F823F85803681B6898470138162818D804
:104D1000DFE800F07F870CA887878787177F7F7F72
:104D20007F7F7F17878787877F87A80042F6EC03FE
:104D3000FB5C002B75D042F6ED02BA5C002A00F055
:104D4000928096F8F81196F8CE22CB0122B1F21893
:104D500092F86920012A0ADC334493F86930022B67
:104D600005DD30461AF012FE002840F08E80B8F1C2
:104D7000000F07D0D8F8003023B198F80430DB07D3
:104D800000F1AB802DB1284613F070FB002840F0F5
:104D90008180444804F0C6FE18B9236943F48013A7
:104DA0002361A36843F48033A360E36843F4803352
:104DB000E3605BF051F942F62433FB58C01AC72870
:104DC0009EBF236943F48033236143F64833FB5C81
:104DD000012B28D0022B2FD0334B1D682DB1192168
:104DE00028462FF019FD002860D12E480BF0E0FA7C
:104DF000002877D046203FF077FE002872DAE3687B
:104E000043F40003E360236943F400032361BDE836
:104E1000F0812369E26843F4E04342F4E042E26057
:104E2000236101231FE0A36843F48003A360E368C8
:104E300043F48003E360CFE7A36843F48003A360F7
:104E4000E36843F48003E360236943F48003236150
:104E5000C2E7A36843F04003A360E36843F0400364
:104E6000E3601CE70023E16841F48062E2602269AC
:104E700042F480602061002B3FF463AF41F4406155
:104E800042F44062E16022615BE7236943F0200362
:104E900023616CE7236943F01003236179E700BFC6
:104EA00094690020E8270020B06A0020A36843F43A
:104EB0008073A36041F21553FB561BB1E36843F4C2
:104EC0008073E360192128462FF0CEFC00288CD097
:104ED000236943F48073236187E7236943F0400328
:104EE00023614FE7BDE8F081F0B543F2142393B09E
:104EF000C35807EE903A43F21823F8EEE77AC35806
:104F0000CDED007A07EE903A00F57E56F8EEE77A9E
:104F10000C360446002530460295CDED017A08F0A6
:104F2000A5FF50B944F25803E35C002B00F0A780C2
:104F300096F8F5309A0740F1A28004F57F539FED73
:104F4000510A18683C3025F0E1FE8DED030AB0EE01
:104F5000410ACDED040A8DED051A22F0EBFD8DED31
:104F6000020A30460CF084FF04F5EC55083540B9D0
:104F7000304608F07BFF20B96946284634F0DEFB56
:104F800021E004F57F530DF1380E1B6854330FCB2D
:104F90000AAF8EE80F000DF1180E8EE80F0087E8BB
:104FA0000F0002AB01AA6946704624F0C1FD9FEDD7
:104FB000350A684625F03EFE44F208136A46E15879
:104FC000284634F023FC304608F050FF38B944F24C
:104FD0005803E35C5BB396F8F5309B0727D504F5DF
:104FE0007F56306803689B689847072100F13802B4
:104FF000284634F04DFE30680368DB689847082186
:1050000000F13802284634F043FE306803681B691B
:105010009847092100F13802284634F039FE43F65A
:10502000C4730A21E2582846603234F031FE04F598
:105030001D5228463432C82134F02AFE04F520528D
:1050400028462832C92134F023FE04F5215228468F
:105050003832CA2134F01CFE04F523520832CC2128
:10506000284634F015FE11F03DFE11F02FFE2846C3
:1050700034F0B2F9284634F043FA13B0F0BD02958B
:105080006FE700BF9F0CB34510B5012104460CF03B
:1050900011FD20B12046BDE81040FFF725BF10BD2F
:1050A0007FB50E2504462A460E4668460021AEF01E
:1050B000D9F9A3238DF8003095238DF80130022310
:1050C0008DF802305AF0D0FF43F22623CDF80300CA
:1050D00004F5EC50CDF80710E35A8DF80B602A4622
:1050E00069460830ADF80C3031F0A0FF04B070BD57
:1050F00070B531268EB004463246002101A8AEF0CC
:10510000B1F9A3238DF8043095238DF805300123E0
:105110008DF806305AF0A8FF04F5465342F6E8151C
:105120002433CDF807001B686059CDF80B10CDF87B
:105130000F3003681B699847ADF813006059036886
:105140009B68984742F64833ADF81500E35A60591A
:10515000ADF8173003685B69984710EE103A605954
:10516000CDF8193003689B69984710EE103ACDF8D6
:105170001D3004F52C533C3304F5EC501B68CDF87E
:10518000213043F684633246E358CDF8253043F6A8
:10519000886301A9E358CDF8293004F57A53083023
:1051A0001B68CDF82D3042F63833E358CDF8313056
:1051B00031F026FF0EB070BD30B5162587B004461D
:1051C0002A4600216846AEF04DF9A3238DF8003041
:1051D00095238DF8013005238DF802305AF044FFF5
:1051E000CDF803002046CDF8071004F0A1FE04F529
:1051F000485308338DF80B001B680393144B1B684E
:10520000986C90F84C308DF8103003689B69984783
:1052100043F2ED138DF81100E35C8DF8123021F0AC
:1052200023FB21F00BFA43F204238DF81300E35C17
:105230008DF8143043F2EE1304F5EC50E35C8DF876
:1052400015302A466946083031F0DAFE07B030BD25
:10525000E027002070B500F58755103586B006466A
:10526000192128462FF0CEFA042847D119212846C3
:105270002FF0DAFA0446182200216846AEF0F2F860
:10528000A3238DF8003095238DF8013004238DF889
:1052900002305AF0E9FE07EE904A9FED197ACDF8F8
:1052A0000300F8EE677ACDF8071067EE877A1921C8
:1052B00017EE903A2846CDF80B302FF0BDFA07EEE6
:1052C000900A9FED107AF8EEE77A06F5EC5067EE5B
:1052D000877A182217EE903ACDF80F3041F64C63DA
:1052E0006946F35C8DF8133006F5F1531C33083032
:1052F0001B68059331F084FE06B070BD0024BAE748
:105300000AD7233C6F12833A30B5152487B0224662
:10531000054600216846AEF0A5F8A3238DF80030BD
:1053200095238DF801300B238DF802305AF09CFE46
:10533000CDF803000420CDF807103FF0D5FBADF801
:105340000B0013203FF0D0FBADF80D0046203FF0DE
:10535000CBFBADF80F0020463FF0C6FBADF81100C7
:1053600003203FF0C1FBADF8130005F5EC502246D9
:105370006946083031F044FE07B030BD38B500F55D
:10538000EC5408340546204633F082FB204633F0C7
:10539000E1FB05F59B5393F9003013B1204633F040
:1053A0005FFC2846BDE83840FFF7AEBF10B50321CB
:1053B0000446FFF775FE42F6F823E05803681B68C1
:1053C000984742F6FC23014604F5EC50E25C0830B5
:1053D00032F004F804F50550303012F069F804F1A9
:1053E0003800BDE8104019F0D9BC000000F5EC50C1
:1053F000AA220249083031F067BE00BFF4760C08DB
:1054000030B58BB00AA90446002300F5055041F8D9
:10541000243D1D25303010F06BF82A46002102A8EB
:10542000AEF020F8A3238DF8083095238DF80930CD
:105430005AF01AFE43F21423CDF80B00E35AADF8EC
:10544000133004F5065346201B88ADF8153043F29F
:105450001823CDF80F10E35AADF8173042F2841339
:10546000E35AADF819303FF03FFBADF81B001520B3
:105470003FF03AFB42F6EC13ADF81D00E05803682C
:105480009B689847ADF81F0004F5EC50019BCDF8E0
:1054900021302A4602A9083031F0B2FD0BB030BDF0
:1054A00090F900309FED097A01705B1A07EE903A8F
:1054B000F8EEE77AF0EEE77AF4EEC77AF1EE10FA5A
:1054C0004CBF012100212DF0DDBD00BF00000034E4
:1054D00090F900208A4203D0017001212DF0D2BD45
:1054E00070470000F8B5044642F022FB04F12000AA
:1054F00058F0C0F91049114F04F1600042F0C8FBA8
:1055000004F194003EF084FF0D4BC4F8943004F194
:10551000A806002570193EF02DFB77512835B5F50A
:10552000207FF7D104F54A703FF0C4FE20460549BC
:105530002EF0A2FC2046F8BD40460020A8BF0C0873
:10554000BCBF0C0854A40C082DE9F041744C754FF5
:1055500094E80F008AB0103402AD85E80F0094E89B
:105560000F0006AE86E80F00304601A93C682EF019
:10557000DBF83E46002800F093809DF90430002BB4
:1055800000F08E8094F91930132B40F0898094F943
:105590003D30152B40F0848004F1190738462DF07A
:1055A0002FFE00287CD104F13D0840462DF028FE56
:1055B000002875D15C4B9DF904201B685B49586B32
:1055C00003681B6898479DF90430013B072B0FD8EF
:1055D000DFE803F0042C3335042C3335002104F1CB
:1055E0001800FFF775FF002104F13C00FFF770FF82
:1055F0009DF90430042B24DC50213846FFF750FF7E
:105600004F214046FFF74CFF00243068204490F9BA
:105610000730122B40D104210730FFF741FF12342D
:10562000B4F5907FF1D10AB0BDE8F081002104F11A
:105630001800FFF74DFF0121D6E70121CFE7012137
:10564000F5E74F213846FFF72BFF5021D9E700211E
:1056500004F11800FFF73CFF0021A01DFFF738FF01
:105660009DF90030042B11DC4E212846FFF718FF6E
:105670004D213846C6E7002104F11800FFF728FF46
:105680000121EAE70121E3E70121F5E74D21284661
:10569000FFF706FF4E21ECE7142BC0D11321BBE727
:1056A000694628462EF040F80028ADD09DF900301C
:1056B000002BA9D094F90730042BA5D194F9193007
:1056C000132BA1D1E51D28462DF09AFD00289BD172
:1056D00004F1190738462DF093FD002894D1124BA0
:1056E0009DF900201B681249586B03681B68984796
:1056F0009DF90030013B072BB2D801A252F823F0EC
:105700004F56010877560108855601088956010849
:105710004F56010877560108855601088956010839
:10572000C8670C0804730020E0270020A8A50C0817
:10573000C4A50C08F0B585B004462DF0B1F948B900
:10574000484B49491B68586B03681B689847474892
:105750005AF06CFC41F25845661930462EF002FBB7
:10576000002856D0635F0D2B53D15AF073FC0646C8
:105770002EF07EFA002223213D482EF097F80421D6
:1057800000203FF073FD132101203FF06FFD462103
:1057900002203FF06BFD152103203FF067FD354BE4
:1057A0006A4603F1080E6F4618685968154603C526
:1057B000083373452A46F7D118689B88AB8004F5F7
:1057C000EB522860103243F6F07138463FF0BCFAD5
:1057D0002046FFF7B9FE44F21C03E35623B19FEDC8
:1057E000260A26482EF042FD254B00221A80254A23
:1057F000138843F0040313801A4B1B685C6B236807
:105800001D685AF027FC2049821B2046A84705B096
:10581000F0BD144B1D491D68686B03681B689847F1
:105820003FF026FE2CF0D0FD41F258429FED187A51
:10583000A35E0D3B07EE903AF8EEE77A0D23F0EE0B
:10584000E77AF4EEC77AF1EE10FAA3524CBF0121C9
:10585000002130462DF016FC686B0E4903681B686A
:10586000984782E7E0270020E0A50C08F5A50C0882
:1058700024A20C08E8670C080000964309A60C084F
:10588000966A0020986A002019A60C082DA60C081C
:105890000000003451A60C08002343608360C360FD
:1058A00003614361002303767047000010B504468E
:1058B000FFF7F2FF0023637610BD0000027E531C49
:1058C000DBB2042B037600EB820288BF002382ED5B
:1058D000010A88BF0376704710B50446FFF7EEFF54
:1058E000637EDFED0C7A042B94BF013305236376CE
:1058F00004F11802231D934204D0B3EC017A77EE31
:10590000877AF8E7637E00EE103AB8EEC00A87EEB9
:10591000800A10BD0000000003F0EABD02F006BEE0
:1059200003F052BB02F014BE00F0EEBF00F0A6BEC2
:1059300000F0A2BF01F0E2B8FCF7F2BCFCF71EBB1E
:1059400070B5164B036043F668530446C5582DB135
:1059500028461EF0ABFF284614F06AF942F6F80319
:105960000F4AE25042F6A013E05808B114F05CF977
:105970000C4B236004F59B5040F0B2FB0A4BC4F87B
:10598000D03904F6745604F55B65AE4204D0143D7C
:10599000284636F0CBF8F8E7204670BD80700C083A
:1059A000C88D0D08B0BD0C08BC2A0D0838B50546D9
:1059B000244B45F8083B0446203047F027FC224B97
:1059C00022491D6028462EF057FA04F1380018F0DD
:1059D000A1FB04F5427012F09FFD04F5876014F0FE
:1059E00029F904F51D601FF06DFD04F58650103097
:1059F00042F09EF804F5875010302EF01DFE04F59D
:105A00009B5040F059FB04F59C500C302FF0F6FDF4
:105A100004F59E50103043F063FE41F2D83300216C
:105A2000E218E15404F59F50094B08301A602AF03F
:105A30006BFE084B1A6812B107485AF0F7FA1C605F
:105A4000204638BDB0BD0C08A0690020CCEE0C0883
:105A500030750020E86A0020F8BD0C082DE9F04FF1
:105A60002DED028B04469FB0FFF7A0FFD74B2360BC
:105A70004FF0000904F5A950FFF734FD1CABCDF839
:105A80007090CDF8749004F5E75093E8060010305C
:105A90002FF022FB04F5EB5010304EF0B7FD04F56B
:105AA000A65104F5EC501431083031F0E3F941F619
:105AB000306204F5A553163304F5F25004F5F5579A
:105AC00004F5055504F5875A3035A35008370AF117
:105AD000100A183004F5FF5840F0A2F808F1180831
