:020000040801F1
:1000000000040020DD12010811330708153307082A
:100010007D3307081533070849330708DF12010845
:10002000DF120108DF120108DF12010835440C0855
:10003000DF120108DF120108DF120108DF120108D8
:10004000DF120108DF120108DF120108DF120108C8
:10005000DF120108DF1201086D4F0C089D4F0C08DC
:10006000CD4F0C08FD4F0C082D500C0885CE0B0809
:10007000B1CE0B08E1CE0B0811CF0B0841CF0B0816
:100080006DCF0B089DCF0B0801CD0B08DF120108C7
:10009000DF120108DF120108DF1201085D500C08B1
:1000A000DF120108DF120108DF120108DF12010868
:1000B000D5D80B08DF120108DF120108DF12010892
:1000C000DF120108DF120108DF120108DF12010848
:1000D000DF120108F1DE0B0809DF0B0821DF0B0836
:1000E000C9500C08DF120108DF120108DF120108F5
:1000F000DF120108DF120108DF120108CDCF0B0863
:10010000DF120108DF120108D9560C08DF120108BE
:10011000DF120108DF120108DF120108DF120108F7
:10012000FDCF0B0829D00B0859D00B0889D00B083C
:10013000B9D00B08DF120108DF120108DF12010835
:10014000DF120108DF120108DF1201083D4B0C0825
:10015000E5D00B0815D10B0845D10B0839DF0B088A
:10016000DF120108DF120108DF120108DF120108A7
:10017000DF120108DF120108DF120108DF12010897
:10018000DF120108DF120108DF120108DF12010887
:10019000DF120108DF120108DF120108DF12010877
:1001A000DF120108DF120108DF120108DF12010867
:1001B000DF120108DF120108DF120108DF12010857
:1001C000DF120108DF120108DF120108DF12010847
:1001D000DF120108DF120108DF120108DF12010837
:1001E00095620108159C0108B99E02086DC70308B5
:1001F000C9420408BD450408BDD60408F5DD04085D
:100200002DE104089953050869F905085D310708CF
:1002100011380708AD8C0A08A1BC0A0861C50A0894
:1002200001E60A08090B0B080000000000000000AE
:10023000D0400B1CD1409C46203AD3401843524238
:100240006346934018437047D0400B1C1141203A3D
:1002500003D49C46134118436346524293401843CB
:10026000704700BF9140031C90409C46203A934049
:10027000194352426346D3401943704781F000410D
:1002800002E000BF83F0004330B54FEA41044FEA7B
:10029000430594EA050F08BF90EA020F1FBF54EA16
:1002A000000C55EA020C7FEA645C7FEA655C00F0B2
:1002B000E2804FEA5454D4EB5555B8BF6D420CDD83
:1002C0002C4480EA020281EA030382EA000083EA06
:1002D000010180EA020281EA0303362D88BF30BDA6
:1002E00011F0004F4FEA01314FF4801C4CEA1131FC
:1002F00002D0404261EB410113F0004F4FEA03335B
:100300004CEA133302D0524263EB430394EA050FE5
:1003100000F0A780A4F10104D5F1200E0DDB02FA54
:100320000EFC22FA05F2801841F1000103FA0EF2E8
:10033000801843FA05F359410EE0A5F120050EF1AE
:10034000200E012A03FA0EFC28BF4CF0020C43FADF
:1003500005F3C01851EBE37101F0004507D54FF0EC
:10036000000EDCF1000C7EEB00006EEB0101B1F53C
:10037000801F1BD3B1F5001F0CD349085FEA300082
:100380004FEA3C0C04F101044FEA445212F5800F8D
:1003900080F09A80BCF1004F08BF5FEA500C50F12A
:1003A000000041EB045141EA050130BD5FEA4C0C0D
:1003B000404141EB010111F4801FA4F10104E9D196
:1003C00091F0000F04BF01460020B1FA81F308BF8D
:1003D0002033A3F10B03B3F120020CDA0C3208DD59
:1003E00002F1140CC2F10C0201FA0CF021FA02F134
:1003F0000CE002F11402D8BFC2F1200C01FA02F1A4
:1004000020FA0CFCDCBF41EA0C019040E41AA2BFC8
:1004100001EB0451294330BD6FEA04041F3C1CDA90
:100420000C340EDC04F11404C4F1200220FA04F0B0
:1004300001FA02F340EA030021FA04F345EA03015A
:1004400030BDC4F10C04C4F1200220FA02F001FA1C
:1004500004F340EA0300294630BD21FA04F029469E
:1004600030BD94F0000F83F4801306BF81F4801137
:100470000134013D4EE77FEA645C18BF7FEA655CAA
:1004800029D094EA050F08BF90EA020F05D054EA7C
:10049000000C04BF1946104630BD91EA030F1EBF81
:1004A0000021002030BD5FEA545C05D14000494185
:1004B00028BF41F0004130BD14F580043CBF01F578
:1004C000801130BD01F0004545F0FE4141F470015E
:1004D0004FF0000030BD7FEA645C1ABF1946104639
:1004E0007FEA655C1CBF0B46024650EA013406BF3A
:1004F00052EA033591EA030F41F4002130BD00BFF9
:1005000090F0000F04BF0021704730B54FF48064B5
:1005100004F132044FF000054FF0000150E700BF36
:1005200090F0000F04BF0021704730B54FF4806495
:1005300004F1320410F0004548BF40424FF0000182
:100540003EE700BF42004FEAE2014FEA31014FEAC5
:1005500002701FBF12F07F4393F07F4F81F0605114
:10056000704792F0000F14BF93F07F4F704730B583
:100570004FF4607401F0004521F0004120E700BF16
:1005800050EA010208BF704730B54FF000050AE09D
:1005900050EA010208BF704730B511F0004502D59E
:1005A000404261EB41014FF4806404F132045FEAA0
:1005B000915C3FF4DCAE4FF003025FEADC0C18BF45
:1005C00003325FEADC0C18BF033202EBDC02C2F13B
:1005D000200300FA03FC20FA02F001FA03FE40EACD
:1005E0000E0021FA02F11444C1E600BF70B54FF0CD
:1005F000FF0C4CF4E06C1CEA11541DBF1CEA1355AF
:1006000094EA0C0F95EA0C0F00F0DEF82C4481EA16
:10061000030621EA4C5123EA4C5350EA013518BF36
:1006200052EA033541F4801143F4801338D0A0FB23
:1006300002CE4FF00005E1FB02E506F00042E0FBD0
:1006400003E54FF00006E1FB03569CF0000F18BFD6
:100650004EF0010EA4F1FF04B6F5007F64F540747E
:1006600004D25FEA4E0E6D4146EB060642EAC62111
:1006700041EA55514FEAC52040EA5E504FEACE2E7E
:10068000B4F1FD0C88BFBCF5E06F1ED8BEF1004F81
:1006900008BF5FEA500E50F1000041EB045170BDFD
:1006A00006F0004646EA010140EA020081EA030141
:1006B000B4EB5C04C2BFD4EB0C0541EA045170BD3D
:1006C00041F480114FF0000E013C00F3AB8014F1B7
:1006D000360FDEBF002001F0004170BDC4F1000400
:1006E000203C35DA0C341BDC04F11404C4F1200581
:1006F00000FA05F320FA04F001FA05F240EA0200DC
:1007000001F0004221F0004110EBD37021FA04F611
:1007100042EB06015EEA430E08BF20EAD37070BDCB
:10072000C4F10C04C4F1200500FA04F320FA05F02A
:1007300001FA04F240EA020001F0004110EBD3702C
:1007400041F100015EEA430E08BF20EAD37070BD9C
:10075000C4F1200500FA05F24EEA020E20FA04F375
:1007600001FA05F243EA020321FA04F001F0004124
:1007700021FA04F220EA020000EBD3705EEA430E95
:1007800008BF20EAD37070BD94F0000F0FD101F0C4
:100790000046400041EB010111F4801F08BF013CFD
:1007A000F7D041EA060195F0000F18BF704703F03B
:1007B0000046520043EB030313F4801F08BF013DC2
:1007C000F7D043EA0603704794EA0C0F0CEA13557E
:1007D00018BF95EA0C0F0CD050EA410618BF52EA38
:1007E0004306D1D181EA030101F000414FF000003E
:1007F00070BD50EA410606BF1046194652EA43064C
:1008000019D094EA0C0F02D150EA013613D195EABF
:100810000C0F05D152EA03361CBF104619460AD107
:1008200081EA030101F0004141F0FE4141F4700111
:100830004FF0000070BD41F0FE4141F4780170BD01
:1008400070B54FF0FF0C4CF4E06C1CEA11541DBF66
:100850001CEA135594EA0C0F95EA0C0F00F0A7F868
:10086000A4EB050481EA030E52EA03354FEA013195
:1008700000F088804FEA03334FF0805545EA1313A8
:1008800043EA12634FEA022245EA111545EA106570
:100890004FEA00260EF000419D4208BF964244F107
:1008A000FD0404F5407402D25B084FEA3202B61A26
:1008B00065EB03055B084FEA32024FF480104FF4FA
:1008C000002CB6EB020E75EB030E22BFB61A75466E
:1008D00040EA0C005B084FEA3202B6EB020E75EB01
:1008E000030E22BFB61A754640EA5C005B084FEA69
:1008F0003202B6EB020E75EB030E22BFB61A754636
:1009000040EA9C005B084FEA3202B6EB020E75EB40
:10091000030E22BFB61A754640EADC0055EA060E01
:1009200018D04FEA051545EA16754FEA06164FEA44
:10093000C30343EA52734FEAC2025FEA1C1CC0D1F0
:1009400011F4801F0BD141EA00014FF000004FF07D
:10095000004CB6E711F4801F04BF01430020B4F13E
:10096000FD0C88BFBCF5E06F3FF6AFAEB5EB030CF6
:1009700004BFB6EB020C5FEA500C50F1000041EBF3
:10098000045170BD0EF0004E4EEA113114EB5C04C0
:10099000C2BFD4EB0C0541EA045170BD41F4801193
:1009A0004FF0000E013C90E645EA060E8DE60CEA9B
:1009B000135594EA0C0F08BF95EA0C0F3FF43BAFB8
:1009C00094EA0C0F0AD150EA01347FF434AF95EA6F
:1009D0000C0F7FF425AF104619462CE795EA0C0F53
:1009E00006D152EA03353FF4FDAE1046194622E720
:1009F00050EA410618BF52EA43067FF4C5AE50EAFA
:100A000041047FF40DAF52EA43057FF4EBAE12E7E9
:100A10004FF0FF3C06E000BF4FF0010C02E000BFCA
:100A20004FF0010C4DF804CD4FEA410C7FEA6C5CAD
:100A30004FEA430C18BF7FEA6C5C1BD001B050EA50
:100A4000410C0CBF52EA430C91EA030F02BF90EA3B
:100A5000020F0020704710F1000F91EA030F58BFFA
:100A6000994208BF90422CBFD8176FEAE37040F05C
:100A7000010070474FEA410C7FEA6C5C02D150EAFA
:100A8000013C07D14FEA430C7FEA6C5CD6D152EAB5
:100A9000033CD3D05DF8040B704700BF844610467A
:100AA00062468C461946634600E000BF01B5FFF779
:100AB000B7FF002848BF10F1000F01BD4DF808ED49
:100AC000FFF7F4FF0CBF012000205DF808FB00BF1A
:100AD0004DF808EDFFF7EAFF34BF012000205DF874
:100AE00008FB00BF4DF808EDFFF7E0FF94BF0120C1
:100AF00000205DF808FB00BF4DF808EDFFF7CEFFC2
:100B000094BF012000205DF808FB00BF4DF808ED00
:100B1000FFF7C4FF34BF012000205DF808FB00BFD1
:100B20004FEA410C7FEA6C5C02D150EA013C0AD1E9
:100B30004FEA430C7FEA6C5C02D152EA033C02D1DB
:100B40004FF0000070474FF0010070474FEA41023C
:100B500012F5001215D211D56FF47873B3EB62520F
:100B600012D94FEAC12343F0004343EA505311F036
:100B7000004F23FA02F018BF404270474FF00000C8
:100B8000704750EA013005D111F0004008BF6FF006
:100B9000004070474FF00000704700BF4A0011D27C
:100BA00012F5001211D20DD56FF47873B3EB6252C7
:100BB0000ED44FEAC12343F0004343EA505323FAD3
:100BC00002F070474FF00000704750EA013002D148
:100BD0004FF0FF3070474FF0000070474FEA41027E
:100BE000B2F1E04324BFB3F5001CDCF1FE5C0DD98B
:100BF00001F0004C4FEAC0024CEA5070B2F1004FD5
:100C000040EB830008BF20F00100704711F0804FD7
:100C100021D113F13872BCBF01F00040704741F49C
:100C200080114FEA5252C2F11802C2F1200C10FAA0
:100C30000CF320FA02F018BF40F001004FEAC12384
:100C40004FEAD32303FA0CFC40EA0C0023FA02F328
:100C50004FEA4303CCE77FEA625307D150EA0133FE
:100C60001EBF4FF0FE4040F44000704701F00040CE
:100C700040F0FE4040F40000704700BF80F00040AC
:100C800002E000BF81F0004142001FBF5FEA410364
:100C900092EA030F7FEA226C7FEA236C6AD04FEA64
:100CA0001262D2EB1363C1BFD218414048404140A9
:100CB000B8BF5B42192B88BF704710F0004F40F45B
:100CC000000020F07F4018BF404211F0004F41F477
:100CD000000121F07F4118BF494292EA030F3FD043
:100CE000A2F1010241FA03FC10EB0C00C3F1200356
:100CF00001FA03F100F0004302D5494260EB4000E5
:100D0000B0F5000F13D3B0F1807F06D340084FEA4F
:100D1000310102F10102FE2A51D2B1F1004F40EB44
:100D2000C25008BF20F0010040EA030070474900AC
:100D300040EB000010F4000FA2F10102EDD1B0FA77
:100D400080FCACF1080CB2EB0C0200FA0CF0AABF6C
:100D500000EBC25052421843BCBFD040184370470A
:100D600092F0000F81F4000106BF80F40000013210
:100D7000013BB5E74FEA41037FEA226C18BF7FEAE7
:100D8000236C21D092EA030F04D092F0000F08BF29
:100D90000846704790EA010F1CBF0020704712F010
:100DA0007F4F04D1400028BF40F00040704712F14F
:100DB00000723CBF00F50000704700F0004343F0B4
:100DC000FE4040F4000070477FEA226216BF0846EA
:100DD0007FEA23630146420206BF5FEA412390EAAD
:100DE000010F40F4800070474FF0000304E000BFA3
:100DF00010F0004348BF40425FEA000C08BF704754
:100E000043F0964301464FF000001CE050EA010217
:100E100008BF70474FF000030AE000BF50EA01022C
:100E200008BF704711F0004302D5404261EB410119
:100E30005FEA010C02BF84460146002043F0B6433E
:100E400008BFA3F18053A3F50003BCFA8CF2083A63
:100E5000A3EBC25310DB01FA02FC634400FA02FC6C
:100E6000C2F12002BCF1004F20FA02F243EB020073
:100E700008BF20F00100704702F1200201FA02FCD5
:100E8000C2F1200250EA4C0021FA02F243EB0200C8
:100E900008BF20EADC7070477BB972B90029BEBF79
:100EA00000204FF0004106E008BF00281CBF6FF093
:100EB00000414FF0FF3000F00FBAADF1080C6DE9C2
:100EC00004CE002909DB002B1ADB00F097F8DDF8CF
:100ED00004E0DDE9022304B07047404261EB4101C8
:100EE000002B1BDB00F08AF8DDF804E0DDE90223CB
:100EF00004B0404261EB4101524263EB430370474F
:100F0000524263EB430300F079F8DDF804E0DDE9D9
:100F1000022304B0404261EB41017047524263EB4F
:100F2000430300F06BF8DDF804E0DDE9022304B0D0
:100F3000524263EB4303704753B94AB9002908BFD3
:100F400000281CBF4FF0FF314FF0FF3000F0C4B954
:100F5000ADF1080C6DE904CE00F050F8DDF804E0C6
:100F6000DDE9022304B07047430803F05533C01A8B
:100F7000830803F0333300F03330184400EB1010D3
:100F800000F00F3000EB002000EB0040000E704737
:100F900080EA104080EA102080EA101046F696138E
:100FA00000F00F0043FA00F000F00100704700BFAE
:100FB000D0B5FFF7C7FA00220E4B06460F46FFF7E3
:100FC00015FBFFF7EBFD0446FFF79AFA00220A4BE8
:100FD000FFF70CFB02460B4630463946FFF752F945
:100FE000FFF7DCFD2346002242EA000210461946C4
:100FF000D0BD00BF0000F03D0000F0412DE9F047FA
:101000008C460D460446089E002B51D18A42174655
:101010006DD9B2FA82FEBEF1000F0BD0CEF1200CDA
:1010200001FA0EF520FA0CFC02FA0EF74CEA050C58
:1010300000FA0EF44FEA174A250CBCFBFAF81FFA27
:1010400087F90AFB18CC45EA0C4508FB09F3AB42CB
:101050000AD9ED1908F1FF3280F02381AB4240F24A
:101060002081A8F102083D44ED1AA4B2B5FBFAF0C4
:101070000AFB105544EA054400FB09F9A14509D9CA
:10108000E41900F1FF3380F00A81A14540F20781A5
:1010900002383C44A4EB090440EA08400021002E39
:1010A00061D024FA0EF4002334607360BDE8F08749
:1010B0008B4207D9002E54D0002186E82100084633
:1010C000BDE8F087B3FA83F1002940F08E80AB428F
:1010D00002D3824200F2FA80841A65EB03050120F4
:1010E000AC46002E3FD086E81010BDE8F08712B95C
:1010F0000127B7FBF2F7B7FA87FEBEF1000F34D134
:10110000EB1B3A0C1FFA87FC0121B3FBF2F8250C0C
:1011100002FB183345EA03450CFB08F3AB4207D941
:10112000ED1908F1FF3002D2AB4200F2D1808046C7
:10113000ED1AA3B2B5FBF2F002FB105543EA0544E9
:101140000CFB00FCA44507D9E41900F1FF3302D2DF
:10115000A44500F2B8801846A4EB0C0440EA08400D
:101160009DE731463046BDE8F087CEF1200405FA10
:101170000EF307FA0EF720FA04F83A0C25FA04F4F5
:1011800048EA0308B4FBF2F14FEA184502FB1144A8
:101190001FFA87FC45EA044501FB0CF3AB4200FA59
:1011A0000EF409D9ED1901F1FF3080F08A80AB42CD
:1011B00040F2878002393D44EB1A1FFA88F5B3FBF1
:1011C000F2F002FB103345EA034500FB0CF3AB429F
:1011D00007D9ED1900F1FF386FD2AB426DD9023853
:1011E0003D44EB1A40EA01418FE7C1F1200722FAA2
:1011F00007F88B4005FA01F448EA030320FA07FEDA
:101200004FEA134CFD404EEA040EB5FBFCF94FEAE1
:101210001E440CFB19551FFA83F844EA054509FBE7
:1012200008F4AC4202FA01F200FA01FA08D9ED180A
:1012300009F1FF3043D2AC4241D9A9F102091D4462
:101240002D1B1FFA8EFEB5FBFCF00CFB10554EEA71
:10125000054400FB08F8A04507D9E41800F1FF3564
:1012600029D2A04527D902381C4440EA0940A4EB02
:101270000804A0FB02894C45C6464D4615D312D042
:1012800056B1BAEB0E0364EB050404FA07F7CB4042
:101290001F43CC40376074600021BDE8F0871846DA
:1012A000F8E69046E0E6C245EAD2B8EB020E69EBFA
:1012B00003050138E4E72846D7E7404691E7814631
:1012C000BEE7014678E702383C4445E7084608E7B0
:1012D000A8F102083D442BE7704700BF02E000F090
:1012E00000F8FEE772B6394880F30888384880F382
:1012F000098838484EF60851CEF20001086040F2E5
:101300000000CCF200004EF63471CEF2000108600D
:10131000BFF34F8FBFF36F8F40F20000C0F2F000B9
:101320004EF68851CEF200010860BFF34F8FBFF335
:101330006F8F4FF00000E1EE100A4EF63C71CEF2D6
:1013400000010860062080F31488BFF36F8FB3F0AC
:10135000AFF8AFF02BFA4FF055301F491B4A9142BE
:101360003CBF41F8040BFAE71C49194A91423CBFC3
:1013700041F8040BFAE71A491A4A1B4B9A423EBF3E
:1013800051F8040B42F8040BF8E700201749184AFB
:1013900091423CBF41F8040BFAE7B3F08DF8AFF08F
:1013A00061FA144C144DAC4203DA54F8041B88471C
:1013B000F9E700F0C5FE114C114DAC4203DA54F8C8
:1013C000041B8847F9E7B3F075B80000000400205B
:1013D000002400200000010800000020000400207C
:1013E00010D00E0800240020C8270020C8270020A5
:1013F000A0280120E00101082802010828020108B4
:10140000280201082DE9F04F2DED108AC1F80CD00B
:10141000C3689D46BDEC108ABDE8F08FAEF0A0FE1B
:10142000002383F311882846A0470020AFF040F83E
:10143000AEF090FEAEF0BAFDAEF092FE00DFFEE739
:1014400010F8012B11F8013B012A28BF9A42F7D06E
:10145000D01A7047034613F8012B002AFBD1181A43
:10146000013870470120704710B503681B680446B7
:10147000984708B194F84D0010BD000038B50E4BE8
:101480001D68AC6C51F092FE40B1AC6C23682046F4
:101490009B69984710F1FF3018BF01200146204694
:1014A00023F064F836F094FAAB6C93F89C10BDE826
:1014B000384035F081BD00BFD827002010B5044664
:1014C00052F036FC2046FFF7D9FF054B05481B6854
:1014D0009B6CBDE8104093F89C100BF06FBC00BFF4
:1014E000D8270020806900202DE9F041836890B062
:1014F0000746884623B90125284610B0BDE8F0818B
:10150000824B1B68986CFFF7AFFF06460028F2D1AC
:101510004146384652F0B0FB7D4C054641463846C0
:1015200052F0D6F804F5A15393ED007A53ED017A09
:10153000B4EEE77A0540F1EE10FAEDB205D541F2CE
:101540001843E356032B40F08A8041F2BE33E35E3A
:10155000B3F5967F05DA6F4A4146384651F08EFF63
:1015600000256D4BB3F90030B3F5967F05DA6B4A71
:101570004146384651F082FF002541F2C233E35E16
:1015800013F5967F05DD664A4146384651F076FFF1
:101590000025644E306842F06FFB58B141F21043B1
:1015A000E3563BB1336841F21242B3F90E30A25E0A
:1015B0009A425BDB44F23023E35623B144F26C23BE
:1015C000E65C002E59D044F26C23E35C63B141F633
:1015D000CC43E25E1AB941F6CA42A25AE25241F63F
:1015E000CC43E35A632B4FD944F23023E35623B163
:1015F00044F26C23E35C002B4DD141F27A43E35675
:10160000002B65D148482BF087F8002860D142F6BE
:10161000EC43E258454B9A4204D143F23E43E35A2D
:10162000012B6BD942F60A53E35C2BB1404A414689
:10163000384651F023FF00253E4B1B78002B3FF42A
:101640005BAF3D4A4146384651F018FF3EE03B4B08
:1016500042462021384651F0C3FD3546D7E7384A87
:101660004146384651F00AFF35466EE7354A414655
:10167000384651F003FF00259CE7334A414638467F
:1016800051F0FCFE35469EE7304A4146384651F05F
:10169000F5FE0025A8E744F2D81003AE3223324607
:1016A0002B49205859F06CFA48B144F2D410322337
:1016B00032462849205858F0B1F900289DD10096AB
:1016C000254B42462021384651F08AFD002513E77C
:1016D00010AA002622F8346D0DF10A011F48ADF85A
:1016E0000A6034F093FC43F66453E35C022BAED102
:1016F000BDF80A30002B8AD0194BA9E7194A414698
:10170000384651F0BBFE00258CE700BFD8270020EB
:10171000E02700201CBD0C08A03B002037BD0C08B2
:1017200054BD0C08004500201C5C002078540020AB
:10173000B7BD0C08E0740020CCBD0C0887BD0C08B8
:10174000E5BD0C0808BE0C082EBE0C0850BE0C08E7
:1017500077BE0C0883BD0C0871BD0C08D85C002056
:101760009EBD0C087BBE0C08F7B506460F4652F02E
:10177000E5F8044618B1B36813F0110F02D1204602
:1017800003B0F0BD16F0E4F90368D3F8B43098471D
:1017900005460028F3D116F0DBF903685B6A984729
:1017A000064B002808BF18460090054B3A4610210A
:1017B000304651F015FD2C46E1E700BF08BD0C088E
:1017C000AC190D08F8B5836806460F46A3B31B4B4A
:1017D0001B68986CFFF748FE044638B141F064F985
:1017E000174A04213AF0E8FE2046F8BD154D41F2B3
:1017F0000A43EB56032B19D10121284608F0F0F8D3
:10180000044618B941F050F90F4AEAE7284608F0B3
:1018100007FA044620B90146284608F0E1F8E3E754
:1018200041F042F9094A04213AF0C6FE39463046F1
:10183000BDE8F84051F0F0BD0124D5E7D8270020DD
:10184000A4BC0C08E0270020C6BC0C08E6BC0C08B1
:1018500038B5054651F06AFC044640B12846FFF70A
:101860002DFE41F021F9034A06213AF0A5FE20465B
:1018700038BD00BF90BE0C0870B5064651F050FC54
:10188000054638B342F6EC43134CE258134B9A42E8
:1018900003D003F2A4702AF0F3F943F2144343F2A5
:1018A0001542E35C3046C3F30003A354FFF706FE82
:1018B0000B4832F01FFA41F0F7F80A4A06213AF0D5
:1018C0007BFE41F20A43E356032B03D10021024879
:1018D00008F086F8284670BDE027002078540020E4
:1018E000943B0020A0BE0C085CF0A0BD46F00CB9F3
:1018F00042F0DEBE05F03ABD23F02EBE35F008BD45
:1019000008F018BD34F08EBA0AF0E0BC03F04ABC0F
:1019100033F016BE52F044BD44F092BD0EF0ACBEA2
:1019200010F012B830F0EEBB0EF082BE18F0AEBC74
:1019300046F04AB90EF040BE2EF0BCBE17F0F8BA21
:1019400017F084BE47F0F2BF42F014B840F06ABF0F
:1019500005F0ACB80EF0B2BE0AF01CBA07F064BCD9
:101960000FF0BEBD0FF0E0BE01F056BD10F0C4B8E0
:101970000EF096BC10B5044632F064FA04F59650A9
:1019800044F036FB204610F09FFA04F5E45008239B
:10199000312203491030BDE8104033F09BBB00BF3B
:1019A00018BF0C0838B500F5E45510350446284634
:1019B00033F0D6FCD5ED107A9FED0D7AF0EEE77A94
:1019C000F4EEC77AF1EE10FA0CD541F6CA43F7EE01
:1019D000006AE35E07EE903AF8EEE77A86EEA77AC1
:1019E00085ED107A04F581442B6CA36438BD00BFEB
:1019F0000000003490F8203290F8D622DB0122B1AA
:101A0000C21892F89120012A03DC184490F8910042
:101A1000704701207047000090F8CC301BB190F85F
:101A2000F530C3F3400318467047000010B543F289
:101A300014430446C35CDB0705D542F66413C05863
:101A400003681B68984704F58344203420460CF053
:101A5000F5FA18B92046FFF7DFFF20B12046BDE8B0
:101A600010400EF0DBB810BDFFF7E0BF38B50446FC
:101A70001BF07CF890F94D3073B104F23C452846D8
:101A80001AF0CAFD40B104F503503830C0F8885050
:101A9000BDE8384015F0D0BC38BD0000FFF7E6BF08
:101AA00010B50221044610F03FF920B10121204673
:101AB00010F03AF9C0B10221204610F035F920B1FA
:101AC0008021204610F030F990B10221204610F01C
:101AD0002BF998B104F5035104F5E9503831083079
:101AE000BDE8104038F010BA204603F08DFAE2E766
:101AF00004F5E950083037F0E5F9E6E710BD0000DD
:101B0000FFF7CEBF10B51021044610F00DF910B14B
:101B1000204603F003FD2021204610F005F910B106
:101B2000204603F073FB4FF40051204610F0FCF800
:101B300010B1204603F0B0FC8021204610F0F4F8EC
:101B400030B104F5E9500830BDE8104037F0B0BAC4
:101B500010BD0000FFF7D6BF70B542F61053044623
:101B6000C55808F04FF842F61C53024604F57F5062
:101B7000E35829462430BDE8704050F06DBC0000A9
:101B8000FFF7EABF10B504461AF0F0FF90F94D30A8
:101B900073B194F98C345BB1064B1B689B6C93F862
:101BA0009C302BB904F23C40BDE810401AF0F2BC66
:101BB00010BD00BFD8270020FFF7E4BFF8B500F53F
:101BC0004855243595F83861012E044657DC142316
:101BD00003FB065393F91530002B50D000F140075A
:101BE0003846FFF707FF022849DD94F8601204EB3E
:101BF000C11393ED3B7AF1EE007AB4EEE77AF1EEA1
:101C000010FA3CD441F2AE33E35E07EE903A8423FF
:101C100003FB0656F8EEE76A96ED0D6AB4EEE66A47
:101C2000F1EE10FA06D5F8EE677AF4EEC77AF1EE27
:101C300010FA24DC42F2081341F6B052E358A258DD
:101C4000002BB8BF5B42934219DC42F20C1304F53F
:101C50009E52E358B2F90020934210DC41F6B45290
:101C6000A258934200DAF8BD41F2B03307EBC1113C
:101C7000E25E2846C031BDE8F84016F0DDB9F8BD97
:101C8000FFF79CBF2DE9F04190F860622E4F00EB0A
:101C900006130446D3F8A4803B68434500F1400591
:101CA00004D02846FFF7A6FE022839DC2846FFF7B5
:101CB000A1FE022816DC42F62853E25C92B105220E
:101CC000E2540FE0013BA3540021204608F00AF83B
:101CD00004F52550283052F0BFFA04F5035038308F
:101CE00012F0EEFE2046BDE8F0410AF08DBA05EB99
:101CF000C6119C31204605F009FD44F2640304F549
:101D00008045E3580FCB04F581466835083685E8F1
:101D10000F0086E80F0042F628530022E254D3E772
:101D200042F62852C7F80080A35C012BCADCCBD155
:101D300004F581431B68002BD9D144F28403E35896
:101D4000002BD4D10523BEE7C8270020FFF79ABF98
:101D50002DE9F04142F6EC430446C65800F53253F3
:101D600018339E4207D141F2F633C3562A2B07D1CE
:101D700000F53256083643F298334FF0FF32E25006
:101D800004F58347203738460CF058F904F503551D
:101D90003835F0B93846FFF73FFED0B943F21C435F
:101DA000E35C042B10D104F5755028305CF058FE2C
:101DB00095F8803060F3410385F880303368304611
:101DC000DB68BDE8F041184795F8803043F0020326
:101DD000F2E795F880306FF34103EDE7FFF7B8BF06
:101DE00038B52DED028B41F2FE330446C55E9DB140
:101DF00042F6EC43002DE05803681B68B8BF6D4203
:101E000098470738082800F2C080DFE800F0ACBE31
:101E1000BE091AAAAAAAAA0041F2C633C55EE7E71C
:101E200004F50353383393F85431DB0740F1AD80A8
:101E3000BDEC028B04F550503C30BDE838402AF030
:101E400011BC44F26C23E35CABB144F23223E356A1
:101E5000012B10D142F66013E05803689B6B984742
:101E6000002854D061F0C6FA42F6FC43E358C01A89
:101E7000B0F57A7F7ED841F2D433E356012B10D1EE
:101E800043F2DB33E35C63B9204609F0EFFE40B177
:101E900042F63C5340F2CE72E35803F2E7339342EA
:101EA00008D941F2D433E356022B18D143F2DB3385
:101EB000E35CA3B904F550503C302AF023FB50B149
:101EC00043F29243012204F53251E25418310022C8
:101ED00020460FF059FE43F2DB330122E25441F277
:101EE000FE33E35E83EAE371A1EBE371002B89B279
:101EF00006D044F24402B4BF4FF0FF330123A35491
:101F0000BDEC028B2046BDE8384009F07FBF04F5E8
:101F1000814204F5804104F5804008326831783010
:101F200017F0BCFF00289DD104F5834004F54E5303
:101F3000203093ED0F8A0CF097FF07EE905AF8EEE1
:101F4000E77AF4EEC07AF1EE10FAC2BFADB207EE56
:101F5000905AB8EE670AB4EEC08AF1EE10FA81D456
:101F600089E70021CCE7BDEC028B2046BDE8384074
:101F700009F028BDBDEC028B04F533512046002248
:101F80000431BDE838400FF0FFBDBDEC028B38BD19
:101F900038B543F21C430446C35C8B420D461ED049
:101FA0000B1F594200F57550594128305CF0A2FCD6
:101FB000072D0CD143F2A43304F52150E25805213A
:101FC0006423303092FBF3F3054A3AF0F5FA43F21A
:101FD0001C432046E554BDE8384003F07BB938BDCA
:101FE000ECC20C0838B543F214430446C35CDB076B
:101FF00045D543F21543C35C002B40D142F6EC4378
:10200000C25800F5325318339A4232D100F5834555
:10201000203528460BF0DAFF28B102212046BDE822
:102020003840FFF7B5BF43F2D533E35C0BB901216C
:10203000F4E704F551531C335B88152B27D104F5C5
:1020400075552835297911F0010104D143F21C435B
:10205000E35C072B22D10721E0E728465CF034FC43
:1020600028B304F52150134A062130303AF0A4FA7F
:10207000F1E700F5335310339A420DD138BD04F522
:102080008345203528460BF0D9FF0028C5D12846C6
:10209000FFF7C2FC0028C0D10321BFE743F6EA6383
:1020A000E35623B120460EF073FA5928D5DC0421FB
:1020B000B4E700BF10C30C0810B52DED028B43F23E
:1020C0001C430446C35C042B0BD104F0D3FD204613
:1020D000B0EE408A04F05EFE38EE400ABDEC028BA2
:1020E00010BD00F5814494ED110AF7E730B500F515
:1020F0004E5342F660153C3385B004461B68405988
:10210000009303681B6998470190605903685B69F5
:10211000984743F25C434FF6FF72E35A8DED020A93
:1021200004F52750934208BF002369463C30ADF8C0
:102130000C305EF097FB05B030BD0000FFF7D6BF56
:1021400038B5054B1C6823680A461D68034B0146D9
:102150002046A847002038BDD8270020E0270020CF
:1021600070B504460DF0F8FD04F50350383015F055
:1021700063F941F2AE33E25A43F66673E25204F574
:102180007B53303393F8852062B941F2B0329FED32
:10219000297AA25E07EE902AF8EEE77A67EE877A50
:1021A000C3ED207A41F2CA3304F58245E25A224B4C
:1021B000224E1A70643542F0F9FE00212846FFF7DE
:1021C00093F90123B0712846F37150F0EFFF28B95D
:1021D000284651F0A9FDB0FA80F040093071042181
:1021E00020460FF0A1FD20B104F55350383033F0F4
:1021F0005BFE284650F0DAFFD8B994F8603244F21A
:102200000C1504EB031341F28832D3F8A460635930
:10221000F31A93420DD904F14000FFF7EBFB0228BB
:1022200007DD6651204604F5755405F08DFA00234C
:10223000A36270BDC0CFF83F09240020256C0020A8
:10224000FFF78EBF38B5044604F5035540301DF046
:10225000FBF9383504F580417831284614F006F949
:1022600042F62953E05404F581444434214628467B
:1022700013F0E4FCD4ED007AF1EE677AC4ED007A55
:1022800038BD0000FFF7DEBF2DE9F0472DED028BD2
:1022900000F54675044688B0284616F04DFC44F219
:1022A0006C23E35C3BB144F2CC132846E65816F0AD
:1022B0007BFB86ED120A04F50350002305A9383094
:1022C00005930693079314F0DBF9002873D09DED76
:1022D000070ADFED587A04F54E5393ED0D7A20EEA0
:1022E000270ADFED557AA7EE270A0121204683ED64
:1022F0000D0A04F5535383ED0C0A07F0F3FC204656
:10230000FFF770FE43F21443E35CDB074ED543F264
:102310001543E35C002B49D143F21C43E35C042BDF
:102320005CD0DFED468A204604F084FF42F6EC42A2
:1023300004F53253A25807EE900A1C339A42B8EEC5
:10234000E78A08D144F20813E35C23B941F68A43D3
:10235000E35E002B5BDC42F664132046E5582B68F5
:102360005E6842F62C53E75843F21C4314F803808E
:1023700010F044FC42F63653814634F903A020465F
:10238000FFF79AFE8DE800060023FDEEC87A02935F
:1023900004F55054F0EE400A94ED0D1AB0EE680AC0
:1023A00043463A4617EE901A2846B04708B0BDECAF
:1023B000028BBDE8F08704F14000FFF71BFB022809
:1023C00006DD94F8603204EBC31393F81C21DAB9EC
:1023D000284616F03FFAB1EE400A7AE704F5804548
:1023E00004F581467835083604F580413246683177
:1023F000284617F053FD002893D03146284617F0A1
:102400007FFCF0EE408A8EE793ED420A61E744F2EA
:102410006C020A33A258642101FB032307EE903AB1
:10242000F8EEE77AB4EEE78AF1EE10FAD8BFB0EE34
:10243000678A90E7CDCC4C3ECDCC4C3F00000000ED
:10244000FFF722BF70B543F6E86604468357002BBA
:1024500027DD07F0DFFD20BB04F582456435284603
:1024600051F062FCE8B1284650F0A0FE68B970BD9A
:102470002846FFF701FAA0B104F52150094A0621C8
:102480003030BDE870403AF097B860F0B3FF43F2E7
:10249000C433A257E358C01A4FF47A735343984297
:1024A000E6D270BD38C30C082DE9F041044604F5AE
:1024B000035500F5824064303835FEF7DFFF002118
:1024C000284614F015FC802120460FF02DFC20B189
:1024D00004F5E950083036F0F5FC41F2BE3341F620
:1024E000B058E35E44F8083041F2C23341F6B457C5
:1024F00004F58346E35EE351203630460FF0F8FDE5
:1025000018BB54F8083007EE903A04F5095393EDE0
:10251000057AF8EEE77A67EE877AFDEEE77A17EE4E
:10252000903A44F8083004F50953D3ED047AE3599E
:1025300007EE103AB8EEC77AF0EEE77A67EE877AE0
:10254000FDEEE77A17EE903AE351284613F04EFF7E
:102550000746284613F056FF04F54E5500F11801C2
:10256000384628F093F9203504F5814393ED127A2B
:10257000D5ED007AE7EE007AC5ED007AB0EE670A95
:1025800025F0D2F9304685ED000A0AF031FA04F55B
:10259000834000212830BDE8F04154F093B800009A
:1025A000FFF782BF10B543F214430446C35CDA0759
:1025B00017D59B0715D541F25A43C3560BB90020D6
:1025C00010BD07F0D9FA0028F9D042F60C53E35EAB
:1025D000002BF4D120460DF059FD80F00100C0B26F
:1025E00010BD42F60853E05C28B141F21843E356AF
:1025F000022BE4D010BD0120FCE7000010B52DED4A
:10260000028B0446B0EE408A06F0A4FE78B143F295
:102610002C42A35803F58C415031A15042F20811CD
:1026200061580029BEBFA3F58C43503BA35042F62E
:10263000EC4204F53153A2583C339A421DD141F685
:102640001853E358B3F90820003218BF012243F2AF
:102650002C4304F51950E15842F20813B0EE480A31
:10266000E3582030C91A4FF0B7FABDEC028B01B223
:10267000BDE81040042042F0C1BA0022E7E70000A4
:1026800038B52DED028B0546F0EE408A10F0F0FBD8
:10269000044658B100EB4004C4EB041421B2BDEC75
:1026A000028B1320BDE8384042F0A8BA41F25043F3
:1026B00043F23042EB5EAA58134407EE903A4620AC
:1026C000B8EEE78A42F0ACFA07EE900A05F59F53A0
:1026D000B8EEE77AD3ED007A42F6EC42A7EE278A0D
:1026E00005F53153AA583C339A42FDEEC87A16D10B
:1026F00041F61C53EB58B3F90820003218BF0122F1
:1027000042F20C1305F51C50E95817EE903AB0EE62
:10271000680A591A0C304FF0E1F801B2BFE72246BF
:10272000EEE7000010B50446FFF73CFF00285BD041
:1027300042F6EC4304F53252E3580432934253D04C
:1027400004F53252083293424ED004F5325214321C
:10275000934249D004F532520C32934244D004F5EE
:102760003252103293423FD004F532523432934207
:102770003AD004F532523832934235D004F5325211
:102780003C32934230D004F5335293422CD0043281
:10279000934229D004F533520832934224D004F5F1
:1027A0003252934220D004F533520C3293421BD064
:1027B000042042F035FA41F618530146E05841F042
:1027C0005BFC0146042042F019FA132042F028FA7B
:1027D00041F61C530146E05841F04EFCBDE8104064
:1027E0000146132042F00ABA10BD000038B52DEDA5
:1027F000028B0446FFF7D6FE002849D042F6EC4390
:1028000004F53252E3580432934241D004F5325277
:10281000083293423CD004F532521432934237D0FE
:1028200004F532520C32934232D004F53252103257
:1028300093422DD004F532523432934228D004F51D
:1028400032523832934223D004F532523C32934212
:102850001ED004F5335293421AD00432934217D05B
:1028600004F533520832934212D004F532529342A7
:102870000ED004F533520C32934209D004F5325293
:10288000183293427DD141F2F633E3562A2B78D1A8
:10289000BDEC028B38BDFFEE007AB0EE087AE0EEB8
:1028A000077AB0EE670A43F22C4541F6B053E2587E
:1028B000635907EE102A07EE903AB8EEC77AF8EEA1
:1028C000E77A5142E0EE077AFDEEE77A17EE900ADA
:1028D000605125F03DF841F61C536051E05841F03D
:1028E00069FAB4EEE80AF1EE10FAB0EE408A34DD8F
:1028F000FFEE007AB0EE087AE8EE077AB0EE678A6B
:10290000204606F027FD08B1B1EE488A43F2304375
:10291000B5EEC08AE15807EE901AF1EE10FA04F510
:102920009E52F8EEE77A22DDB2F9001007EE101A97
:10293000B8EEC77AE8EE077A43F23045FDEEE77A63
:1029400017EE901AE15041F6B453B2F90020E15865
:10295000605924F0FDFF60519AE7FEEE007AB4EE74
:10296000E70AF1EE10FACBD5F7EE007AC2E741F6AE
:10297000B451615807EE101AB8EEC77AE8EE477AFC
:10298000DAE741F61853E05841F014FAF6EE007A0F
:10299000B4EEE70AF1EE10FAF0EE678A3FF77BAF8C
:1029A000FEEE007AB4EEE70AF1EE10FA7FF57BAFA7
:1029B000F7EE007A71E7000013B541F2AB3304463D
:1029C000C356012B06DC0021462002B0BDE81040B2
:1029D00042F014B942F66413C05803689B689847E4
:1029E00042F6EC430190E25804F5325328339A4200
:1029F00004D004F532542434A2420AD10A4C23688C
:102A00003BB160F0F7FC2368C01A40F6B733984238
:102A100002D9BDF90410D7E754ED017AFDEEE77A4B
:102A2000CDED017AF5E700BFE05B0020F8B52DEDB4
:102A3000028B0546B0EE408A0DF06AFA42F6EC438E
:102A40000646EA5805F5325328339A4204D005F574
:102A5000325324339A420DD1244C43F2F837E359D0
:102A6000002B07DD60F0C6FCE359C01A40F6B7330F
:102A7000984236D942F6EC4205F53153AA583C3318
:102A80009A4201D0002102E0311C18BF0121B0EEB2
:102A9000480A05F51F504FF021FA0446042042F081
:102AA000BFF807EE900A23B2F8EEE76A07EE903A15
:102AB00005F59E53F8EEE77A93ED067AE6EE877A0F
:102AC000FDEEE77A17EE900A304400B241F294121C
:102AD000074924F045FFBDEC028B42F66A03E85239
:102AE000F8BD43F2EC33E05EF0E700BFE0270020E2
:102AF0006CEEFFFF38B542F660130446C058036819
:102B0000DB689847014604F5205010304FF0C4F9B7
:102B100042F6680560532046FFF744FD30B141F6A8
:102B20002453615FE05841F0A7FA605342F668050C
:102B300041F294120249605F24F012FF605338BDE5
:102B40006CEEFFFF38B590F8603200EBC31393EDE5
:102B50003B7AF7EE007AB4EEE77AF1EE10FA04462B
:102B60000AD500210DF014FD30B943F21C43E35C9B
:102B7000012B01D0072B61D120460DF0C9F941F29C
:102B8000E83307EE900AE35E00EE103A43F21C438E
:102B9000E35C012B02D19FED300A0BE0072BFAD04A
:102BA000B8EEE77ADFED2D6AC7EE267AB8EEC00AF6
:102BB00027EE800A9FED2A7AF0EEC07AF4EEC77A0B
:102BC00004F52050F1EE10FA43F29C3200F11000AF
:102BD00014D40023A35443F29C33E35CDBB94FF0DD
:102BE0003BF842F6680342F66805E05241F294125F
:102BF0001C49605F24F0B4FE605338BDA15C51B93C
:102C000001218B42A15406D0072B04D004F54E536A
:102C100000221A62DFE704F54E5393ED087ADFEDE8
:102C2000127A67EEC77A9FED117A67EE877AFDEE2A
:102C3000E77A17EE901A4FF02FF9D2E743F29C3360
:102C40000022E05404F54E5320461A620DF060F95C
:102C500042F66803E05238BD0000000000A08C4539
:102C6000000000346CEEFFFFE02E65420000C84219
:102C700070B500F5755528352DED028B04462846B4
:102C8000B0EE408A5BF0D8FC08B342F6660301223E
:102C9000E25428465BF0D0FC002839D143F2983347
:102CA000E358013303D042F66603E35C83BB42F68C
:102CB0006603E35C13B12046FFF744FFB0EE480A19
:102CC000BDEC028B2046BDE87040FFF7AFBE41F679
:102CD0001853E358B3F9083083B904F58143D3EDB1
:102CE000117A04F59F5393ED017AF0EEE77AF4EE52
:102CF000C77AF1EE10FA4CBF0120002042F66606BA
:102D0000A05528465BF0B2FC0028C2D1A055C0E710
:102D10002046FFF7EFFED1E738B52DED028B42F6E6
:102D200064030446C35CB0EE408A43B141F61853D5
:102D30000420E358B3F9081041F060FF15E0FFF7F5
:102D40005DFC43F22C43E358002B1BDC43F22C4385
:102D5000E358002B09DA41F618530420E358B3F97D
:102D6000085041F05DFFA842E0DB42F66503E35CFA
:102D70009BB141F61C531320E358B3F9081041F0FE
:102D80003DFF23E041F618530420E358B3F90850FF
:102D900041F046FFA842C9DCD8E7B0EE480A204619
:102DA000FFF76EFC43F23043E358002B17DC43F28D
:102DB0003043E358002B09DA41F61C531320E35843
:102DC000B3F9085041F02CFFA842D2DBB0EE480A1C
:102DD000BDEC028B2046BDE83840FFF749BF41F605
:102DE0001C531320E358B3F9085041F019FFA842CF
:102DF000BFDCDCE7F8B542F664130446C05803684C
:102E0000DB68984742F6EC430646E25804F5325335
:102E100028339A4204D004F5325324339A420DD118
:102E20000F4D43F2F437EB59002B07DD60F0E2FA67
:102E3000EB59C01A40F6B73398420DD904F59E53AA
:102E40003046B3F9002041F6B453E15824F080FD38
:102E500043F23043E050F8BD43F2E833EE58EDE77B
:102E6000E027002010B504460EF064FF00282ADB9E
:102E700041F2AB33E356984225DA43F21C42A25C9E
:102E8000022A20D0181A07EE103A07EE900AB8EE80
:102E9000C77AF8EEE77A43F23042C7EE876AA35862
:102EA00007EE903A04F59F5393ED037A9FED066A7F
:102EB000F8EEE77A27EE067AE6EEC77AFDEEE77AD5
:102EC00017EE903AA35010BD0000C842F8B543F287
:102ED0002C472DED028BC3599FED530A9FED537A7A
:102EE00007EE903AF8EEE77A044667EE807A9FEDB7
:102EF000500AF0EEE76AF4EE476AF1EE10FAC8BF46
:102F0000F0EE477A27EE800AB2F04CFD24F056FC32
:102F1000B7EE008AC8EE007A04F5505604F58345F2
:102F2000343620352846C6ED007A0BF043FF20B139
:102F300044F23033E358DB0763D441F2C533E35640
:102F400073B3204606F006FA50BB28460FF0D0F8BF
:102F500030BB41F2AE3304F55052E35ED2ED0E6A5F
:102F6000012BB8BF012307EE903AF8EEE77A86EE20
:102F7000A77AB4EEC87AF1EE10FA14D843F22C45D1
:102F800040F6C4122B49605924F0E2FC41F6B053DC
:102F9000605140F6C412E1589142D4BFE150E25072
:102FA000BDEC028BF8BDD6ED007AB4EEE77AF1EE17
:102FB00010FAF5D588EE070A43F22C4620EE000AF7
:102FC000B2F092FEDFED1C7AA05920EE270ADFED69
:102FD0001B7A20EE270A40F6C413FDEEC07A17EEE6
:102FE000905A9D42B8BF1D462A46694224F0B0FC63
:102FF00041F6B053A051E258AA42D4BFE250E55086
:10300000CEE741F27843E256642312FB03F241F625
:10301000B053E1588A42A8BF0A46E2505142E059F3
:1030200024F096FCE051BBE70AD7233C0000AA42FB
:1030300035FA8E3C3CF6FFFFE02E65420000C842A8
:10304000F8B542F660130446C05803681B689847F9
:1030500042F6EC430646E25804F5325328339A42CE
:1030600004D004F5325324339A420DD1104D43F26B
:10307000F037EB59002B07DD60F0BCF9EB59C01AB3
:1030800040F6B73398420ED941F6B0533046E25875
:10309000514224F05DFC43F22C43E0502046BDE851
:1030A000F840FFF713BF43F2E433EE58ECE700BFFC
:1030B000E027002070B52DED028B044682B000F5AC
:1030C000035001A9383012F075FB002864D004F5D4
:1030D0004E53DDED017A93ED0B7AB4EEE77A9FED76
:1030E0005C7AF1EE10FA04F59F55F4EEC77A03F11D
:1030F0002C0341F2AE3648BFC3ED007A1035F1EE35
:1031000010FAC8BF95ED007AA35F95ED006AC8BFBD
:1031100087EE270A07EE903A41F2B033F8EEE77AED
:10312000F6EE008A67EEA87AE35EC7EE860A07EE3F
:10313000903AF8EEE77AB7EE087A67EE877AF0EE23
:10314000006A87EE867AF4EE680AD8BFB0EE660AA7
:10315000F1EE10FAB4EE667AC8BFF0EE680AB0EE8F
:10316000001AF1EE10FA58BFB0EE471A24F000FC36
:1031700004F583402030B0EE408A0AF05FFF28B1AA
:10318000344B1B689B6C93F89C303BBBB0EE480AF9
:1031900002B0BDEC028B70BD2E4B1B689B6C93F88C
:1031A0009C30C3B1462041F03BFD0128B8BF01204F
:1031B00007EE900AB8EEE70ADFED277A87EE800A7D
:1031C000B3F03AF99FED251ADFED250A24F0D0FB84
:1031D000B0EE408ADAE7B7EE008AD7E7A35F9DED4D
:1031E000011A02EE103AB8EEC22A22EE282AB4EEF4
:1031F000C12AF1EE10FAC9DDD5ED000ADFED191A8A
:10320000C0EE820AB0EE610A24F0E8FA04F51B531E
:10321000D3ED0F7A9FED147A67EE877AB4EE480A01
:10322000C3ED0F7A04F51E53D3ED0C7A67EE877A5F
:1032300004F52054C3ED0C7AD4ED007A67EE877A5A
:10324000F1EE10FAC4ED007AD8BFB0EE408A9DE7E7
:1032500017B7D138D8270020000034428FC2D53F9D
:103260009A99193F0000000052B87E3F70B52DEDCD
:10327000028B41F61853DFED646AC358B3F9083086
:1032800007EE103AB8EEC77A41F23043C7EE267A1D
:10329000C35E00F5195604462036F0EE408A00EE73
:1032A000103A41F61C53B8EEC00AC358B3F90830BF
:1032B00027EE800A07EE903AF8EEE77A41F23243C1
:1032C00087EEA67AC35E08EE103A41F23443B8EEB8
:1032D000C88AC35627EE088A43B19FED4C7AF0EEB8
:1032E000C07AF4EEC77AF1EE10FA47D443F26833AD
:1032F0000022E254F0EE680A30464EF069FC1EE00F
:103300000122E25400232B6095ED007ADFED407A34
:1033100067EEC77A9FED3F7A67EE877A42F208132D
:10332000FDEEE77AE35817EE901A43F22C420B4475
:10333000A350B0EE680A012230464EF04DFC01B2B7
:10334000042041F05BFC41F2344304F51C50E35689
:103350000C3043B19FED2D7AF0EEC87AF4EEC77AC7
:10336000F1EE10FA24D443F269330022E254F0EE75
:10337000680AB0EE480A4EF0CDF934E043F2683303
:1033800000F54D55C25C2C35002AB9D004F5035028
:10339000383013F02BF804F58143D0ED006A93ED3B
:1033A000127AD5ED007AE6EE877AC5ED007AABE7C2
:1033B00043F26933E25C3AB90122E25442F20C135F
:1033C000E25843F27033E25043F2703343F230423A
:1033D000E358A35042F20C12B0EE680AA158002242
:1033E000591A4EF07BFA01B2132041F007FC204637
:1033F0000CF08EFDBDEC028B42F66A03E05242F601
:103400006803E05270BD00BF00A08C45000000348E
:10341000E02E65420000C84270B52DED028B42F6E9
:10342000EC4200F53253825830339A4204460AD1B6
:1034300043F29C33002200F54E54C2540023236211
:10344000BDEC028B70BDFFF735FE04F583452035DA
:103450002846B0EE408A0EF0D7FED8B104F5864378
:103460009FED801A93F90030DFED7F0A5A1D642327
:10347000534300EE103AB8EEC00A24F079FABDEEDC
:10348000C00A43F2304310EE102AE25043F22C43BC
:103490000022E2505FF0AEFF42F604530646E358C6
:1034A000C31AB3F5FA6F15D904F5195020304EF050
:1034B000CFFB04F51C500C304EF06AFA04F51F5097
:1034C0004EF062FE43F29C330022E25404F54E5368
:1034D00000221A6242F6045304F53252E65042F6D4
:1034E000EC43E358934257D1B0EE480A2046FFF729
:1034F00013FC002120460DF04BF80028A0D104F564
:103500008143D3ED117AB1EE047AF0EEE77AF4EE6E
:10351000C77AF1EE10FA93D504F5467015F09AF9D2
:10352000F6EE007AB0EEC00AB4EEE70AF1EE10FA59
:1035300086D594F8603204EBC31393ED3B7AF0EE3A
:10354000087AB4EEE77AF1EE10FA7FF579AF04F578
:10355000195020304EF07CFB04F51C500C304EF01E
:1035600017FA04F51F504EF00FFE94F8603204EB8A
:10357000C31393ED3B7AF7EE007AB4EEE77AF1EEFF
:1035800010FA7FF55DAFBDEC028B04F520501030D2
:10359000BDE870404EF09EBC04F5325204329342B6
:1035A00005D1B0EE480A2046FFF760FEA1E704F51A
:1035B0003252343293421AD004F5325238329342A6
:1035C00015D004F532523C32934210D004F53352F8
:1035D00093420CD00432934209D004F5335208329E
:1035E000934204D004F533520C32934207D128465B
:1035F0000EF00AFE18B928460CF066F979E741F298
:103600005A43E356012B07D142F6EC4204F53153FD
:10361000A2583C339A421CD1B0EE480A2046FEF72D
:10362000EDFFB0EE480A2046FFF72AF841F25A4370
:10363000E356022B11D042F6EC4204F53153A25866
:103640003C339A4209D0B0EE480A2046FFF710FBFF
:103650004FE72046FFF7CAF8DEE72046FFF762F89B
:10366000F1E700BF00D0044600E0AB457047000022
:1036700000207047002070470120704700207047ED
:1036800001207047012070477047000041F2CC33A1
:10369000014AD05C704700BFE027002041F6684334
:1036A000024AD056003018BF01207047E0270020A2
:1036B00041F2CE33014AD056704700BFE0270020C8
:1036C000002070477047000010B542F6EC43254CCF
:1036D000E05803681B689847172822464FF00104FA
:1036E0000FD8214B04FA00F0184229D1A3F5741326
:1036F000A3F2E25303402BBB1C4B0340002B18BF2B
:10370000402442F66503D35C1BB142F66403D35CEC
:103710000BB944F0100442F6EC43D158144B9942D3
:10372000A3F1040303D0994218BF44F0100441F2FE
:103730005A40125642B1994210D144F0010010BDD6
:103740001024DEE71824DCE79942F6D009484FF050
:103750002DFD0028F1D044F08004EEE744F0400451
:10376000F4E700BFE0270020E4015E0019008000BC
:1037700090540020446900202DE9F0432DED028B88
:103780008BB0814614F0E4F9DFF89480476890ED3F
:10379000028AC66841F2504304461E4838F9035075
:1037A0000AF04CFC68BB07EE905AB8EEE77ADFED02
:1037B0001A7A67EEC77A9FED197AA7EE878A23688F
:1037C00020465B6B9847044699F810505FF012FE54
:1037D000A368216862680993272301931C2303903F
:1037E00007910892009303AA1E21284604978DEDA5
:1037F000058A069639F028FE0BB0BDEC028BBDE8B9
:10380000F08344F21C3358F803305F6893ED028A6A
:10381000DE68D4E7806900200AD7233C35FA8E3C65
:10382000E027002008B506480EF084FAFCF778FE81
:1038300021F000431946FDF789F900B208BD00BF29
:10384000E027002008B515F0A9FBBDE8084015F0F9
:1038500001B8000010B4104BCC6844F28C001C502E
:103860000A7AD20705D544F264029A585268224473
:103870001A5044F28802985C6FF300009854097A59
:10388000C0B2C1F3800161F3820098545DF8044B2B
:10389000014802F07BBF00BFE027002038B5054D8E
:1038A00042F66D0401232B553BF05CF900232B55A8
:1038B00038BD00BFE027002070B505460E4614460F
:1038C000114605484FF0F4FA224631462846BDE835
:1038D00070403EF0D3BE00BF6C67002070B58B8B8C
:1038E000BF2B8CB006460D467FD021D8162B64D056
:1038F00008D8112B58D0142B5CD0294630463FF005
:1039000061FEB4E0B32B00F0D580BD2B66D0B22BA6
:10391000F3D1C14A42F6EC43D358C04A934234D063
:10392000103A934231D00C3293422ED004209EE0C4
:10393000D42B00F00E8114D8D02B00F01B81D12B9A
:1039400000F04181CF2BD8D1B34806F031F80028E0
:1039500040F08F803FF0A8F8B14A052138F02CFEE6
:10396000E4E7B3F5967F36D040F6B832934200F0E4
:103970007581DF2BC1D191ED021AD1ED010A91EDD4
:10398000000AA84844F084FA22E008A816F01CF8BF
:1039900006A9284627F0BEFE0028C7D106A99E48E2
:1039A00004F0C6FB002062E09F4902229A480EF014
:1039B000EBF8F7E702229D49F8E744F26C23964AB8
:1039C000D35C002BB2D091ED060A99480AF058F961
:1039D0000028ABD0E6E702229649E7E7964828F0B0
:1039E00091FD0028A2D00022F6E78B4C43F21C4345
:1039F000E35C042B07D043F25E43E35A23F0400319
:103A00009BB2152B92D18C4828F0A0FD0028C9D17B
:103A100044F26C23E35C53B185480AF0D7FA0028DE
:103A200084D144F23033E358D9063FF57FAFD5ED6A
:103A3000007A9FED827AF0EEE76AF4EEC76AF1EE63
:103A400010FA0AD49FED7E7A67EE877A43F2A433A8
:103A5000FDEEE77A17EE902AE2507A485AF034FFEA
:103A600000283FF463AF43F2D8330020E0540CB099
:103A700070BDD5ED007AFCEEE77ACDED037ABDF8A6
:103A80000C10012912D010D302297FF44FAF00216E
:103A9000614805F09DFF00283FF448AF3FF004F86F
:103AA000694A052138F088FD7CE700215A4805F075
:103AB00097FF8DE7F7EE000A91ED000A23F048FE2C
:103AC000A8B11BF037FE90F8201200EBC1119C3119
:103AD000514803F01BFE00283FF428AF14F038F8DB
:103AE00090F8543143F0020380F854315AE7D5ED91
:103AF000007A9FED527AF0EEE77AF4EEC77AF1EEB3
:103B000010FA7FF513AF06A815F05EFFDFED4F6AE0
:103B100095ED047AD5ED057A336827EE267A67EEBF
:103B2000A67ABDEEC77AFDEEE77A8DED087ACDED87
:103B3000097A9FED437AD5ED067A67EE877A0122FE
:103B4000FDEEE77A06A9CDED077ADB6D30469847A2
:103B50003EE7D1ED007A9FED397A2F48F0EEE77A13
:103B6000F4EEC77AF1EE10FA54BF0121002105F0FE
:103B7000EBFB17E7D1ED007AFCEEE77ACDED037AA7
:103B8000BDF80C1001290ED00CD302297FF4CEAE63
:103B9000214B43F2EC429A5C520708D53EF084FF79
:103BA0002B4ADAE600212B4846F0EEF8FAE643F21B
:103BB000D4429B561BB93EF077FF274ACDE6164804
:103BC00008F0A8FB04E7D1ED017A95ED030AFCEEBD
:103BD000E77ACDED037AD1ED007A017C1448FCEE52
:103BE000E77ACDED047AD5ED047A9DF81020FCEE4D
:103BF000E77ACDED057AD5ED027A9DF81430019380
:103C0000FCEEE77ACDED057ABDF8143000939DF80F
:103C10000C3007F0B7FD2AE7E02700208854002089
:103C200034C70C08D03C0020805400207C54002075
:103C300080690020785400201C5C002000000034C3
:103C40000000C8424865002049C70C088096184B00
:103C50005EC70C08B45C002079C70C08D1ED007A6F
:103C60000448FCEEE77ACDED037A9DF80C1009F0DC
:103C700041FAADE6806900202DE9F0412DED028B7F
:103C80008A7A4B7A43EA0223CA7A43EA0243872BB1
:103C90009AB005460C462ED8862B80F03881542BDE
:103CA00000F0FD8113D8452B00F0CA80522B00F0A4
:103CB0004B8193B9994CCA7941F2CC33E35E9A4275
:103CC0003CD15FF097FB42F61053E05036E05A2BA0
:103CD00034D007D8562B00F02D82214628463FF0DD
:103CE000F7FA2BE06D2B00F00881842BF5D18C487E
:103CF00030F006FD22E0F32B00F0AF8123D8A12B9A
:103D00005AD0A62B00F0F980A02BE6D1CA78834CBC
:103D10000C2A4FF0000328BF0C220C310AA80A938A
:103D20000B930C93B4F0C4FC04F5A05393F900304A
:103D3000BBB17C4A042128463BF092FC1AB0BDEC92
:103D4000028BBDE8F081F62B05D0C6D3A3F51C533A
:103D5000113B022BC1D82246297C73484CF0A0FCB1
:103D6000ECE741F201439DF83320E3569A4201D03B
:103D70006E4ADFE7DDED0A8A9DED0B8AB0EE680A38
:103D8000F0EE480A23F0D8FF08B9694AD2E7DFED20
:103D9000697A9DF8322068EEA78A28EE278AFDEE20
:103DA000E88ABDEEC88A04A92046CDED048A8DEDCF
:103DB000058A05F035FDC1E7CA78584F032A41F25C
:103DC00001484FF0000328BF03220C3103A8ADF8CF
:103DD0000C308DF80E30B4F06BFC9DF80E6017F9C6
:103DE00008309E42C4DA3246394604A805F0F8FC91
:103DF000DDED057A9DED047A17F80830DFED4E6AA7
:103E00008DF83330F8EEE77AB8EEC77A4E23E179D1
:103E1000227A287C019367EEA67A27EE267A0C2375
:103E20008DF830108DF8312000930AAAA0218DED75
:103E30000A7ACDED0B7A8DF8326039F005FB7DE71B
:103E4000364ECA7941F2CC33F35E9A427FF476AFB4
:103E5000CA780B2A4FF0000728BF0B220C310AA8A2
:103E60000B970A97CDF82F70B4F022FC41F2CA33B9
:103E70009DF83220F35E9A427FF460AF5FF0BAFAA9
:103E800004468DE8900041F61851BDF92A209FEDB7
:103E90002B0A71584FF47A7328463EF0D3FD012364
:103EA00041F61C5101930094BDF928209FED230A8F
:103EB00071584FF47A7328463EF0C4FD8DE89000A7
:103EC00006F5E951BDF92C209FED1D0A09683B4616
:103ED00028463EF0B7FD8DE8900041F624514FF49E
:103EE0007A73BDF92E209FED150A715828463EF0D1
:103EF000A9FD42F61053F45020E7082107480DF0C1
:103F000013FF2146024628463BF01CFC16E70A46F2
:103F1000017C0C4832F082FA10E700BFE027002055
:103F20003038002098C60C08D0660020B1C60C08B6
:103F3000C1C60C088096184B95BFD6330000FA44D2
:103F400000007A44D85C0020AD4EAE4A42F6EC4305
:103F5000F358934203D0043A93427FF4EFAEE578EE
:103F6000272D28BF2725272200210AA8B4F0C6FB49
:103F70002A4604F10C010AA8B4F09AFB0B9B9DF8A9
:103F80004E4004930C9B0593E4430D9B0693E4B2CF
:103F90000E9B07938DF84E405FF02CFA14F0810FC2
:103FA00004F08705074601D1802D14D104A825F01F
:103FB0001FFCDFED957A20EE270ADFED947A20EEE4
:103FC000270A43F2E433BDEEC00A10EE102AF25085
:103FD00043F2F033F75014F0820F01D1802D14D149
:103FE00004A825F01FFCDFED887A20EE270ADFED1C
:103FF000877A20EE270A43F2E833BDEEC00A10EEBE
:10400000102AF25043F2F433F75014F0840F01D128
:10401000802D14D104A825F015FCDFED7B7A20EE6D
:10402000270ADFED7A7A20EE270A43F2EC33BDEE61
:10403000C00A10EE102AF25043F2F833F75063062C
:104040007FF57CAE9FED717ADDED127A704B67EEF5
:10405000877AE3EC017A1F6070E6CE783D2E28BFA8
:104060003D263D2200210AA8B4F048FB324604F167
:104070000C010AA8B4F01CFB04A815F0A5FC0A9BCF
:1040800006930B9B07930A220C9B93FBF2F3059379
:104090002B680022DB6D04A9284698474EE6CD78B0
:1040A000352D28BF3525352200210AA8B4F026FB7E
:1040B0002A4604F10C010AA8B4F0FAFA504C42F670
:1040C000EC43E2584F4B9A427FF438AE9DF85C3097
:1040D000072B7FF433AE44F28C05DDED0D6A635996
:1040E0009FED4A7A07EE903AF8EEE77AE6EEC77A65
:1040F000FDEEE77A17EE903A63513EF0D5FC44F2BC
:1041000064039FED447AE258635952689B1A07EEA4
:10411000903AF8EEE77A064667EE877A17EE900A4D
:10412000FCF710FA3C4ACDE900010621304638F090
:1041300043FA03E6324A42F6EC43D358314A9342FB
:1041400003D0043A93427FF4F9ADE678352E28BFC8
:104150003526352200210AA8B4F0D0FA324604F1FF
:104160000C010AA8B4F0A4FA1822002104A8B4F0A3
:10417000C5FA1022002106A8B4F0C0FA06A815F06E
:1041800023FCBDF8583023F004039BB2002B3FF40E
:10419000D5AD9DF818309FED1D7ADDED0D7A03F059
:1041A000FE0367EE877A6FF38203FDEEE77A8DF800
:1041B00018309DF85C30CDED077A0B2B19D8DFE86D
:1041C00003F00C181818180C0618181818139DF876
:1041D000183043F001038DF818302B6804A9D3F888
:1041E000C83028469847A9E59DF8183043F00503E4
:1041F000F1E73EF059FC094A042138F0DDF99DE56C
:10420000E027002088540020E02E65420000C842CC
:10421000DC5B00200AD7233CEBC60C08FEC60C086A
:1042200038B504460D465FF0E5F842F61053044AEF
:10423000D05029462046BDE838403AF027BC00BFA0
:10424000E027002038B543F2D8330A4C0025E55466
:104250003AF0D6FC42F6EC43E258074B9A4208D1BA
:1042600043F23C43E35C23B90448BDE8384028F0FE
:1042700009B938BDE0270020785400201C5C0020DC
:1042800038B5084A43F2F843D3563BB941F24F14CC
:104290003AF05CFB00252043294338BD41F24F34FE
:1042A000F6E700BFE027002010B5044615F016FE23
:1042B000204610BD70B542F6EC43114CE258114B4C
:1042C0009A421AD108310FC90F4D85E80F0044F208
:1042D0009806A35DDA070BD544F2640244F29C0110
:1042E000A258605852686FF3000302446250A3550D
:1042F000034803F0CFF9012070BD002070BD00BF5E
:10430000E0270020885400207868002038B5F7EEB8
:10431000000A91ED030A05460C4623F019FA28B964
:1043200021462846BDE838403DF04CB803480BF024
:1043300019FE002814BF0020042038BDE02700200B
:1043400038B50D46144613F003FC03682946D3F82C
:10435000A030984748B144B113F0FAFB90F85431BB
:1043600043F0020380F85431204638BD10B50C46A6
:104370001BF0E0F990F8201200EBC1119C310748C6
:1043800003F0C4F948B144B113F0E2FB90F85431A2
:1043900043F0020380F85431204610BDE02700208E
:1043A00008B5124842F6EC43C258114B9A4216D057
:1043B00042F60C53C35EA3B943F22123C35C83B915
:1043C00042F60A53C35C63B943F20543C35C53B975
:1043D00005F020FE002814BF0420032008BD0220A1
:1043E00008BD052008BD062008BD00BFE02700204D
:1043F0008C54002013B543F25C331D49CB5C012B78
:1044000029DC14221B485A43104490F9100010B3C1
:1044100084205843014401F5495191F82840164938
:104420000A44D2ED027AF0EEE77AF5EEC07AF1EEC8
:1044300010FAD8BF091804F00104D4BF91F8502035
:10444000012244B13AB10D4A842101FB032393EDCB
:104450000C0A02B010BD13F07BFB036801A95B6E70
:10446000984710B19DED010AF3E79FED050AF0E7CB
:10447000E0270020095A0020045A0020085A002092
:104480000000000030B542F6EC431D4CE2581D4BD5
:104490009A4291B031D0057C5EF0ACFF44F29003BB
:1044A00044F28C01E25861589FED177A039044F270
:1044B000940307EE901AE35805930023079308939B
:1044C00009930A930B930C930D930E934FF6F87385
:1044D000F8EEE77AADF83C3000238DF83E309623B5
:1044E00067EE877A019333230492009303AA57213E
:1044F0002846CDED067A38F0A7FF11B030BD00BFD9
:10450000E0270020905400200AD7233C2DE9F047F3
:104510002DED068B804D42F6EC438EB0EA587F4B72
:104520009A4207462C467AD07D489FED7E8A7E4E81
:104530009FED7EAA09F082FD00287DD044F2D413BD
:104540009FED7B0AE8583C3026F084FA74488DEDE4
:10455000040AF0EE419AB0EE409AF0EE608ACDED9A
:10456000050A8DED061A09F0F5FB69EE889A97F8B1
:1045700010A0FDEEE97A29EE089ACDED037A68EEF7
:10458000888ABDF90C80074600284DD044F2DC151E
:1045900060590368DB6898470FFA80F9605903682F
:1045A0009B689847DFED637AB4EEE70AF1EE10FA04
:1045B00058BFB0EE670AFCEEC07ACDED037ABDF8C5
:1045C0000C5042F6EC43E2585B4B9A422FD044F237
:1045D000D813E05855F008FD20EE080AD6ED007A11
:1045E00027EE8AAA37B344F2DC13E3581B6E0B9311
:1045F000B72301931A238DED079ACDED088A8DED2F
:10460000090A8DED0AAAADF83080ADF83290ADF808
:104610003450009307AA3E21504638F015FF0EB0E3
:10462000BDEC068BBDE8F08781460546C9E79FEDE6
:10463000430AD3E70023DAE742F660133F7CEC58E5
:1046400043F22C432046EB5809EE903A43F23043B4
:10465000F8EEE99AEB5809EE103A23689B68984700
:1046600007EE900AF8EEE77A236867EE887A1B690E
:10467000FDEEE77A2046CDED037ABDF90C90984720
:1046800007EE900AF8EEE77A2D4B67EE887AD3EDC5
:10469000008AFDEEE77A42F63C53CDED037AEB5803
:1046A000DFED247ABDF90C80F4EEE78A00EE103AD3
:1046B000F1EE10FA236858BFF0EE678AB8EEC00A30
:1046C000D6ED007A5B69B8EEC99A204627EE8AAA31
:1046D00069EE889A29EE089A20EE088A9847FCEE3F
:1046E000E87ACDED079A17EE903AADF83430B7235B
:1046F00001931A238DED089A8DED098A8DED0AAA92
:104700008DED0B0AADF83090ADF83280009307AA1A
:104710003E21384681E700BFE0270020905400206A
:10472000806900200AD7233C105500200000C842B1
:104730009F0CB34500FF7F47945400200000000009
:104740009C5B0020014809F01BBB00BF8069002072
:1047500008B5044A42F6EC43D05803681B689847F2
:1047600008BD00BFE027002070B52DED028B86B09C
:104770000D4604465EF03CFE04F50354383406460C
:10478000204612F0F9FF2046B0EE408A12F0FEFFFC
:1047900000230393CD2301931023009302AA42F632
:1047A0000C31284602968DED048A8DED050A38F00D
:1047B0004BFE06B0BDEC028B70BD0000F0B52DEDD8
:1047C000028B05468BB01746B0EE408A0C4601B30B
:1047D000007C39F089FC0646287C38F0F7FD183655
:1047E000864216DA636908936223E1682269287CAD
:1047F000A56924680193192306910792009303AADF
:10480000C22103948DED048A05958DF8247038F04B
:104810001BFE0BB0BDEC028BF0BD0000F8B542F6FC
:10482000EC43574CE258574B9A42054600F0A6809D
:1048300013F08EF903685B6B0746984741F2884393
:104840000646E35ADA0716D54F4809F0F7FB002869
:104850006DD044F2D413E05803689B68984700F188
:10486000380196ED000ADFED497A012220EE270A91
:104870002846FFF7A3FF41F28843E35A9B0716D56A
:10488000414809F0DBFB002853D044F2D413E05830
:104890000368DB68984700F1380196ED010ADFED07
:1048A0003B7A022220EE270A2846FFF787FF41F2D3
:1048B0008843E35A580716D5334809F0BFFB002850
:1048C00039D044F2D413E05803681B69984700F1CB
:1048D000380196ED020ADFED2D7A032220EE270A39
:1048E0002846FFF76BFF41F28843E35A19070AD5C0
:1048F00096ED020ADFED257A254920EE270A0522EA
:104900002846FFF75BFF41F28843E35ADA0604D5F5
:1049100043F21C43E35C042B0FD041F28843E35A7B
:104920009B062BD5184809F089FBA8B9F8BD194991
:1049300097E71949B1E71949CBE7194859F0BCFE87
:1049400096ED020ADFED117A014620EE270A0622D3
:104950002846FFF733FFE0E73B6838469B699847F6
:1049600044F2D81390ED020AE1582846B1EE400A0D
:1049700004226031BDE8F840FFF720BFF8BD00BF5A
:10498000E02700209054002080690020E02E65423E
:1049900020500020CC4E0020804F0020D04F00201F
:1049A00048650020F0B50C4685B04969206923F0C0
:1049B000DFF9B0B1684615F007F89FED3D7AD4ED08
:1049C000067A2369029367EE877A9FED3A7A6369E4
:1049D0000393F0EEE76AF4EEC76AF1EE10FA6D4663
:1049E00001DB042055E094F82030FDEEE77A062B39
:1049F000CDED017A4FD19DF8003043F001038DF8E1
:104A00000030D4ED037A9FED2C7A9DF800302B49CD
:104A1000F0EEE77AF4EEC77AF1EE10FA4CBF6FF3DE
:104A2000410343F0020328468DF8003015F0DEF90B
:104A30000028D6D1D4ED017A214CFDEEE77A17EEAD
:104A4000903A13F0010F05D142F6EC43E2581D4BAA
:104A50009A42C6D102221B4919481B4E0DF094F808
:104A600095E80F0086E80F0044F29807E35DDA0747
:104A70000BD544F2640244F29C01A258605852687B
:104A80006FF3000302446250E3550D4802F002FE4A
:104A9000002005B0F0BD0B2B04D19DF8003043F091
:104AA0000403ACE7052BACD0002B9AD1A9E700BFDB
:104AB0000000C842FEFFFF4A000000345868002092
:104AC000E027002088540020786800208B8BC02BC2
:104AD00001D1FFF767BF3DF09DBF0000F8B500F5BD
:104AE000E954083494F84D306FF3000384F84D30E6
:104AF00006465EF07FFC1E4A1368C31AB3F57A7F40
:104B000005460BD906F5215730371060002138468D
:104B10003EF042FB032138463EF03EFB154A136847
:104B2000EB1A142B0ED906F521573037384615608D
:104B30003DF078FE38463EF01DFF06F59A501830DD
:104B40002BF0B8FD0C4A136841F28831EB1A8B4206
:104B500007D906F5215015600621084A303037F094
:104B60002BFD94F84D3043F0010384F84D30F8BD2F
:104B7000D0270020D4270020CC2700206CC80C08A8
:104B800010B52DED028B00F5035088B038300C467F
:104B900011F08AFCF0EE607A8DED020ACDED030A89
:104BA000F1EE400AB1EE670A8DED041AB1F054F946
:104BB00002A8B0EE408A25F02FFE049BDFED0A7AB2
:104BC0000793012368EE277A01930C23009305AA2B
:104BD000A8212046CDED057A8DED060A38F034FC8B
:104BE00008B0BDEC028B10BDE02E6542272938B518
:104BF00004462ED007D81E291AD0242938D01929C6
:104C000059D1012038BD3A2941D03B294ED038290D
:104C100051D1007C39F068FA0546207C38F0D6FB8B
:104C2000253585420EDA217C25484AF0A3FFE8E7C6
:104C3000007C39F059FA0546207C38F0C7FB08356E
:104C4000854201DB002038BD217C1E4804F0B4FF02
:104C5000D7E7007C39F048FA0546207C38F0B6FBEF
:104C600011358542EEDA217C174831F0A5FAC8E704
:104C7000007C39F039FA0546207C38F0A7FB0B356B
:104C80008542DFDA217C0F48FFF77AFFB9E7007C25
:104C900039F02AFA0546207C38F098FB0F3585421A
:104CA000D0DA217C0748FFF75FFDAAE7017C0748BF
:104CB00059F0B6FCA5E72046BDE838403CF060BF9F
:104CC000D0660020E0270020D85C00204865002046
:104CD00000207047C82070470120704700207047AF
:104CE0000020704770B54FF4F8700D46164615F069
:104CF000EFF83246044629463DF03EFF014B236063
:104D0000204670BD88C80C0808B590F878309942E4
:104D100008DD32F06BF800224FF4802132F052F8B7
:104D2000002008BD00EB8100C06F08BD08B590F8F9
:104D30007830994208DD32F059F800224FF4802192
:104D400032F040F8002008BD00EB8100C06F08BDC4
:104D50002DE9F0419A4B1D6804466DB195F8383144
:104D6000012B09DC142202FB035393F915301BB10C
:104D7000836843F0100383601AF0DCFC90F8203263
:104D800090F8D6220646DB0122B1C21892F8912093
:104D9000012A03DC334493F891303BB1A36843F01C
:104DA0002003A360E36843F02003E3602DF022FAC0
:104DB000804620B190F90530002B40F0DA80814820
:104DC00004F0F6FD18B1A36843F48013A3607D4896
:104DD0000BF0D8FB18B1A36843F40003A3608DB1B6
:104DE00095F8381101290DDC142303FB015393F9C5
:104DF00015303BB1284613F0EDFB18B1E36843F0E2
:104E00001003E3606F4804F039FE18B1E36843F41F
:104E10008013E360A3686B4F43F4F843A36042F64A
:104E2000EC43F85803681B6898470138162818D8CF
:104E3000DFE800F07F870CA887878787177F7F7F51
:104E40007F7F7F17878787877F87A80042F6640365
:104E5000FB5C002B75D042F66502BA5C002A00F0BC
:104E6000928096F8201296F8D622CB0122B1F21841
:104E700092F89120012A0ADC334493F89130022BF6
:104E800005DD30461AF012FC002840F08E80B8F1A3
:104E9000000F07D0D8F8003023B198F80430DB07B2
:104EA00000F1AB802DB1284613F058FC002840F0EB
:104EB0008180444804F0A6FE18B9236943F48013A6
:104EC0002361A36843F48033A360E36843F4803331
:104ED000E3605EF08FFA42F61853FB58C01AC728F9
:104EE0009EBF236943F48033236143F66453FB5C24
:104EF000012B28D0022B2FD0334B1D682DB1192147
:104F000028462FF051FC002860D12E480BF03AFBC8
:104F1000002877D046203FF083FE002872DAE3684D
:104F200043F40003E360236943F400032361BDE815
:104F3000F0812369E26843F4E04342F4E042E26036
:104F4000236101231FE0A36843F48003A360E368A7
:104F500043F48003E360CFE7A36843F48003A360D6
:104F6000E36843F48003E360236943F4800323612F
:104F7000C2E7A36843F04003A360E36843F0400343
:104F8000E3601CE70023E16841F48062E26022698B
:104F900042F480602061002B3FF463AF41F4406134
:104FA00042F44062E16022615BE7236943F0200341
:104FB00023616CE7236943F01003236179E700BFA5
:104FC000A46B0020E0270020906C0020A36843F42D
:104FD0008073A36041F28543FB561BB1E36843F441
:104FE0008073E360192128462FF006FC00288CD03E
:104FF000236943F48073236187E7236943F0400307
:1050000023614FE7BDE8F081F0B543F22C4393B044
:10501000C35807EE903A43F23043F8EEE77AC358AC
:10502000CDED007A07EE903A00F58346F8EEE77A88
:1050300020360446002530460295CDED017A08F071
:10504000FDFF50B944F26C23E35C002B00F0A68016
:1050500096F8F5309A0740F1A18044F2D4139FED01
:10506000500AE0583C3025F0F5FC8DED030AB0EE17
:10507000410ACDED040A8DED051A22F0FFFB8DEDFE
:10508000020A30460DF034F804F5E955083540B908
:10509000304608F0D3FF20B96946284634F030FB8B
:1050A00021E044F2D4130DF1380EE35854330FCB02
:1050B0000AAF8EE80F000DF1180E8EE80F0087E89A
:1050C0000F0002AB01AA6946704624F0D5FB9FEDA4
:1050D000340A684625F052FC44F21C336A46E15813
:1050E000284634F075FB304608F0A8FF38B944F282
:1050F0006C23E35C5BB396F8F5309B0727D544F24D
:10510000D416A05903689B689847072100F138021C
:10511000284634F0C7FDA0590368DB68984708218A
:1051200000F13802284634F0BDFDA05903681B6920
:105130009847092100F13802284634F0B3FD44F2C3
:10514000D8130A21E2582846603234F0ABFD04F54A
:105150001B5228462C32C82134F0A4FD04F51E52FF
:1051600028462032C92134F09DFD04F51F522846FF
:105170003032CA2134F096FD04F52152CC21284664
:1051800034F090FD11F026FF11F018FF284634F09E
:1051900003F9284634F094F913B0F0BD029570E796
:1051A0009F0CB34510B5012104460CF0BDFD20B1A4
:1051B0002046BDE81040FFF727BF10BD7FB50E2584
:1051C00004462A460E4668460021B3F097FAA32308
:1051D0008DF8003095238DF8013002238DF80230D0
:1051E0005EF010F943F23E43CDF8030004F5E950B8
:1051F000CDF80710E35A8DF80B602A46694608304F
:10520000ADF80C3031F008FF04B070BD70B5312638
:105210008EB004463246002101A8B3F06FFAA323F2
:105220008DF8043095238DF8053001238DF8063074
:105230005EF0E8F804F54E5342F660153C33CDF8C5
:1052400007001B686059CDF80B10CDF80F300368CC
:105250001B699847ADF81300605903689B6898472D
:1052600042F63C53ADF81500E35A6059ADF81730DB
:1052700003685B69984710EE103A6059CDF8193011
:1052800003689B69984710EE103ACDF81D3004F57D
:105290003453303304F5E9501B68CDF8213044F223
:1052A00090033246E358CDF8253044F2940301A927
:1052B000E358CDF8293044F28C030830E358CDF898
:1052C0002D3042F62C53E358CDF8313031F08EFEBC
:1052D0000EB070BD30B5162587B004462A460021B1
:1052E0006846B3F00BFAA3238DF8003095238DF8B0
:1052F000013005238DF802305EF084F8CDF803000C
:105300002046CDF8071004F085FE04F550532033F5
:105310008DF80B001B680393144B1B68986C90F876
:105320009C308DF8103003689B69984743F2054321
:105330008DF81100E35C8DF8123021F039F921F07D
:1053400021F843F21C438DF81300E35C8DF8143010
:1053500043F2064304F5E950E35C8DF815302A4624
:105360006946083031F042FE07B030BDD827002032
:1053700070B500F58255103586B0064619212846CD
:105380002FF008FA042847D1192128462FF014FAE3
:105390000446182200216846B3F0B0F9A3238DF823
:1053A000003095238DF8013004238DF802305EF033
:1053B00029F807EE904A9FED197ACDF80300F8EE30
:1053C000677ACDF8071067EE877A192117EE903AC1
:1053D0002846CDF80B302FF0F7F907EE900A9FED35
:1053E000107AF8EEE77A06F5E95067EE877A182228
:1053F00017EE903ACDF80F3041F6D4536946F35C7E
:105400008DF8133006F5EE53043308301B6805930E
:1054100031F0ECFD06B070BD0024BAE70AD7233C9A
:105420006F12833A30B5152487B022460546002115
:105430006846B3F063F9A3238DF8003095238DF807
:1054400001300B238DF802305DF0DCFFCDF8030056
:105450000420CDF807103FF0E3FBADF80B0013205C
:105460003FF0DEFBADF80D0046203FF0D9FBADF874
:105470000F0020463FF0D4FBADF8110003203FF0B1
:10548000CFFBADF8130005F5E95022466946083018
:1054900031F0ACFD07B030BD38B500F5E954083443
:1054A0000546204633F0D4FA204633F033FB05F5A9
:1054B000965393F9003013B1204633F0B1FB2846E0
:1054C000BDE83840FFF7AEBF10B503210446FFF733
:1054D00075FE42F6EC43E05803681B68984742F6B5
:1054E000F043014604F5E950E25C083031F06CFF0E
:1054F00004F50350383012F053F904F14000BDE8D0
:10550000104019F05DBB000000F5E950AA220249E5
:10551000083031F0CFBD00BFD4C90C0830B58BB016
:105520000AA90446002300F5035041F8243D1D2537
:10553000383010F03FF92A46002102A8B3F0DEF817
:10554000A3238DF8083095238DF809305DF05AFFBC
:1055500043F22C43CDF80B00E35AADF8133042F27E
:1055600008134620E35AADF8153043F23043CDF826
:105570000F10E35AADF8173042F20C13E35AADF8AE
:1055800019303FF04DFBADF81B0015203FF048FBF4
:1055900042F66413ADF81D00E05803689B68984715
:1055A000ADF81F0004F5E950019BCDF821302A46E3
:1055B00002A9083031F01AFD0BB030BDB0F900304F
:1055C0009FED097A01805B1A07EE903AF8EEE77AD0
:1055D000F0EEE77AF4EEC77AF1EE10FA4CBF012153
:1055E00000212DF0B9BC00BF0000003490F900206C
:1055F0008A4203D0017001212DF0AEBC704700003B
:10560000F8B5044642F01AFA04F1200058F092FE70
:105610001049114F04F1600042F0C0FA04F1940007
:105620003EF0A0FF0D4BC4F8943004F1A80600250D
:1056300070193EF0F5FA77512835B5F5207FF7D18E
:1056400004F54A703FF0D6FD204605492EF0DCFBFC
:105650002046F8BDC04500202C130D0840130D084E
:1056600030F70C082DE9F041734C744F94E80F00AB
:105670008AB0103402AD85E80F0094E80F0006AE42
:1056800086E80F00304601A93C682DF0B7FF3E4682
:10569000002800F091809DF90430002B00F08C80F0
:1056A000237F132B40F0888094F84430152B40F072
:1056B000838004F11C0738462DF00CFD00287BD1B7
:1056C00004F1440840462DF005FD002874D15C4BE0
:1056D0009DF904201B685B49586B03681B68984759
:1056E0009DF90430013B072B0FD8DFE803F0042BB2
:1056F0003234042B3234002104F11A00FFF776FF14
:10570000002104F14200FFF771FF9DF90430042BE2
:1057100023DC50213846FFF751FF4F214046FFF769
:105720004DFF002430682044037A122B40D104211D
:105730000830FFF743FF1434B4F5A07FF2D10AB06C
:10574000BDE8F081002104F11A00FFF74FFF0121AD
:10575000D7E70121D0E70121F5E74F213846FFF7D0
:105760002DFF5021DAE7002104F11A00FFF73EFF78
:105770000021A01DFFF73AFF9DF90030042B11DC3A
:105780004E212846FFF71AFF4D213846C7E7002172
:1057900004F11A00FFF72AFF0121EAE70121E3E7FC
:1057A0000121F5E74D212846FFF708FF4E21ECE7E0
:1057B000142BC0D11321BBE7694628462DF01EFFEC
:1057C0000028AED09DF90030002BAAD0237A042BFC
:1057D000A7D1237F132BA4D104F1080528462DF06F
:1057E00079FC00289DD104F11C0738462DF072FC8D
:1057F000002896D1124B9DF900201B681249586B66
:1058000003681B6898479DF90030013B072BB3D80C
:1058100001A252F823F000BF675701088F57010813
:105820009D570108A1570108675701088F570108C4
:105830009D570108A15701087CBA0C08E8740020A4
:10584000D8270020D4F80C08F0F80C082DE9F04116
:1058500004462DF071F8334D40B92B683249586B2E
:1058600003681B68984731485DF0A4FD41F2C836D3
:10587000A71938462EF03EFA00283FD0A35F0D2B23
:105880003CD15DF0B5FD06462EF0BAF90022232189
:1058900027482DF075FF042100203FF087FC1321DD
:1058A00001203FF083FC462102203FF07FFC1521C0
:1058B00003203FF07BFC3FF0E3FA2046FFF7D2FEE7
:1058C00044F23023E35623B19FED1A0A1A482EF012
:1058D00095FC1A4B00221A80194A138843F00403DE
:1058E00013802B685C6B23681D685DF081FD2B467F
:1058F000821B14492046BDE8F04118472E68124922
:10590000706B03681B6898473FF052FD2CF0A8FCB1
:1059100038460D21FFF752FE706B0C4903681B6877
:105920009847AEE7D82700200CF90C0821F90C089D
:1059300000F50C080000964335F90C08766C002041
:10594000786C002045F90C0859F90C087DF90C0811
:10595000002343608360C3600361436100230376D7
:105960007047000010B50446FFF7F2FF002363768E
:1059700010BD0000027E531CDBB2042B037600EB4B
:10598000820288BF002382ED010A88BF0376704738
:1059900010B50446FFF7EEFF637EDFED0C7A042BB3
:1059A00094BF01330523637604F11802231D93424B
:1059B00004D0B3EC017A77EE877AF8E7637E00EEE5
:1059C000103AB8EEC00A87EE800A10BD0000000051
:1059D00003F0FABD02F012BE03F066BB02F020BE77
:1059E00000F0F2BF00F0AABE00F0A6BF01F0E4B8DC
:1059F000FCF728BDFCF7F6BA70B5164B036043F60A
:105A000084730446C5582DB128461EF0F3FD284680
:105A100014F064FA42F670030F4AE25042F618138B
:105A2000E05808B114F056FA0C4B236004F5965078
:105A300040F0D6FA0A4BC4F8303904F6D44604F5DF
:105A40005165AE4204D0143D284636F07BF8F8E7A5
:105A5000204670BD50C30C08C0C50D0834110D0898
:105A6000AC7D0D0838B50546244B45F8083B044687
:105A7000203047F0BBFE224B22491D6028462EF005
:105A8000C3F904F1400018F09FF904F5467012F0D4
:105A9000BBFE04F23C4016F04DFB04F513601FF012
:105AA000B5FB04F58150103041F0C8FF04F5825079
:105AB00010302EF089FD04F5965040F07DFA04F583
:105AC00097500C302FF064FD04F59A5043F072FEAD
:105AD00041F248330021E218E15404F59A500A4B90
